:10000000A05D002055010000F9010000F901000089
:1000100000000000000000000000000000000000E0
:10002000000000000000000000000000F9010000D6
:100030000000000000000000F9010000D1120000E3
:10004000F9010000F9010000F9010000F9010000C8
:10005000F9010000F9010000F9010000F9010000B8
:10006000F901000081140000F9010000F90100000D
:10007000F90100000000000000000000F90100008C
:1000800000000000F9010000F9010000F901000082
:10009000F9010000F9010000F9010000F901000078
:1000A000F9010000F9010000F9010000F901000068
:1000B000F9010000A9050000F90100000448054B02
:1000C00010B5834203D0044B002B00D0984710BDDD
:1000D0007CDD00007CDD00000000000006480749D0
:1000E000091A8B10C90FC91810B5491003D0044B59
:1000F000002B00D0984710BD7CDD00007CDD0000A7
:100100000000000010B5074C2378002B09D1FFF741
:10011000D5FF054B002B02D0044800E000BF0123AF
:10012000237010BDF0060020000000007CDD000000
:10013000054B10B5002B03D00449054800E000BF73
:10014000FFF7CCFF10BDC04600000000F406002001
:100150007CDD000080B582B000AF1C4B7B601C4B87
:100160003B607A683B689A420CD007E07A68131DBE
:100170007B603B68191D396012681A603A68154B3C
:100180009A42F3D3144B3B6004E03B681A1D3A607B
:1001900000221A603A68114B9A42F6D3104B7B60EA
:1001A0007A68104BFF218A439A600F4B002B01D0D5
:1001B0000D4B98470D4B98470D4B002B01D00C4B26
:1001C00098470C4B9847C046FDE7C0467CDD0000D1
:1001D00000000020F0060020F0060020A03D0020D6
:1001E0000000000000ED00E0000000001D3F0000E6
:1001F000000000000102000080B500AFC046FDE72E
:10020000B0B588B004AF674B06225A60664B98477A
:10021000664B9847664B9847664B9847664B98479E
:10022000664B9847664B9847664B9847664B98478E
:10023000664B9847664B181C664B9847664B1B6885
:10024000664C674A654967480093231C664CA04783
:10025000664B1A68664B1B68FE24A405FE218905BF
:1002600064480093231C604CA047634B1A685B4CA6
:100270005A496248624B0093231C5B4CA047002301
:10028000FB6000237B600023BB60BB1CF6221A804E
:100290005C4BFB60BB1C1B8818005B4B98475B4B9F
:1002A0009847C0465A4B1B78DBB201225340DBB261
:1002B000002BF7D1574B9847574B9847574B9847C8
:1002C000574B9847574B1868454C80239A0045492F
:1002D0004B4B0093231C544CA047021C534B1A60F9
:1002E000504B18683E4C80239A004249444B00937F
:1002F000231C4D4CA047021C4C4B5A60494B1868BC
:10030000374C80239A003D493D4B0093231C464CBB
:10031000A047021C454B9A60444B186859689A687C
:10032000434B9847031C7B60424B7968F8689847B9
:10033000031CBB60404BB8689847404C404A414B57
:10034000A047031E01D0404BBB60404B2349B86817
:100350009847031E01D0214BBB60BC1CBB68181C16
:100360003B4B984703002380BB1C1B881800264B7F
:100370009847BB68FB602B4B1A682F4B101C9847A3
:1003800004000D002C4BB868984702000B00B91C04
:100390000988304802910092019322002B002E49D7
:1003A00088477CE700400041790E000039120000C8
:1003B000A5120000ED130000650E0000651200009C
:1003C0008904000075080000F1120000911200007D
:1003D0000000C44205090000240A0020000020405B
:1003E000000020C24C0A0020B10A0000280A0020A8
:1003F0002C0A00204C120020300A00204C1A002049
:100400000000F04279E6193FCD0800000D0500001C
:100410000D0800207105000061060000F1060000D3
:100420003108000010080020410B0000340A0020B1
:10043000AD0C000081310000593900003126000068
:10044000333333333333E33F9A99193FCD260000DA
:100450009D0D0000DCD10000313C000080B500AFF4
:10046000084B01221A77C046064B1A6A8023DB002C
:100470001A408023DB009A42F6D0C046C046BD46F3
:1004800080BDC046004C004280B500AF1D4B01222C
:100490001A70C0461B4B1B6A01221340012BF9D076
:1004A000184B194A5A80174B81225A70154B00225B
:1004B0005A72144A28230021D154124A2C23402175
:1004C000D154104B0722DA710E4B01229A720D4B58
:1004D0001B78DBB20B49402252421343DBB20B7054
:1004E000084B1B78DBB2074A02210B43DBB21370C7
:1004F000C046044B1B6A002BFBD1C046C046BD461C
:1005000080BDC046004C00420124000080B500AF11
:10051000144B00221A70144B00221A70134B1B78D4
:10052000DBB2124A02210B43DBB21370C0460F4B01
:100530001B6A002BFBD10D4B02221A77C0460B4BD6
:100540001A6A8023DB001A408023DB009A42F6D02F
:10055000064B01229A71054B02229A71C046BD4694
:1005600080BDC0460C0800200D080020004C004251
:1005700080B500AF0A4B98470A4B1B78DBB2094A9B
:1005800002218B43DBB21370C046064B1B6A02226A
:100590001340022BF9D0C046C046BD4680BDC046C0
:1005A0005D040000004C004280B582B000AF002323
:1005B0007B601E4BDB79DBB21A000223134005D0AF
:1005C0001A4B0222DA711A4B98472BE0174BDB7952
:1005D000DBB21A000123134024D0144B0122DA713C
:1005E000124B5B6A1B0A7B60124B1B78DBB21A0052
:1005F0007B6819B2104B5200D1520E4B1B78DBB204
:100600000133DAB20B4B1A700A4B1B78DBB2802B2A
:1006100008D1084B00221A70084B01221A70034BB4
:1006200001225A71BD4602B080BDC046004C004256
:100630005D0400000C0800200C0700200D080020BD
:1006400080B582B000AF78607B68181C034B984778
:10065000031C181CBD4602B080BDC046C915000071
:1006600080B582B000AF00237B601BE0184B7A6836
:100670005200D35A1AB2174B10009847164B5A68BB
:10068000164B111C9847031C1A1C154B1549101CBE
:100690009847031C191C144B7A689200D1507B6850
:1006A00001337B607B687F2BE0DD0F4B1B685B00B9
:1006B0005A080E4B5A600C4AFE235B00D3585B006D
:1006C0005A080A4B9A60C046BD4602B080BDC0467B
:1006D0000C0700207136000000000020DD2E000015
:1006E000412B000000FEFF462008002010080020DB
:1006F00080B582B000AF154B00221A6000237B60EA
:1007000011E0124B1868124B7A689200D3585B00C4
:100710005A08104B111C9847031C1A1C0B4B1A60EB
:100720007B6801337B607B687F2BEADD074B1A68AF
:10073000094B8621C905101C9847031C1A1C034B42
:100740001A60C046BD4602B080BDC04610080020F9
:100750002008002025270000412B000090B58BB019
:1007600000AF78607B687B62294B9A68294B796A75
:10077000101C9847031C1C1C254B1A68264B796AD1
:10078000101C9847031C1A1C244B111C201C984752
:10079000031C3B623B6A181C214B98471C4B1A698F
:1007A0001C4B111C9847031CFB613B6A181C1C4B1B
:1007B0009847031C1B4A111C181C1B4B9847144BD1
:1007C0005A69144B111C9847031CBB61104BDA6823
:1007D000164BF969101C9847031C1A1C134B111C6B
:1007E000B8699847031C7B610C4B7969FE20800532
:1007F0009847031C3B61064B9A69074B111C3869EB
:100800009847031CFB60FB68181CBD460BB090BDED
:1008100000000020DD2E000081310000412B00008F
:10082000410600000000404021160000252700007E
:1008300080B500AF0D4B1B68181C0D4B9847021C70
:100840000A4B1A60094B5B68181C094B9847021C3D
:10085000064B5A60054B9B68181C054B9847021CB9
:10086000024B9A60C046BD4680BDC04610080020BD
:100870005D07000080B500AF134B01221A70C0461F
:10088000114B1B6901221340012BF9D00E4BA12201
:100890005A700D4B00229A700B4B00221A81C046F1
:1008A000094B1B6902221340022BF9D0064B42224E
:1008B0001A70C046044B1B6902221340022BF9D068
:1008C000C046C046BD4680BD0054004280B582B0DF
:1008D00000AF0200BB1D1A80094ABB1D1B889B0488
:1008E0009B0C9BB21381C046054B1B69042213402D
:1008F000042BF9D0C046C046BD4602B080BDC046FC
:100900000054004280B582B000AF7860184B7A681E
:100910001A60174B1A68174B8221C905101C98479B
:10092000031C1A1C144B1A60114B1A68114B134903
:10093000101C9847031C1A1C114B1A600C4B1A68A8
:10094000104B0E49101C9847031C1A1C0E4B1A60C2
:10095000074B1A680B4B8221C905101C9847031CD2
:100960001A1C0A4B1A60C046BD4602B080BDC04684
:10097000200A002081310000240A00200AD7A33C6D
:10098000280A0020252700002C0A0020300A002019
:1009900090B58DB000AFF860B9607A603B6000231D
:1009A0007B6200233B620023FB620023FB61002388
:1009B000BB610023BB6200237B61374B7968F86819
:1009C0009847031E28D0354B7968F8689847031C70
:1009D0007B62334B796A786A9847031C1A1C802320
:1009E0001B0653401C002E4BB968B8689847031C7F
:1009F0001A1C2C4B111C101C9847031C1A1C2A4B48
:100A0000111C201C9847031C3B623B6A181C274B97
:100A10009847031CFB6202E0FE239B05FB621E4B12
:100A2000396CF8689847031E03D0FE239B05BB6210
:100A300027E01A4B396CF8689847031CFB61184B88
:100A4000F969F8699847031C1A1C80231B06534058
:100A50001C00134B396838689847031C1A1C114B4B
:100A6000111C101C9847031C1A1C0F4B111C201C36
:100A70009847031CBB61BB69181C0C4B9847031CAF
:100A8000BB62074BB96AF86A9847031C7B617B69B4
:100A9000181CBD460DB090BDB92600008131000084
:100AA000DD2E000025270000412B000075150000F9
:100AB000B0B58AB002AFF860B9607A603B600023DD
:100AC000BB6100237B61184BBB610023FB6121E00C
:100AD000164BF8699847021C154BB969101C9847CA
:100AE000031C1A1C134B1449101C9847031C7B61F0
:100AF000FB699B00FA68D4183D687A68B968786920
:100B00003B6B00932B1C0D4DA847031C2360FB6916
:100B10000133FB61FA6980239B009A42D8D3C04617
:100B2000C046BD4608B0B0BD2850A03E713600009A
:100B3000DD2E0000813100000000204291090000FC
:100B400090B58BB000AFF860B9603B60BB1D1A80F8
:100B500000237B6200233B620023FB610023BB6117
:100B600000237B6100233B61494B3968B86B984790
:100B7000031C1C1CBB1D00229B5E5A1E454B100013
:100B80009847021C444B111C201C9847031C7B6295
:100B90003F4B3968F8689847031C1A1C3E4B796A2A
:100BA000101C9847031C1A1C3C4B101C9847030050
:100BB0003B623B6A002B02DABB681B6863E0BB1D2B
:100BC00000229B5E013B3A6A9A420ADBBB1D00226F
:100BD0009B5E334A944663449B00BA68D3181B68F3
:100BE00051E02C4B386A9847021C2E4B796A101C36
:100BF0009847031C1A1C2C4B111C38689847031C7F
:100C0000FB613B6A5A1C234B10009847021C254B82
:100C1000796A101C9847031C1A1C234B111C386856
:100C20009847031CBB613B6A9B00BA68D3181B68DA
:100C30007B613B6A01339B00BA68D3181B683B6138
:100C4000134BF969F8689847031C1C1C104B796911
:100C500038699847031C1A1C124B111C201C98471A
:100C6000031C1C1C0A4BF969B8699847031C1A1C21
:100C7000094B111C201C9847031C1A1C0A4B79694C
:100C8000101C9847031C181CBD460BB090BDC046F5
:100C90008131000071360000412B00003136000028
:100CA000FFFFFF3FDD2E000025270000B0B58EB00E
:100CB00000AF3B1D186059609A6020243B19180052
:100CC0000C231A0000212E4B984714257B1918007D
:100CD0000C231A0000212A4B984700237B63002332
:100CE0003B633B1D1A683B191A607B19254A1A6041
:100CF0003B1D5A683B195A607B1900225A603B1D04
:100D00009A683B199A607B191F4A9A600023FB621C
:100D100021E020243B19FA6A9200D0581423FB18D2
:100D2000FA6A9200D258194B111C9847031C1A1CDE
:100D3000174B111C786B9847031C7B633B19FA6AAD
:100D40009200D258124B111C386B9847031C3B631E
:100D5000FB6A0133FB62FB6A022BDADD0D4B0021DB
:100D6000386B9847031E01D0002304E00A4B396B0F
:100D7000786B9847031C181CBD460EB0B0BDC0462A
:100D8000D13D00003333F33E3333F3BEDD2E00009C
:100D90002527000099260000412B0000B0B584B043
:100DA00000AF7860204B214978689847031E01D036
:100DB0001E4B7B601E4B786898471E4C1E4A1F4B8B
:100DC000A047031E01D01E4B7B601E4B1E49786856
:100DD0009847031C1A1C1D4B1449101C9847031CF0
:100DE000181C1B4B9847021C0E257C19194B101C14
:100DF0009847030023807B191B88174A934202D827
:100E00007B19164A1A800E217B181A888023DB0171
:100E10009A4202D37B18124A1A800E23FB181B88B1
:100E20001800BD4604B0B0BDCD2600000000204033
:100E30005939000031260000333333333333E33F75
:100E40009A99193FDD2E000000FC7F46412B0000DF
:100E5000E9160000F52600005B0F00005C0F0000A3
:100E6000FF3F000080B500AF024B84225A60C046AD
:100E7000BD4680BD0040004180B500AF8223DB0548
:100E80004222012199548223DB0531220121995408
:100E90008223DB0504229A608223DB054422FD21A4
:100EA00099548223DB053222012199548223DB05E8
:100EB0004622012199548223DB05332201219954D2
:100EC0008223DB0520225A608223DB0540225A6000
:100ED0008223DB054822412199548223DB054922E4
:100EE000012199548223DB05342222219954822343
:100EF000DB05802252009A608223DB05802292006B
:100F00005A608223DB055022412199548223DB055C
:100F10005122412199548223DB05522241219954C7
:100F20008223DB053822332199548223DB053922C1
:100F3000032199548223DB05802252029A60822386
:100F4000DB05802292029A608223DB058022D20296
:100F50009A608223DB054022042199548223DB0519
:100F60004122042199548223DB054722042199540C
:100F70008223DB054A22042199548223DB054B227C
:100F8000042199548223DB054E22042199548223A3
:100F9000DB054F22042199548223DB0553220421CF
:100FA00099548223DB055622042199548223DB05C0
:100FB0005722042199548223DB0558220421995495
:100FC0008223DB055922042199548223DB055B220D
:100FD000042199548223DB055C2204219954C046E4
:100FE000BD4680BD80B582B000AF0200FB1D1A7007
:100FF000FB1D1B787F2B09D8FB1D1B781A001F23B4
:101000001A40044B012191400A001A60C046BD46B7
:1010100002B080BD00E100E090B583B000AF0200F7
:101020003960FB1D1A70FB1D1B787F2B28D82F4AB7
:10103000FB1D1B785BB29B08C0339B009B58FA1DBD
:101040001278110003220A40D200FF2191400A00C9
:10105000D2431A4011003B689B01FF221A40FB1D3E
:101060001B78180003230340DB009A401F48FB1D38
:101070001B785BB29B080A43C0339B001A5031E0D7
:101080001B4AFB1D1B7819000F230B40083B9B08D4
:1010900006339B00D31804331B68FA1D1278110025
:1010A00003220A40D200FF2191400A00D2431A4095
:1010B00011003B689B01FF221A40FB1D1B781800A2
:1010C00003230340DB009A400948FB1D1B781C00EA
:1010D0000F232340083B9B080A4306339B00C31899
:1010E00004331A60C046BD4603B090BD00E100E085
:1010F00000ED00E080B582B000AF154B1A685B6868
:10110000580A0023190003009B029B0A7B60114BC5
:101110007A689A630F4B00225A75C0460D4B9B6943
:1011200004221340042BF9D0C0460A4BDB6810227E
:101130001340102BF9D1074B1B7DDBB205498022F0
:1011400052421343DBB20B75C046BD4602B080BDB0
:10115000206080000010004080B500AF074B832264
:1011600052001A62C046054B5B6804221340042BF0
:10117000F9D0C046C046BD4680BDC046001C0040F8
:1011800080B500AF064BEF2252005A61044B01229A
:101190009A61034B034ADA61C046BD4680BDC04632
:1011A000000800401280280080B500AF214ACC23FF
:1011B0004021D150C0461F4ACC23D358402213406F
:1011C000402BF8D11B4AD8234021D150C046194AA0
:1011D000D823D35840221340402BF8D1154A8623F8
:1011E0005B004021D150C046124A86235B00D35891
:1011F00040221340402BF7D10E4A88235B00402148
:10120000D150C0460B4A88235B00D358402213407C
:10121000402BF7D1074AFC234021D150C046054A54
:10122000FC23D35840221340402BF8D1C046C0467F
:10123000BD4680BD001C004080B500AF054B9847FF
:10124000054B9847054B9847054B9847C046BD4608
:1012500080BDC046F510000059110000811100004A
:10126000A911000080B500AFBFF35F8FC04662B622
:10127000C04600211D20044B98471D20034B984772
:10128000C046BD4680BDC04619100000E50F0000F5
:1012900080B500AFBFF35F8FC04662B6C046C046A0
:1012A000BD4680BD80B500AF074B00221A60064BDB
:1012B000064A5A60044B00229A60034B07221A60C8
:1012C000C046BD4680BDC04610E000E07FBB0000C8
:1012D00080B500AF054B1B68002B04D0034B1B6887
:1012E0005A1E024B1A60C046BD4680BD4C3A0020D3
:1012F00080B500AF0C4B01221A60C0460A4B1B6937
:1013000001221340012BF9D0074B8022D2001A6032
:10131000054B33229A72C046034B1B69002BFBD14D
:10132000C046C046BD4680BD003C004280B586B088
:1013300000AFF860B9607A6000237B6109E07B69E7
:10134000BA68D3181B781800064B98477B6901339D
:101350007B617A697B689A42F1DB7B681800BD4645
:1013600006B080BD3914000080B584B000AFF860CD
:10137000B9607A6001231800BD4604B080BD80B515
:1013800082B000AF786001231800BD4602B080BD76
:1013900080B582B000AF7860396001231800BD4687
:1013A00002B080BD80B582B000AF78600123180024
:1013B000BD4602B080BD80B584B000AFF860B960B2
:1013C0007A6001231800BD4604B080BD80B582B0AC
:1013D00000AF7860396001231800BD4602B080BDBF
:1013E00080B500AF01231800BD4680BD80B500AFB9
:1013F0000E4BC02292025A60C0460C4BDB69002B98
:10140000FBD10A4B0A4A1A60084B0A4A9A81074BD9
:101410001A68064B02210A431A60044B04229A758B
:10142000024B02229A75C046BD4680BD00040042B0
:10143000842112403460000080B582B000AF020009
:10144000FB1D1A70C0460D4B1B7EDBB21A00012338
:101450001340F8D0094AFB1D1B789BB21385C04688
:10146000064B1B7EDBB21A0002231340F8D0034B5D
:1014700002221A76C046BD4602B080BD000400427A
:1014800080B582B000AF334B1B7EDBB21A00042361
:10149000134045D02F4B1B8D9AB2FB1D1A70FB1DBC
:1014A0001B781B2B0DD12C4B18002C4B98472C4B29
:1014B00000221A702B4B1422002118002A4B984747
:1014C00044E0274B1B78122B1DD8254B1B781900A5
:1014D000244BFA1D12785A54214B1B780133DAB28F
:1014E0001F4B1A70FB1D1B780A2B19D11C4B1B7844
:1014F0001A001C4B002199541C4B01221A70184BE6
:1015000000221A700CE0164B00221A70144B1B7844
:101510001A00144B00219954154B18000F4B984793
:101520000C4B1B7EDBB25BB2002B0FDA0D4B14228F
:10153000002118000C4B9847094B00221A70064BEB
:101540001800064B9847034B80221A76BD4602B01E
:1015500080BDC0460004004244D200001D3D000092
:10156000643A0020503A0020D13D0000843A002027
:101570006CD2000070B5041C00F0DAF8051C201CC9
:1015800000F0A6F800280BD00D49201C01F09EF8B1
:10159000002807D10B49201C01F084F8002808D14D
:1015A000281C70BD02F0B4FCFF252223ED0503606A
:1015B000F6E702F0ADFC222300250360F0E7C04609
:1015C0001772B142B5F1CFC270B5041C00F0D4F966
:1015D000211C051C201C02F015F8002810D1002148
:1015E000201C01F073F800280AD10021201C01F012
:1015F00053F8002806D002F08BFC2223064D03602E
:10160000281C70BD02F084FC21230360034800F015
:1016100067F8051CF4E7C046000080FF20D60000F4
:1016200070B50C1C061C00F0EDFA211C051C201CDA
:1016300001F0E8FF00280DD10021301C01F02CF84A
:10164000002815D00021201C01F026F8002803D026
:10165000FE25AD05281C70BD201C00F039F80028BF
:10166000F8D00021201C01F01DF80028F2D025E060
:10167000281C00F02DF8002810D00021281C01F0B3
:101680000BF80028E6D0301C00F022F80028E1D04A
:10169000201C00F01DF80028DCD00FE0301C00F00A
:1016A00017F80028E9D0201C00F012F80028E4D038
:1016B000291C281C01F0A6FF002804D102F028FCF8
:1016C00022230360C6E702F023FC21230360C1E765
:1016D000FF234000DB0540089842804140427047AC
:1016E000004870470000C07F43001B0E7F3B10B5D1
:1016F000021C162B0BDC002B0FDB0C49194101429D
:1017000004D08020C00318418018884310BD802B6E
:10171000FCD1011C01F006F8F8E7C00FC007013347
:10172000F4D1FE239B051843F0E7C046FFFF7F007E
:10173000F0B5FF22D6464F46464643000100C0B5ED
:10174000041C5B08D20593426AD8C60F934200D1AD
:10175000C3E0794A904200DDB3E0002800DAB4E04B
:10176000764A934263D9764A934200D9C1E0754BD9
:10177000B500E958201C01F003FD734B071CEB5822
:10178000012598467540AD1B4146381C01F0F8FC18
:10179000011C041C01F0A2FB6C49061C01F09EFB1D
:1017A0006B4901F0EDFC311C01F098FB694900F038
:1017B000B9FF311C01F092FB674901F0E1FC311CDB
:1017C00001F08CFB654900F0ADFF311C01F086FB98
:1017D000011C201C01F0D4FC011C8246061C201CAC
:1017E00001F07CFB8146002D54D08020311CC005C7
:1017F00001F0C6FC011C484601F0A2F9011C40465C
:1018000001F0BEFC391C01F0BBFC011CFE20800570
:1018100001F0B6FC2B007D3363DBED05281801E0F9
:1018200000F080FFE0BCBA46B146A846F0BDD02229
:101830009205934209D24A49201C00F073FFFE2111
:10184000890500F043FF002870D1211C201C01F005
:1018500045FB3E49051C01F041FB3D4901F090FC70
:10186000291C01F03BFB3B4900F05CFF291C01F007
:1018700035FB394901F084FC291C01F02FFB374965
:1018800000F050FF291C01F029FB011C201C01F075
:1018900077FC82465146201C01F020FB8021051C6C
:1018A000C905504601F06CFC011C281C01F048F9E8
:1018B000211C01F065FC011CFE20800501F060FC8C
:1018C000B0E7002000F022FEACE7264A934200D8A1
:1018D00046E7002000F014FEA4E7002EA2D000206E
:1018E000A0E7D8216435ED052818090501F0F6FABE
:1018F00098E71D49201C01F0F1FA1C4BB600F15885
:1019000000F010FF01F094FE050001F0B1FE18494F
:10191000061C01F0E3FA011C201C01F031FC154902
:10192000071C301C01F0DAFA80462DE7FE21201C4E
:10193000890500F0F7FE75E71772B1421872B13EE3
:101940009115853FC8D60000C0D600004CBB31338E
:101950000EEADD3555B38A38610B363BABAA2A3E19
:10196000CAF24971B5F1CF423BAAB83FD0D60000C8
:101970008071313FD1F71737F8B5DE4657464E46EE
:1019800045464200E0B5002A46D0021E4FDBFF214B
:10199000C905884200DBC6E0802300211B04984271
:1019A00006DA9821C90501F099FA19210200494285
:1019B000D3157F3B5B1880215202540A834AFE20D4
:1019C0000904A2180A40FE2180055040D615204384
:1019D0008905F61801F0D4FB22007D4B0F32051C5F
:1019E0001A422BD1002100F057FE002800D19EE0C2
:1019F0000020002E15D0300001F03AFE7549041C7D
:101A000001F06CFA7449051C201C01F067FA011CF6
:101A1000281C00F087FE04E0CC200021000601F025
:101A20008FF8F0BCBB46B246A946A046F8BD011CE3
:101A300001F0A6FB002101F083F8F2E78021C9053F
:101A400000F070FE011C281C01F07AF8804630007E
:101A500001F00EFE41468146404601F03FFA5F4BE1
:101A6000011C9A46834601F039FA5D49071C01F0D2
:101A700035FA5C4900F056FE391C01F02FFA5A493C
:101A800000F050FE391C01F029FA584900F04AFED6
:101A9000594601F023FA56498346381C01F01EFAD4
:101AA000544900F03FFE391C01F018FA524900F089
:101AB00039FE391C01F012FAA244011C584600F00C
:101AC00031FE52464D4B071C1B1B1343002B48DDB8
:101AD000FC21281C890501F001FA291C01F0FEF9FE
:101AE000011C041C381C00F01DFE414601F0F6F9F3
:101AF000071C002E49D03749484601F0EFF9364916
:101B0000061C484601F0EAF9391C00F00BFE011CE6
:101B1000201C01F035FB291C01F032FB011C301C9C
:101B200001F02EFB7DE7011C00F0FCFD79E7344954
:101B3000281C01F0D3F9011CFC20800501F020FBDA
:101B4000291C041C281C01F0C9F9011C201C01F0EF
:101B5000C5F9041C002E21D1211C281C01F010FB0A
:101B60005FE7011C281C01F00BFB414601F0B6F9B0
:101B7000041C002EF0D04846164901F0AFF9164972
:101B8000061C484601F0AAF9C1E7011C201C01F01F
:101B9000F7FA011C281C01F0F3FA42E7300001F0CB
:101BA00067FD0C49061C01F099F90B49071C301C14
:101BB00001F094F9011C201C01F0E2FA291C01F04B
:101BC000DFFA011C381C01F0DBFA2AE720FB4A008F
:101BD000F0FF7F008071313FD1F71737305CCFFFC6
:101BE0009788173E25333A3E2549923EABAA2A3FB5
:101BF0004FD01C3E298E633ECDCCCC3E88C23500F2
:101C0000ABAAAA3EF0B557464546DE464E46E0B57D
:101C10004B0080468A4687B0051C0C1C5F08002BD1
:101C200011D18023D74ADB0343405B0093421CD988
:101C3000211C281C00F076FD07B0F0BCBB46B24664
:101C4000A946A046F0BDFF234600DB05994676086D
:101C50009E420DD9FE239B059845E9D18023C94AB0
:101C6000DB0363405B009342E2D8FE208005E3E79C
:101C70009F42EFD8B346002814DB4F4500D13DE129
:101C8000FE239B059F4200D16AE18023DB05994238
:101C900000D1B1E1FC239B05994200D0A2E100F004
:101CA0003BFCC9E79723DB059F4200D333E1FE21CC
:101CB00089058F4200D385E18023DB059C4200D15A
:101CC0009AE1FC239B059C4200D1CEE200F09CFBF4
:101CD000002300934E4500D126E1002E00D192E171
:101CE000FE239B059E4200D18DE1EB0F013B1A00C4
:101CF0000193009B134300D189E19A23DB059F42A6
:101D000000D88CE1A04B9E4200D8EFE29F4B9E4250
:101D100000D9F6E2FE21890501F032FA9C49051C42
:101D200001F0DCF89B49071C281C01F0D7F8FA21C8
:101D3000061C8905281C01F0D1F8011C964801F009
:101D40001FFA291C01F0CAF8011CFC20800501F0D3
:101D500017FA291C8046281C01F0C0F8011C4046D7
:101D600001F0BCF88D4901F0B9F8011C301C01F0FC
:101D700007FA011C061C381C00F0D4FC050B2D03CF
:101D8000391C281C01F0FCF9011C301C01F0F8F989
:101D9000009B019A013B071C134300D163E2FE261E
:101DA000B605230B1B03191C201C984601F0E8F90B
:101DB000291C01F093F8211C8146381C01F08EF893
:101DC000011C484600F0AEFC4146071C281C01F0EF
:101DD00085F8011C051C381C00F0A4FC4300041C01
:101DE0005B08002800DC50E28622D205934200D92D
:101DF000D2E200D1AEE2FC229205934200D992E2F7
:101E0000002399469846C00BC4036549201C01F085
:101E100065F8291C8246201C01F0B2F9011C381C0F
:101E200001F0AEF95F4901F059F85F49051C201C2B
:101E300001F054F8011C281C00F074FC041C011C67
:101E4000504600F06FFC5146051C01F099F9011C49
:101E5000201C01F095F9291C071C281C01F03EF8F4
:101E60005249041C01F03AF8514901F089F9211C4A
:101E700001F034F84F4900F055FC211C01F02EF818
:101E80004D4901F07DF9211C01F028F84B4900F083
:101E900049FC211C01F022F8011C281C01F070F9FA
:101EA000041C011C281C01F019F880218246C90578
:101EB000201C01F065F9011C504600F041FE391C60
:101EC000041C281C01F00AF8391C00F02BFC011C32
:101ED000201C01F055F9291C01F052F9011CFE20CB
:101EE000800501F04DF94B461B18DA15002A00DC7D
:101EF00003E2181C311C00F0F1FF9DE6FE239B0558
:101F00009E4200D1B1E636D95346201C002B00DB9F
:101F100092E6002090E64F45F0D000F075FA0223DB
:101F200000934E4500D0D8E65346002B08DA011C3A
:101F3000FE20800500F004FE4346002B00DB7BE61C
:101F40001F4B9C46009B66441E4300D170E1009BE2
:101F5000012B00D070E680231B069C4660446BE694
:101F60005346281C002B00DB66E6FE20291C80055A
:101F700000F0E6FD60E65346002BCADA80231B061C
:101F8000E01859E6000080FFF3FF7F3F0700803F25
:101F900000AAB83F70A5EC36ABAAAA3E3BAAB83F50
:101FA0000072313F1872313F8CBEBF354CBB3133AC
:101FB0000EEADD3555B38A38610B363BABAA2A3EB3
:101FC000000080C09623FA159B1A3A001A411000AF
:101FD0009840B84200D132E18F42C1D08023DB0566
:101FE0009C4209D0281C00F00FFAFF23DB059E421B
:101FF00007D00023009370E6291C281C00F06EFF18
:102000001AE6002300935346002B90DB94E7291C2B
:10201000281C01F0B5F8011C00F092FD0CE6FF232E
:10202000DB0500222B4206D19721C90500F056FF9F
:102030001822834652425B46DB157F3B99185B466C
:10204000FE265B02DD4A5B0AB60503911E439342FE
:1020500008DDDB4A934200DC5AE1DA4B01319C4651
:102060000391664400239B46059300230493FE23BB
:102070009B059A465146301C01F082F85146804635
:10208000301C00F04FFB011CFE20800500F058FDC5
:10209000011C0290404600F021FFCB4BB146761068
:1020A0001E4080239B051E438023DB039C46049B2C
:1020B00066449C46050B66442D03071C311C281CF6
:1020C00000F00CFF011C404601F05AF851468046D2
:1020D000301C01F055F8011C484601F051F8291C4C
:1020E00000F0FCFE011C404601F04AF8029900F0A5
:1020F000F5FE391C8046381C00F0F0FEB349061C82
:1021000000F0ECFEB24900F00DFB311C00F0E6FEE1
:10211000B04900F007FB311C00F0E0FEAE4900F0D2
:1021200001FB311C00F0DAFEAC4900F0FBFA311C77
:1021300000F0D4FEAA4900F0F5FA311C8146301CAB
:1021400000F0CCFE011C484600F0C8FE291C061C0D
:10215000381C00F0E7FA414600F0C0FE311C00F0E8
:10216000E1FA291C8146281C00F0B8FE9D498246F0
:1021700000F0D8FA494600F0D5FA060B3603311CB8
:10218000281C00F0ABFE9749051C301C00F0F8FF3E
:10219000514600F0F5FF011C484600F0F1FF391CE4
:1021A00000F09CFE311C071C404600F097FE011C0D
:1021B000381C00F0B7FA8046011C281C00F0B2FA67
:1021C000060B36038849301C00F088FE291C071CCA
:1021D000301C00F0D5FF011C404600F0D1FF8349C0
:1021E00000F07CFE8249051C301C00F077FE011CCB
:1021F000281C00F097FA059900F094FA061C039841
:1022000001F036FA8046311C381C00F08BFA594632
:1022100000F088FA414600F085FA050B2D0341468F
:10222000281C00F0ADFF594600F0AAFF391CA9E5B3
:10223000011C00F0A5FF011C00F082FCFCE48F42B1
:1022400000D18DE68023DB059C4200D1D4E601233A
:1022500013400222281CD31A009300F0D5F84E45F3
:1022600000D03AE560E6634E9BE500F0CDF84E45C0
:1022700000D1E1E4002E00D1DEE4FE239B059E4266
:1022800000D0C4E6002300935AE65B4A934200D98B
:102290008BE000D0AFE5291C00F072FF391C00F084
:1022A0001FFA002800D080E080231B029C46644473
:1022B000E3154449DBB27F3B1941802017222140BE
:1022C0006402640A00042043D31A1841804643463E
:1022D0005B429846281C00F053FF011C051C381C6B
:1022E00000F020FA4346DB0599468CE55346002B67
:1022F0000ADB002000F004F99EE4414600F088F873
:10230000F8E55346002BF4DD002000F0FFF893E4DD
:102310003A4B9B463A4B059380239B030493FF2340
:102320009B059A46A6E6802424042200DB157E3B0A
:102330001A4113185A002349120E7F3A11411940CD
:102340005B025B0A1C4317239B1A1C41A046002812
:10235000C0DABCE72B49381C00F0E4F9291C8046A0
:10236000201C00F00DFF011C404600F0AFF90028D2
:1023700012D180231B029C466444E31511497F3B24
:1023800019418020172221406402640A000420437E
:10239000D31A184180469DE70021301C00F082F9D5
:1023A000431E984100F0B2F846E40021301C00F0D2
:1023B00079F9431E984100F0A3F83DE471C41C0074
:1023C000D6B35D00000080FF00F0FFDF42F1533E16
:1023D00055326C3E05A38B3EABAAAA3EB76DDB3EE1
:1023E0009A99193F000040400040763F4F38763FB1
:1023F000C623F6B8000080BF0000164300C0153F9A
:10240000DCCFD1353CAA3833400040087047C04685
:10241000420070B5031C0C0006005508002A1AD0B3
:10242000FF21C9058D4217D2014219D19821C90552
:1024300000F054FD204A031C94422CDB42001F494B
:10244000120E0600193A8C420EDD1D48002B1DDBD2
:102450001B4900F043FD70BD011C00F063F9FAE771
:102460001649120E8C42F0DC1119FE29EDDC002910
:1024700015DC0A00163217DB1931C805CC21114BC7
:1024800089051E40304300F029FDE4E70C490E4861
:1024900000F024FDDFE70D4900F020FDDBE70948EF
:1024A000C90530400843D6E70848002B00DA084841
:1024B000064900F013FDCEE7B03CFFFF50C300001B
:1024C000CAF24971FFFF7F80CAF249F16042A20D52
:1024D0006042A28D70B50D00041C01F019FD05606D
:1024E000201C70BD10B50B1C002802D080231B06D9
:1024F000CB18181C00F0F2FC2221FFF7EBFF10BDF7
:10250000802110B54905FFF7EDFF10BDE02110B5A2
:10251000C905FFF7E7FF10BDF0B5FF21C646430030
:10252000020000B5041C5B08C9058B4251D2002B88
:102530004CD0002856DBC315014208D1802100236E
:10254000090452001C0001330A42FAD0634280247D
:102550001E005202520A24047F3E1443DB073FD57B
:102560008022192100270025761064005204A81843
:102570002300A04202DC8518231ABF1801395C0031
:1025800052080029F3D1002B19D01C4C1C4D206897
:1025900029682368984600F0F3FD011C404600F0CE
:1025A0008BF800280BD02068296800F0BBF824685D
:1025B000011C201C00F076F800281AD00237FC23FA
:1025C0009B059C467F106744F005C01980BCB84647
:1025D000F0BD011C00F082FC211C00F0A3F8F5E71F
:1025E0006400BDE7011C00F0CBFD011C00F0A8FA5F
:1025F000ECE7012301379F43E1E7C046DCD600004A
:10260000D8D600008446100062468C461900634606
:1026100000E0C0461FB501F031F9002801D40021C7
:10262000C8421FBD10B501F073F84042013010BD23
:1026300010B501F023F9002801DB002010BD0120B6
:1026400010BDC04610B501F019F9002801DD0020C9
:1026500010BD012010BDC04610B501F09FF8002844
:1026600001DC002010BD012010BDC04610B501F0F6
:1026700095F8002801DA002010BD012010BDC046E9
:10268000844608006146FFE71FB500F0DFFB002825
:1026900001D40021C8421FBD10B500F067FB4042C5
:1026A000013010BD10B500F0D1FB002801DB002087
:1026B00010BD012010BDC04610B500F0C7FB0028BA
:1026C00001DD002010BD012010BDC04610B500F096
:1026D00075FB002801DC002010BD012010BDC046A4
:1026E00010B500F06BFB002801DA002010BD0120BE
:1026F00010BDC0469E2110B5C905041CFFF7F0FFB0
:10270000002803D1201C00F093FF10BD9E21201C47
:10271000C90500F035FD00F08BFF80231B069C46A9
:102720006044F2E74A02F8B5530ACE4699464B0098
:10273000C90F4746884646004502360E1B0E80B537
:10274000C40F6F0A9209AD09F11A44454BD0002914
:1027500038DD002B00D174E0FF2E00D1BEE08023D5
:10276000DB041A431B2900DCFDE0013D6B0100D4B2
:10277000AFE001256D42AD01AF09380001F034F939
:102780003B0005388340864200DCD3E0B94D311A66
:102790001D405A0700D19EE00F221340042B00D1A8
:1027A00099E004356B0100D495E0481CFE2951D115
:1027B000FF200023C0051843E4072043C0BCB946EE
:1027C000B046F8BD002949D0991B002E72D1002DCA
:1027D00000D133E14C1E012900D159E1FF2900D17C
:1027E0004CE121006CE0002900DC81E0002B55D198
:1027F000002A70D04B1E012900D12BE1FF296DD09A
:102800001B2B50DC190020235B1A10009A40C84093
:10281000531E9A410243AD188023DB041D4200D1B0
:10282000ADE0711CFE2EC3D001206A082840924DF5
:10283000154005436A0700D08BE01D42B5D1EF0873
:1028400034E0002A47D04B1E012966D0FF2945D02D
:10285000190087E7C0B2AB015B0AABE7FE239C46D9
:10286000701C03006046184200D092E0002E00D099
:10287000E7E0002D00D119E1002A17D08023AF1A1C
:10288000DB041F4200D142E14446551B00D187E0E2
:1028900001201D42DFD10021EF0807E0FF2E1DD0EF
:1028A0001B2900DC94E031000535EF087B025B0A50
:1028B000C8B27FE7FF2B00D1E0E08020C0040543D1
:1028C0001B2900DC88E0551E44461E00690100D526
:1028D0004FE731000435EF08FF29E7D1002F00D181
:1028E00066E78023DB033B435B02FF205B0A61E773
:1028F000002958D0991B002E00D089E0002D00D16E
:102900009DE04E1E012900D1A4E0FF2900D1B6E0D0
:102910001B2E00DDB8E0310081E0AA1A530100D47B
:10292000AFE09701BF09380001F05EF83B000538C1
:10293000834001261D00811B20200131CD40411A1A
:102940008B40591E8B411D432AD000216B0700D1BB
:10295000F0E00F232B40042B00D022E76B0100D5C1
:1029600023E7EF08A2E720235B1A10009A40C84033
:10297000531E9A410243AD1A6B0100D5FBE66B076B
:1029800000D1D5E00F2331002B40042B00D008E705
:10299000A1E7AF1A7B014ED4002F00D0EDE6002452
:1029A0000020002306E7FE23711C0B4221D1002EDC
:1029B00000D081E0002D00D19FE0002A00D1B2E0DC
:1029C000AB185A0100D4B0E09B0101205B0AF1E68C
:1029D0008023DB041A4316E720242800C840611A2C
:1029E0008D4029004C1EA141014344461E00551A4A
:1029F000C2E7FF2900D1DBE6AF187F087B0705D0CF
:102A00000F233D1D3B40042B00D064E7FF084DE73A
:102A1000FF2B34D01B2937DC8020C004054328005D
:102A20002026C840711A8D4029004D1EA94101433E
:102A30001E008D18F0E64446571B9EE644461500DE
:102A400049E7002D46D1002A66D180230024FF20CB
:102A5000DB03AFE6AA18530113D5074F52081740FE
:102A6000530744D00F231340042B40D002213D1DB7
:102A700031E7C046FFFFFFFBFFFFFF7D44464F46A7
:102A80002CE70121D70811E705321900D7080DE717
:102A9000571B7B0137D5BF01BF09380000F0A4FFE9
:102AA0003B00053883404446013643E7002A00D105
:102AB00075E744464F46F9E6002DE0D08023DB035E
:102AC000002A17D09F4200D20BE7994500D308E7B0
:102AD0004F4606E78023DB03002A0BD09F4200D23B
:102AE000FFE6994500D3FCE644464F46F9E602214D
:102AF000FF08DBE6FF203B435CE6002A00D14FE7FE
:102B00000021D708D2E644460121FF08CEE6002F77
:102B100000D07BE7002443E780234A46DB0344469A
:102B2000FF20134346E60021C0E60021DF08BDE692
:102B30003100D0E601206A0100D58BE62A00DFE7EC
:102B4000F0B546464F46D6464502C0B5C30F4700CE
:102B500098460E1C6D0A3F0E5BD0FF2F21D08023BC
:102B6000ED00DB041D43002399469A467F3F740223
:102B70007300640A1B0EF60F002B20D0FF2B43D0EE
:102B800080220020E400D20414437F3B4246FF1A17
:102B90004B4672400F2B00D99DE071499B00CB58EA
:102BA0009F46002D5AD108239946063B74029A4647
:102BB0007300FF27640A1B0EF60F002BDED1002CDA
:102BC0003BD1012342464946724019430E2918D889
:102BD0006448890041588F465346022B00D1B8E023
:102BE000032B6ED042462C00012B40D10020002444
:102BF000C0052043D2071043E0BCBA46B146A84600
:102C0000F0BDFF200024F3E7002C20D10223FF3F7A
:102C1000D8E7002D05D104239946033B00279A46A7
:102C2000A5E7280000F0E0FE7627431F9D40002323
:102C30007F4299469A463F1A99E7200000F0D4FE59
:102C4000431F9C4076235B421B1A00209EE7032310
:102C50004A461A4391460320FC3397E70C239946D2
:102C6000093BFF279A4682E703282CD03200380020
:102C70007F30002847DD630704D00F232340042B57
:102C800000D00434230103D53800374B80301C407A
:102C9000FE28B6DCA401640AC0B2A9E780240022A1
:102CA000FF20E403A4E78023DB031D4201D01C4284
:102CB0000BD08024E4032C4364024246FF20640AC4
:102CC00096E746462C008023DB031C436402320057
:102CD000FF20640A8CE76D01600185422DD21B2321
:102CE0000024013F0126290064006D00002901DB5A
:102CF000854201D32D1A3443013B002BF3D16B1EC7
:102D00009D412C43B3E701231B1A1B2B00DD6DE70C
:102D100021009E37D940BC400B00611E8C412343EB
:102D2000590704D00F211940042900D00433590158
:102D300013D49B0100205C0A5AE71A2301242D1AA0
:102D4000D0E7981E43425841404232000024C0B2AE
:102D50004EE74246FF2000244AE70120002447E7CF
:102D6000E0D6000020D70000FFFFFFF770B542005B
:102D70004E024C0045026D0A120EC30F760A240E55
:102D8000C90FFF2A10D0FF2C0CD00120A2420AD17B
:102D9000B54208D18B420FD0002A04D12800431E2F
:102DA000984100E0012070BD0120FF2CFBD135438C
:102DB000F9D14B401800F6E70020F4E730B54200A7
:102DC00044024D02C30F4800640A120E6D0A000E41
:102DD000C90FFF2A18D0FF280AD0002A1ED10028C8
:102DE0000AD1002D29D0002C2DD14800013830BD4A
:102DF000002D25D1002A01D1002CF6D08B4219D00C
:102E000001205B421843F2E7002C19D1FF28F7D1CB
:102E1000002D15D100208B42F2D1E8E70028EFD039
:102E20008B42EDD18242EBDC04DBAC42E8D80020DF
:102E3000AC42DCD258000138D9E7002CD7D0DFE70C
:102E400002204042D3E78B42DAD1EEE730B54200B0
:102E500044024D02C30F4800640A120E6D0A000EB0
:102E6000C90FFF2A17D0FF280AD0002A1BD100283B
:102E70000AD1002D1DD0002C2DD14800013811E0C1
:102E8000002D0ED1002A01D1002CF6D08B420CD19E
:102E90005800013806E0002C03D1FF2805D1002D91
:102EA00015D0022030BD002806D101205B42184316
:102EB000F8E7002CF6D0F8E78B42F6D18242F4DC3A
:102EC000E6DBAC42F1D80020AC42EBD2E0E70020D8
:102ED0008B42EAD1E6E78B42E7D1F2E7F0B54F4605
:102EE0004646D6464502C0B546000F1C6D0A360E52
:102EF000C40F002E00D1CDE0FF2E72D08023ED0054
:102F0000DB041D43002399469A467F3E7B025B0A01
:102F100098467B001B0EFF0F002B72D0FF2B00D1B9
:102F2000A9E07F3BF6184B460A2B00DD85E04346BF
:102F30008022DB00D2041A434B4690467C4000229C
:102F4000022B0FDD494601238B40A621C9000B420D
:102F500000D072E0902189000B4200D0DAE0882195
:102F6000194267D1280C42462D042D0C43462900F6
:102F700012041B0C120C51435D4342435843AD18DD
:102F80000B0C5B199A4203D980225202944660448A
:102F900009041A04090C52189501691E8D411B0C75
:102FA000920E1B1815439B011D431B0100D5CFE05A
:102FB00030007F30002800DCB1E06B070BD00F231E
:102FC00032002B40042B06D004352B0103D5803270
:102FD00010006A4B1D40FE2864DCAB015B0AC0B2E6
:102FE0001FE0002D00D08FE008239946063B9A464B
:102FF0007B025B0A98467B00FF261B0EFF0F002B0F
:103000008CD14346002B5CD14A4601331A4391468A
:1030100013000A2A11DC01227C40022B92DC0020E2
:103020000023C0051843E4072043E0BCBA46B1467C
:10303000A846F0BD3C00454692465346022B31D08F
:10304000032B11D0012BEAD030008030721C0028F5
:1030500066DD6B07B9D00F232B40042BB4D1B4E746
:103060000F2A7AD03C0045468023DB032B435B02CA
:10307000FF205B0AD5E74346FF36002B34D14A4692
:10308000023313430A2BD8DC7C40002A0AD099462D
:10309000022257E7002D08D104239946033B00265E
:1030A0009A4633E7FF200023BBE7280000F09CFC92
:1030B0007626431F9D400023764299469A46361A4B
:1030C00024E7404600F090FC4B46361A763E0A2B29
:1030D000B3DC43460538834098464B4600227C408B
:1030E000022B00DD2EE73DE703234A461A43130077
:1030F0000A2AB5DC01229A40882113007C40032271
:10310000194200D12EE795E70C239946093BFF268B
:103110009A46FBE680230024FF20DB0381E7320090
:1031200001231B1A1B2B00DD79E79E3229009540F5
:10313000D9406A1E95410D436B0704D00F232B40E5
:10314000042B00D004356B0113D50120002368E760
:1031500001236A081D40154376E78023DB031D42E7
:1031600082D042461A4200D07EE73C00FF20134343
:1031700057E7AB0100205B0A53E7C046FFFFFFF7AC
:10318000F8B54746CE464B02460080B5C40F47020D
:10319000580A844648007A0A360EBF09000ECD0F41
:1031A0009B09FF286DD001214D40311AAC423AD025
:1031B000002900DC9CE1002800D19EE0FF2E00D118
:1031C00088E08022D20413431B2900DCF6E0013F93
:1031D0007A0100D479E001277F42BF01BB099846FC
:1031E000404600F001FC434605388340864200DC3F
:1031F000CCE0B44F311A1F405A0768D00F22134059
:10320000042B64D004377B0161D5481CFE2900D013
:1032100081E0FF200023C0051843E4072043C0BC21
:10322000B946B046F8BD002900DC79E1002876D126
:10323000002B4CD0481E012900D147E1FF2949D07D
:103240001B2871DC01001A002020CA40411A8B4063
:10325000591E8B411343FF188023DB041F4200D10A
:10326000B8E0711CFE2ED4D0012297483A407F0866
:10327000074017437A0700D096E01F42C5D1FA08ED
:1032800055E03100FF398946002B2CD101214D40FA
:10329000AC4200D1B4E0494600294CD0002E00D009
:1032A000F9E0FF21002F00D108E14A1E012900D1D9
:1032B00056E1FF2900D142E11B2A00DC24E15F1E18
:1032C0002C0006007A0100D585E731000437FA08A2
:1032D000FF292CD1002A9CD08023DB0313435B02FF
:1032E000FF205B0A97E7AC4200D1A7E0002922D07B
:1032F000002ED6D062462C00EEE7002BE7D0481E09
:10330000012936D0FF29E5D001005DE701203B000F
:103310007A0100D457E1C0B2BB015B0A7BE7FF2E04
:10332000D8D01B2900DC9FE031000537FA08530292
:103330005B0AC8B26FE7FE20711C084254D1002E10
:1033400000D0B1E0002F00D102E1002B00D1F9E064
:103350008021FA1AC9040A4200D13BE10124DF1B93
:103360002C40002F49D001200F42D5D10021FA086E
:10337000DDE7FF1A7B0100D4DEE0BD01AD092800C6
:1033800000F032FB2B000538834001262022811BF0
:103390000131521A1F009340CF405A1E93411F43E0
:1033A0002BD000217B07B1D00F233B40042B00D052
:1033B00028E77B0100D528E7FA08B8E71A002020A3
:1033C000CA40411A8B40591E8B411343FF1A7B019F
:1033D00000D502E77B0700D10DE10F2331003B4010
:1033E000042B00D00EE772E7FA1A9046520156D429
:1033F0004346002B00D0F3E60024002000230AE718
:10340000494600291CD0002E00D002E7FF21002FE2
:1034100055D04A1E012959D0FF2900D190E01B2A1E
:1034200000DD91E011003A002025CA40691A8F4062
:10343000791E8F4117430600FF180DE7002926D19A
:10344000FE20711C084213D1002E00D096E0002F00
:1034500000D1B4E0002B75D0FB185A0100D4B2E0C3
:103460009B015B0AFD38D6E68022D2041343EAE6CC
:10347000FF2900D1CDE6FA185208530705D00F23D3
:10348000171D1340042B00D021E7D2084FE7002E70
:10349000BCD0624620E72C00FF200023BBE60124BD
:1034A000DB1B98462C409BE6002F75D1002B00D0EB
:1034B00096E080230024FF20DB03ACE62C001F00F5
:1034C00005E7C046FFFFFFFBFFFFFF7DFB185A012A
:1034D00000D48DE04A4A5B081A40590700D18CE0BD
:1034E0000F210B400D39042BCFD00221171DEEE622
:1034F000002900D11FE7821B1100002E00D1D1E668
:103500008021C9040F43D7E639002024D140A21AF4
:1035100097407A1E97410F432C000600DF1B56E7A9
:1035200000298DD0811B002E00D170E71B290BDCF8
:103530008022D204174376E70121FA08F7E62C002F
:103540006246C7E60021F2E605330100DA08EEE63E
:10355000002B00D150E70124002162462C40E6E612
:10356000DA1B530132D592019409200000F03CFA95
:103570002300053883402C00012607E7002FDFD009
:10358000002B17D08023DB039A4200D2A4E69C458F
:1035900000D3A1E662469FE6002B0BD08023DB031D
:1035A0009A4200D298E69C4500D395E601246246F3
:1035B0002C4091E68023DB03FF2013432BE6002001
:1035C000002B00D127E60021DA08B0E62C0001210B
:1035D000D208ACE6002A00D10EE70021D208A6E608
:1035E000802362460124DB03FF2013432C4012E6B4
:1035F0000121DA089BE6310069E60221D20896E64D
:10360000FFFFFF7D43024A02400049005B0A520A65
:10361000090E000EFF2806D00020FF2902D1531EFC
:103620009A4110007047FE38002BFBD1F4E7C046EA
:1036300041024200C30F490A0020120E7E2A03DD18
:103640009D2A02DD094A9818704780200004014332
:10365000952A07DC9620821AD1404842002BF3D1EC
:103660000800F1E7963A9140F7E7C046FFFFFF7F79
:1036700070B5002812D0C317C5185D40C40F2800CC
:1036800000F0B2F99E231B1A962B0FDC082838D0C5
:10369000083885406D026D0AD8B202E0002400208F
:1036A0000025C0052843E407204370BD992B14DC96
:1036B000421F95402A001549114055071CD00F257F
:1036C0002A40042A18D00431CA08490115D59F237D
:1036D0005202181A550AC0B2E3E7020029001B3251
:1036E00091404A1E91410522121AD5402A000A43F0
:1036F000064911405507E2D1CA085202550AD8B20C
:10370000CFE76D026D0A8E30CBE7C046FFFFFFFBAF
:10371000F0B55746DE464E464546E0B50D0004007E
:10372000E80F83460903D80F090B82461A488C46D6
:103730001F0369005E00490D3F0B760D81421AD0D0
:10374000864211D00120B1420FD1BC450DD1A24219
:103750000BD1D3451ED0002907D1614611430A0081
:10376000531E9A41100000E00120F0BCBB46B24657
:10377000A946A046F0BD01208E42F6D161463943EC
:103780000F0017432743F0D15B465246981A431E59
:103790009841EAE70020E8E7FF070000F0B5574648
:1037A0004E464546DE46E0B50D000E034900490D84
:1037B0008A46DF0FE90FBC4683B02F4F04008046D6
:1037C0000191580019039146360B090B400DBA457B
:1037D0001DD0B8420DD05746002F2AD134430028BF
:1037E00024D10A4336D0002C41D163465800013819
:1037F00015E0114338D15346002B01D12643F4D0B4
:10380000019B634507D1019B5800013807E026431F
:103810002AD1504521D00120019B5F42384303B09B
:10382000F0BCBB46B246A946A046F0BD002CDCD099
:10383000E6E70028EFD0019B6345ECD18245EADC46
:10384000E1DB8E42E7D8DED1C845E4D80020C84588
:10385000E5D2D8E7002CE2D0DDE7114304D1019B8B
:103860006345D8D10020DAE702204042D7E7019B28
:103870006345E6D0CFE7C046FF070000F0B55746E6
:103880004E464546DE46E0B50D000E034900490DA3
:103890008A46DF0FE90FBC4683B02E4F04008046F6
:1038A0000191580019039146360B090B400DBA459A
:1038B0001ED0B8420DD05746002F27D134430028E0
:1038C00033D10A4334D0002C40D16346580001382C
:1038D00015E0114312D15346002B01D12643F4D0F9
:1038E000019B63451DD00120019B5F42384306E0E8
:1038F000264303D15045F6D111431CD0022003B01A
:10390000F0BCBB46B246A946A046F0BD0028EAD0AE
:10391000019B6345E7D18245E5DC02DB8E42E2D8BC
:103920000ED0019B58000138E9E7002CCDD0D7E735
:10393000002CE4D0D7E7019B00206345DFD0D2E71D
:10394000C845D0D80020C845D9D2EAE7019B6345D5
:10395000E4D0C8E7FF07000070B542024300C40F7F
:10396000FE201B0E591C550A08420CD0E02189008C
:103970008C466D07120B63441B051343E407234376
:103980002800190070BD002B14D1002D1BD0280079
:1039900000F02AF80A281CDC0B232A001B1ADA4044
:1039A000030015339D400E4B12031B1A5B05120BCF
:1039B0005B0DE1E7002D09D0130B802212031A439F
:1039C0006D07084BD8E700230022D5E70022054BFE
:1039D000D2E703002A000B3B9A400025E3E7C046EC
:1039E00089030000FF0700001C2101231B049842EB
:1039F00001D3000C10391B0A984201D3000A083980
:103A00001B09984201D30009043902A2105C401836
:103A10007047C046040302020101010100000000DA
:103A20000000000010B5034A0349044800F0DEF826
:103A300010BDC0461C000020017800009801002045
:103A400041680B4B10B50400994201D003F0D8FE39
:103A5000A168084B994202D0200003F0D1FEE16832
:103A6000054B994202D0200003F0CAFE10BDC046AB
:103A7000883A0020F03A0020583B0020F8B5CE46A6
:103A800047463B4C3B4B3C4A2000002580B51A6022
:103A90000423082200215C3025606560A56065660E
:103AA00025616561A561E36000F092F92000334B68
:103AB000334F344E99462362334B58309846A762B1
:103AC000E6626362E46100F04DFACC23E5502F4BCF
:103AD00020006367802300210822C430E550A566DA
:103AE000E5662567A567E56700F072F92200842383
:103AF0006832E2504A460433E25042462000043322
:103B0000E2500433E750C0300433E65000F02AFAA4
:103B1000D0232000E5500433E5500433E5501C4A1F
:103B20005C33E550583BE2500433E5502D3004330C
:103B3000E550002104330822FF30E55000F048F939
:103B40002200EC23D032E2504A460433E2502000F7
:103B500042460433E25029300433E750FF30043347
:103B6000E65000F0FFF9C0BCB946B046F8BDC0460B
:103B7000883A0020C03B0020253A0000313D00007B
:103B8000993D0000C53D0000593D000009000100BD
:103B90001200020070B50400094D280000F0E6F99B
:103BA000636B002B05D1074B6363074B1B68002B2E
:103BB00003D0280000F0DCF970BDFFF75FFFF8E7E5
:103BC000D03B0020413A0000C03B002010B5024825
:103BD00000F0CCF910BDC046D03B002010B5024823
:103BE00000F0C6F910BDC046D03B0020F8B54746EE
:103BF000CE46884680B58146170000267D68BC68A1
:103C0000013D0DD4A389012B07D90E22A35E0133F8
:103C100003D021004846C04706436834013DF1D235
:103C20003F68002FEAD13000C0BCB946B046F8BDAD
:103C30000FB400B5064983B004AB086804CB8168B3
:103C4000019301F0DDFA03B008BC04B01847C04688
:103C50009401002070B5050088B008000C0000F049
:103C6000DFF904AB2B4A019302230692012202934F
:103C70006B6B0590013004940792AC680390002BA5
:103C800043D00126636E0C21625E1E421BD091045C
:103C900023D4802189010A43A2811F4A134063660D
:103CA000280001AA210003F0E3FE421E90410A25EC
:103CB0004042636E0543DB0702D4A3899B0512D5FE
:103CC000280008B070BD910511D59104E1D55B13B2
:103CD0001E42E5D001256D42EFE75B131E42DFD0A7
:103CE00001256D42ECE7A06D00F042F9E8E7A06D18
:103CF00000F03CF90C23E25E636E9104C9D55A13BF
:103D00001642CDD001256D42D5E72800FFF742FFCE
:103D1000B7E7C04614D50000FFDFFFFF10B5034B27
:103D200001001868FFF796FF10BDC04694010020FF
:103D300070B50C000E25495F00F0C2F8002803DBC7
:103D4000236D1B18236570BDA389024A1340A3810C
:103D5000F9E7C046FFEFFFFFF8B50C001F000C238A
:103D6000C95E05001600CB050AD40A4B3200194083
:103D70002800A1810E23E15E3B0000F0B5F8F8BDFC
:103D80000E23E15E0022022300F086F80C23E15EA0
:103D9000EBE7C046FFEFFFFF70B50C000E25495F53
:103DA00000F07AF80C22A35E421C05D0802252015A
:103DB00013432065A38170BD014A1340FAE7C04652
:103DC000FFEFFFFF10B50E23C95E00F053F810BDE2
:103DD000F0B5830741D0050004000327861804E0EE
:103DE000297001353B4204D01C00631CB442F7D15A
:103DF000F0BD013A8218121B032A25D9FF240C407A
:103E000025022D192C042D190F2A28D91C00130066
:103E10002600103B1B091B0110369B1925606560AD
:103E2000A560E5601034A342F8D10F240C2614409D
:103E300016402200002E07D0A2089200D21820C3FC
:103E40009342FCD103222240002AD1D0C9B29A1851
:103E5000197001339A42FBD1CAE70300CCE7140082
:103E6000EAE7C0469422024B5200985C7047C04675
:103E700028000020002370B5064C050008002360D0
:103E8000FDF77DFA431C00D070BD2368002BFBD0EA
:103E90002B60F9E7C43B002070B504000800110056
:103EA0001A000023054D2B60FDF785FA431C00D056
:103EB00070BD2B68002BFBD02360F9E7C43B0020CA
:103EC00070B50400080011001A000023054D2B6096
:103ED000FDF74AFA431C00D070BD2B68002BFBD0C5
:103EE0002360F9E7C43B002070B50400080011000E
:103EF0001A000023054D2B60FDF718FA431C00D073
:103F000070BD2B68002BFBD02360F9E7C43B002079
:103F1000014B18687047C0469401002070B50D4BE6
:103F20000D4D5E1BB610AB4205D0002408CD013408
:103F30009847A642FAD809F00BFF084B084D5E1BC4
:103F4000B610AB4205D0002408CD01349847A642F4
:103F5000FAD870BD5CDD00005CDD000064DD0000AF
:103F60005CDD00007047C0467047C0467047C046E1
:103F70007047C046F0B5CE46474680B50F2A0ED8EA
:103F80000500561E002A06D00023CC5C1A00EC5413
:103F900001339642F9D1C0BCB946B046F0BD03002A
:103FA0000B4388469B0734D110261700B1460C00FE
:103FB0000300103F3F093F01C519A94466685E60D0
:103FC000A6689E60E668DE60266810341E601E00EB
:103FD0001033AE42F2D1CF1939000F230C26103125
:103FE0008C461340164217D04446043B9B089B0066
:103FF000FF181437061B0C688D1904312C60B94268
:10400000F9D16146043359184B441D0003231A406B
:10401000B7E70500561EB7E74D461A00B1E7C046A0
:1040200010B583070AD00300032102E001330B42DD
:1040300005D01A78002AF9D1181A10BD03001968A2
:104040000C4A0D4C8A188A4322420FD15968094AFA
:1040500004338A188A43224208D15968054A043336
:104060008A188A432242F1D000E001331A78002AEC
:10407000FBD1E1E7FFFEFEFE80808080034B10B5A0
:10408000002B02D0024800F005F810BD000000002F
:104090009D7F000010B5010000230022002004F0E5
:1040A00011F810BDF0B5C646060000B508200D0099
:1040B00003F088FF0400300000F042FC234B210095
:1040C00098469B685F6803239F4338001138401B64
:1040D000001906F01DFF451E6543AC4208DC0021B7
:1040E000300003F049FF43469B68DB19984206D035
:1040F000300000F02DFC002080BCB846F0BD300040
:10410000694203F039FF01300ED0012243467F1B84
:104110009B6817430E4A5F60136830005B1B136097
:1041200000F016FC0120E7E70021300003F024FF37
:1041300043469A68831A0F2BDADD064C044924683B
:10414000001B086001210B435360D1E7E802002007
:10415000D83B0020DC020020F0B5D6464F4646464C
:1041600005000C00C0B5002948D000F0E9FB210093
:10417000012708394B6803209C46BB43CE18726860
:1041800082436046384080466A4891468468B4421B
:1041900000D17CE07260B41864683C40A24644469A
:1041A000002C30D10C68A446091B8C686344A446DB
:1041B0000824A0468044C4455CD0CC68A046644630
:1041C0004246E26094605246002A1FD01F434F606F
:1041D000336080229200934230D2DA085C090123D6
:1041E000A340446823434360D3001B189A68CB6004
:1041F0008A609960D160280000F0AAFBE0BCBA4652
:10420000B146A846F0BD5246002A0FD101224B44C8
:10421000CF18BC46B468484F1A43BC425BD0F6681E
:10422000E660B4604A6062461360D2E762463A4391
:104230004A608022336092009342CED35C0A042C01
:104240003FD89C09260039343836E4000419226826
:10425000083C0327944203D14EE09268944203D075
:104260005068B8439842F8D8D468CC608A60A1609E
:10427000D160C0E75246002A35D14B441A00B068DD
:10428000F3681743C36098604F608A50B3E74B44AC
:104290001A004346002B06D10B68C91A8C68D21845
:1042A000CB68E3609C60012313434B60234B816028
:1042B0001B6893429FD8224B28001968FFF7F2FE33
:1042C00099E7142C13D9542C1DD81C0B26006F34DD
:1042D0006E36E400BAE7E160A1604A606246CC60F5
:1042E0008C60136087E71F434F60336083E72600CD
:1042F0005C345B36E400A9E70123B610B34046689E
:1043000033434360B1E7AA225200944205D8DC0B44
:10431000260078347736E40098E70A4A944205D8B4
:104320009C0C26007D347C36E4008FE7FE247E263C
:10433000A4008BE7E8020020F0020020E002002049
:10434000083C002054050000F0B54E464546DE46C8
:104350005746E0B50D000B35060085B0162D21D867
:10436000102900D9D4E000F0EBFA1025182302211F
:10437000CA4FFB181A005C68083A944200D186E1E3
:1043800003226368A1689343E268CA6091600121D7
:10439000E3185A6830000A435A6000F0D9FA200046
:1043A0000830B8E007239D4300D5B1E0A94200D909
:1043B000AEE000F0C5FAFC235B009D4200D2E0E1D4
:1043C000690A00D1AEE0042900D9A1E1382398465A
:1043D000A90988443931CB00082252429446AF4F94
:1043E000FB189C446346DC68A44514D0032399461B
:1043F0000B0061469C4607E0E068002A00DB40E1D4
:10440000814200D141E104004A46636893435A1B4C
:104410000F2AF1DD41463A003C690832944200D14E
:104420001EE1032063688343581B0F2800DDACE1C5
:104430003A617A610028AADA7A689046802292006E
:10444000934200D336E1DA085809012383404046FD
:1044500018438046D300DB199A687860E360A26055
:104460009C60D46001208B109840404562D8434640
:1044700003420AD1032399434346400004310342D7
:1044800003D1400004310342FBD00323B3469C46D2
:104490000E00B8460190F00040440100B246CB68DF
:1044A0000BE064465A681F00A243DB68541B0F2CC4
:1044B00000DD39E1002C00DB53E19942F1D1012309
:1044C0009946CA44534608319B07E8D1032205E0C8
:1044D00003680838013E834200D013E23242F7D12C
:1044E0004346019A5B68934342465360019A5200E7
:1044F00001929A421CD8002A06D119E00422914662
:10450000019ACA44520001921342F7D05646C2E7BC
:104510000C233360002005B0F0BCBB46B246A94670
:10452000A046F0BD80233F22402190469B0053E7E8
:104530005E4647460322BC68636893439846AB4295
:1045400003D35B1B0F2B00DD8DE02300434402935C
:10455000534B08201B6810335B19019303F032FDA5
:10456000504903900B688A46013306D08446019B6C
:104570004242013B6344134001933000019903F030
:10458000FBFC03008146013300D11CE1029B834206
:1045900000D916E1444B02989B461A68019B594684
:1045A0009C4662440A6003990139484500D157E1AD
:1045B00053461B68013300D15EE14B4602981B1A3B
:1045C0009B185A46136007234A4648461A400292EF
:1045D000184200D115E10398013384469B1A019AD1
:1045E00099444A44019263440A409B1A194030009E
:1045F0008A4603F0C1FC431C00D158E14B46C01A67
:104600000300534401935B461A68012052441A6028
:104610004B464946BB60019B03434B60BC4213D0F1
:1046200043460F2B00D82BE107210C3B8B436168DD
:104630000140052019436160E118486088600F2B34
:1046400000D93FE14B465B6818490868904200D2A8
:104650000A6017490868904200D20A604C46B4E0EC
:104660007B689846FEE60122290013431143651931
:1046700061603000BD606B6000F06AF920000830B6
:1046800049E7A268D060826081E66146C3E6DC68E3
:104690000231A34200D1BEE672E6C046E802002025
:1046A000083C0020DC020020D83B0020043C002015
:1046B000003C00205A0A042A7CD9142A00D9B0E010
:1046C00010005B3082465C32D200082040428446B3
:1046D000BA189444624692680B308146944500D1E2
:1046E00086E00800A2466146844602E09268914254
:1046F00004D04C465068A0439842F7D8D36861462E
:1047000054469C466346A260E3609C60D460A9E680
:10471000142967D9542900D98CE06E239846290BB7
:1047200088446F31CB0057E6BA4601205146844693
:104730004919054350464560856847466046EB6029
:104740005E469D6053463961796120430837486071
:10475000CF6030008F609C5000F0FAF8504608306F
:10476000D9E6BA4601205E46524451680143516081
:10477000BA683000D3609A6000F0EAF83800083078
:10478000C9E62B00E9080833F2E5611988460121E2
:104790008C460D434146656039617961CA608A6023
:1047A000624602434A60E050300000F0D1F8200039
:1047B0000830B0E69A091000393238308246D2000B
:1047C00083E7BC4241D0BC686368032293431A006C
:1047D0005B1BAA4202D30F2B00DD44E7300000F040
:1047E000B7F897E65B23984688445C31CB00F3E545
:1047F0005346981001238340404618438046786012
:1048000080E7019B039A4B440B40D31A19403000B8
:104810008A4603F0B1FB431C00D0EFE600239A4622
:10482000F1E6542A2ED81A0B10006F326E308246F1
:10483000D2004AE7AA235B0099422ED8DD3B984676
:10484000E90B88447831CB00C6E5304B9B461A68AB
:10485000019B9C465B4662441A60039B591EA7E677
:104860004846084200D0A3E6B9684344894601217E
:104870000B4349464B60E7E653464A461A60A2E6B8
:104880004860ABE7AA204000824226D8DA0B10002D
:10489000783277308246D20017E71D4B994226D8EE
:1048A0007C239846A90C88447D31CB0094E5019A7D
:1048B000029B94464A46083B63449B1A019300239B
:1048C0009A46A0E6210030000831FFF745FC5B4620
:1048D0001A68BB6899465B68B6E60D4882420CD8F8
:1048E0009A0C10007D327C308246D200EDE6FE2329
:1048F0007E227F2190469B006EE5FE227E20920064
:104900008246E2E643465B68F0E5C046D83B0020BD
:104910005405000082B000290AD0002A0BD0002BD9
:104920000BD013780B601078431E984102B070478B
:1049300001A9002AF3D10020F8E702204042F5E760
:1049400010B50248FFF712FB10BDC046C83B00205F
:1049500010B50248FFF70CFB10BDC046C83B002055
:10496000436C70B504000D00002B0AD0AA009B1800
:10497000186800280ED002681A6000230361C36023
:1049800070BD2122042103F011FC031E6064EDD1EF
:104990000020F5E70126AE40721D012120009200A3
:1049A00003F004FC0028F3D045608660E5E7C046CC
:1049B000002906D04A68436C92009B181A680A6066
:1049C00019607047F0B5C6461F008046002300B549
:1049D0000E000D6914310C6801332004000C5043A3
:1049E000240C5443C019070CE4190004270C000CD4
:1049F0002404241810C19D42EDDC002F07D0B368B9
:104A0000AB4208DDAB00F31801355F613561300062
:104A100080BCB846F0BD716840460131FFF7A0FF89
:104A2000041E16D0310032690C31023292000C3073
:104A3000FFF7A0FA434672685B6C92009B181A68F5
:104A400032601E602600AB00F31801355F613561EE
:104A5000DDE70022BA21024B024803F087FBC04683
:104A600060D5000074D500008022030052020020AF
:104A7000934201D21B04103080225204934201D28F
:104A800008301B0280225205934207D38022D205B0
:104A9000934214D29B0014D4033008E080210430E8
:104AA0001A01C9058A4203D3D243D20F8018704736
:104AB0009A019B0105D40A42EED12020F7E71A00A3
:104AC000F2E70230F3E7C0460368010010B55A0769
:104AD00007D0DA072BD49A072ED55B080360012094
:104AE00010BD1A0410D1FF221B0C10201A4201D154
:104AF00008301B0A1A0717D09A070ED0DA0701D41C
:104B000001305B080B60EBE7FF221A4211D01A0755
:104B10001AD104201B099A07F0D19A085C070FD517
:104B2000130002300B60DBE704301B09F3E70020C1
:104B3000D6E708201B0ADDE79B0803600220CFE7C9
:104B4000DB0805D12020CBE7DB0803200B60C7E79B
:104B500003300B60C4E7C046436C70B504000D0021
:104B6000002B0AD05868002815D002685A6000232C
:104B7000C36001334561036170BD2122042103F04C
:104B800015FB031E6064EDD146210022084B094845
:104B9000FF3103F0EBFA1C220121200003F006FB99
:104BA0000028F1D00123436001338360DFE7C04672
:104BB00060D5000074D50000F0B54E465746454616
:104BC000DE46E0B50B6916698A469146984685B07F
:104BD000B34204DB330089464646924698464B462C
:104BE00059684346F5184B469B68AB4200DA0131E1
:104BF000FFF7B6FE071E00D1AAE014239C468444AA
:104C00006346AC00644418000022A34202D204C3ED
:104C10009C42FCD814234B449B46434651469B0080
:104C200098461431B60088445E44414576D200234C
:104C30009A464B4615339E4200D382E05B46019371
:104C4000434600935346B446A246AB46B9460C00D1
:104C5000029306E02D0C32D1009B04340430A342B1
:104C600059D925682B04190C002BF3D0019D53460C
:104C7000A04600260C0082462F00039308CF01684F
:104C80001A04120C62431B0C0D0463432D0C5219C1
:104C90009219090C5B18110C5B1812041E0C120CF3
:104CA0001B04134308C0BC45E8D850464446039B48
:104CB0009A46029BC3185E6025682D0CCCD0060076
:104CC00000220368A046604619001400B446019F04
:104CD0003A88090C6A43121952181B0411041B0C60
:104CE0000B43336010CF7168240C6C430B041B0C16
:104CF000E318120C9B181C0C0436B842E8D8624624
:104D0000844610004446029A043482185360009B83
:104D10000430A342A5D854465D464F46002D03DC1F
:104D200006E0013D002D03D0043C2368002BF8D0A1
:104D300038003D6105B0F0BCBB46B246A946A0466E
:104D4000F0BD4B46F31A153B9B089B009A4675E74E
:104D5000B1210022024B0348490003F007FAC04684
:104D600060D5000074D50000F8B503234746140051
:104D7000CE461A0080B50E0007002240234239D1EA
:104D8000A41032D03D6C002D3DD001239846002365
:104D90009946434623406410002B08D12868002818
:104DA00019D00500434623406410002BF6D02A009A
:104DB00031003800FFF700FF002E06D072687B6CD0
:104DC00092009B181A6832601E60002C0ED00600FC
:104DD00028680028E5D12A0029003800FFF7ECFEFA
:104DE0004B46286005000360DCE73000C0BCB946D4
:104DF000B046F8BD0E4B013A9200D2580023FFF79F
:104E0000E1FD0600BCE701213800FFF7A9FD051E02
:104E100007D0084B4361012303610023386403601A
:104E2000B3E746210022044B0448FF3103F09EF90A
:104E300060D800007102000060D5000074D5000049
:104E4000F0B54546DE4657464E46E0B50D002B69A7
:104E500054119846A04443465E1CAB688346170035
:104E6000496883B09E4203DD01315B009E42FBDC5A
:104E70005846FFF775FD8446002854D001001431D0
:104E80000B000191002C0CDDA40022000020143244
:104E9000624401C39342FCD1019B9946A1444B4615
:104EA00001931F222B0011002C691433A4003940F8
:104EB0008A461C193A4230D00132521A91460027D4
:104EC000019851461A688A403A4304C04A4680CB4A
:104ED000D7409C42F5D82A0015320023944203D3D0
:104EE000631B153B9B089B00019A91464B445F60F6
:104EF000002F00D1464663461E615B4660466A68E5
:104F00005B6C92009B181A682A601D6003B0F0BCAD
:104F1000BB46B246A946A046F0BD019904CB04C1E8
:104F20009C42FBD8E6E7EF210022024B02484900F1
:104F300003F01CF960D5000074D5000002690B690C
:104F400030B50500D01A9A4214D19B0014351431A3
:104F5000EA18CB1801E095420CD2043A043B1468DD
:104F600019688C42F7D000238C425B4102205B42DF
:104F70001840013830BDC046F0B545469046DE4683
:104F800057464E464346E0B50A690C00196983B09E
:104F9000551A8A4214D12700424689001437143228
:104FA0007B18521802E09F4200D396E0043B043A7B
:104FB0001E6811688E42F6D000D399E0012504E006
:104FC000002DFBDBA04600251C0043465968FFF777
:104FD000C7FC8446002800D194E043461A69143384
:104FE0009600B246C5609A446546009353462169CF
:104FF0002000890089461435002101932B001430CC
:1050000081444D46A34614270C0092460100994660
:10501000434601C9DE5902043304120C1B0C9B1ACF
:1050200062461B19000C360C361A181430181B0473
:1050300004141B0C00040343D35104378D42E7D8FA
:105040002100019C48465246A2465C46A9460500FE
:10505000200015301E000027009B814504D34846E0
:10506000001B1538800887007819041DDF19A04639
:105070003C1DA146EF1A0300A2451DD93B0057462F
:1050800092461A000E00A51801CC03041B0C5B18F5
:105090001B14010C86195B1836041914360C1B04FA
:1050A0001E432E60A742EDD83B0049465246013BC5
:1050B0005B1A9B089B004344002E04D1043B1968F3
:1050C000013A0029FAD063461A61604603B0F0BC89
:1050D000BB46B246A946A046F0BD0021FFF740FC02
:1050E0008446002808D00123036100234361ECE7D4
:1050F0004346A0461C0068E70022054B05480649C8
:1051000003F034F80022024B0248044903F02EF861
:1051100060D5000074D50000370200004502000091
:10512000F0B5012183B014001D00FFF719FC061E25
:1051300047D02B036F001B0B7F0D02D08022520340
:1051400013430193002C16D101A8FFF7BDFC0124E5
:10515000019B203073613461002F23D01C4B352418
:105160009C46089B67443F181F60241A3000099B27
:105170001C6003B0F0BD68460094FFF7A5FC019CDD
:10518000009B002806D020222100121A9140C44022
:105190000B4301947361B461631E9C41013434611B
:1051A000002FDBD10B4B9C46089B6044186000230A
:1051B000E3189B00F3181869FFF756FC6401241AE2
:1051C000D4E70022044B0548054902F0CFFFC04652
:1051D000CDFBFFFFCEFBFFFF60D5000074D50000C4
:1051E0000F030000002909D0FF2A02D801200A700D
:1051F00070478A23036001204042F9E70020F7E767
:10520000F0B5DE46574645464E46E0B5E1B090461D
:105210000A9182461C00129302F0AAFE036818004D
:105220001F93FEF7FDFE08221D90002130A8FEF717
:10523000CFFD5346002B04D05B6B002B01D101F056
:105240007FFA01250A9B5A6E0C215B5E154201D143
:1052500000F077FE990401D500F0EDFF802189016F
:105260000B43E9490A980A40838142661BB21A0738
:1052700001D400F03FFE0A9A1269002A01D100F021
:1052800039FE1A221A400A2A01D100F044FE37AB37
:1052900034930023002414933693359300231A93F8
:1052A0001B94002320931E93219326930D93D74B99
:1052B00037AE1893D64B34AF1593434608960B93ED
:1052C000E4239946189B554698460B9C43464A460C
:1052D0009E58FEF7C7FD30AA030000922800220066
:1052E0002CA9B047002801D100F0AEFC01DA00F093
:1052F000A2FC2C9B252B01D02418E7E70B9BAA4688
:10530000E21A050091469C4201D000F0A4FC631C07
:105310000993002322AAD377012252429346002206
:105320005D46564663780E920792099A01320992B9
:105330001A00203A5A2A03D8159992008A5897469B
:10534000B2461693002B01D100F09CFC47AA1370C3
:10535000002322A9CB770F930133139300239B469D
:105360001C931993179301330B920C93079A842380
:105370001600BC681E40134200D129E122ABDB7F3E
:10538000002B27D0002290467B6822A81F2184464C
:10539000089A614411600121013401335160BC60FD
:1053A0007B60072B01DD00F0E5FD083208924346E3
:1053B000002B0FD07B6808992AAA0A6002220234C7
:1053C00001334A60BC607B60072B01DD00F0C5FD46
:1053D00008310891802E01D100F05FFC5B46139AE2
:1053E0009D1A002D00DD05E1079BDB0500D546E198
:1053F000089A0B9B1360139B9C4653607B68644424
:105400000133BC607B60072B01DD00F0C8FC083273
:105410000892079B5B0706D50E9B0C9A9D1A002DE0
:1054200001DD00F0B4FD0E9B0C9A934200DA1300EC
:105430000D9A94469C4463460D93002C01D000F0D5
:1054400069FC00237B600F9B002B03D050460F9913
:10545000FEF782FE37AB0893099B0B9330E7303B96
:1054600000201A00099983001B185B00D0180B78E4
:1054700001311A00303A092AF5D90E90099157E7FF
:1054800007221693129BAB4607339343012230CB7E
:1054900012936B005B08259324945E4B5242249830
:1054A0002599B2461A941B9507F0CCFD002801D02F
:1054B00000F071FF249825990122564B5242FDF7C6
:1054C000C1F8002801D000F066FF8023079A200071
:1054D0009A430792002300222900FDF7A9F800282B
:1054E00001D001F053FD169A22ABDB7F472A01DC85
:1054F00001F061FA484A0B92002B01D001F0ABFF9A
:105500000F930333139300239B461C931993179314
:1055100003330C932AE7099B1B7806E72023079A9D
:105520001A43099B07921B78FFE6079AAB46B246DF
:105530001693930601D400F01CFF072312990792DB
:105540000731994301339C468C44634612930AC940
:1055500010911193002B00DAFBE25B46002B00DA7E
:105560004BE18023079A9A430792109A119B1100EE
:10557000194300D041E15B46002B01D101F003FA51
:10558000302345E1129AB2461693141D432B01D1E4
:1055900001F027F8079BDB0601D501F022F8129BEA
:1055A00047AD1B682B7001230C931393002322AA91
:1055B000D377079A9B4616000F931C931993179362
:1055C000842312940B95BC681E40134200D0D5E68C
:1055D0000E9B0C9A9D1A002D01DD00F049FC22ABB8
:1055E000DB7F002B00D0CDE65B46139A9D1A002D81
:1055F00000DCF9E6094A7B689146102D2DDD10226A
:105600004E469346089A0FE0FFDFFFFF2800002078
:1056100060D90000FFFFEF7FD4D5000064DB0000FD
:10562000103D0832102D16DD594610340133166036
:105630005160BC607B60072BF2DD3A0050460A994E
:1056400002F0CEF8002800D06DE3103DBC687B6806
:1056500037AA102DE8DCB14608924946089A641929
:10566000013311605560BC607B60072B01DD00F0E9
:10567000D5FD079B08320892DB0500D4B8E6169BDF
:10568000652B00DC97E31A981B9900220023FCF796
:10569000C9FF002801D100F0D9FCE84B089A013479
:1056A0001360012353607B68BC6001337B60072B70
:1056B00001DD01F055F8083208922B9B149A9342B1
:1056C00001DB00F0BEFD089A1F9B13601D9B9C46EA
:1056D00053607B6864440133BC607B60072B01DD51
:1056E00000F05EFF08320892149B5D1E002D00DC66
:1056F0008FE6D34A7B689146102D01DC01F0B0F8AB
:1057000010224E469046089A05E00832103D102DB2
:1057100001DC01F0A3F841461034013316605160FA
:10572000BC607B60072BF0DD3A0050460A9902F01E
:1057300057F8002800D0F6E2BC687B6837AAE5E796
:10574000AB46129D169308CD22A91A000B93002395
:10575000B246CB77002A01D100F030FF169B532BC5
:1057600001D101F00BF8079A10231100194017918D
:10577000134201D001F002F85B46002B01DA01F080
:1057800014FA5A4600210B9802F02AFC22ABDA7F69
:105790000F90002801D101F04DFE0F9B0B99591A73
:1057A000CB43DB17139119400C91002A01D0013132
:1057B0000C9100239B461C9319930F9373331295FE
:1057C0001693D3E5079AAB46B2461693930601D4D7
:1057D00000F08CFD13000721129A07328A43100053
:1057E00006C810911192002222A9CA775A46129037
:1057F000002A01DB00F031FD0793109B119C002C67
:1058000000D04AE1092B00D947E1109B3033DBB2CD
:105810009420632222A909188B545B460C93002B19
:1058200001DC01230C93012222A98C4622AB1392A6
:10583000F6326244DB7F0B92002B02D00C9B0133CB
:105840000C9300230F931C93199317938EE5129AD0
:1058500008CA0E93002B01DB00F0FAFC0E9B12929B
:105860005B420E9304235AE610201693079BAB4627
:10587000B24618439B0601D400F073FD0723129A29
:1058800007329A4301339C4694446346129313684B
:105890005268002122ACE1775946002922DB694990
:1058A00001400791190011431FD1594600291CD10D
:1058B0000123190001400C91034201D100F020FFA7
:1058C0009424302222A862330019C2540023139179
:1058D0001C93199317930F9322AA9446F7336344AA
:1058E0000B9343E5584908400790072560A8290015
:1058F00056071940DB0833431E00040030310138DD
:10590000D20801701643F2D1079A012315001D40F9
:105910000B901795134201D000F029FC5A4660AB5A
:105920001B1A13930C929B4501DA00F0D8FC00235C
:105930001C9319930F9319E50823F0E5099B1B7835
:105940006C2B01D100F02AFE102207991143079118
:10595000EBE4099B1B78682B01D100F014FE402278
:10596000079911430791E0E40022129C374922A8CD
:10597000AB46B24608CC0184C277002D01DA00F0B4
:1059800051FD8021079888437E3908430790002BFA
:1059900001D000F07AFF002D01D100F0FDFF94202E
:1059A000632322A930320918CA5422AAF723944645
:1059B00063440B93002317930133139377331693A8
:1059C000002300210C9512940F931C93199300F05F
:1059D0006BFD0798AB46B2461693830600D54DE79C
:1059E0001299079A08C90798D20601D500F0BBFCA6
:1059F000420601D400F0A9FF00229BB2129148E7B1
:105A00001299079AB2460B1D920601D500F0A1FC2F
:105A1000079AD20601D500F031FF079A520601D548
:105A200000F0E1FF079A920501D400F027FF129AD7
:105A30000D991268129311700EE5C04610D6000041
:105A400064DB00007FFBFFFFFFFBFFFF30780000FF
:105A500016931023079AAB46B2461343920600D51D
:105A6000B9E6129A111D129A22A812681092002209
:105A70001192C2775A46002A01DA01F0B4F9802265
:105A800093430793109B002B01D100F054FC12911B
:105A9000109B119C002C00D1B4E68023079EDB00F4
:105AA0001E40002360ADB14614932E0011E0109A01
:105AB000119B11001D000800904600230A222900B6
:105AC00005F09CFB260010901191002D01D101F0F2
:105AD00073FA109811990A22002305F08FFB149B8A
