:020000040000fa
:10000000f87f0020a1470000af270000f731000073
:1000100000000000000000000000000000000000e0
:100020000000000000000000000000000339000094
:10003000000000000000000003390000e55300004c
:10004000bd5a0000f5540000ed50000003390000d7
:100050000339000003390000ad54000003390000eb
:100060000339000015450000033900000339000082
:100070001529000000000000000000000339000006
:1000800000000000033900000339000003390000bc
:10009000033900000339000003390000b54f0000a8
:1000a0000339000003390000033900000339000060
:0c00b00003390000bd53000003390000bc
:020000040000fa
:1000bc00f8b5c046f8bc08bc9e467047ad48000079
:1000cc00f8b5c046f8bc08bc9e4670478548000091
:020000040000fa
:0800dc003830000001000000b3
:020000040000fa
:1000e400f0b5c14ca5440e93040000230800069209
:1000f4000793302855d02e287bd1e36be26c9342d2
:100104005cd25a1ce2631878002200230092019307
:10011400302857d00123089300230022002715001c
:100124001e001093049303970300303b092b66d9f8
:100134002e2866d0089b002b01d100950196079bc1
:10014400002b00d1c6e320230343652b01d000f02c
:10015400dafb9799200002f029fb00280fd18023b5
:100164001b0699420bd1979b002b00d1c1e3e36c92
:1001740000200021002b02d0e36b013be363009bd2
:10018400019c1b184c4100930194109c002c00d03e
:1001940088e0969805f0dafa0022002302f05cfa6f
:1001a400ade3e36be26c934204d25a1ce263187829
:1001b40001239de7200004f0f9f8f9e7200004f09a
:1001c400f5f8a1e701225242d3170098019980184b
:1001d4005941e36be26c00900191934205d25a1ca1
:1001e400e26318780123079392e7200004f0def815
:1001f400f8e7002300220893009201938ce72e284d
:100204000ed1089b002b4bd1009501960133089326
:10021400e36be26c93423fd25a1ce263187883e7a3
:100224007c2f22dc29003200012500264919724165
:100234000d001600302800d00491039a002a05d03e
:1002440010a9ba0052580a214a43d318ba0010a977
:100254005350039b0133039301230793039b092bff
:10026400d6d1002301370393d2e72a0033000125b6
:1002740000265219734115001e003028c8d0f822f8
:1002840010ab52009b580493012304990b4310a90b
:100294008b50564b0493bbe7200004f087f843e7e8
:1002a4002e204ce7009a95421bd1019a964218d110
:1002b400002e16dc01d1092d13d8069b1e2b03dc5e
:1002c4002300069ad3400cd1969805f03ffa060015
:1002d40020000f0005f048fa02000b00300039003e
:1002e4005ce70e9b0e9adb0f9b185b1001995b4237
:1002f400da17914203dc11d1009a9a420ed92222d4
:100304003b4b96981a6005f021fa0122394b524270
:1003140002f0a2f90122374b52423fe70e9b0199aa
:100324006a3bda178a4203dc11d1009a93420ed950
:1003340022222f4b96981a6005f008fa8023002297
:100344005b0302f089f9802300225b0326e7039b09
:100354000a21002b20d1049b082b71dc009a9342c4
:100364006edc112a6cdc092a1bd1109805f0fcf90b
:100374000d000400969805f0e9f902000b00200036
:1003840029000be7ba0010abd35810a807934b43ce
:100394001350039b01330393039b082bf2dd0137b6
:1003a400d9e7009b082b29dc109805f0ddf904003f
:1003b40096980d0005f0caf902000b0020002900f0
:1003c40002f04af90823009a04009b1a0a4a9b0087
:1003d40098580d0005f0baf902000b00200029001e
:1003e40003f0b6f88be2c046bcfdffff5c040000de
:1003f400a0190020ffffef7f14530000009b093b6e
:100404009a009b1a069a9b181e2b02dc109ada405b
:1004140016d1109805f0a8f9040096980d0005f07f
:1004240095f902000b002000290002f015f9009b49
:10043400934a0a3b9b0004000d0098589be71f0059
:100444007b1e9a0010a95258002af8d0092100985e
:1004540004f0ecfc0e1e1bd0009b002b00da0936c6
:10046400082300249b1b864a9b009b5810ad0893cd
:1004740004940394039bbb420dd1002c03d0bb0016
:1004840010aa9c500137009b9e1b09360096049ebf
:100494000023039386e02868089904f000fd0319fb
:1004a4000f912b6008997748079304f0dcfc0f9cac
:1004b400039b049a444393420ad1079b002b07d120
:1004c400039b5a1c7f231a40009b0492093b009310
:1004d400039b043501330393cce7039b7a1e1d3b36
:1004e40003937f231a40002304920793049b10aaca
:1004f4009b009b580022d9085b070a93079b0b912a
:100504000c930d920a9c0b9d0c9a0d9ba4185d41b3
:10051400002d02d15b4b9c4221d95a4a0023200072
:10052400290004f08dfb574a07900023200029007e
:1005340004f086fb049b10a99b005a507f23791e6c
:100544000b4004998b420dd1b1426fd0002a00d1e7
:100554000f007f23049a013a1a400492c6e722004e
:100564000795e7e7049ab242f3d1079a002a19d013
:100574007f21009a013e093200920e40b7420dd10c
:100584001f005a1e0a40920010a8105899000490a7
:1005940010a809580498014310a811500799b300f2
:1005a40010aa9950009b112b97dd122b05d1b30093
:1005b40010a9354a5b5893428fd90125be4213d006
:1005c40010aab3009b58304a93420dd92f4a934244
:1005d4000dd17f22731c13409f4205d09b0010a9ac
:1005e4002b4a5b58934202d8009b122b52d0009b9b
:1005f4002a001b2b00dd0922039b00219b18039377
:100604002b009340013b07931e4b13410893330087
:10061400bb420dd10029d1d07f207a1c0240b242c6
:1006240023d0bf0010abd9511700c7e733009ce7b4
:1006340098008446644610a820580490d04040187e
:1006440010a96050049c07992140089c6143b3425f
:1006540007d1002805d17f2600985c1c0938264064
:1006640000907f2001330340d2e77b1e03409b00b0
:1006740010aad25810a904922a43ca509ee7c04631
:100684001453000000ca9a3b5e7089005f708900b1
:10069400ff092f0fbe4207d17f27721c174000228b
:1006a4007b1e9b0010a9ca50b30010aad05805f0b5
:1006b4005bf80022002301f0cffe7f23721c1a4056
:1006c4000092ba4206d1002201371f407b1e9b00d4
:1006d40010ace25000228d4b01f0beff04000d006f
:1006e400009b10aa9b00985805f03ef822002b00ae
:1006f40001f0b2fe04000d00969805f027f82200e0
:100704002b000490059101f0a7ff039b0e9a35334b
:100714000f939b1a069a089009910a93934200db5f
:10072400bbe0002b00dabce0009301230793009b9d
:10073400342b00ddbae06922009b0020d21a7449f0
:1007440003f064ff089a099b05f060f93522009bc9
:100754000c900d91d21a00206d4903f057ff02004e
:100764000b000898099905f0f7f902000b00040042
:100774000d000898099905f029f902000b000c985e
:100784000d9901f069fe089009917f21b21c0a407d
:10079400ba4233d0920010abd3585e4a934200d988
:1007a4008be0002b03d1f31c0b40bb420dd0002285
:1007b400594b0498059901f04fff02000b002000eb
:1007c400290001f049fe04000d003523009a9b1a0c
:1007d400012b13dd00224e4b2000290005f0bcf94b
:1007e4000022002304f024fd002807d02000290063
:1007f4000022474b01f030fe04000d0008980999cf
:100804000e9b069a5b429b1a049322002b0001f074
:1008140023fe0c9a0d9b05f0d9f8049b06005a1e82
:100824000f9b0f005b005b089a4230dc05f090f9e7
:1008340000223a4b04f060f9002814d0079b002be7
:1008440006d0009a0a9b9b1a1a00531e9a410792db
:10085400334b30003900002201f0fefe06000f0089
:10086400039b01330393049a039b0332343393426f
:100874000ada079b002b0ad000220023200029005b
:1008840004f0d6fc002802d12222264b1a60039ad7
:100894003000390005f058f931e0069b009300233d
:1008a40044e7012307930023009344e70024002333
:1008b40025000c930d941c0067e71b4a934202d059
:1008c40000221a4b75e7f31c0b400022bb42f8d1ff
:1008d400134b6ee7002809dbe36c002b02d0e36bbb
:1008e400013be363079b002b00d04ee416220d4b23
:1008f4001a600021200004f045ff0020002191230c
:100904009b009d44f0bd0028e6da3ee465cdcd4170
:100914000000f03fff64cd1d0000d03f00004043c5
:100924000000e03fa01900200065cd1d0000e83f55
:020000040000fa
:10093400f0b595b004000492022900d92ee1ba4b17
:100944005a1c5218d27f490052b2591812922422ca
:100954008b5e0a93e36be26c93422ed25a1ce263e1
:100964001d78202df6d02b00093b042bf2d901224f
:100974002b2d27d0069202232d2d24d000272023af
:10098400aa4a2b43d25d93422cd0032f03d043d9e0
:10099400049b002b42d0e26c002a02d0e36b013ba3
:1009a400e363049b002b2ad0032f28d0002a02d013
:1009b400e36b013be363013ff6e7200003f0f6fc41
:1009c4000500cee70023d31a0693e26ce36b93424f
:1009d40003d25a1ce2631d78d0e7200003f0e6fc42
:1009e4000500cbe77e1c072f09d0e36be26c934232
:1009f4000dd25a1ce2631d783700082ebfd1069b26
:100a04000020013300d1ace2894915b0f0bd2000cb
:100a140003f0ccfc0500efe7002f16d0e36c002bad
:100a240000d1b4e0e36b013be363b0e07e1c022f32
:100a340000d1a3e2e36be26c93426ad25a1ce263f4
:100a44001d783700032e00d198e22023794a2b43e6
:100a5400d25d9342ead0002fe0d1129b0b93302d4c
:100a640000d073e2e36be26c934200d3a1e05a1c22
:100a7400e26318782023e26c0343782b00d060e211
:100a8400e36b934200d398e05a1ce2631878002386
:100a94000f93302800d194e02e2800d19ee000224c
:100aa4000023089209930e93002300221393624bb0
:100ab4000025109211930023002602920393030051
:100ac400303b0c93092b00d8c0e020230343613b47
:100ad400052b00d8bae02e2800d1b9e00f9b002bdb
:100ae40000d020e1e36c002b00d13ce2049ae36bdc
:100af400002a00d110e10e9a002a00d00ae1023b3c
:100b0400e363069804f022fe0022002301f0a4fd12
:100b14007be7200003f04afc050092e75a1ce263dd
:100b240018782838431e9841c0b20125002809d0fe
:100b3400e36c002b02d10020404966e7e36b013be4
:100b4400e363f8e7e36be26c934211d25a1ce2636d
:100b540018780300303b092b08d9202302009a435c
:100b64001300413b192b01d95f2805d10135e9e771
:100b7400200003f01bfcece72928dcd0e26c002aff
:100b840002d0e36b013be363049b002b0ed11622de
:100b94002b4b1a600021200004f0f4fd00200021fa
:100ba40033e7002a02d0e36b013be363013df8d253
:100bb400c1e7200003f0fafb5ce7200003f0f6fb3a
:100bc40065e7e36be26c934204d25a1ce263187843
:100bd40001235de7200003f0e9fbf9e7e36be26c36
:100be40093420dd25a1ce263187800220023012597
:100bf4006d42ee1708920993302805d0012352e77d
:100c0400200003f0d3fbf0e7e36be26c934219d2cc
:100c14005a1ce2631878089a099b52197341089286
:100c2400099301230f93e7e7145300005a5a000075
:100c34000000f07f635a00000000f03f0000f87fde
:100c4400a0190020200003f0b1fbe4e72e2813d103
:100c54000e9b002b00d08be10c950d9601330e9367
:100c6400e36be26c934251d25a1ce2631878089504
:100c740009960c9d0d9e22e7392803dd20230343aa
:100c8400573b0c93002e2adc01d1072d0dd80c9b69
:100c94003f01df190122002352197341089d099e67
:100ca4000c920d9301230f93dae70d2d17d81098aa
:100cb40011990022b64b01f0cffc109011910c98c1
:100cc40004f044fd109a119b01f0c6fc02000b00d5
:100cd4000298039901f0c0fb02900391dae70c9ba0
:100ce400002bd7d0139b002bd4d11098119900223c
:100cf400a84b01f0b1fc0b0002000298039901f02b
:100d0400abfb0123029003911393c3e7200003f08c
:100d14004dfbace7033bf3e6013be363002120001a
:100d240004f030fdede60e9b002b01d108950996e9
:100d34000122002302e0ad185e413f01002e02dcd7
:100d4400f9d1072df7d92026304370280dd1049905
:100d5400200001f02bfd00280fd180231b069942af
:100d64000bd1049b002b00d114e7e36c002b02d0c1
:100d7400e36b013be36300200021002f00d1c0e6b8
:100d8400089a099b08246442e51712196b41140060
:100d9400960f9b003343a20012184b410492059313
:100da4000a9b05995b42da17914203dc11d1049a3c
:100db4009a420ed92222784b06981a6004f0c6fc97
:100dc4000122764b524201f047fc0122734b5242fe
:100dd4009ce60a9b05996a3bda178a4203dc33d105
:100de400049a934230d922226b4b06981a6004f07d
:100df400adfc802300225b0301f02efc8023002243
:100e04005b0383e6002202980399624b03f074fead
:100e14007f00002800d189e0029803990022604bea
:100e240004f0d4fd013702000b000298039901f08d
:100e340013fb01225242d31702900391049805999f
:100e44008018594104900591002fdbda0498059924
:100e5400129b2022dc17002312184b410a98c11759
:100e6400121a8b419c4203dc08d11299914205d994
:100e7400049b0a9a9b1a20330b935cd40b9b342b50
:100e84005cdc54220b9b0020d21a454903f0befbc4
:100e9400040006980d0004f059fc0b000200290020
:100ea400200004f0b3fd0b9b04000d001f2b0edc8f
:100eb400029803990022002304f0baf9002806d10d
:100ec400fb0704d4002200230292039301370698ff
:100ed40004f03cfc029a039b0690079101f0bcfbd2
:100ee40002900391380004f03ffc069a079b01f03e
:100ef400b3fb22002b0001f0affa029a039b01f02e
:100f0400abfa22002b0004f061fd00220023040050
:100f14000d0004f08df9002802d022221e4b1a6025
:100f2400049a2000290004f00ffe6ee5029a039b48
:100f3400100019007be700230b93a2e7002400258f
:100f4400c5e7002a02d0e36b013be363049b129ada
:100f54000193069b2900009320000a9bfff7c0f829
:100f640053e5104951e5049b002b00d0c9e5d5e6b3
:100f74000f9b2e20002b00d0dae6b3e5e36be26c86
:100f8400934200d2cae5200003f010fac9e5c04636
:100f94000000b03f0000e03fa0190020ffffef7ffa
:080fa4000000f03f0000f0ff27
:020000040000fa
:100fac00f0b59bb013930b6815900a938b680d9159
:100fbc000b930b694d681893cb68029313680893d5
:100fcc0053680898069300220023069903f054fef8
:100fdc0000280dd10a9b5b073bd408200a9b0340d9
:100fec0009930b9b0393099b002b0fd0202306e046
:100ffc00802212069446069b634406932d23029a84
:10100c0013700b9b013b039301230993069b0899d7
:10101c005b005b08924a00291dd193421bd10299b7
:10102c00139b8c46099a413b624410008d49192b45
:10103c0000d98d4904f05afd029804f0d1fb0a9bab
:10104c000200009302990b9b159802f02bfe1bb02b
:10105c00f0bd2b23d3e7934203d80ed1089b002b72
:10106c000bd00299139b8c46099a413b62441000a9
:10107c007e49192bded97e49dce700220023089833
:10108c00069904f0d1f800267a4f002400283ed1ae
:10109c00040002e00134049e059f0022764b3000d0
:1010ac00390001f0d5fa089a069b0490059103f0db
:1010bc0021fe0028eed00023049320e06f4b9c42cd
:1010cc0014da049b002b11d100226d4b0898069961
:1010dc0001f0befa6a4b08900691300039000022ec
:1010ec0001f0b6fa012306000f000493300039001a
:1010fc000022614b02f028fa06000f00013c32007e
:10110c003b000898069903f0b7fd0028d6d1139838
:10111c0004f08ffcc3b20c93002d00da94e104931d
:10112c00672b00d0b2e0002d00d189e1231d02db3a
:10113c00ac4200daa6e06523b6e0002200230e9252
:10114c000f9303e106960797049b2600652b00d0ae
:10115c001ae1002618e1129b002b0bd1002e09daa4
:10116c00029a14992e335354039b0137013b03937a
:10117c0001231293ea193b009446302102e0029ab3
:10118c00d15401339c45fad1039aeb19551b029aa1
:10119c0030305f1cd0546b1e0393002521e00d9b57
:1011ac0014971b691093053bbb4200d8f5e0069ad7
:1011bc00079b08980e9902f0c7f902f09dfb10905e
:1011cc00119103f03fff092800dd092010230a9a32
:1011dc0013400343bfd10c9b672bbcd1002ec9da43
:1011ec0001358020000684460e99089a61440b0054
:1011fc001098119900920193069a079b04f00afc2f
:10120c0080231b06cb1808900e9306980799002292
:10121c00194b02f099f9013e06900791b9e00a9b2f
:10122c00db0600d4bde02e23029ad3550137b8e07b
:10123c0020000a2103f0f6fd029b3031013d595587
:10124c0020000a2103f00bfe039b0400013b0393d7
:10125c00b7e0029b03991a5c5b181a540138e0e062
:10126c000000f07ff0590000f4590000f85900001c
:10127c00fc5900000000f03f00002440d4feffffaa
:10128c0000005043002c0eda66230493049b0135b6
:10129c00662b0ad1002c02da002600246d4f0c9b21
:1012ac00672b00d02d1966230493089b0e960f977d
:1012bc001293069b1093002314930e9a0f9b129873
:1012cc00109902f041f902f017fb1690179103f0f8
:1012dc00b9fe19908020000684461099129a614438
:1012ec000b0016981799009201930e9a0f9b04f01d
:1012fc0091fb80231b06cb18129010930e980f991c
:10130c00554b002202f020f9149b0e900f910133e3
:10131c0014939d42d1d10022504b01f099f90e90bb
:10132c000f9102000b001298109903f0a5fc0028f5
:10133c0000d002e70e9a0f9b1298109903f074ffdd
:10134c00002803d0199bdb0700d4f6e60e9a0f9bfe
:10135c000898069901f07cf8002208900e913e4bfb
:10136c003000390001f074f9089a0e9b0690079131
:10137c0003f09cfb002800d1e4e6049b0134662baf
:10138c0000d0e1e626000135731b0025099f16935a
:10139c001295169b9e4200d001e7129b002b00d1a8
:1013ac003de70026029bdb1906931e70049b652b00
:1013bc002ad1189b5d1e029b5e55b44201da644231
:1013cc000136002c00d033e7189beb1a0333002bab
:1013dc0000dd2de76a1e2d23002e00d1023b029961
:1013ec00023d8b54139b413b192b01d8452304938d
:1013fc00029b5919049b0b70039b023b0393af4256
:10140c0002da069804f072fb03230a9a1340022bab
:10141c0000d011e6039b002b00dc0de6029804f0d3
:10142c00dff9099b834200dc13e7029a30219446d2
:10143c0063441800039a04f075fa00230b93fbe540
:10144c00012573e6062571e60c9b672bfad00493f5
:10145c0006251be70000f03f00002440000014406c
:020000040000fa
:10146c00f0b599b014930b68566809934b681390b8
:10147c000d938b68cf680c930b6931001193136833
:10148c00002208930898002303f0f6fb00280cd1e7
:10149c00099b5b0724d40820099b0c9d03400593f2
:1014ac000cd02023013d3b7006e080231b06f61870
:1014bc002d233b700c9b5d1e01230593089a730032
:1014cc005b08002a0ed1ac4a93420bd1149b059aaf
:1014dc00413bb818a94caa49192b12d9210010e08c
:1014ec002b23e6e7a44a934203d819d1089b002b7f
:1014fc0016d0149b059a413bb818a24ca249192b43
:10150c00ecd804f0f3fa200004f06af9099b02000d
:10151c00009339000c9b139802f0c4fb19b0f0bd7a
:10152c00059b05995a1c30237b54149b413b0e930d
:10153c000e995823192900d920330599bb5402312f
:10154c00ab1e05910793002200230898310003f08d
:10155c006bfe002800d165e100238c4c06930293ae
:10156c0003940d9b1093002b01da18231093029b0c
:10157c00039c0a930b9434000023089d12932800bb
:10158c000a9a0b9b210001f0dfff02f0b5f90a9ad1
:10159c000b9b1690179101f05bf802000b002800d2
:1015ac00210004f00ffa7a4b05000c000a980b99f5
:1015bc00002201f04df8129b0a900b9101330f930e
:1015cc000d9b002b07da002200232800210003f0da
:1015dc002bfe002806d1109b129a934200dd27e1c6
:1015ec0001330f9300220a980b996a4b01f030f8e3
:1015fc000a900b9102000b002800210003f03cfb29
:10160c00002800d016e10a9a0b9b2800210003f059
:10161c000bfe002806d01698179903f013fdc3078c
:10162c0000d407e10a9a0b9b0898310000f010ffd8
:10163c00129149000a904908002803d14e4b994257
:10164c0000d143e70025059c10950895119b2600b9
:10165c00053ba34230d9029a039b0a98129901f0d8
:10166c0073ff02f049f91490159103f0ebfc031e83
:10167c0000d0e4e0089a002a00d1e0e00135029a9b
:10168c00039b1498159900f0e3ff02000b000a98d5
:10169c00129904f097f900220a9012913c4b02988f
:1016ac00039900f0d5ff089b029003910133089336
:1016bc00089a0f9b9342c9d1109b002b1ad1002d75
:1016cc0000d100e10d9b002b00dcfce0099bdb074b
:1016dc0000d5f8e02e2230213b191a702a19ba18bd
:1016ec00597001339a42fbd12c19ed43079b0134fd
:1016fc00eb18079300263b191e700293119b5d1e7d
:10170c00069b7e55b34202da5b4206930136069b7a
:10171c00002b00d0c0e0119beb1a013300d1bbe0d1
:10172c006a1e2d23002e00d1023bbb540e9a023da3
:10173c005023192a00d9203379190b70ac4202dae4
:10174c00029804f0d3f90323099a1340022b11d108
:10175c00079b9c1e002c0ddd380004f041f8059b06
:10176c00984200dba8e0f8182200302104f0daf8e7
:10177c0000230c933800c7e60000f07fe45900000a
:10178c00e0590000ec590000e85900000000f03f5f
:10179c000000b03f00002040069b029403950133eb
:1017ac000693029a039b1000190000f051fe0400ee
:1017bc000d0002000b000898310003f05dfa0028c0
:1017cc00ead0029a039b0898310003f055fa0028de
:1017dc0000d1c6e60298039900223f4b00f038ff77
:1017ec000022002303f020fd00280fd0029803995b
:1017fc0000223a4b00f02cff002202900391374b51
:10180c000898310000f024ff0e000890324b02982b
:10181c000399002200f01cff069b02900391013bf0
:10182c000693cee700232e4c069002930394b8e760
:10183c000f9ba3e6002300240a930b94f2e6109a64
:10184c00002a0ad1089a002a07d02e22ba55079ae4
:10185c000134013a0792012210922e19302201e034
:10186c003a550134b442fbd11800079a5730551b36
:10187c00092b01dc303318000e9b192b06d82023c2
:10188c000343613b192b01d804f0daf86b1e741c6e
:10189c00b85507930025f2e606980a2103f0c2fa20
:1018ac00013d3031795506980a2103f0d8fa079b8f
:1018bc000690013b07932ae7079b3a5c023bfb1817
:1018cc001a5401384be7099bdb0600d412e72e2390
:1018dc003b5501340ee7c0460000e03f000050438a
:0418ec000000f03fc9
:020000040000fa
:1018f0000023f0b506001500b1b0079103930799d6
:101900000b78002b00d10ce101235b420c9310ab50
:1019100000240e9380230b940d940f930b5d002bea
:1019200001d0252b2ad1002c06d02200300003f054
:1019300043fa079b1b190793079b1a78252a00d0a7
:10194000e4e0013304930793022301219c4610270e
:10195000079803782b2b1ad025d8202b1ad0232bad
:101960001dd02a2b28d003f04df90d90079b1a7833
:10197000303a092a31d801330793f7e70134cde72c
:101980000b9b05930b4301300b930790e0e7042377
:101990000b9a0fe00b9b0593059a08230ae00b9b1b
:1019a00005933b43efe72d2bead0302bd9d162468c
:1019b0000b9b05931343e6e72b6801301a1d1b6848
:1019c00007902a600d93002b07da0b9a5b42059271
:1019d000012205990d934a400b920b9bda0702d521
:1019e000022293430b93079b1a782e2a0ed10022d2
:1019f000581c0c9207905a782a2a27d10233079351
:101a00002b681a1d1b682a6005930c9307a803f026
:101a100039fb079b0700187804f011f8692800d1fa
:101a200082e034dc632800d1dbe01adc252800d119
:101a3000e8e0612858d0049b01220793002352421a
:101a40000c920b930d9300930232e5e003f0daf869
:101a50000c90079b1a78303a092ad7d8013307939c
:101a6000f7e7642860d06728e5dc2a00390008a879
:101a700003f07bfc002800d1afe0079b0ba95a1ca8
:101a800007921b7808aa3000fff790fa3de0702813
:101a900000d17de016dc6e2800d197e06f28cad116
:101aa0002b000022390008a801f0b6fd002800d163
:101ab00093e0079b08aa01330ba93000079302f0bb
:101ac000e1f922e0752840d078284fd07328b2d1b0
:101ad000802f00d081e0079b2a6801330793131df4
:101ae0002b601268002388e02a00390008a803f060
:101af0003cfc002800d170e0079b0ba95a1c079200
:101b00001b7808aa3000fff7b1fc2418039b1c19ae
:101b1000a34200dc82e04f22414b1a6001235b426a
:101b20000393039831b0f0bd2b000122390008a8bf
:101b300001f072fd002850d0079b08aa01330ba9c1
:101b40003000079301f038ffdfe72b000022390057
:101b500008a801f061fd00283fd0079b08aa0133c7
:101b60000ba93000079302f0a9fccee72b0000225e
:101b7000390008a801f050fd00282ed0079b5a1c00
:101b800007921b7808aa0ba9300001f00af8bce7fd
:101b90002b000022f02108a801f03efd00281cd0f7
:101ba000079b099a01330793089b13430cd11d4fe0
:101bb000380003f01bfe390002000b9b00930d9bc5
:101bc000300002f075f8a0e77823dbe7039b3900cb
:101bd0001a1908a82b0002f02ffa079b013307936c
:101be00094e7802ff9d1079b013307932b681a1dc7
:101bf0001b682a6008aa137001230ba9300002f0a9
:101c000059fd82e7802fe8d10122079b013307931a
:101c10000b9b049300930d9b0349d1e703946ee65d
:0c1c2000a0190020445b00004a5b00009b
:020000040000fa
:101c2c00f0b54e4657464546de469046e0b51600a2
:101c3c001f0002000b0012184b41b84a85b08146b8
:101c4c00934200d945e134003d000022a4197d41a6
:101c5c00b34b12196b41b34ca34200d939e100d1fb
:101c6c0034e10023002400930194cb0fdb077c00ac
:101c7c0001934d006308c2460393cb466d089d4209
:101c8c0000d8b2e02b0d9c464ed080200903090be6
:101c9c004003084303994a46090d0300894600296d
:101cac0075d080253c03240b6d0325434046290049
:101cbc0066464f46e14500db16e114001d00241a70
:101ccc008d41002d05db23002b4300d197e0220032
:101cdc002b00013e92185b41be42eed1b946140076
:101cec001d00241a8d41002d05db23002b4300d150
:101cfc0085e022002b00802040030100184206d111
:101d0c00484692185b4101381942fad0814649463f
:101d1c004c1e00d5eae00020210580185941009b9b
:101d2c00019cc01861416ce02a1e00d19ee07e4be4
:101d3c009d4200d9d0e018232a049946083b7b4cdd
:101d4c00a24201d84b461202794ca24201d804336c
:101d5c001201784ca24201d802339200d243d20f26
:101d6c009a180b235b429c4694442b3a914600d51f
:101d7c00a2e005004c46a5402b00010060468140c6
:101d8c000a0041428c460399090d894689d1039872
:101d9c00011e3dd06448814200d9a1e018200904fd
:101dac0080460838614da94201d840460902604d71
:101dbc00a94201d8043009015e4da94201d8023074
:101dcc008900c943c90f41180b2040428146203875
:101ddc0089440d183ed43400ac4021004d463400eb
:101dec00ac4020006c42a14662e79d4202d1c14545
:101dfc0000d947e7da4504d1039bab4201d10098e7
:101e0c00019905b03cbc90469946a246ab46f0bd44
:101e1c00454c40460825a24502d810213004103507
:101e2c00424ca04201d829000002414da84201d8e1
:101e3c00043100013f4da84201d802318000c0435b
:101e4c00c00f09180b2040428146203120388944ac
:101e5c000d18c0d5484620213500091acd40039ce9
:101e6c00a8468440210044462143b7e72e4c4b46fc
:101e7c00a4460824a146e34503d81822030491463e
:101e8c00083a2a4ca34201d84a461b02284ca342ca
:101e9c0001d804321b01274ca34201d802329b000b
:101eac00db43db0fd2180b235b429c46203294445d
:101ebc002b3a914600d45ce76246202364469b1a79
:101ecc00a5400200da402b00134356e7002a00d14c
:101edc00c7e60020184994e70823994600232ee70b
:101eec000820804600205de7e146f8e648460121df
:101efc00091a20204042081807d41c00c4402000b6
:101f0c00cb4002000021002007e720201c00401ad3
:101f1c0084401000c8402043f2e7c046ffffdfffbb
:101f2c000000e0ff0000c0ffffff0000ffffff000c
:0c1f3c00ffffff0fffffff3f0000f87fda
:020000040000fa
:101f4800f0b5de4657464e464546e0b583b000201c
:101f580002f0d6f803f000fb03f0ecfa022003f0dd
:101f68001bfd00218b4803f093fd00218a4803f0f4
:101f780089fd8a4802f0fefe894ca169a268894d54
:101f8800e36900930b1c280002f03cfaa169226a5d
:101f9800c9239b00e818636a00930b1c02f032fa0d
:101fa800a169a26ac923db00e818e36800930b1c47
:101fb80002f028fa7c4b9a4600239b4679e07b4b3b
:101fc80000221a707a4802f0fff87a4c207020003c
:101fd80002f008fc2378012b73d1774803f08efdbb
:101fe80002f024f902f042fd02000b00734803f0ee
:101ff8001bfb66e06a4c2368714e724a90469e2726
:102008007f00d0596268009280225200310001f0ae
:10201800bdfb6d4d286023688022d200b11842466e
:10202800d059626800928022520001f0affb6860cc
:10203800236880221201b1184246d0596268009282
:102048008022520001f0a2fba860a368554a91467d
:102058000c374246d059e2680092c922494601f03d
:1020680095fb5a4e3060a368c9218900494442460d
:10207800d059e2680092c92201f088fb7060a36819
:10208800c921c90049444246d059e2680092c92290
:1020980001f07cfbb060331d6a4603cb03c2336892
:1020a80028686968aa6800f011fe01f075fe03f05f
:1020b80075fb53465a461a703c4b1b78002b00d0d0
:1020c8007de7374c21692268414d6b6800930b1cf2
:1020d8003b4802f00df96169aa68eb6800930b1c94
:1020e8003c4802f005f921692a69354b80252d0104
:1020f800ac4663441800636800930b1c02f0f8f8c0
:102108000a212b4801f0aefc03f0dcfb324a8423a1
:10211800d35c002b06d1140003f008fb8423e35c96
:10212800002bf9d003f0d8fb02f0ccfb2a4802f0d0
:10213800edfb02f0efff234c96235b00e05802f022
:1021480011f89e235b00e0500c3be05802f00af8bf
:10215800a0235b00e0500c3be05802f003f8a223f8
:102168005b00e0501d4b186803f04cf91c4b1b78c2
:10217800002b00d13ee70c4b1b78002b00d039e731
:10218800094b01221a700f4a9e235b00d05803f0b6
:102198001dfb2fe7d55a0000cd3f00000000c242ca
:1021a800f81a0020000c0020931600209216002038
:1021b8004c19002040190020411900201056000039
:1021c80000000020ac190020341900202819002034
:1021d800f0180020000400200c1600201c19002014
:0421e8005719002063
:020000040000fa
:1021ec00d41800201c0000000000000094170020f0
:1021fc0050000000000000005819002010000000e2
:10220c0000000000041900200c0000000000000079
:10221c006819002008000000000000004b19002085
:10222c000100000000000000a81800202c00000095
:10223c0000000000941600200001000000000000c7
:10224c00341800204000000000000000701900202d
:10225c000800000000000000101900200c00000015
:10226c0000000000781900201000000000000000a1
:10227c007818002030000000000000006c150020d1
:10228c00a0000000000000008819002008000000d9
:10229c0000000000a8190020010000000000000050
:1022ac001c1900200c000000000000000c1600207f
:1022bc008600000000000000ac1900204c0100005a
:1022cc000400000000024040000240400001f09b6e
:1022dc00450001608645000150c3473313954333d5
:1022ec0093884300ff00310000000020000c000028
:1022fc0000000000f0180020140000000000000096
:10230c00000c00206c0900000000000028190020bf
:10231c001800000000000000f81a00202c0000003b
:10232c0001000000000020c20000f042000080bf4d
:10233c000000803f000020400000803fcdcc4c3e90
:10234c003333b3be8fc2f5bc8fc2f53c3333b33ecf
:10235c00441b002018000000040000000002c0bf55
:10236c00000240bf0003bf0006403f0002c03f0018
:10237c0092160020010000000000000074180020dc
:10238c000400000000000000981900200400000068
:10239c0000000000401900200b00000000000000ad
:1023ac004c1900200a0000000000000093160020c9
:1023bc00010000000000000056190020020000007f
:1023cc00000000005c1b0020140000000100000055
:1023dc00143e0000343e0000503e0000000000009f
:1023ec00703e00009c190020080000000000000056
:1023fc00e41700205000000000000000a419002089
:10240c000400000000000000241b0020200000003d
:10241c0001000000010000000300000000000000ab
:10242c0000000000000000000000000000000000a0
:10243c0090190020901900200800000000000000f6
:10244c000000000000000000666666666666666650
:020000040000fa
:10245c00f0b40125ed070f005f405ad48b4200d138
:10246c00824205d950404240504059404b4059405f
:10247c004e18760ddf187f0d3bd0741c640529d0e7
:10248c00f41b352c26d80e0ddb022b43db0ac902bc
:10249c002943c9121700202c1ed2e741e2405740b5
:1024ac00e3415a40a340e3405a400024801859416c
:1024bc000ad3b21c520521d0c207012f624117006a
:1024cc004008cb0718434908013636054208af418e
:1024dc0060417141f0bc7047203c06d01f00e741c1
:1024ec00e3405f400024012a6741c0186141ebd3ef
:1024fc00dfe7002eeed129400020ebe70136310555
:10250c000020e7e7e742e5d10020c143090dc904eb
:10251c00e0e76b400e00871a9e4104d26e40c01b50
:10252c00b141d21973414e18df18ac0ae642e9d218
:10253c00760d7f0d31d0f41b362ccbd8b4460e0d56
:10254c00db022b43db0ac9022943c90a012c32d80e
:10255c0004d1d4075208df073a435b08ef0a644200
:10256c00904199411ed0002239424dd1241940414d
:10257c0049410124394204d10134001849413942fe
:10258c00fad06246a24204d9361b013e360589199f
:10259c00a0e7f10ac90700209ce736429ad1002037
:1025ac00002197e70200224394d0b842ded201000a
:1025bc0020002024e3d1202c13dd203ce241170025
:1025cc00a240e2405740e3415a40a340e3405a4006
:1025dc00012fbf410137174300227c4298419141a2
:1025ec000ce01700e741e2405740e3415a40a3405a
:1025fc00e3405a407c429041994100220f0303d2a0
:10260c00013e241940414941013e36054708ac4181
:08261c0050417141f0bc704710
:020000040000fa
:1026240008d1002806d1f54204d801d3002a01d1eb
:102634006d0d09d10020c143090dc904f0bdf9d1c4
:102644001242f7d1640df5d00020c1434905490871
:10265400a6e000206146f0bdf0b50127ff070e009b
:102664005e403e40b446be0a4c18dd18f442d7d250
:10267400f542e4d2640decd06d0dead06419c902c0
:102684003943460dc0023143db023b43db0a10b43d
:102694008e4685b297b26f43140c6c433e0ca4195a
:1026a400260c2404bfb227439cb26c43a419190c12
:1026b4006943250ca4b249190d04090c6419000cd2
:1026c40095b245433e0c76193743bfb2360c150c10
:1026d4004543ad19a6b2240cad192e0437432e0c74
:1026e40036199db24543ad19acb22e0c89191d0c97
:1026f40045436d182e04290c3443704680b295b2bc
:1027040045433e0c76193743bfb2360c150c45438e
:10271400ad19a6b2ad19240c2e0437432e0c36196c
:102724009db24543ad19acb22e0c89191d0c45431d
:102734006d182e043443290c75462d0c90b2684351
:102744003e0c80190604bfb23e43070ca0b23f18ea
:10275400120c6a43d019020c80b2240ca4189ab249
:102764006a43121914042043120c89181b0c6b437e
:10277400c91810bc01273d05294203d1b6194041af
:102784004941013cff077d0d013d641b0bdb6d00de
:10279400ac4209da240500254208be416841614182
:0a27a40066463143f0bd54e74ee7ee
:020000040000fa
:0227ae00fee744
:020000040000fa
:1027b000f0b5c36bc26c85b004000e00934231d2f9
:1027c0005a1cc2631d782b0002222b3b934300222c
:1027d0000192934216d12d3d6b426b41e26c019305
:1027e000e36b934222d25a1ce2631d782b00303bec
:1027f000092b07d9002e05d0e36c002b02d0e36b28
:10280000013be363002300932b00303b092b12d9db
:10281000e36c002b02d0e36b013be36380270026cf
:102820003f062ee001f0c4fd0500cce7200001f0da
:10283000bffd0500dae70a23009a5343e26c5d19f5
:10284000e36b303d009593421fd25a1ce2631d7822
:102850002b00303b092b03d82b4b009a9a42eadd20
:10286000009ef7172b00303b092b32d9e36c002b6d
:1028700046d1019b002b04d033003c0000275e4270
:10288000a7413000390005b0f0bd200001f090fdf7
:102890000500dde70a2200233000390002f050f97c
:1028a000eb1702950393029a039b30267642f717a3
:1028b00080185941e36be26c36184f41934203d2c2
:1028c0005a1ce2631d78cde7200001f071fd050080
:1028d000c8e70e4b9f4203dcdcd10d4b9e42d9d999
:1028e000303d092dc2d8e36be26c934203d25a1cef
:1028f000e2631d78f4e7200001f05afd0500efe7e0
:10290000e36b013be363b4e7cbcccc0c14ae4701e3
:04291000ad47e17a74
:020000040000fa
:1029140070b5504b586a504b9b7d002b54d04e4998
:102924004c68072214404b4b5a699d699e680b7e84
:102934005b0757d5896a474bdb68934252d9002c11
:1029440043d1444b5b6899540132434b1b7edb07f4
:1029540016d5414b012119753e4b9b68ab4256d9a4
:102964003c4b1b68595d3c4b99620135394b1b69e3
:10297400002b01d1b54262d0364bdb68934262d062
:10298400344b5a619d61344b1b7e9b0715d5334be9
:102994001b78002b18d02f4bdb68934211d12d4ba1
:1029a40000221a772c4907240c752c490a701b6adb
:1029b400002b09d0274b1b6a9847284b1b78002b08
:1029c40002d0254b02229a7570bd224b5b685400dd
:1029d400e1520132204b1b7edb07d1d51e4b012176
:1029e400197508e01c4b1b7edb07c9d51a4b012166
:1029f4001975002cb0d0174b9b68ab4213d9154bfb
:102a04001b686900c95a144b99620135aee7114b32
:102a14001b69002baad0104bff2199620d490b6949
:102a2400013b0b61a2e70b4b1b69002b9ed00a4ba9
:102a34000b49996207490b69013b0b6196e7074b08
:102a4400012119709ce7044b012199750331197513
:102a540096e7c046a8180020001000424b19002039
:042a6400ffff000070
:020000040000fa
:102a68000122d20703004b403dd430b4431a01d2af
:102a7800c01ac9184b004400240eff2c29d0002c82
:102a880024d01b0e20d0e31a182b1ddc0902114399
:102a9800c40d000210435d4219350a00aa40d2094c
:102aa800d940451801d36d080234013ce405280ad1
:102ab8000121c9072d062a438a4160414100090eb8
:102ac800ff2901d3c00dc00530bc7047c00fc00737
:102ad800fae742001823da41ff2af5d07f200001e7
:102ae8000c300005f0e7a4465140431a02d2534087
:102af800c01ac9184b00090211431b0e4400240eca
:102b0800ff2c41d0002b10d05b421b19012b10d396
:102b180022d1c30d4002401a10d3db050100400a40
:102b2800c90591415841644670472442fbd10020b1
:102b3800f9e7c30d40024900401af4d000210131e1
:102b48004000fcd38c4204d95b1adb05400ac0184c
:102b5800e9e7180ac007e6e7192be4d801330c00a7
:102b6800d940dc414c40012c4941c30d00021043bf
:102b7800441a01d4a4006408013bdb05200a24069a
:102b88009441584164467047ff2b01d04102cad096
:0a2b98007f2000010c300005c5e7a6
:020000040000fa
:102ba200f0b58fb00d934b680c9006938b680d00b7
:102bb2000793cb6816000393069b0f68002b44db38
:102bc20002239f4310233b400a93079b04930a9bd3
:102bd200002b07d0726833681343079a02d01300a0
:102be200023b049308233b400b935a1e9341049ae1
:102bf200d31a04933368039a0893736809932b6971
:102c02005c1e00231355069b0593012c20dc0a9bb6
:102c1200002b51d10b9b002b03d02023039a013ca4
:102c220013552b6900975a1e039b121b19190c98f6
:102c3200079b01f03cf80c9b5b68db0503d56b68d6
:102c4200984200da18000fb0f0bd01230693b9e7ed
:102c5200089b099a13430bd1059b002b08dc069aab
:102c6200049b9b1a059a9b18002bd0ddbb07ced57f
:102c72000f23089a013c134018005730092b01dc3e
:102c8200303318000d9b413b192b06d820230343f8
:102c9200613b192b01d802f0d8fe039b1855059b06
:102ca200013b0593099b1a07089b1b091a43099bc1
:102cb20008921b090993a8e70cce1343aad0039be1
:102cc2000d9a1b19013b1a703023039a023c1355cb
:022cd200a0e779
:020000040000fa
:102cd40082b0f0b599b00790089109921f930798b4
:102ce40001f0c6fe04000d001f9801f0c1fe009023
:102cf400019102000b002000290001f05dfc01f0ad
:102d040097fa11903a4f3b680a93209801f0b0fe6d
:102d14000290039102000b002000290001f04cfcfa
:102d240001f086fa12907e690b96219801f0a0febc
:102d34000490059102000b002000290001f03cfce6
:102d440001f076fa1390bb680c93089b06931493d6
:102d5400fc680d94099801f08bfe009a019b009089
:102d6400019101f029fc01f063fa15900e94029a86
:102d7400039b009c019d2000290001f01dfc01f033
:102d840057fa16903b6900930f93049a059b200011
:102d9400290001f011fc01f04bfa1790109611acc8
:102da4000aae18af00230093029320cc02ce281c55
:102db40000f04afd011c0298fff754fe0290291c02
:102dc4000098fff74ffe0090bc42eed10021041c96
:102dd40002f03cfc002808d1211c029800f0d8fe27
:102de40019b0f0bc08bc02b018470020f8e7c04690
:042df400441b00205c
:020000040000fa
:102df800f0b5c30d013b83b0fd2b5ed801a902f0ed
:102e0800cffb384b041c019d984242dcfc2189050c
:102e180002f0d2fdfc218905041c00f013fdfc2101
:102e28008905fff71dfe011c201c00f0affe013dc7
:102e3800041c211c201c00f005fd061c280002f0c3
:102e48001dfb2949051c301c00f0fcfc2749071c08
:102e5800301c02f0b1fd011c381c00f097fe211c4b
:102e680000f0f0fc211cfff7fbfd2149041c281c85
:102e780000f0e8fc011c201cfff7f2fd1d49041cb2
:102e8800281c00f0dffc011c201cfff7e9fd03b043
:102e9800f0bdfe21890502f08ffd0121061c494283
:102ea800201c02f04ff9fc218905fff7d9fd011c10
:102eb800301c00f06bfe041cbbe7ff214300090631
:102ec8008b42e4d80c498b4206d90028dfda21224c
:102ed8000a4b0b481a60dae72222084b09481a60a5
:102ee800d5e7c046f304353f3d7e0dbf3a3fd44099
:102ef80083805eb90080313fffffff00a0190020ea
:082f08000000c07f000080ff03
:020000040000fa
:102f1000ff2170b54300041c09068b425fd8374976
:102f200088425ddc3649884260d8364a5b08934265
:102f300061d9fc25c30fdb07ad055d40324900f0c8
:102f400085fc291cfff790fd01f0bbfe050002f097
:102f500099fa2e49061c00f079fc211cfff784fd2c
:102f60002b49041c301c00f071fc011c201cfff7d5
:102f70007bfd011c061c00f069fc2649041c00f0c6
:102f800065fc2549fff770fd211c00f05ffcfa216c
:102f90008905fff769fd311c00f058fc1f49061c2c
:102fa000201c00f053fc1e49fff75efd211c00f0c1
:102fb0004dfc041cfc20311c800502f001fd011cad
:102fc000201cfff751fd011c301c00f0e3fdfc212b
:102fd00001358905fff748fd290002f0b7f870bdfb
:102fe0002222ff200f4bc0051a60f8e722220d4b6a
:102ff00000201a60f3e7fe208005f0e71372b1426b
:1030000050acaec207e53c1e65a9b83f008031bf99
:1030100083805e3923958a372387e33bcbfc013ad3
:08302000748c633da01900202f
:020000040000fa
:10302800f0b5d6464f464646c0b50426344da846a8
:10303800a946334b9a465be04a46126a002a42d0b8
:10304800796a3b6a01209847bb6a01333a6b93421d
:103058009241134037e05246926a5200e0b2294941
:1030680088540132240a8c543ce002f027fb244b9c
:103078001b6a002bddd0224b596a3c23204ad35cc3
:10308800002b06d0936b9842d3d3136a002098473d
:10309800cfe71b4b9b6b9842cbd1194b1b6a002087
:1030a8009847c6e7184b1b7e334223d0164b1c8d1e
:1030b800a4b2ab6a01332a6b934292411340424651
:1030c800d26a9a42b8d00e4ad26a9a42ead00e4ad6
:1030d800516807220a40012abdd0094a926ae4b21f
:1030e80008498c54064a93623423d35c002bbcd124
:1030f800034fd7e71cbc90469946a246f0bdc04690
:0c3108003418002094160020000400423f
:020000040000fa
:10311400f0b5060085b00f0015001c008b4265d881
:1031240001d1824262d82100280002f08dfb3900cf
:103134000090300002f088fb009b21001b1a1a004b
:103144002800039302f074fb00900191019bbb42a1
:1031540046d802d1009bb34242d8009b019c039afb
:1031640001200021f61aa74102f062fb039b002b09
:103174002fd0019b009adb0754081c43019b5d0878
:10318400039b9c46bd422ed801d1b4422bd83200b9
:103194003b00121bab41012692185b410027b61875
:1031a4005f4101235b429c446346002bead18019b2
:1031b4007941039a04000d003000390002f02cfb21
:1031c400039a06000f0002f033fb241a8d412000fd
:1031d40029000a9b002b01d01e605f6005b0f0bd82
:1031e40000200021c2e7b6197f41dae70020002160
:0231f400efe703
:020000040000fa
:0231f600fee7f2
:020000040000fa
:1031f800f0b5ce46474680b583b00125314ca04690
:10320800314a304eff23994616e058002f4f3f5c55
:10321800bc466f466146b97101302c49085cf871ab
:1032280001331ae06b4606331b8849460b40138569
:10323800244b1b7d002b20d1137e2b423dd0a06850
:10324800e368984236d05768072038400128dcd018
:103258001e48c75c684687710133306983428041e4
:1032680003401848c360506807230340012bd9d195
:103278006b4606331b881385dae702f005fb114b12
:103288001b68002bbcd0434659681b7f002b08d015
:103298000c4b9b699842b3d30a4b1b680320984791
:1032a800aee7084b9b699842aad1064b1b680320de
:1032b8009847a5e7044b01221a7503b00cbc904649
:1032c8009946f0bd3418002000040042141700206d
:020000040000fa
:1032d8002f4b5a6852031b68db0c13439b029b0a53
:1032e8002c4a936300235375110004228b691a42f8
:1032f800fcd128491022cb681a42fcd0254a137dfc
:1033080080210b431375244b00229a611a61234bc9
:10331800234a1a62190004224b681a42fcd11f4a38
:10332800cc234021d15010008c31402243581a42fe
:10333800fcd01a4ad8234021d1501000983140229d
:1033480043581a42fcd0154afc234021d1501000a2
:10335800bc31402243581a42fcd0104a86235b00f5
:103368004021d15010001900402243581a42fcd085
:103378000a4a88235b004021d150100019004022de
:1033880043581a42fcd0074b074ada617047c046d7
:10339800206080000010004000140040001c004025
:0c33a8000601010000080040128028000f
:020000040000fa
:1033b400f0b5de4657464e464546e0b585b08146f3
:1033c40000284ad02d4b596a83689a4600290cd0ac
:1033d4008b6852460392002290469a4544d30022b9
:1033e40000238b460092019304e08360234b5862d0
:1033f40033e0e3465e46b66834000025009a019b3c
:1034040012196b41009201935e46b669b446002ed0
:1034140012d06646b66800210f00009a019bb618c8
:103424005f41474525d8e4d1039b9e42e1d96046dc
:103434005946009a019b01e0300059464c46a06170
:103444008c6151468a1a4b469a609b69002b04d0c2
:103454004a4691689a68521a9a6005b03cbc9046f4
:103464009946a246ab46f0bd044b586281610022e6
:10347400e7e760465946009a019bdfe77818002089
:020000040000fa
:10348400f8b5314d6c6aaa69eb6901200021121864
:103494004b41aa61eb61002c54d02022ab5c013378
:1034a400ab54a368002b05d0a368013ba3606c6aee
:1034b400002c24d0a368002b21d101250027224e03
:1034c4000de0e06901f07cfbe368002b01d020698a
:1034d4009847746a002c12d0a368002b0fd125756d
:1034e4006575a378002b02d1e368002be9d1200095
:1034f40001f038f8a378002be6d16770e4e7134da8
:1035040000242e0003e001342035052c15d063017e
:10351400f3185b7d002bf6d062010c4b9b18002244
:103524005a75ab78012beed16101084b59186b68c1
:103534008b602800fff73cffe5e7034920228b5c02
:10354400013b8b54f8bdc046781800206c15002050
:020000040000fa
:10355400f0b40125ed070c005c402c40a446ae0af3
:103564004c18df18f4423dd2f74245d2640d4cd0da
:103574007f0d3cd0e41bc9022943cf0adb022b4355
:10358400db0a0600b61a9f4104d2013cb6197f41fa
:10359400b6185f416812800d241838dd0018844283
:1035a40025d8e80c0021b6197f41b61a9f4103d3f0
:1035b40040414941f7d304e0b6185f41001849413e
:1035c400f1d32405b6197f41b61a9f4105d3374379
:1035d400c20717430022012f504161416246114343
:1035e400f0bc70470cd100280ad1f74208d2002061
:1035f400c143490d0905f1e7002a01d1f74206d07c
:103604000020c143090dc904eae77f0df8d000206a
:043614006146e5e73f
:020000040000fa
:1036180010b588293cd015dc81294dd003dc8029e0
:103628004ad0002010bd822911d08429f9d1196807
:10363800002a26d00a1d1a6000228b5e0360db1761
:10364800436011e0a02930d010dc9029e9d1196835
:103658000724002a2ed00919a1430a0008321a604b
:103668000b684c68036044600120dbe7c02901d087
:10367800f029d6d11a68111d196013680360002358
:10368800dee70c1d1c600b689bb203604260ebe731
:103698001968002a04d00a1d1a600023cb56cde70a
:1036a8000c1d1c600b68dbb2efe71a68111d19606e
:1036b8001368c3e70731cfe71968002a03d00a1d4a
:0e36c8001a600b68bae70c1d1c600b68dde78a
:020000040000fa
:0236d60070473b
:020000040000fa
:1036d800f0b5c64600b5bff35f8f62b6284bc0226f
:1036e80092009958ff26b143c025294399500121da
:1036f80019609858234c2040c0210902084398506b
:10370800022018609858204fbc463840c0273f0414
:103718003843985004221a60c122920090469a5861
:1037280060460240174342469f5040221a60c22218
:1037380092009858204008439850093aff3a1a6076
:10374800c32080001a58b2432a431a5080225201db
:103758001a60c525ad005a591202120a0007024321
:103768005a51802212041a60c72080001a58144047
:1037780021431950802292051a6004bc9046f0bd7e
:0c37880000e100e0ff00ffffffff00ff7a
:020000040000fa
:10379400f0b585b002900e001700541e0193191c59
:1037a4000a9802f00bf9051c200001f069fe011cc7
:1037b400281c00f0edf9051c03900199029802f011
:1037c400fdf8291c00f0e4f901f079fa051e30db5c
:1037d400844230dd01f054fe039900f035f801997c
:1037e400fff740f9041cab00f758f318391c58686c
:1037f40002f0e4f8061c211c029802f0dff8011c18
:10380400301c00f021f8061c681c01f039fe0399f5
:1038140000f01af80199fff725f9211c02f0cef8ff
:10382400011c301c00f0b4f9391cfff71bf905b07a
:10383400f0bd3068fbe7034b9c466744bf00b859b2
:08384400f5e7c046ffffff3f5e
:020000040000fa
:10384c0030b405004d400124e407254042004b00f4
:10385c00120e32d01b0e3cd0ff2a33d0ff2b3fd0a0
:10386c00d21800022043000a09022143090ac4b2fb
:10387c004c43000ac3b24b43000a4843210a5b186d
:10388c00190a091801d44900013a080a7f3a2adbbf
:10389c00fe2a0fd2d2051c43240601d00124214359
:1038ac00c9b280295041802901d1400840002843e9
:1038bc0030bc7047ff20c005f9e71b0eff2b0ad068
:1038cc002800f5e7400206d1ff2bf3d1490202d1c3
:1038dc00f0e7ff2af4d17f2000010c300005e7e768
:1038ec004902f8d1e6e743020132e9d15b12023317
:0638fc00e6d9d805e4e75f
:020000040000fa
:02390200fee7de
:020000040000fa
:103904004b005b0d264af0b55c1e944238d8254a1c
:103914009e1825d4332e22dc234a9b1827d4234a0d
:10392400da400700214b9743f3403c000f0002406c
:103934009f4319403d000a430fd0002f0dda202386
:103944005b42f11824d480204003c8400200802147
:103954004903f1400b00a4185d4120002900f0bd8b
:103964000020002901db0021f9e71149f7e72022b3
:103974000e4b921b934001225242f2401a43d0e76d
:10398400002becd10022c90fcb0710001900e6e789
:1039940020218020891b400388400200d7e7c046cd
:1039a400fd07000001fcffffe1fbffffffff0f002d
:0439b4000000f0bf60
:020000040000fa
:1039b800f0b54b6889b005930b6807009c460793e0
:1039c800cb680c008e68049310685168cd0f44d002
:1039d8000b000200002150429941059b002b08db97
:1039e8000222634693430793002d02d1079b5a078f
:1039f8002ad5731e07aa02920a22009301920b008d
:103a08000200200000f08df9002d02d1079b5a0713
:103a18001ed501382d23002d00d1023b049a1354e2
:103a280023695a1e049b121a1918079b3800009321
:103a3800330000f039f97b68db0503d563689842e9
:103a480000da180009b0f0bd1b07db0ff31ad1e745
:103a58001b07e5d501382023e0e7059b002bbfdadb
:023a6800c4e7b1
:020000040000fa
:023a6a007047a3
:020000040000fa
:103a6c00f0b5d6464f464646c0b582461e4ad36a86
:103a7c00956a002933d0ab4234d0040001201b4a94
:103a8c0094469046184e12e04246d25c91465246fd
:103a9c00013a4f4617540133326b93429241134013
:103aac00884214d2421c0234ab4211d01000104a8e
:103abc00576807223a40012ae6d15a006746bf5c94
:103acc00277001326746ba5c62700133e4e71d006f
:103adc00054bdd621cbc90469946a246f0bd1d000c
:103aec000800f5e70020f3e73418002094160020b6
:043afc000004004280
:020000040000fa
:103b0000f8b5041c0f1c151c1e1c111c01f0d4fa66
:103b100000280dd1fe25ad050699201c01f0ccfa38
:103b200000281ed1fe218905281cfff78ffef8bd55
:103b3000291c201c01f044ff011cfff787fe802395
:103b40001b06c518391c381cfff780fe011cfef748
:103b50008bff011c281c00f01df8fff7d9f9051c8c
:103b6000dae70699201c01f02bff011cfff76efe1f
:103b700080231b06c418311c301cfff767fe011c94
:103b8000fef772ff011c201c00f004f8fff7c0f9db
:043b9000011cc9e764
:020000040000fa
:103b940030b405004d400124e407254042004b00a9
:103ba400120e26d01b0e34d0ff2a2dd0ff2b35d079
:103bb400d21a000220430902214343084908a00df8
:103bc4005b1a02d2013a5b005b185b008b4200d3a4
:103bd4005b1a4041f9d37f3222ddff2a06d2d20597
:103be400c91a8b425041284330bc7047ff20c0059e
:103bf400f9e71b0e03d0ff2b12d1490210d07f200e
:103c040000010c300005efe74002f8d1ff2bedd1a5
:103c1400f5e7ff2aead14002f1d1e7e74902eed104
:043c24002800e1e7ac
:020000040000fa
:103c28001d4b1e4a1a601e4a9a81c02292025a608f
:103c38001a00d369002bfcd1174a136802210b43e1
:103c48001360d369002bfcd1164b00221a629a62ca
:103c5800da6234215a5408315a549a630021da87b7
:103c68001a609a60da60197519779a610a4b5a686e
:103c780007231340012b09d00a4b80221a631a61cb
:103c8800054b80229a757c3a9a757047054b4022fd
:103c98001a631a61f4e7c046000400428421104008
:083ca800346000003418002014
:020000040000fa
:103cb000f0b51d00012389b014000e9a06001a40c9
:103cc0000391029201d1a5420ad822000399300043
:103cd00001f072f8a54203d82500280009b0f0bd14
:103ce0002f1b01973a00102f00d91022202104a881
:103cf00001f01efe019b0f2b0ed80f2204a93a40a3
:103d0000300001f059f8029b002be6d12200039904
:103d1000300001f051f8e0e7102204a9300001f072
:0a3d20004bf8019b103b0193e4e710
:020000040000fa
:103d2a00f7b5040019000a9fe368666800933b68c8
:103d3a00100001932369013b1c00002e00da0126c2
:103d4a000022009dea5435000123002c03dc002bdd
:103d5a001cd02000febd02000a4309d1002d07dc59
:103d6a00089a921b5219002af1dd019a9207eed5a0
:103d7a00099b099adb1700f060ff8c460099013c09
:103d8a00130030320a55013d6146dee710233a68d6
:063d9a009a433a60dde7e8
:020000040000fa
:103da00010b5041cff21890501f0e8f9002823d192
:103db0001349201c01f0f9f9002800d0104c201cf8
:103dc00000f058fe00220f4bfff7c4fb02000b006f
:103dd00000200d4901f0fcfd00f02cfa00f04afe35
:103de00000220a4bfef73afc0022094bfef736fc94
:103df00001f0f2f980b210bdff24a405dfe7c04650
:103e00000000c0bf0000f83f0000f03f0000e03fae
:043e100000f88f40e7
:020000040000fa
:103e1400456e746572696e672043616c6962726194
:103e240074696f6e206d6f64652e2e2e0d0a00006e
:103e34005265636569766564206e65772073657481
:103e4400706f696e742e2e2e0d0a0000456e646923
:103e54006e672043616c6962726174696f6e204d94
:103e64006f64652e2e2e0d0a00000000496e7661e7
:103e74006c696420436f6d6d616e640d0a00c04609
:020000040000fa
:103e8400f0b50b680c008f68cd68496887b00600f0
:103e94000593002902db02218b43059305a953688e
:103ea400126802910821009701912000fff73bff5f
:103eb400059bdb0602d5302301382b54059b1b07d9
:103ec40002d5202301382b54236929185a1e059b37
:103ed400121a009330003b00fff7e8fe7368db051d
:0e3ee40003d56368984200da180007b0f0bdfd
:020000040000fa
:023ef200704717
:020000040000fa
:103ef400194b00225a601032da6019690f3a914363
:103f040019611121d9601969914319611221d9608c
:103f14001969914319611321d96019699143196190
:103f24001421d9601969914319611521d96019695e
:103f3400914319611621d9601969914319611721b7
:103f4400d96019699143196104325a60bff34f8fe4
:0c3f5400bff36f8f7047c04690ed00e097
:020000040000fa
:103f600010b5002924d0002825d1144c2823012283
:103f7000e2540b686360124ae26004228a5622729d
:103f800000200021a061e1610022626220216254d0
:103f90001b6800210b48984763685b689847a0221c
:103fa0000021094801f0c4fc02232370200010bd49
:103fb00001204042fbe701204042f8e7781800204a
:0c3fc00000007a44853400006c150020dd
:020000040000fa
:103fcc0010b500281bd0154b1a68154b9b18013bdc
:103fdc001b780a2b07d0114b1a68114b9b18013b0d
:103fec001b780d2b0ad10d4a11680d4b5b18013b48
:103ffc000021197011600b4b01221a7010bd01f0d9
:10400c005bfb0100084b1860044c2068044b18182b
:10401c00fff726fd23681b182360d4e798190020ae
:0c402c004c19002092160020741800208f
:020000040000fa
:1040380010b584291fd007dc812915d0822922d008
:10404800802911d0002010bd90291cd008dc8829b7
:10405800f8d119680c1d1c600b6803601a7010e019
:10406800a02901d0c029edd119680c1d1c600b686e
:1040780003601a6005e019680c1d1c600b6803607a
:104088001a800120dfe719680c1d1c600b680360ab
:084098001a60d2175a60f4e728
:020000040000fa
:1040a0008223db05802212061a60012242215a5423
:1040b00001315a543e394420195401301954013009
:1040c000195443315a5401315a5407315a54013169
:1040d0005a5401315a545039183019540130195476
:1040e0000f312e3819540130195422315a543332b9
:1040f00010389854043299540132303999540632a8
:06410000033199547047e1
:020000040000fa
:1041080010b5154b06225a60fff7c6fffff7e0f817
:1041180000f0e0fe01f0a4fcfff782fd01f0d4f905
:1041280001f0a4fc00f0b4f800f006fe00f05afc20
:1041380001f05afa00f092fa0021002001f026f965
:10414800064c606006490020fff706ff206001f07a
:10415800b7fcfff7bdfa10bd0040004188190020e8
:044168002c5b0000cc
:020000040000fa
:10416c00f8b5051c164ce061a168fff769fb061c4d
:10417c00291c206801f01efc011c301cfff704fdfb
:10418c002062e568fef732fe071c6169e068fff704
:10419c00fbfc061c2169381cfff7f6fc011c301ccb
:1041ac00fef75cfc011c281cfff7eefc6062a169a9
:1041bc0001f000fca0629c235b00e050f8bdc046ff
:0441cc00ac1900200a
:020000040000fa
:1041d00010b504000222134901f0b2f800281ed0e5
:1041e00002221149200001f0abf800280ed1200076
:1041f00001f0fcfa03000320032b11d9e11c0b484a
:104200000922013001f072fc012009e00222084974
:10421000200001f095f8431e9841023000e0002094
:1042200010bdc046e05a0000e45a000040190020ca
:04423000e85a000048
:020000040000fa
:104234004b1801225205da4217d25b0d0722d20134
:104244009b1a0fd9ff2b13d2db05ca0fd2071343d6
:104254000903020d1143490ac200524100d9013138
:10426400c8187047c80fc007704706d1002804d18a
:10427400c80f0002ff30c00570470123db070a00a6
:10428400c900400f084398431a4010435b0a18437f
:02429400704771
:020000040000fa
:1042980010b5134b1c691a69022082431a611a6906
:1042a80010491140104a0a431a61204212d01a00dc
:1042b8001b6902210b43136111000422cb681a42c7
:1042c800fcd0074b1b69db0504d405490122cb68e8
:1042d8001a42fcd0024b054ada6102225a6010bd2c
:1042e800001800401e003f0040500000440002003b
:020000040000fa
:1042f800f0b587b006000f1c049205930c9d114b76
:104308001968586801f058fb0f49fff73ffc039004
:104318000024200001f0b2f80399fff793fa094b43
:104328001968fef79dfb0095059b049a391cfff759
:10433800e3fba300f050013480235b009c42e8d1ea
:0c43480007b0f0bdf81a002000007f4311
:020000040000fa
:1043540000230e4a10b513600d4a13600d4a136012
:104364000d4a13600d4a13600d4a53621361013301
:10437400936001f043fbfff776fb0a4c0a4b9c4227
:1043840000d310bd08cc9847f8e7c046a419002014
:10439400f0170020ec170020e4170020e817002095
:0c43a400f4170020c8000000cc0000004e
:020000040000fa
:1043b000036d70b50400002b07d0426d934204dcfe
:1043c00000230120e364404270bd200001f046f864
:1043d0000028f5db236de16b226c002b14d0656d9a
:1043e0005b1b551aab420fdc013bcb18e364002a80
:1043f00004d0636d521a01329a18626501390b7844
:0c4400008342e1d00870dfe71300efe713
:020000040000fa
:10440c00f0b587b006000f1c049205930c9d104b61
:10441c009968d86801f0cefa0e49fff7b5fb039006
:10442c000024200001f028f80399fff709fa084b43
:10443c009968fef713fb0095059b049a391cfff74e
:10444c0059fba300f0500134c92cead107b0f0bde0
:08445c00f81a0020000048439b
:020000040000fa
:104464000d0a0a0a0a0a0a0a0a0a0a0a0a0a0a0aa5
:104474000a0a0a0a0000000050656e6e2053746137
:1044840074652042656872656e6420456d6265647a
:10449400646564204f43584f0d00000053706f6ee5
:1044a400736f726564206279204b796f6365726102
:0844b400204156580d0a0d00cd
:020000040000fa
:1044bc00f0b50b680c008f68cd68496887b00600b2
:1044cc000593002902db02218b43059305a9536850
:1044dc00126802910a21009701912000fff71ffc3e
:1044ec00236929185a1e059b121a009330003b00b1
:1044fc00fff7d8fb7368db0503d56368984200dad5
:06450c00180007b0f0bd2d
:020000040000fa
:1045140010b5134b9b7d002b1ad0114a137edbb2ce
:10452400927d52b2002a14db0d4a137edbb2927dd7
:10453400d20703d5db0701d5fef75cfe084a137edc
:10454400dbb2927d520703d55b0701d5fef76afd06
:1045540010bd5bb2002be7da00f0faf8e4e7c046de
:04456400000400420d
:020000040000fa
:1045680010b5134b5a6a002a19d0824205d18369c3
:10457800002b15d0002208e01a009369002b0ed0fa
:104588009842f9d18369002b05d084689968091984
:104598009960002a06d0836993610023836110bd66
:1045a8001a00f6e7024b5a6a92695a62f5e7c04662
:0445b800781800204f
:020000040000fa
:1045bc00f8b50f00060014001d0002000b00921944
:1045cc007b410f498b4212d814d022002b001219b8
:1045dc006b410b498b4208d80fd022002b003000c6
:1045ec00390000f049fb002801d034003d002900bf
:1045fc002000f8bd002ae8d0f9e7002aedd0f4e756
:04460c000000e0ffcb
:020000040000fa
:1046100070b5104c4b005b0da3420fd0002b0dd09a
:10462000d3180d4a93420adc002b0fdd0b4a1b0501
:104630001140194304000d002000290070bdc90f6e
:10464000074bc9070b4300241d00f5e7c90f0024e1
:10465000cd07f1e7ff070000fe070000ffff0f8016
:044660000000f07fe7
:020000040000fa
:10466400114b01221a7019000b6a1a42fcd10e4b2d
:10467400902292015a8001225a700721282019544d
:10468400d9719a71094a0021116010221a711a789d
:10469400c0310a431a701a7802210a431a701a00a8
:1046a400136a002bfcd17047004c004268190020ab
:020000040000fa
:1046b400f0b50f0087b0039015001049072204a835
:1046c4001c0001f029f9bb687e6802933f68002d45
:1046d40000d104ad002c03d1280001f085f80400ba
:1046e400002e02dbb44200d934000097029b220062
:1046f40029000398fff7dafa07b0f0bd645b000005
:020000040000fa
:1047040070b59ab004000d0016000021602202a8c2
:1047140001f00cf9012300215b4202a804941194d6
:10472400129301f02ff80122310002a8fcf700f9de
:10473400002d0ad0119b0093129b0193019a009bb8
:0e4744009b1a179a9b18e4182c601ab070bdcf
:020000040000fa
:1047540010b5104b5b8b0722134000d110bd0e4add
:10476400d3870c4b80221a76793a5a831b7e5b07d7
:1047740005d5084b04211a8d1a7e0a42fbd1064b3b
:104784001b6a002bead0044b596a1b6a0220984723
:0c479400e4e7c046000400423418002096
:020000040000fa
:1047a00010b50b4b98470b4b984700f037fc0a4b62
:1047b000ff229343094a9360094b9847fff79afbfe
:1047c000084b9847084b9847fdf7befbfee7c046ed
:1047d000d7360000d73600000000000000ed00e0f2
:0c47e00055430000d7360000d73600001b
:020000040000fa
:1047ec0010b50378012b10d0002b06d0022b11d062
:1047fc000c4b186900f016ff06e00a4b186800f025
:10480c0011ff094b01221a7010bd064b586800f0bd
:10481c0009fff9e7034b986800f004ff024b0022f4
:0c482c001a70f1e75c1b002057190020f7
:020000040000fa
:104838000200002310b54832d3560400591e0b431a
:10484800137043698269934203d90022c36a110035
:10485800984700236068a362a3616361830705d555
:104868001023184360600120404210bda368e2682d
:0c48780000079b182364e363c017f6e7f9
:020000040000fa
:1048840010b5064c2378002b07d1054b002b02d022
:10489400044800e000bf0123237010bdd418002099
:1048a4000000000000000000044b10b5002b03d0f2
:1048b4000349044800e000bf10bdc04600000000ea
:0848c400d818002000000000dc
:020000040000fa
:1048cc0010b5104ad38892889bb293420ad30d4af2
:1048dc00d38891885b1a9bb213810a4b1a890022e8
:1048ec001a6010bd074ca388e088c01a80235b02b5
:1048fc009c46604400f0c0fd00f03efe80b220817a
:08490c00ebe7c0461c19002076
:020000040000fa
:10491400f8b50f4e7768040035002c352d36ff3678
:104924000023e05e00f0acfd391cfef78dff094961
:10493400fff72ef901c50234b542f1d1044b982298
:104944005200d96a9950083a99580c329950f8bdd6
:08495400ac19002000feff4633
:020000040000fa
:10495c00f0b5002a15d00d78571e4c1c431c057061
:10496c00002d0fd08a181d00c91907e026780135d3
:10497c000f1b2b0006700134002e03d0280094422c
:10498c00f4d1f0bdd9190022002ffad01a700133de
:08499c009942fbd1f5e7c0468a
:020000040000fa
:1049a400f7b5030000250192019a2e00954207d322
:1049b40003221a40511e8a41181a80081018febd9d
:1049c4001c78002c07d00c70013301350131ebe762
:1049d40000250d5501345a7835190f19a242f7dc18
:0649e40002333900e0e798
:020000040000fa
:1049ec000d4b01221a6019000b691a42fcd10a4bbb
:1049fc008222d2001a6003221a73084a9a83332245
:104a0c009a72074a0021116001225a721a00136926
:104a1c00002bfcd17047c046003c0042b70b000095
:044a2c0078190020d5
:020000040000fa
:104a300010b50f4a8423d35c002b09d00c4a822383
:104a4000d35a9bb23f2b02d984230121d15410bdec
:104a500000f09eff064a802410538220135a9bb216
:104a6000591c89b21152115b5b00d152e6e7c04676
:044a70000c16002000
:020000040000fa
:104a740041008c46012212068a420bd809093823c8
:104a84001b06c918c30fdb07194340076346da4204
:104a940004d27047c10fc9070020704703d13823df
:104aa4001b06c918704738231b06c9180122d204f3
:044ab40011437047f3
:020000040000fa
:104ab80030b401256d054c00e54215d85c00e5428f
:104ac80012d80c001c436400044314430fd005d2d1
:104ad80082428b418041013030bc704790429941fd
:104ae8008041013030bc7047002030bc7047012045
:044af80030bc704717
:020000040000fa
:104afc0030b401256d054c00e54215d85c00e5424b
:104b0c0012d80c001c436400044314430fd005d28c
:104b1c00904299418041013030bc704782428b41b8
:104b2c008041013030bc7047002030bc7047012000
:044b3c0030bc7047d2
:020000040000fa
:104b4000f7b597b201933b00140c86b2050c734382
:104b50006f4366436543f6191c0ca4199c46a74293
:104b600002d980235b02ed186346260c75192404d4
:104b70009eb2019ba4194343200051435b1959186d
:044b800003b0f0bdd1
:020000040000fa
:104b8400431e033314d803041b0c042b13d85901fc
:104b94000a4a5218d169002281420ad15a010749ae
:104ba400515c0022002904d05b01044a9a1800e0f9
:104bb4000022100070470022fbe7c0466c1500205d
:020000040000fa
:104bc40010b5040000f00efa002817d02000fff7fb
:104bd400d7ff041e10d04378002b08d1002323757f
:104be40063752370002400f095fc200010bdfff7ce
:104bf400b9fc00236370f1e70124f4e70124f4e72e
:020000040000fa
:104c0400030010b51a78202a0dd01100093904299f
:104c140009d900212b2a02d02d2a01d101310133d7
:104c240000200a2404e00133ece760430133801ad6
:104c34001a78303a092af8d9002900d1404210bd27
:020000040000fa
:104c4400002b11d1002a0fd1002900d1002802d055
:104c54000021c943081c07b4024802a1401802906d
:104c640003bdc046110f000003b4684601b50298a5
:104c7400fef74efa019b9e4602b00cbc7047c0463c
:020000040000fa
:104c840030b401256d054c00e54215d85c00e542c1
:104c940012d80c001c436400044314430cd005d206
:104ca400904299418041404230bc704782428b41de
:0e4cb4008041404230bc7047002030bc704749
:020000040000fa
:104cc2004200110e7f390fd40123db0749421f3105
:104cd2000cdd400003d2c0011843c8407047c00138
:104ce2001843c8404042704700207047ff21090620
:0e4cf2008a4200d99843184000d4d843704736
:020000040000fa
:104d000030b401256d054c00e54215d85c00e54244
:104d100012d80c001c436400044314430cd005d289
:104d200082428b418041404230bc70479042994161
:0e4d30008041404230bc7047002030bc7047cc
:020000040000fa
:104d40000c4b01221a8019000b691a42fcd1094b45
:104d5000094a1a801900802212020b691342fcd101
:104d6000044b00221a62190020320b691a42fcd14e
:0c4d70007047c046002400400081ffff97
:020000040000fa
:104d7c0070b5051c0b4c20608221c90500f01afe91
:104d8c0060600949281c00f015fea0600649281c2b
:104d9c00fdf764fee0608221c905281cfdf75efe6c
:0c4dac00206170bdf01800200ad7a33c65
:020000040000fa
:104db800436870b50400d80512d52569954200d915
:104dc8001500002d0bd02a00606900f0a3fd2269b0
:104dd80063695b19551b0022636125611a7070bdf8
:0c4de800db06fcd4200000f093fef8e78e
:020000040000fa
:104df4001c2101231b04984201d3000c10391b0a07
:104e0400984201d3000a08391b09984201d30009ca
:104e1400043902a2105c40187047c0460403020221
:0c4e24000101010100000000000000007e
:020000040000fa
:104e300010b582b0eff31083019372b69022d205c1
:104e400013780124a343234313709060d1601100b1
:104e500001220b791342fcd19023db0559691869b3
:0a4e6000019b83f3108802b010bd1f
:020000040000fa
:104e6a0010b582b0eff31083019372b69022d20587
:104e7a0013780124a343234313709060d160110077
:104e8a0001220b791342fcd19023db051869019b9f
:084e9a0083f3108802b010bd83
:020000040000fa
:104ea20010b582b0eff31083019372b69023db0545
:104eb2001a780124a2431a709860d960190001225d
:104ec2000b791342fcd19023db0559691869019bc8
:084ed20083f3108802b010bd4b
:020000040000fa
:104edc000b4b00221a621a779a60da60094b802217
:104eec0092025a601a00d369002bfcd1054b172291
:104efc001a7377321a601a00d369002bfcd17047f1
:084f0c00a8180020001000426b
:020000040000fa
:104f140010b582b0eff31083019372b69023db05d2
:104f24001a780124a2431a709860d96019000122ea
:104f34000b791342fcd19023db051869019b83f3a1
:064f4400108802b010bd50
:020000040000fa
:104f4a0013b50b006a46d41d5a68c1b22170d20546
:104f5a0005d55a69c0b2541c5c61117016bd012294
:104f6a002100180000f0d3fd002801d02078f5e7d1
:064f7a0001204042f2e7b5
:020000040000fa
:104f800010b5094b1b68002b03d0074b58681b68f2
:104f900098478023db05ff221a61044a5a613f22a9
:104fa0009a61034ada6110bd60190020ff1f0000fa
:044fb000ffffff0000
:020000040000fa
:104fb40010b50a4b5b7a002b0ed0084b987ac0b21e
:104fc40033229a72064b1b68002b05d0002803d0ad
:104fd400034b59681b68984710bdc046003c00420b
:044fe4007819002018
:020000040000fa
:104fe80010b50b4a2023d35c0120002b04d12833b1
:104ff800d35c0020012b00d010bd14002733002201
:10500800e25463689b6998472123e0540120f3e741
:0450180078180020e4
:020000040000fa
:10501c0010b50a480168002903d14368002b00d160
:10502c0010bd04008368064a9bb20c349b009b584d
:10503c0042682000984780002018ebe7ec21000024
:04504c0008590000ff
:020000040000fa
:10505000f4464a1805d200f0c1f801d5c01740083f
:10506000604701235b05d34206d200f0b7f801d5b3
:105070000120c0074042604701d10042f5d0d0175f
:04508000400870472d
:020000040000fa
:10508400f0b5050000200a4a4400a65c002e02d1b7
:1050940012195078f0bd296801300f78c0b2b742b8
:1050a40003d112190131507829600a28ebd9f1e7ac
:0450b400645800003c
:020000040000fa
:1050b800012212064300da4211d84b00da420ed818
:1050c80002000a43520008d003d2814280410130d5
:1050d80070478842804101307047012070470020a6
:0250e80070470f
:020000040000fa
:1050ec0010b5084b9a8992b207494a60074a9a81cf
:1050fc009b890b68002b04d00b00486889681b68df
:10510c00984710bd0024004004190020ff81ffffc8
:020000040000fa
:10511c0070b50a4d96235b00e8582c002c34ed1822
:10512c0002ccfdf79bfcac42fad1f2218905fef7cb
:10513c0087fb024a96235b00d05070bdac1900204f
:020000040000fa
:10514c0043001b0e5a1efd2a0ad8c9184b1efd2bf4
:10515c0007d9c00fc007002902ddff23db05184368
:10516c007047024b0340c8051843f9e7ffff7f80e7
:020000040000fa
:10517c00012212064300da420fd84b00da420cd857
:10518c0002000a43520008d003d2814280414042bf
:0e519c007047884280414042704700207047b3
:020000040000fa
:1051aa00012212064300da420fd84b00da420cd829
:1051ba0002000a43520008d003d28842804140428a
:0e51ca0070478142804140427047002070478c
:020000040000fa
:1051d8004a0010d2520d03231b02ff33d21a0ad4fd
:1051e80052421f3209d4400dc90208430123db078c
:0e51f8001843d040704700207047d017704712
:020000040000fa
:1052060070b5140016000a004e430d00511e8a4167
:105216005242144001003200180000f07afc864227
:0e52260003d02900fff773fe0400200070bdc6
:020000040000fa
:1052340070b4012676054c005d00e6420cd8ee42bf
:105244000ad825430543154303d0994204d190421b
:0e52540002d1012070bc7047002070bc704772
:020000040000fa
:1052640010b5084b5868084b9b689b0709d5064b3b
:1052740002229a60034b1b68002b02d0014b1b686f
:0c528400984710bd701900200018004071
:020000040000fa
:1052900010b500f06bfb074b07221a601b68db039d
:1052a00005d5054a51688023db040b43536000f0a9
:0c52b000e4fa10bd10e000e000ed00e0aa
:020000040000fa
:1052bc00094a537980210b435371110004220b6965
:1052cc001a42fcd104491f224b799343fcd1024b67
:0c52dc00988a80b27047c046003c004237
:020000040000fa
:1052e80043757272656e742074656d706572617451
:1052f80075726520697320617070726f78696d616d
:0c53080074656c7920252e33660d0a00b8
:020000040000fa
:105314000a00000064000000e803000010270000f9
:10532400a086010040420f008096980000e1f50538
:0c533400183535006bffcefbcefbc046e9
:020000040000fa
:1053400070b5131e0fd00024013a035d0e19002b17
:1053500007d00d5d002d04d0a24202d00134ab4233
:0a536000f3d030781b1a180070bd5e
:020000040000fa
:10536a00002380290fdb812901dd83290bd1072145
:10537a00136807338b431900083111601a685b6898
:0a538a000260436001231800704721
:020000040000fa
:10539400084b4c22012199548022d2025a604a229d
:1053a400002199540120404218810132033199545b
:0853b4007047c0469417002069
:020000040000fa
:1053bc0010b5074bd879c0b20722da71054b1b68c0
:1053cc00002b03d0034b59681b68984710bdc0468f
:0853dc00004c0042681900209a
:020000040000fa
:1053e40010b5074b5868074a12689a6801329a60e8
:1053f4001b68002b02d0024b1b68984710bdc046a7
:085404001019002010e000e087
:020000040000fa
:10540c0070b5051c074ca2235b00e158043be05827
:10541c0000f0d0fa291cfef7b7fba4235b00e05088
:08542c0070bdc046ac19002060
:020000040000fa
:1054340010b5084c2368196800f0c6f80123002849
:1054440005db23680a20196800f072fbc30f584279
:0854540010bdc046401b002002
:020000040000fa
:10545c0037b50400fff7eaf9002802d001204042da
:10546c003ebd6b46dd1d0122636c29002000984770
:08547c000128f3d12878f3e7c1
:020000040000fa
:10548400c20f12029d3201000cd001d5494202d450
:10549400013a4900fcd5d205080a0906494100d35e
:0654a40001295041704790
:020000040000fa
:1054ac0010b5064b01221a73054b1b68002b03d059
:1054bc00034b58681b68984710bdc046004000411c
:0454cc00581900204b
:020000040000fa
:1054d000054a00231360936004495160062111605e
:1054e000034a93601360704710e000e07fbb000048
:0454f000101900206f
:020000040000fa
:1054f40010b5064b01229a71054b1b68002b03d093
:10550400034b58681b68984710bdc04600200040f4
:0455140080190020da
:020000040000fa
:1055180010b5074c2123e05c63685b69984720233a
:10552800e35c002b03d1024a28330121d15410bd7a
:0455380078180020bf
:020000040000fa
:10553c0010b5064b8222002199520232995400f088
:10554c009ff80021024800f095fa10bd0c160020bf
:04555c00314a0000d0
:020000040000fa
:1055600010b50548fff766ff0448fff763ff0448de
:10557000fff760ff10bdc046644400007c4400009b
:04558000a044000043
:020000040000fa
:1055840041000dd2090e7f390ad449421f3105d496
:1055940000020122d2071043c8407047c817704761
:0455a400002070472c
:020000040000fa
:1055a80043001b0e09d0ff2b07d0054a7e3b024063
:1055b800fc20800510430b6070470023fbe7c046c2
:0455c800ffff7f80e2
:020000040000fa
:1055cc0070b50e00050000f00bf93300040002006a
:1055dc0001212800fff711fe001b431e9841404299
:0255ec0070bd90
:020000040000fa
:1055f000064b89225a70863a9a703f321a70190007
:10560000403a0b691a42fcd17047c0460054004230
:020000040000fa
:105610004e6577207265636569766564207365748d
:10562000706f696e7420697320252e33660d0a0031
:020000040000fa
:105630000fb407b5054b04aa1b6802ca186801928b
:1056400000f0e0f803b008bc04b01847401b00208d
:020000040000fa
:1056500002000a43520008d0884204d140000121d0
:0e5660000906c84201d900207047012070479a
:020000040000fa
:10566e00002310b5934206d103201840421e9041ec
:0e567e009b08c01810bdc45ccc540133f2e789
