:020000040000fa
:10000000f07f0020e90c00002b0a0000c30d000067
:1000100000000000000000000000000000000000e0
:100020000000000000000000000000006712000057
:1000300000000000000000006712000041110000f5
:1000400031140000d91100003910000067120000bf
:100050006712000067120000911100006712000093
:1000600067120000a50b0000671200006712000075
:10007000dd0000000000000000000000671200002a
:100080000000000067120000671200006712000005
:100090006712000067120000671200009d0f000049
:1000a000671200006712000067120000671200006c
:0c00b00067120000191100006712000028
:020000040000fa
:1000bc00f8b5c046f8bc08bc9e4670475d0d000004
:1000cc00f8b5c046f8bc08bc9e467047350d00001c
:020000040000fa
:1000dc0070b5504b586a504b9b7d002b54d04e49f9
:1000ec004c68072214404b4b5a699d699e680b7ee5
:1000fc005b0757d5896a474bdb68934252d9002c72
:10010c0043d1444b5b6899540132434b1b7edb0754
:10011c0016d5414b012119753e4b9b68ab4256d904
:10012c003c4b1b68595d3c4b99620135394b1b6943
:10013c00002b01d1b54262d0364bdb68934262d0c2
:10014c00344b5a619d61344b1b7e9b0715d5334b49
:10015c001b78002b18d02f4bdb68934211d12d4b01
:10016c0000221a772c4907240c752c490a701b6a3b
:10017c00002b09d0274b1b6a9847284b1b78002b68
:10018c0002d0254b02229a7570bd224b5b6854003d
:10019c00e1520132204b1b7edb07d1d51e4b0121d6
:1001ac00197508e01c4b1b7edb07c9d51a4b0121c6
:1001bc001975002cb0d0174b9b68ab4213d9154b5b
:1001cc001b686900c95a144b99620135aee7114b93
:1001dc001b69002baad0104bff2199620d490b69aa
:1001ec00013b0b61a2e70b4b1b69002b9ed00a4b0a
:1001fc000b49996207490b69013b0b6196e7074b69
:10020c00012119709ce7044b012199750331197573
:10021c0096e7c046b00200200010004259030020af
:04022c00ffff0000d0
:020000040000fa
:10023000dc0200201c00000000000000a0010020e3
:10024000500000000000000010030020100000001b
:1002500000000000f80200200c0000000000000078
:1002600020030020080000000000000059030020c7
:100270000100000000000000b00200202c0000007f
:1002800000000000a00000200001000000000000ad
:100290004002002040000000000000002803002071
:1002a0000800000000000000040300200c00000013
:1002b00000000000300300201000000000000000db
:1002c000800200203000000000000000000000203c
:1002d000a000000000000000400300200800000013
:1002e0000000000058030020010000000000000092
:1002f000500300200400000000000000f001002076
:100300005000000000000000540300200400000022
:10031000000000005c03002020000000010000003d
:1003200001000000030000000000000000000000c9
:100330000000000000000000000000004803002052
:10034000480300200800000000000000000000003a
:1003500000000000666666666666666666666666d5
:020000040000fa
:10036000f0b5d6464f464646c0b50426344da8469d
:10037000a946334b9a465be04a46126a002a42d0ad
:10038000796a3b6a01209847bb6a01333a6b934212
:100390009241134037e05246926a5200e0b2294936
:1003a00088540132240a8c543ce000f08bff244b2b
:1003b0001b6a002bddd0224b596a3c23204ad35cb8
:1003c000002b06d0936b9842d3d3136a0020984732
:1003d000cfe71b4b9b6b9842cbd1194b1b6a00207c
:1003e0009847c6e7184b1b7e334223d0164b1c8d13
:1003f000a4b2ab6a01332a6b934292411340424646
:10040000d26a9a42b8d00e4ad26a9a42ead00e4aca
:10041000516807220a40012abdd0094a926ae4b213
:1004200008498c54064a93623423d35c002bbcd118
:10043000034fd7e71cbc90469946a246f0bdc04684
:0c04400040020020a00000200004004248
:020000040000fa
:10044c00f0b5ce46474680b583b00125314ca04669
:10045c00314a304eff23994616e058002f4f3f5c2f
:10046c00bc466f466146b97101302c49085cf87185
:10047c0001331ae06b4606331b8849460b40138543
:10048c00244b1b7d002b20d1137e2b423dd0a0682a
:10049c00e368984236d05768072038400128dcd0f2
:1004ac001e48c75c684687710133306983428041be
:1004bc0003401848c360506807230340012bd9d16f
:1004cc006b4606331b881385dae700f027ff114bc8
:1004dc001b68002bbcd0434659681b7f002b08d0ef
:1004ec000c4b9b699842b3d30a4b1b68032098476b
:1004fc00aee7084b9b699842aad1064b1b680320b8
:10050c009847a5e7044b01221a7503b00cbc904622
:10051c009946f0bd4002002000040042200100205a
:020000040000fa
:10052c002f4b5a6852031b68db0c13439b029b0a2c
:10053c002c4a936300235375110004228b691a42d1
:10054c00fcd128491022cb681a42fcd0254a137dd5
:10055c0080210b431375244b00229a611a61234ba3
:10056c00234a1a62190004224b681a42fcd11f4a12
:10057c00cc234021d15010008c31402243581a42d8
:10058c00fcd01a4ad8234021d15010009831402277
:10059c0043581a42fcd0154afc234021d15010007c
:1005ac00bc31402243581a42fcd0104a86235b00cf
:1005bc004021d15010001900402243581a42fcd05f
:1005cc000a4a88235b004021d150100019004022b8
:1005dc0043581a42fcd0074b074ada617047c046b1
:1005ec00206080000010004000140040001c0040ff
:0c05fc00060101000008004012802800e9
:020000040000fa
:10060800f0b5de4657464e464546e0b585b08146cc
:1006180000284ad02d4b596a83689a4600290cd085
:100628008b6852460392002290469a4544d3002292
:1006380000238b460092019304e08360234b5862a9
:1006480033e0e3465e46b66834000025009a019b15
:1006580012196b41009201935e46b669b446002eaa
:1006680012d06646b66800210f00009a019bb618a2
:100678005f41474525d8e4d1039b9e42e1d96046b6
:100688005946009a019b01e0300059464c46a0614a
:100698008c6151468a1a4b469a609b69002b04d09c
:1006a8004a4691689a68521a9a6005b03cbc9046ce
:1006b8009946a246ab46f0bd044b586281610022c0
:1006c800e7e760465946009a019bdfe78002002071
:020000040000fa
:1006d800f8b5314d6c6aaa69eb690120002112183e
:1006e8004b41aa61eb61002c54d02022ab5c013352
:1006f800ab54a368002b05d0a368013ba3606c6ac8
:10070800002c24d0a368002b21d101250027224edc
:100718000de0e06900f094fbe368002b01d020694c
:100728009847746a002c12d0a368002b0fd1257546
:100738006575a378002b02d1e368002be9d120006e
:1007480000f056faa378002be6d16770e4e7134d62
:1007580000242e0003e001342035052c15d0630158
:10076800f3185b7d002bf6d062010c4b9b1800221e
:100778005a75ab78012beed16101084b59186b689b
:100788008b602800fff73cffe5e7034920228b5cdc
:10079800013b8b54f8bdc0468002002000000020b9
:020000040000fa
:1007a800f0b5c64600b5bff35f8f62b6284bc022ce
:1007b80092009958ff26b143c02529439950012139
:1007c80019609858234c2040c021090208439850ca
:1007d800022018609858204fbc463840c0273f0474
:1007e8003843985004221a60c122920090469a58c1
:1007f80060460240174342469f5040221a60c22278
:1008080092009858204008439850093aff3a1a60d5
:10081800c32080001a58b2432a431a50802252013a
:100828001a60c525ad005a591202120a0007024380
:100838005a51802212041a60c72080001a581440a6
:1008480021431950802292051a6004bc9046f0bddd
:0c08580000e100e0ff00ffffffff00ffd9
:020000040000fa
:100864001d4b1e4a1a601e4a9a81c02292025a6087
:100874001a00d369002bfcd1174a136802210b43d9
:100884001360d369002bfcd1164b00221a629a62c2
:10089400da6234215a5408315a549a630021da87af
:1008a4001a609a60da60197519779a610a4b5a6866
:1008b40007231340012b09d00a4b80221a631a61c3
:1008c400054b80229a757c3a9a757047054b4022f5
:1008d4001a631a61f4e7c046000400428421104000
:0808e400346000004002002016
:020000040000fa
:1008ec00194b00225a601032da6019690f3a9143a1
:1008fc0019611121d9601969914319611221d960cb
:10090c001969914319611321d960196991431961ce
:10091c001421d9601969914319611521d96019699c
:10092c00914319611621d9601969914319611721f5
:10093c00d96019699143196104325a60bff34f8f22
:0c094c00bff36f8f7047c04690ed00e0d5
:020000040000fa
:1009580010b5002924d0002825d1144c28230122c1
:10096800e2540b686360124ae26004228a562272db
:1009780000200021a061e16100226262202162540e
:100988001b6800210b48984763685b689847a0225a
:100998000021094800f0ecfc02232370200010bd60
:1009a80001204042fbe701204042f8e78002002096
:0c09b80000007a44d90600000000002076
:020000040000fa
:1009c4008223db05802212061a60012242215a5436
:1009d40001315a543e39442019540130195401301c
:1009e400195443315a5401315a5407315a5401317c
:1009f4005a5401315a545039183019540130195489
:100a04000f312e3819540130195422315a543332cb
:100a140010389854043299540132303999540632ba
:060a2400033199547047f4
:020000040000fa
:020a2a00fee7e5
:020000040000fa
:100a2c0010b5154b06225a60fff7c6fffff778fd8d
:100a3c0000f042fa00f0defcfff70eff00f0b4fb12
:100a4c0000f0defc00f01ef800f018fa00f0b4f92b
:100a5c0000f004fc00f0f4f80021002000f042fb50
:100a6c00064c606006490020fff770ff206000f024
:100a7c00dffcfff793fe10bd004000414003002057
:040a8c005c140000f6
:020000040000fa
:100a900010b5134b1c691a69022082431a611a6946
:100aa00010491140104a0a431a61204212d01a001c
:100ab0001b6902210b43136111000422cb681a4207
:100ac000fcd0074b1b69db0504d405490122cb6828
:100ad0001a42fcd0024b054ada6102225a6010bd6c
:100ae000001800401e003f0040500000440002007b
:020000040000fa
:100af00000230e4a10b513600d4a13600d4a1360af
:100b00000d4a13600d4a13600d4a5362136101339d
:100b1000936000f05ffc00f0c6fb0a4c0a4b9c425d
:100b200000d310bd08cc9847f8e7c0465403002016
:100b3000fc010020f8010020f0010020f401002059
:0c0b400000020020c8000000cc000000f3
:020000040000fa
:100b4c000d0a0a0a0a0a0a0a0a0a0a0a0a0a0a0af6
:100b5c000a0a0a0a0000000050656e6e2053746188
:100b6c0074652042656872656e6420456d626564cb
:100b7c00646564204f43584f0d00000053706f6e36
:100b8c00736f726564206279204b796f6365726153
:080b9c00204156580d0a0d001e
:020000040000fa
:100ba40010b5134b9b7d002b1ad0114a137edbb278
:100bb400927d52b2002a14db0d4a137edbb2927d81
:100bc400d20703d5db0701d5fff73efc084a137ea5
:100bd400dbb2927d520703d55b0701d5fff7befb5d
:100be40010bd5bb2002be7da00f056f8e4e7c0462c
:040bf40000040042b7
:020000040000fa
:100bf80010b5134b5a6a002a19d0824205d183696d
:100c0800002b15d0002208e01a009369002b0ed0a3
:100c18009842f9d18369002b05d08468996809192d
:100c28009960002a06d0836993610023836110bd0f
:100c38001a00f6e7024b5a6a92695a62f5e7c0460b
:040c48008002002006
:020000040000fa
:100c4c00114b01221a7019000b6a1a42fcd10e4b7f
:100c5c00902292015a8001225a700721282019549f
:100c6c00d9719a71094a0021116010221a711a78ef
:100c7c00c0310a431a701a7802210a431a701a00fa
:100c8c00136a002bfcd17047004c0042200300205b
:020000040000fa
:100c9c0010b5104b5b8b0722134000d110bd0e4ad0
:100cac00d3870c4b80221a76793a5a831b7e5b07ca
:100cbc0005d5084b04211a8d1a7e0a42fbd1064b2e
:100ccc001b6a002bead0044b596a1b6a0220984716
:0c0cdc00e4e7c046000400424002002093
:020000040000fa
:100ce80010b50b4b98470b4b984700f087f90a4b08
:100cf800ff229343094a9360094b9847fff7f2fd97
:100d0800084b9847084b984700f06ffbfee7c04632
:100d180097100000971000000000000000ed00e0b0
:0c0d2800f10a0000971000009710000076
:020000040000fa
:100d340010b5064c2378002b07d1054b002b02d0ad
:100d4400044800e000bf0123237010bddc02002032
:100d54000000000000000000044b10b5002b03d07d
:100d64000349044800e000bf10bdc0460000000075
:080d7400e00200200000000075
:020000040000fa
:100d7c00f7b5030000250192019a2e00954207d386
:100d8c0003221a40511e8a41181a80081018febd01
:100d9c001c78002c07d00c70013301350131ebe7c6
:100dac0000250d5501345a7835190f19a242f7dc7c
:060dbc0002333900e0e7fc
:020000040000fa
:020dc200fee74a
:020000040000fa
:100dc4000d4b01221a6019000b691a42fcd10a4b1f
:100dd4008222d2001a6003221a73084a9a833322a9
:100de4009a72074a0021116001225a721a0013698b
:100df400002bfcd17047c046003c0042b70b0000fa
:040e04003003002097
:020000040000fa
:100e0800431e033314d803041b0c042b13d85901b5
:100e18000a4a5218d169002281420ad15a01074967
:100e2800515c0022002904d05b01044a9a1800e0b2
:100e38000022100070470022fbe7c0460000002097
:020000040000fa
:100e480010b5040000f0c0f8002817d02000fff704
:100e5800d7ff041e10d04378002b08d10023237538
:100e680063752370002400f0c5f9200010bdfff75a
:100e7800bffe00236370f1e70124f4e70124f4e7df
:020000040000fa
:100e88000c4b01221a8019000b691a42fcd1094b3c
:100e9800094a1a801900802212020b691342fcd1f8
:100ea800044b00221a62190020320b691a42fcd145
:0c0eb8007047c046002400400081ffff8e
:020000040000fa
:100ec4000b4b00221a621a779a60da60094b80226f
:100ed40092025a601a00d369002bfcd1054b1722e9
:100ee4001a7377321a601a00d369002bfcd1704749
:080ef400b002002000100042d2
:020000040000fa
:100efc0010b582b0eff31083019372b69023db052b
:100f0c001a780124a2431a709860d9601900012242
:100f1c000b791342fcd19023db051869019b83f3f9
:060f2c00108802b010bda8
:020000040000fa
:100f320013b50b006a46d41d5a68c1b22170d2059e
:100f420005d55a69c0b2541c5c61117016bd0122ec
:100f52002100180000f077fa002801d02078f5e788
:060f620001204042f2e70d
:020000040000fa
:100f680010b5094b1b68002b03d0074b58681b684a
:100f780098478023db05ff221a61044a5a613f2201
:100f88009a61034ada6110bd18030020ff1f0000b0
:040f9800ffffff0058
:020000040000fa
:100f9c0010b50a4b5b7a002b0ed0084b987ac0b276
:100fac0033229a72064b1b68002b05d0002803d005
:100fbc00034b59681b68984710bdc046003c004263
:040fcc0030030020ce
:020000040000fa
:100fd00010b50b4a2023d35c0120002b04d1283309
:100fe000d35c0020012b00d010bd14002733002259
:100ff000e25463689b6998472123e0540120f3e79a
:04100000800200204a
:020000040000fa
:1010040010b50a480168002903d14368002b00d1b8
:1010140010bd04008368064a9bb20c349b009b58a5
:1010240042682000984780002018ebe73002000057
:041034006413000041
:020000040000fa
:1010380010b5084b9a8992b207494a60074a9a81c3
:101048009b890b68002b04d00b00486889681b68d3
:10105800984710bd00240040f8020020ff81ffffe0
:020000040000fa
:1010680070b5140016000a004e430d00511e8a4147
:101078005242144001003200180000f0e1f98642a3
:0e10880003d02900fff736ff0400200070bde2
:020000040000fa
:021096007047a1
:020000040000fa
:1010980010b5084b5868084b9b689b0709d5064b49
:1010a80002229a60034b1b68002b02d0014b1b687d
:0c10b800984710bd2803002000180040dd
:020000040000fa
:1010c40010b500f06bf9074b07221a601b68db03ad
:1010d40005d5054a51688023db040b43536000f0b7
:0c10e40017f910bd10e000e000ed00e086
:020000040000fa
:1010f000084b4c22012199548022d2025a604a2284
:101100000021995401204042188101320331995441
:081110007047c046a001002059
:020000040000fa
:1011180010b5074bd879c0b20722da71054b1b68a6
:10112800002b03d0034b59681b68984710bdc04675
:08113800004c004220030020de
:020000040000fa
:1011400010b5074b5868074a12689a6801329a60ce
:101150001b68002b02d0024b1b68984710bdc0468d
:081160000403002010e000e090
:020000040000fa
:1011680010b5084c2368196800f068f801230028b6
:1011780005db23680a20196800f070f9c30f58428c
:0811880010bdc04678030020f1
:020000040000fa
:1011900010b5064b01221a73054b1b68002b03d0b8
:1011a000034b58681b68984710bdc046004000417b
:0411b0001003002008
:020000040000fa
:1011b400054a0023136093600449516006211160bd
:1011c400034a93601360704710e000e07fbb0000a7
:0411d40004030020f0
:020000040000fa
:1011d80010b5064b01229a71054b1b68002b03d0f2
:1011e800034b58681b68984710bdc0460020004054
:0411f8003803002098
:020000040000fa
:1011fc0010b5074c2123e05c63685b69984720239a
:10120c00e35c002b03d1024a28330121d15410bdd9
:04121c00800200202c
:020000040000fa
:1012200010b50548fff7a0ff0448fff79dff0448ed
:10123000fff79aff10bdc0464c0b0000640b000086
:04124000880b000017
:020000040000fa
:1012440070b50e00050000f057f8330004000200ea
:1012540001212800fff706ff001b431e984140426e
:0212640070bd5b
:020000040000fa
:02126600fee7a1
:020000040000fa
:10126800064b89225a70863a9a703f321a701900d2
:10127800403a0b691a42fcd17047c04600540042fc
:020000040000fa
:10128800002310b5934206d103201840421e904116
:0e1298009b08c01810bdc45ccc540133f2e7b3
:020000040000fa
:0212a60070478f
:020000040000fa
:1012a800054b9868db68984201d3c01a7047024a18
:0c12b80012691018c01af9e7400200206b
:020000040000fa
:1012c400054ad36a906a834201d8c01a7047024a19
:0c12d400126b1018c01af9e7400200204d
:020000040000fa
:1012e000251400003d130000c51300005514000034
:0c12f00019140000e51300005113000069
:020000040000fa
:1012fc000378002b06d0030001331a78002afbd1a7
:08130c00181a70470020fce7ed
:020000040000fa
:10131400002803d0bff35f8f62b6704772b6bff385
:041324005f8ffae7f6
:020000040000fa
:1013280010b5034b1c69fff7bbff013c201a10bd29
:04133800400200204f
:020000040000fa
:10133c00034b00229a601a6801210a431a60704715
:04134c0010e000e0cd
:020000040000fa
:10135000034b186805221a608007c00f7047c0460b
:0413600010e000e0b9
:020000040000fa
:10136400b3130000891200007b1400007b140000fa
:041374007d0d0000eb
:020000040000fa
:10137800002a06d00300c9b28218197001339342bb
:04138800fbd17047de
:020000040000fa
:10138c0010b500f06df8024b1860586010bdc046e7
:04139c0048030020e2
:020000040000fa
:1013a000eff3108072b6bff35f8f43425841c0b273
:0213b000704784
:020000040000fa
:1013b2008a18914201d10020704700230b7001313d
:0213c200f7e74b
:020000040000fa
:1013c400024a136801218b431360704710e000e068
:020000040000fa
:1013d40010b5fff7d9ff00f03af800f038f810bd67
:020000040000fa
:0e13e40010b5002800d110bdfff76afefbe730
:020000040000fa
:0e13f20010b50020fff719fbfff711fffee713
:020000040000fa
:0c140000014b84225a60704700400041fc
:020000040000fa
:0c140c008023db0501225a721a71704720
:020000040000fa
:0c1418000138014b5860704710e000e004
:020000040000fa
:0c142400014b1860596070470403002061
:020000040000fa
:0c14300010b5fff799fdfff72ffe10bd6f
:020000040000fa
:0c143c00014b00221a707047580300207a
:020000040000fa
:0a14480010b5006800f012f810bda6
:020000040000fa
:021452007047e1
:020000040000fa
:0814540000487047006cdc0247
:020000040000fa
:08145c00e0120000ff00000097
:020000040000fa
:0814640010b5fff764fd10bd97
:020000040000fa
:08146c00004870475c030020fa
:020000040000fa
:0614740001204042704718
:020000040000fa
:04147a000020704797
:00000001FF
