:020000040000fa
:10000000f07f0020e97c0000e18a0000e18a000026
:1000100000000000000000000000000000000000e0
:10002000000000000000000000000000e18a000065
:100030000000000000000000e18a00009988000034
:10004000e18a0000e18a0000e18a0000e18a000004
:10005000e18a0000e18a0000e18a0000e18a0000f4
:10006000e18a0000055d0000e18a0000e18a0000ed
:10007000e18a00000000000000000000e18a0000aa
:1000800000000000e18a0000e18a0000e18a00002f
:10009000e18a0000e18a0000e18a0000e18a0000b4
:1000a000e18a0000e18a0000e18a0000e18a0000a4
:1000b000e18a00008d6d0000e18a0000f07f0020e1
:1000c000e97c0000e18a0000e18a000000000000f5
:1000d0000000000000000000000000000000000020
:1000e0000000000000000000e18a000000000000a5
:1000f00000000000e18a000099880000e18a000009
:10010000e18a0000e18a0000e18a0000e18a000043
:10011000e18a0000e18a0000e18a0000e18a000033
:10012000055d0000e18a0000e18a0000e18a00002c
:100130000000000000000000e18a00000000000054
:10014000e18a0000e18a0000e18a0000e18a000003
:10015000e18a0000e18a0000e18a0000e18a0000f3
:10016000e18a0000e18a0000e18a0000e18a0000e3
:080170008d6d0000e18a000022
:020000040000fa
:10017800f8b5c046f8bc08bc9e467047e97e00004a
:10018800f8b5c046f8bc08bc9e467047c17e000062
:020000040000fa
:10019800f0b516001f00446a9db00490259d069690
:1001a8000797002c08d1102008f070fc049b5862b7
:1001b800446084600460c460049b5b6a1968002919
:1001c8000bd05a68012393404a608b60049808f06a
:1001d8001ff90022049b5b6a1a60079b002b1cda3c
:1001e80001232b607b005b080793079cba4b220016
:1001f80019931a409a421cd1b84b249a1360069a54
:10020800b74b002a03d1240301d100f08cfd269ab4
:10021800002a05d109330a9308e000232b60e4e79c
:100228001a0009320a920c33269a13600a981db0f4
:10023800f0bd069e079f002200233000390007f01a
:10024800dff8051e0ed00123249a1360a44b1a0070
:100258000d320a92269a002ae8d01a0026990e3200
:100268000a60e3e71aab01931bab009332003b0033
:10027800049806f0fdfa630005905b0d00d17fe05d
:100288003a03984c120b14432100974a30001895f2
:100298009e180022954b01f0a7f8954a954b02f05d
:1002a800f3fd954a954b01f077fb040030000d00f3
:1002b80007f0b4fa924a934b02f0e6fd02000b00f5
:1002c8002000290001f068fb04000d0007f084fb02
:1002d8000022039000232000290007f097f8002847
:1002e8000ed0039807f09afa0b00020029002000ac
:1002f80007f086f8030058425841039b1b1a0393e2
:1003080001231693039b162b0fd87f49db00c918ce
:1003180008684968069a079b07f08cf800284bd0b4
:10032800039b013b0393002316931a9b9e1b0023f8
:100338000b933300013b0c9304d501239b1b0b93b8
:1003480000230c93039b002b38db039a0c9b9446e9
:1003580063440c9300230f920893229b0125092bd9
:1003680000d991e0052b02dd0025043b2293229b56
:10037800981e032800d991e008f06afb8284297648
:100388001a9b1b9a9e18614bf218202a0fdd203bfe
:100398000698f318d84040239b1a9c40204307f046
:1003a800e5fb01235a4c013e0919189371e72023f4
:1003b80006989b1a9840f2e71690b6e70b9b039aab
:1003c8009b1a0b935342089300230f93c5e701230d
:1003d8000e93239b002b65dd1f000d93049a546a2e
:1003e8000022626004221100143199425fd96168c9
:1003f800049807f085fa049b20605b6a1b680a93df
:100408000e2f00d9fce0002d00d1f9e0069b079cd7
:1004180014931594039b002b00dc7de01a000f2138
:10042800394b0a40d2009b185c681b6810931194e2
:10043800039b02241d11eb060ad5364b0d401a6aa0
:100448005b6a1498159902f031f803240690079115
:10045800304e002d30d1109a119b0698079902f062
:1004680025f80690079171e00123239a0e9394468c
:10047800039b63445f1c0d933b1eafdc0123ade778
:100488000023a5e70023f0e700230e952293013b04
:100498000d931f000022122323929fe701230e933e
:1004a800023bf5e701230d931f001a00f4e761688a
:1004b80052000131616096e701231d4208d010986f
:1004c8001199e4183268736802f0defc10901191fb
:1004d8006d100836bde7c0460000f07f0f2700000a
:1004e800308b00000000f03f01fcffff0000f83fe8
:1004f80061436f63a787d23fb3c8608b288ac63f22
:10050800fb799f501344d33fd864000032040000a5
:10051800000010feb0860000039b0224002b15d0bb
:10052800149815995d420f23c94a2b40db00d31854
:100538001a685b6802f0a8fc002306900791c54e74
:100548002d11002d00d08be0002b8ad1169b002b9b
:1005580000d191e0069a079b109211931098119977
:100568000022bd4b06f052ff002800d184e0002f86
:1005780000d181e00d9b002b3edd10981199039b63
:1005880000225e1eb54b02f07ffc069007910d9d80
:100598000134200007f042f9069a079b02f074fc28
:1005a8000022af4b01f0f8f912901391129b139ca3
:1005b800ac4a10931194139b9c181194002d5ed192
:1005c800069807990022a84b00f00eff109a230006
:1005d8000690079106f02eff002800d000e3a348fc
:1005e8001399844661440b0006980799109a06f0ff
:1005f8000dff002800d0e7e2149b159c0693079492
:100608001b9b002b00da56e1039a0e2a00dd52e10b
:100618008f4bd2009b185c681b6808930994239b36
:10062800002b00dbcee0002f00ddcbe000d0cee2d7
:100638000898099900228c4b02f026fc069a079b21
:1006480006f002ff3e000897002800d0a3e20a9bac
:100658000a9a5d1c31231370039b013303939ee2b6
:100668000122154205d0a4183268736802f00cfc08
:1006780001236d10083664e7039e3d0089e70a9a56
:10068800691e521917920e9a714bc900002a4ad056
:100698005b181a685b680020754901f007ff109a1b
:1006a800119b00f0a1fe0a9b1090119112930698dd
:1006b800079907f091f9040007f0b0f802000b0061
:1006c8000698079900f090fe129b30345d1c1c7050
:1006d800109a119b0690079106f098fe002865d1a4
:1006e800069a079b00205c4900f07efe109a119b39
:1006f80006f08cfe002800d0bde0179b9d4200d17b
:100708007ae7109811990022544b02f0bdfb0022a1
:100718001090119106980799504b02f0b5fb12956d
:1007280006900791c3e7591808684968109a119b01
:1007380002f0aafb109011910a9c179d0698079940
:1007480007f04af9129007f069f802000b000698c2
:10075800079900f049fe129b0690079130332370e9
:10076800179b01340022a34224d1414b10981199c0
:1007780001f012f902000b000698079906f05afedc
:10078800002800d077e0109a119b0020384900f02b
:100798002bfe02000b000698079906f037fe00288a
:1007a80000d129e76b1e1a78302a01d003963fe062
:1007b8001d00f7e706980799284b02f065fb06909d
:1007c8000791bbe70a9e089a099b0698079901f0ca
:1007d8006dfe07f001f9040007f020f8089a099b5c
:1007e80002f052fb0b0002000698079900f0fcfd8e
:1007f8002300303333700a9b751ceb1a9f424bd190
:1008080002000b0001f0c8f806000f0002000b0000
:100818000898099906f0fafd00282bd1089809993b
:1008280032003b0006f0ecfd002801d0e30721d49c
:100838000599049807f0ecfd00232b70039b249a7c
:1008480001331360269b002b00d1efe41d60ede41b
:10085800d8640000b08600000000f03f000024408b
:1008680000001c400000c0fc000014400000c07cd8
:100878000000e03f039e6b1e1a78392a06d10a9ab7
:100888009a4207d130231370130001361a780132c7
:100898001a708be71d00eee70022cf4b02f0f4fa46
:1008a80000220023069007912e0006f0a9fd0028db
:1008b80000d188e7bce70e9a002a00d187e0229a87
:1008c800012a6edc189a002a67d0c44a9b18089d32
:1008d8000b9c0b9a0121d2180b920c9a0498d318ee
:1008e8000c9308f0e6f80600002c0edd0c9b002b9c
:1008f8000bdd0c9a2300944200dd13000b9ae41ad6
:10090800d21a0b920c9ad31a0c93089b002b1ed068
:100918000e9b002b5fd0002d11dd31002a000498ba
:1009280006f094f9059a01000600049804f03efeca
:1009380005991090049807f06bfd109b0593089b90
:100948005a1b04d00599049806f080f905900121f6
:10095800049808f0aef80f9b0890002b3ddd1a00b4
:100968000100049806f072f9229b08900025012bdb
:100978003bdc0025069bab4233d1079b1b03ab42f4
:100988002fd1199b079a13422bd00b9b01250133ba
:100998000b930c9b01330c9323e036231a9a9b1a72
:1009a80095e7089b7d1eab4206db5d1b002f0bda2b
:1009b8000b9bdc1b00238ce7089b0895ea1a0f9b0e
:1009c80000259b180f93f1e70b9c3b0081e7089dde
:1009d8000b9c0e9e88e7089ab4e7229b0025012b02
:1009e800c7dd0f9b0120002b0bd0089b089a1b69c1
:1009f8000f9303339b00d318586807f0d5fc2023c6
:100a0800181a0c9bc0181f23184000d1abe02023f4
:100a18001b1a042b00dc9be01c23181a0b9b2418c0
:100a28001b180b930c9b1b180c930b9b002b05ddc1
:100a38001a000599049806f067f805900c9b002b9e
:100a480005dd1a000899049806f05ef80890169bd0
:100a5800002b00d189e00899059807f0f2fc0028de
:100a680000db82e0039b0a22013b039305990023e4
:100a7800049806f0e7fd0e9b0590002b00d15be182
:100a8800002331000a22049806f0dcfd0d9b0600c5
:100a9800002b02dc229b022b6ddc002c05dd3100d3
:100aa8002200049806f030f806003000002d11d01e
:100ab8007168049806f024ff3100040033690c3192
:100ac8009a1c92000c3007f0ebff012221000498d9
:100ad80006f01af80d9f0a9b013f0b93db193700ac
:100ae80006000f930899059804f002ff39000d904d
:100af8000400059807f0a5fc32000e9008990498a8
:100b080005f080fc01230c93c36830340500002bea
:100b180004d10100059807f094fc0c902900049872
:100b280007f076fc0c9b229a134300d089e001233e
:100b3800069a134200d084e0392c00d1a3e00e9b22
:100b4800002b01dd0d9c31340b9b5d1c1c7027e0d4
:100b5800042b00d169e70b9a1c33d2180b920c9a1c
:100b6800e418d31860e70300f5e7002f3cdc229b6c
:100b7800022b39dd0d970d9b002b0cd1089905220e
:100b8800049806f05ffd08900100059807f059fced
:100b9800002800dd5be5239b0a9ddb4303930027c8
:100ba8000899049807f034fc002e00d140e6002f85
:100bb80005d0b74203d03900049807f029fc31006a
:100bc800049807f025fc33e608952e00e3e7002398
:100bd80008931e00dfe7c0460000244033040000ed
:100be800039608952e0032e50e9b0d97002b00d03a
:100bf80053e70a9d0899059804f07afe0a9b30305d
:100c08000d9a287001350400eb1a9a4278dc151efb
:100c180000dc012500270a9b5d190599012204982b
:100c280005f072ff0899059007f00bfc00282fdcef
:100c380001d1e3072cd46b1e1a78302ab0d11d00dd
:100c4800f9e70e9b002b07db1d00229b1d4326d1d5
:100c58000123069a134222d10c9b002b00dc73e778
:100c680005990122049805f04fff0899059007f0af
:100c7800e8fb002804dc00d066e7e30700d463e75c
:100c8800392c00d05ee70b9b0b9a5d1c392313703f
:100c98006b1e1a78392a3bd001321a7080e70b9bf9
:100ca80001330d930c9b002b05dd392cebd00d9dea
:100cb80001340b9b4ae70b9b0f9a0d9d1c709342c6
:100cc800abd000230a220599049806f0bbfc002348
:100cd80005900a2239000498b74206d106f0b2fc02
:100ce800070006000d9b0b93fce606f0abfc3100f9
:100cf800070000230a22049806f0a4fc0600f1e786
:100d080000230a220599049806f09cfc059071e7d7
:100d18000a9a9a4205d1039b013303933123137036
:100d28003ee71d00b4e7269a0a930833002a01d04b
:100d3800fff77afafff77afa0d9b002b00dd58e7e8
:0c0d4800229b022b00dc54e715e7c0469c
:020000040000fa
:100d5400f0b58bb00191019f061c7d006d0800d198
:100d640009e3ff22440003906408d205944206dca0
:100d7400fe239b05954207dd9c4200d1fbe2864899
:100d840007f026ff0bb0f0bd00210291002822da03
:100d940082498d421ddc824b9d420ddd9623ea156e
:100da4009a1a2b001341190091408d4204d101225b
:100db40013400222d31a0293fe239b059d421ed1a7
:100dc400301c002fdedafe20311c800504f0b8f957
:100dd400d8e7022102919542eed19c4200d1cae2a9
:100de40004dd0198002fcdda0020cbe7002ffbdad9
:100df400802212069446019b63441800c2e78023b4
:100e0400db059f4204d1311c301c04f0adf8b9e776
:100e1400fc23301c9b059f4204d1002e02db05f00d
:100e2400d3fcafe707f0f3fe002c05d0fe22b3009d
:100e34009b08920593421bd1002f04da011cfe206b
:100e4400800504f07df9039b002b9bda554be418d5
:100e5400029b1c4304d1011c02f066fd011cb5e792
:100e6400029b012b00d08de780231b06c01889e765
:100e7400f30f013b0593059a029b134302d1311ce6
:100e8400301ce9e79a23db059d4200dc9ce0464bdd
:100e94009c4204dc002fa7da4449081cb5e7444b04
:100ea4009c4202dd002ff7dc9ee7fe21890502f05b
:100eb4003bfd4049041c04f057f83f49051c201c25
:100ec40004f052f8fa21061c8905201c04f04cf8a1
:100ed400011c3a4802f028fd211c04f045f8011ccd
:100ee400fc20800502f020fd211c071c201c04f0be
:100ef4003bf8011c381c04f037f8314904f034f88d
:100f0400011c301c02f010fd011c061c281c02f000
:100f1400f9ff040b2403291c201c02f005fd011c0d
:100f2400301c02f001fd029b059a013b071c134390
:100f340000d054e1234e019b01981d0b2d03291c65
:100f440002f0f2fc211c04f00ff801990290381c05
:100f540004f00af8011c029802f0d4ff291c019045
:100f6400201c04f001f802900390011c019802f087
:100f7400c9ff4700051c04907f08002800dc60e1dd
:100f84008623db059f4200dc2ce10849301c03f07a
:100f9400ebff064939e7c046015b0000ffff7f4bca
:100fa400ffff7f3f000080c0f7ff7f3fcaf2497117
:100fb4000700803f00aab83f70a5ec36abaaaa3e52
:100fc4003baab83f000080bfec4b00229c4206dce9
:100fd4009721c90503f0c8ff182204005242fe25d8
:100fe400e3157f3b9b1804936402e54b640aad054b
:100ff400254300269c4209dde24b01269c4205dd87
:10100400049b9b1900260493df4bed18b300069351
:10101400de4bb200d458281c211c099502f084fc34
:10102400211c0790281c02f06dff011cfe20800586
:1010340004f086f8011c0890079803f095ff0390cc
:10104400039b6d101f0b80239b051d438023db0234
:10105400ed1876053f03ae19311c381c03f084ffec
:10106400011c079802f060fc211c051c301c02f0d6
:101074005bfc011c099802f057fc391c03f074ff57
:10108400011c281c02f050fc089903f06dff039921
:101094000790081c03f068ffbd49041c03f064ffbb
:1010a400bc4902f02fff211c03f05effba4902f095
:1010b40029ff211c03f058ffb84902f023ff211c2b
:1010c40003f052ffb64902f01dff211c03f04cff50
:1010d400b44902f017ff211c051c201c03f044ff37
:1010e400011c281c03f040ff0399041c381c02f067
:1010f40009ff079903f038ff211c02f003ff391c94
:10110400061c381c03f030ffa749089002f0fafed1
:10111400311c02f0f7fe040b2403211c381c03f0dd
:1011240023ffa149051c201c02f0fefb089902f0d4
:10113400fbfb011c301c02f0f7fb039903f014ffc6
:101144000799061c201c03f00fff011c301c02f041
:10115400d9fe061c011c281c02f0d4fe040b240337
:101164009249201c03f000ff291c0390201c02f06c
:10117400dbfb011c301c02f0d7fb8d4903f0f4fead
:101184008c49051c201c03f0effe011c281c02f0f6
:10119400b9fe894b069ad15802f0b4fe051c049896
:1011a40005f0e0ff854b069a071cd658291c0398c6
:1011b40002f0a8fe311c02f0a5fe391c02f0a2feca
:1011c400040b2403391c201c02f0aefb311c02f07a
:1011d400abfb039902f0a8fb011c281ca1e6fe2628
:1011e400b605a8e69f4241d17549019802f08afeee
:1011f4000299041c281c02f097fb011c201c06f019
:10120400c1fa002800d0c0e6802424042200fb1583
:101214007e3b1a415519eb15dbb2584a7f3b1a4104
:101224002900914317226d026d0ad31a2c431c41e5
:10123400049b002b00da6442029802f075fb0390d1
:1012440019e0604b9f4205dd5f49301c03f08cfec2
:101254005d49dae59f4209d1029902f065fb011c60
:10126400019806f085fa0028ced0ede7fc2300248f
:101274009b059f42c8dc0199039802f043fe050bcd
:101284002d035249281c03f06ffe03990290281c79
:1012940002f04afb011c019802f046fb4c4903f0a2
:1012a40063fe4c49071c281c03f05efe011c381c1d
:1012b40002f028fe071c011c029802f023fe02998a
:1012c400051c02f031fb011c381c02f02dfb291c0b
:1012d4000190281c03f048fe3f49071c03f044fe1c
:1012e4003e4902f021fb391c03f03efe3c4902f06a
:1012f40009fe391c03f038fe3a4902f015fb391c8b
:1013040003f032fe384902f0fdfd391c03f02cfed7
:10131400011c281c02f008fb071c011c281c03f0fc
:1013240023fe80210290c905381c02f0fdfa011c3d
:10133400029803f005ff0199071c281c03f014fe12
:10134400019902f0dffd011c381c02f0edfa291ca2
:1013540002f0eafa011cfe20800502f0e5fae3053a
:101364001b18da15002a04dc210005f07dfb311c72
:101374004be5181cfbe7fe20800503e5ffff7f001b
:1013840071c41c00d6b35d00000080ffbc8b00005c
:1013940042f1533e55326c3e05a38b3eabaaaa3ea6
:1013a400b76ddb3e9a99193f000040400038763f04
:1013b4004f38763fa0c39d36cc8b0000c48b000011
:1013c4003caa3833000016436042a20d0072313f3c
:1013d4001872313f8cbebf354cbb31330eeadd355c
:0c13e40055b38a38610b363babaa2a3e99
:020000040000fa
:1013f000f7b50d0009036c00ed0f0095490a450f84
:1014000029431d035e00c700d80f6b0a550f2b43fd
:10141000c14d640d760dd200ae4203d11d0084464d
:10142000154302d101254540ac46009da01bac45ab
:1014300000d036e1002861dd002e25d11d001543c6
:1014400000d196e2461e002e19d1ba18ba42a44124
:10145000c91864420919170001240b0200d4bee028
:10146000ad4b01349c4200d180e2ac487b08014086
:10147000012007401f43c80707434908afe0a64db6
:10148000a84209d1a44caae0a34dac4200d1a6e0e9
:10149000802506002d042b43382e2adc1f2e17dc56
:1014a00020201d00801b8540ac4615000190f540b2
:1014b000604605430198f3408240501e8241154327
:1014c000ed195b18bd428941494259182f00c4e704
:1014d00030001d002038c5400020202e03d04020c1
:1014e000861bb34018000243501e8241154300235f
:1014f000e6e71a4315006a1e9541f8e7002850d028
:10150000002c14d10c003c4300d128e2c443002c31
:1015100007d1bf189742a441c91864420919340081
:101520009be77d48864209d119001700aae77a4c4b
:10153000a642f9d04442802000040143382c2bdc21
:101540001f2c17dc2025281b01900800019de1407d
:10155000a840844638006546e0402843019daf40de
:101560007d1eaf413843871897429241c9185242b5
:101570008918d4e720000d002038c5402800002538
:10158000202c03d040252c1ba1400d002f437d1e95
:10159000af4138430021e6e70f433800471eb8410a
:1015a000f8e7661c75056d0d012d00dd69e008008a
:1015b0003843002c49d1002800d1d3e11800104352
:1015c0000dd0ba18ba42b641c9188023764289199b
:1015d0001b041700194202d00124504b19407b070d
:1015e00009d00f233b40042b05d03b1dbb42bf411c
:1015f0007f42c9191f000b0206d5474b01349c429c
:1016000000d1c3e1454b1940434b4807ff0838431d
:10161000c9089c4206d103000b4300d1b9e18023e5
:101620001b031943002709033b0d1b05090b194335
:101630003b4b6405194064080c43009b6400d907c8
:1016400064080c43210003b0f0bd002800d16be713
:101650001800104300d115e74807ff080743802012
:10166000c9080003014207d0dc08044204d1d208b3
:101670005b0713431f002100780fc9000143ff00df
:1016800000e7254ca64200d16fe1ba18c918ba424a
:101690009b415b42cb18df075208174359083400bf
:1016a0009de700285ddd002e3cd11d00154300d1d3
:1016b0005fe1461e002e0ed1ba1a9742bf41c91ae9
:1016c0007f42c91b012417000b0200d487e749029f
:1016d0004d0a3e00f9e0104da84200d1d2e6382e66
:1016e0003adc1f2e27dc20201d00801b8540ac46e5
:1016f00015000190f540604605430198f340824093
:10170000501e824115437d1bcb1aaf42894149428d
:10171000591a2f00d8e7c046ff070000ffff7fffe0
:10172000ffff0f809c4dac4200d158e780252d046f
:101730002b430600d3e730001d002038c5400020b1
:10174000202e03d04020861bb34018000243501eb9
:10175000824115430023d6e71a4315006a1e9541be
:10176000f8e700284dd0002c17d10c003c4300d1e5
:1017700001e1c443002c09d1d71bba429241591a46
:1017800063465242891a340000939de7824886429c
:101790000ad119001700804c45e07f4ca642f8d0d2
:1017a0004442802000040143382c25dc1f2c11dc2e
:1017b0002025281b00900800009de140a84005005e
:1017c0003800e0402843009daf407d1eaf413843c4
:1017d000171ad2e720000d002038c5402800002548
:1017e000202c03d040252c1ba1400d002f437d1e33
:1017f000af4138430021ebe70f433800471eb841a3
:10180000f8e7601c4005400d01284cdc18000d0075
:1018100010433d43002c24d1002d07d1071e00d1d9
:10182000ade01900170063460093d8e6002800d108
:10183000d5e6bd1aaf42b641c81a7642801b802653
:101840003604304206d0d71bba429241591a52424e
:10185000891ae8e72f00074300d190e001002f002c
:10186000bde6002d07d1071e00d18be019006346ad
:101870001700009306e6002800d103e64807ff089a
:1018800007438020c9080003014200d1f4e6dc08c8
:10189000044200d0f0e6d2085b0713431f00634602
:1018a00021000093e8e6be1ab7428041cd1a4042bb
:1018b0002d1a8020000405422dd0d61bb242ad4126
:1018c000591a63466d424d1b0093002d29d0280004
:1018d00006f092fc0300083b1f2b27dc202231007e
:1018e0009e40d21a9d40d14037000d439c4232dccd
:1018f0001c1b661c1f2e1edc20233a0029009b1b8c
:101900009940f2409f400a43791e8f412900f140df
:101910001743002463e637002f43d6d139003c003b
:101920002ee0300006f068fc2030d3e73500283880
:1019300085400027dae72a001f3ce2400023202ee2
:1019400003d040239e1b2b00b3401f437b1e9f41af
:1019500000211743dde71149e41a29403fe6190049
:1019600017009ce61900170039e60b4c00210f0008
:1019700035e6040033e619001700340053e7390058
:1019800000972ce68021044cc903f9e700210f00e1
:101990003ae6190046e6c046ff070000ffff7fff5a
:1019a000f7b50d0009036c00ed0f0095490a450fce
:1019b0005e0029431d03db0f9c466b0a550f2b432a
:1019c000009d640d760dc700d200a01b654500d0b8
:1019d00036e1002861dd002e25d11d00154300d120
:1019e00097e2461e002e19d1ba18ba42a441c9186e
:1019f00064420919170001240b0200d4bee0bd4b5c
:101a000001349c4200d181e2bb487b0801400120a7
:101a100007401f43c80707434908afe0b54da84238
:101a200009d1b44caae0b34dac4200d1a6e0802568
:101a300006002d042b43382e2adc1f2e17dc202015
:101a40001d00801b8540ac4615000190f5406046a6
:101a500005430198f3408240501e82411543ed1921
:101a60005b18bd428941494259182f00c4e7300034
:101a70001d002038c5400020202e03d04020861baa
:101a8000b34018000243501e824115430023e6e78d
:101a90001a4315006a1e9541f8e7002850d0002c23
:101aa00014d10c003c4300d129e2c443002c07d1df
:101ab000bf189742a441c9186442091934009be732
:101ac0008c48864209d119001700aae7894ca64222
:101ad000f9d04442802000040143382c2bdc1f2c19
:101ae00017dc2025281b01900800019de140a8403b
:101af000844638006546e0402843019daf407d1e86
:101b0000af413843871897429241c9185242891809
:101b1000d4e720000d002038c54028000025202ce7
:101b200003d040252c1ba1400d002f437d1eaf414b
:101b300038430021e6e70f433800471eb841f8e775
:101b4000661c75056d0d012d00dd69e00800384348
:101b5000002c49d1002800d1d4e1180010430dd049
:101b6000ba18ba42b641c9188023764289191b04b3
:101b70001700194202d001245f4b19407b0709d09e
:101b80000f233b40042b05d03b1dbb42bf417f428e
:101b9000c9191f000b0206d5564b01349c4200d1d7
:101ba000c4e1554b1940534b4807ff083843c90857
:101bb0009c4206d103000b4300d1bae180231b03f2
:101bc0001943002709033b0d1b05090b19434b4b18
:101bd0006405194064080c43009b6400d90764083d
:101be0000c43210003b0f0bd002800d16be71800c2
:101bf000404c1043c2d04807ff0807438020c90863
:101c00000003014207d0dc08044204d1d2085b077c
:101c100013431f002100780fc9000143ff0000e7b4
:101c2000344ca64200d170e1ba18c918ba429b419f
:101c30005b42cb18df0752081743590834009de771
:101c400000285ddd002e35d11d00154300d160e177
:101c5000461e002e0ed1ba1a9742bf41c91a7f42c2
:101c6000c91b012417000b0200d487e749024d0a63
:101c70003e00fae01f4da84200d1d2e6382e33dcf8
:101c80001f2e20dc20201d00801b8540ac46150047
:101c90000190f540604605430198f3408240501e94
:101ca000824115437d1bcb1aaf4289414942591ae3
:101cb0002f00d8e70f4dac4200d15fe780252d04ff
:101cc0002b430600dae730001d002038c540002015
:101cd000202e03d04020861bb34018000243501e24
:101ce000824115430023dde71a4315006a1e954122
:101cf000f8e7c046ff070000ffff7fffffff0f80f0
:101d000000284dd0002c17d10c003c4300d102e13b
:101d1000c443002c09d1d71bba429241591a6346d9
:101d20005242891a340000939de7834886420ad1c3
:101d300019001700804c45e07f4ca642f8d0444281
:101d4000802000040143382c25dc1f2c11dc2025c9
:101d5000281b00900800009de140a84005003800c5
:101d6000e0402843009daf407d1eaf413843171a25
:101d7000d2e720000d002038c54028000025202c87
:101d800003d040252c1ba1400d002f437d1eaf41e9
:101d900038430021ebe70f433800471eb841f8e70e
:101da000601c4005400d01284ddc18000d0010435b
:101db0003d43002c24d1002d07d1071e00d1aee0f9
:101dc0001900170063460093d8e6002800d1d5e635
:101dd000bd1aaf42b641c81a7642801b802636042f
:101de000304206d0d71bba429241591a5242891a40
:101df000e8e72f00074300d191e001002f00bde686
:101e0000002d07d1071e00d18ce019006346170092
:101e1000009306e6484c002800d1afe64807ff08cb
:101e200007438020c9080003014200d1f3e6dc0823
:101e3000044200d0efe6d2085b0713431f0063465d
:101e400021000093e7e6be1ab7428041cd1a404216
:101e50002d1a8020000405422dd0d61bb242ad4180
:101e6000591a63466d424d1b0093002d29d028005e
:101e700006f0c2f90300083b1f2b27dc20223100ab
:101e80009e40d21a9d40d14037000d439c4232dc27
:101e90001c1b661c1f2e1edc20233a0029009b1be6
:101ea0009940f2409f400a43791e8f412900f1403a
:101eb0001743002462e637002f43d6d139003c0097
:101ec0002ee0300006f098f92030d3e735002838ae
:101ed00085400027dae72a001f3ce2400023202e3d
:101ee00003d040239e1b2b00b3401f437b1e9f410a
:101ef00000211743dde71149e41a29403ee61900a5
:101f000017009be61900170038e60b4c00210f0064
:101f100034e6040032e619001700340052e73900b5
:101f200000972be68021044cc903f9e700210f003c
:101f300039e6190045e6c046ff070000ffff7fffb6
:020000040000fa
:101f4000f0b597b00c00089209931c9d079006f01d
:101f500043fd036818000e9306f0f2fd237e266809
:101f60000b930f902b680722f1054bd59b189343d9
:101f70001a0008322a601a685b68a264e3640122ce
:101f8000e76ca36c7d000a936d080c935242c04b22
:101f90000a98290006f026fa002800d070e20122f3
:101fa000bb4b52420a98290005f03efa002800d0a7
:101fb00066e2002200230c98390005f02bfa002875
:101fc00003d023002d2243331a70b24b1a1d0a92fc
:101fd0000b9a472a00d80a9303230027236104237e
:101fe0003d009e432660099b14aa00932100089b94
:101ff000079804f037f9431c00d007e10120404264
:1020000017b0f0bd0733b2e763685a1c00d0ace0ec
:102010000623636080230022db003343236065686e
:102020001092974205da802109067b181f002d23a4
:10203000109320230b9a9a430d920d9b0322462b5b
:1020400004d0453b5842584102222d1814ab04934a
:1020500013ab039312ab029300923b0001950c9ad1
:102060000798fef799f80d9b0a90472b02d1f307ca
:1020700000d418e20a9b5e190d9b462b10d10a9bd7
:102080001b78302b0ad1002200230c98390005f070
:10209000bbf9002802d101235d1b1295129bf61893
:1020a000002200230c98390005f0aef930220028f8
:1020b00069d01496149b0a9a9f1a0d9b472b0ad13c
:1020c000129bda1c03db6268934200dc8ce00b9b02
:1020d000023bdbb20b930b9b129a652b68d86946c7
:1020e0002c202300091809785033551e0d931970c0
:1020f00002330c931295013b002d48da0125ad1aed
:102100002d221a70092d4bdd27260cabf618731ef5
:1021100028000a21119304f04dfc731e3031197010
:1021200028000a2104f0fcfb0500092831dc2721e6
:10213000023e30350caa0c9b357089181a008e426d
:1021400029d30d9bd51aeb192361012f02dc2268dc
:10215000d20701d501332361109b002b00d142e748
:1021600023002d2243331a703de720220b9991431f
:10217000472900d04ee7002b00d04be7012348e76a
:10218000591c14911a70149b9e42f9d892e72b2285
:10219000b7e7119ebbe7327801361a700133cde7fd
:1021a00030230c9a30351370130002325d70c8e78b
:1021b0000b9b662b1ad16368002a0cdd2261002b71
:1021c00002d12168c90702d501339b182361129bf4
:1021d0000025a365c0e7002b03d10122216811422d
:1021e00000d09a1c2261f2e767230b93129bbb423b
:1021f00005db22682361d207e9d50133e6e7012236
:10220000002b01dc0222d21ad219ebe72268530517
:1022100008d423690a9a08990798099da847431c7e
:1022200029d1ebe60b9b652b00d8d7e0a06ce16cc5
:102230000022002305f0e8f8002839d0154a0123d0
:10224000103208990798099da847431c00d1d5e68c
:10225000129bbb4202db2368db070cd5099d0f9b59
:102260000e9a08990798a8470025431c00d1c5e697
:102270007b1e9d4210db236800259b0700d5f9e0fb
:10228000149be068984200dbbae61800b8e6c04646
:10229000ffffef7f70800000220001231a320899af
:1022a0000798099eb047431c00d1a7e60135dfe738
:1022b000129b002b2ddc7e4a0123103208990798cf
:1022c000099da847431c00d198e6129b002b04d11e
:1022d000002f02d12368db07cdd5099d0f9b0e9af5
:1022e00008990798a8470025431c00d186e6129b51
:1022f0005b429d4201db3b008ce7220001231a3246
:1023000008990798099eb047431c00d176e601352d
:10231000ede7a56dbd4200dd3d00002d34dc00235e
:102320000b93eb43db170c930c9ba66d0b9a2b4086
:10233000f31a9a4231db129bbb423cdb2368db077a
:1023400039d4129abb1bbd1a9d4200dd1d00002d21
:102350003adc00230a93eb43db170b93129b0b9a97
:10236000fb1a2a409b1a0a9a9a4284da2200012315
:102370001a3208990798099eb047431c00d13de6e0
:102380000a9b01330a93e9e72b000a9a08990798f8
:10239000099eb047431cc2d130e6220001231a3205
:1023a00008990798099eb047431c00d126e60b9b6d
:1023b00001330b93b8e70f9b0e9a08990798099d74
:1023c000a847431cbdd119e60a9b08999a1907989a
:1023d0002b00099eb047431cbbd10fe6012f02dc46
:1023e00001231a4239d001230a9a08990798099eb5
:1023f000b047431c00d101e60f9b0e9a089907983d
:10240000099eb047431c00d1f8e5a06ce16c0023a5
:10241000002204f0f9ff0023002815d10a9a7b1e40
:10242000013208990798099eb047431c11d1e5e590
:10243000220001231a3208990798099eb047431ccd
:1024400000d1dbe50a9b01330a930a9a7b1e9a426c
:10245000eedb22002b005032dde60a9ae1e7220093
:102460000123193208990798099eb047431c00d1ef
:10247000c4e50135e368149a9b1a9d42efdbffe641
:102480000c9a3b000c98390005f0acff002800d1f5
:10249000bae5074b1a000c320a920b9a472a00d968
:1024a0009ae5083397e5149b0a9a9f1a08e6c046f6
:0424b0007080000038
:020000040000fa
:1024b400f0b58bb0060004930400cb0f0d03480065
:1024c40000922d0b400d0393029346d0584b984233
:1024d40067d08023720f1b04ed0013432b431f00ae
:1024e400544bf400c31800260193049b009a1d0367
:1024f4005800db0f2d0b400d069361d04c4b9842d6
:1025040000d181e08023520f1b041343ed001d43cf
:10251400484a009b8218db009446002206980399df
:102524004140604604910199091ab00010430138f2
:1025340005910e2800d981e006f096fa750049024b
:10254400ed0149023d024902ed01750075003d02ad
:10255400ed01fc01fc01fc01e2012f00374327d00f
:10256400002d13d0280005f045fe01000b391c296d
:1025740011dc02001d2337003400083a5b1a954031
:10258400df4094402f432c4b1b1aace7300005f07e
:1025940031fe2030e9e70300283b9e400024370049
:1025a400f1e72e43371e07d02f00019003269ce746
:1025b4003c000197012698e734000190022694e735
:1025c400009b2b4327d0002d13d0280005f012feca
:1025d40001000b391c2911dc1d2302005b1a009930
:1025e400083ad940009b954093400d43124a121a71
:1025f40092e7100005f0fefd2030e9e70300009d9e
:10260400283b9d400023f1e7009b2b4307d0130098
:102614008446032282e71d009c4601227ee71d00ba
:10262400844602227ae700252c00014b4ee1c04685
:10263400ff07000001fcffff0dfcffffaf4204d8c1
:1026440000d057e19c4200d254e1f90762081143db
:10265400e0070c0001907f082d021a0e2a431b028a
:102664000293130c03936b4600921b880399380062
:10267400079304f0adfc0600079b0690039938000d
:102684005e4304f0e1fc250c09040d43069fae42b1
:1026940009d9009b013fed18ab4204d8ae4202d9e0
:1026a400069fed18023fab1b03991800069304f034
:1026b4008ffc079e050046430399069804f0c4fc6a
:1026c400a4b209040c432a00a64208d9009b013a8b
:1026d400e418a34203d8a64201d9aa1ee4183b0475
:1026e40002991343029a0904120c090c08920691e8
:1026f400089d06989ab2a61b1c0c514360436a437a
:102704006c4312180d0caa18904202d98020400282
:102714002418100c09041204090c04195218a642b6
:1027240005d31f00a64227d10199914224d20298d1
:10273400019984466144019181428941009849424a
:10274400091876185f1eb04204d315d1614601986a
:10275400814211d8b44203d80ed101998a420bd9cf
:1027640002999f1e8c46019b634401938b429b41bb
:1027740000995b425b18f618019b341b9b1a099362
:10278400099a019b93429b415b42e41a009ba3423a
:1027940000d1d2e00399200004f01afc079d060042
:1027a40045430399200004f04ffc099b09041c0cc9
:1027b4000c430196a5420cd93300013b0193009bc5
:1027c400e418a34205d8a54203d9b31e0193009b84
:1027d400e418641b0399200004f0fafb079d06002b
:1027e40045430399200004f02ffc6b460a04998c9e
:1027f400330011438d4208d9009a013b89188a425b
:1028040003d88d4201d9b31e8918019a089c120479
:102814001a43100c93b24d1b16000699069a4143b5
:102824005a43634360435b18140ce318994202d97a
:10283400802149024018190c12041b04120c0818b8
:102844009b18854204d3340085421bd1002b1bd036
:10285400009a741e5519aa420fd8a84203d811d160
:10286400029a9a420bd2029ab41e510091429241aa
:10287400009e52429219ad180291854202d1029ae9
:10288400934201d001231c43059b564a9b18002bfd
:1028940056dd620709d00f222240042a05d0221dea
:1028a400a242a44164423f191400fa0106d58022d1
:1028b400d20094464c4b1f40059b63444b4a9342c1
:1028c40000dd88e0e40879070c43fd0800212d03ae
:1028d4000a0d12052d0b1543454a5b0515405b088f
:1028e4002b43049a5b00d2075b08134320001900b2
:1028f4000bb0f0bd059a013a059200220192abe6b5
:102904008022120317425ad0154258d12f001c00be
:10291400069b029353e02f0016001c00069b0493b1
:10292400022e58d0032e50d0012eadd10024250004
:102934002300cbe7039b0493f2e701246442a3e75b
:102944000122d21a382af1dc1f2a21dc202320009c
:102954009b1a39009c403d009940d040631e9c4125
:10296400d54001430c43630709d00f232340042bb4
:1029740005d0231da342a44164422d191c008023c9
:102984001b042b402ad16907e4080c43ed089de79a
:102994001f214942cb1a3900d9400b000021202abb
:1029a40003d040218a1a390091400c43611e8c41a6
:1029b40000251c43d7e7802700243f030294802589
:1029c400029b2d033d4304932fe6049ba1e70025be
:1029d4002c002b007ae70024250026e6002501239d
:1029e4002c0073e7ff030000fffffffefe0700005b
:0429f400ffff0f8052
:020000040000fa
:1029f800b0b58ab002aff74b06225a6002f07efcef
:102a080005f0c0ff05f07efd05f0e4f906f00cf8ce
:102a180005f07eff04f0e6fb05f00af905f0acfbd3
:102a280006f062f8ec4b181c04f058fbeb4cec4a2f
:102a3800ea49ec48ec4b0093231c04f093fce74c68
:102a4800ea4ae649ea48e94b0093231c04f08afc69
:102a5800e24ce84ae149e848fe239b050093231c21
:102a680004f080fce54b1b68e54ce64ae449e6487f
:102a78000093231c04f0f6fbe44b1a68e44b1b6834
:102a8800fe24a405fe218905e2480093231c04f0d6
:102a9800e9fbe14b1a68da4cd949e048e04b00936e
:102aa800231c04f0dffb1223fb1800221a801023da
:102ab800fb1800221a800023fb600123fb6100231e
:102ac800bb610023bb6000237b61bb1df6221a801b
:102ad800d44bbb61bb1d1b88180005f031fcfa699b
:102ae800d14b1100180005f045fc1223fb180022f9
:102af8001a801023fb1800221a8005f085fd122386
:102b0800fc1805f0d5fa0300238004f0cbffc0467b
:102b1800c64b1b78dbb201225340dbb2002bf7d146
:102b280005f0a8fc1023fc1805f0c2fa0300238066
:102b380005f07efd1023fb181a881223fb181b884a
:102b48001100180004f006fd031cfb6004f084fa71
:102b580004f0daffb64b1b68181c04f0c7f8030032
:102b68000c00b4491a002300080005f003fc05f026
:102b7800e3fafb68181c05f075fbad4b1b68181cc5
:102b880004f0b4f803000c00ab491a002300080055
:102b980005f0f0fba64bdb68181c04f0a7f803004f
:102ba8000c00a6491a002300080005f0e3fba04b1f
:102bb8001868944c80239a009349994b0093231cde
:102bc80002f052fc021c9e4b1a60994b18688d4cff
:102bd80080239a008f49924b0093231c02f044fcf7
:102be800021c974b5a60924b1868864c80239a00b7
:102bf8008a498b4b0093231c02f036fc021c904b35
:102c08009a608b4bd868764c80239a007549fe23ce
:102c18009b050093231c02f027fc021c894b1a60b9
:102c2800834bd8686e4c80239a007149fe239b051c
:102c38000093231c02f018fc021c824b5a607c4b48
:102c4800d868674c80239a006b49fe239b05009344
:102c5800231c02f009fc021c7a4b9a607949784ad5
:102c68006b4618000b1d30cb30c00b6810685168dc
:102c7800926801f0b7fa031cbb60734b180005f0ab
:102c880079fb6f4b1b68181c04f030f803000c002c
:102c98006e491a002300080005f06cfb684b5b685e
:102ca800181c04f023f803000c0069491a002300db
:102cb800080005f05ffb624b9b68181c04f016f8cf
:102cc80003000c0063491a002300080005f052fbba
:102cd8005c4b1b68181c04f009f803000c005e49e3
:102ce8001a002300080005f045fb564b5b68181cca
:102cf80003f0fcff03000c0058491a0023000800e9
:102d080005f038fb4f4b9b68181c03f0efff0300de
:102d18000c0053491a002300080005f02bfb4a4b0e
:102d2800180005f027fbb968b86900f0fbfd031c23
:102d38007b61786903f0daff4a4a4b4b04f066fb83
:102d4800031e01d0494b7b612d49786904f018fdb9
:102d5800031e01d02a4b7b61b86803f0c7ff03004c
:102d68000c0043491a002300080005f003fb7869aa
:102d780003f0bcff03000c003e491a0023000800c2
:102d880005f0f8fabc1d7b69181c03f019fe030056
:102d98002380bb1d1b88180005f0d2fabb1d1a88ba
:102da800354b1100180005f0e5fa7b69bb6164201a
:102db80005f0f0fcfb690133fb61304b180005f0ae
:102dc800d9fa2e4b180005f0d5fa2d4b180005f04e
:102dd800d1fa57e0004000410000c242cdcc4c3e41
:102de800000080bf041800203333b3be8fc2f5bc87
:102df800042000203333b33e04280020cc330020c5
:102e080000002040000020c204000020d033002031
:102e1800d433002004080020d833002004100020f8
:102e28000000f04279e6193f0c470000ef3300201c
:102e38009c330020284700004c47000068470000ea
:102e4800ac330020b83300208047000084470000de
:102e5800b0470000e04700000c4800004048000070
:102e680070480000333333333333e33f9a99193fc3
:102e7800a4480000cc480000ec48000000490000cd
:082e8800404900002be6c046a2
:020000040000fa
:102e9000f0b58bb001920593ca0f0c034b000600ee
:102ea000240b5b0d0492039245d0c64a934265d031
:102eb0008022410f12040a43e4001443c24ac500b1
:102ec0009b1800270293059b019a1e035800db0ff5
:102ed000360b400d059360d0ba4b984200d180e08c
:102ee0008023520f1b041343f6001e43b64a019b76
:102ef0008218db0094460022059804994140019114
:102f00000299b800614410430791013801310691dc
:102f10000e2879d805f0aafd740074007b017101b8
:102f20007101bc017b017101bc0171017b016f0169
:102f30006f016f0164012500054326d0002c13d0da
:102f4000200005f059f901000b391c2910dc1d2364
:102f500002005b1a31003500083a9440d940954090
:102f60000c439a4b1b1aace705f046f92030eae710
:102f700003003400283b9c400025f2e70500254370
:102f800007d00500029303279de72c000295012737
:102f900099e72c000293022795e7019b334327d042
:102fa000002e13d0300005f027f901000b391c2941
:102fb00011dc1d2302005b1a0199083ad940019bdc
:102fc000964093400e43814a121a93e7100005f091
:102fd00013f92030e9e70300019e283b9e400023bf
:102fe000f1e7019b334307d013008446032283e7b4
:102ff0001e009c4601227fe71e00844602227be7da
:1030000034001d001700f8e0190c9bb20291190062
:103010002a0c514318008c46029f0299adb26843b6
:1030200051436f4304916744010cc91903908c45c7
:1030300006d9049f380080277f02bc466044049074
:10304000684680890f0c090409180991310cb6b241
:10305000039130003100bc46039f694350437d43d8
:103060007a432d180f0c7d19a84202d98020400206
:103070001218280c82182d0489b205926a18089239
:103080001800089962468c46029f210ca4b2604346
:103090004b43674362449446029dff18020cd219c9
:1030a0004d43934202d980235b02ed183700130c85
:1030b0005b190293039b67434e435c435943a41936
:1030c0003b0c120480b21c191018a64202d98023ae
:1030d0005b02c918049b220463441e00089bbfb214
:1030e0009e42ad418619d2198642bf410298059b86
:1030f00084466d42d218ab189c440393059b6046ee
:103100009a429241039b5242ab429b415b427f42b7
:103110001a43029b3818240c1219b842bf419c452f
:10312000a4417f4264423c4314196418c30d6402f5
:103130001c43099b75021d43691e8d41f60d3543e5
:1031400040020543e30167d501226b0815401d438a
:10315000e307d4401d43069b1d4a9b18002b5eddf0
:103160006a0709d00f222a40042a05d02a1daa4244
:10317000ad416d4264191500e20106d58022d200ee
:103180009446144b1c40069b6344134a934200dd53
:103190008be06207ed081543e408002124030a0dc3
:1031a0001205240b14430d4a5b0514405b082343ae
:1031b000019a5b00d2075b081343280019000bb08b
:1031c000f0bdc046ff07000001fcffff0dfcffff44
:1031d000ff030000fffffffefe070000ffff0f8060
:1031e00080221203144257d0164255d134001d00dc
:1031f000059b039350e0049b0193022f55d0032fae
:1032000051d0012fa7d100252c002b00c5e71d00b0
:10321000059b34000193f5e6079b06939be701228b
:10322000d21a382aefdc1f2a20dc202321009b1a27
:1032300028009d409940d0406b1e9d41d4400143e1
:103240000d436b0709d00f232b40042b05d02b1dfa
:10325000ab42ad416d4264191d0080231b04234025
:1032600000d196e700240123250096e71f2149425b
:10327000cb1a2100d9400023202a03d040239a1ad8
:10328000230093401d436b1e9d4100240d43d8e74e
:10329000802400252403039580231b031c43039be8
:1032a0000193034b79e7019ba3e700252c00f8e786
:0432b000ff07000014
:020000040000fa
:1032b400503300201c000000000000008833002070
:1032c4001400000000000000ec33002001000000a6
:1032d40000000000ed3300200100000000000000a9
:1032e400703200208000000000000000ee33002057
:1032f4000100000000000000ef3300200100000086
:10330400000000006c3300201c00000001000000dd
:10331400000040400000404000d08445e1c1643ad0
:10332400d60f5a39de8e6033339388439c330020a2
:1033340010000000000000007031002000010000b7
:1033440000000000c433002004000000000000005e
:10335400c83300200400000000000000cc3300202b
:103364000400000000000000d0330020040000002e
:1033740000000000d433002004000000000000001e
:10338400d83300200400000000000000ac3300200b
:103394000c00000000000000b83300200c00000006
:1033a40000000000040000200018000000000000dd
:1033b400041800200018000000000000f033002072
:1033c400010000000100000001000000dc330020c7
:1033d4000400000001000000f0320020f032002060
:1033e400600000000100000000000000d888000018
:1033f400f8880000b8880000000000000000000009
:1034040000000000000000000000000000000000b8
:1034140000000000000000000000000000000000a8
:103424000000000000000000000000000000000098
:103434000000000000000000000000000000000088
:103444000000000000000000043000206c010000b7
:103454000100000043000000000000000000000024
:103464000000000000000000000000000000000058
:103474000000000043000000000000000000000005
:103484000000000000000000000000000000000038
:1034940000000000430000000000000000000000e5
:1034a4000000000000000000000000000000000018
:1034b40000000000430000000000000000000000c5
:1034c40000000000000000000000000000000000f8
:1034d40000000000430000000000000000000000a5
:1034e40000000000000000000000000000000000d8
:1034f4000000000043000000000000000000000085
:1035040000000000000000000000000000000000b7
:103514000000000043000000000000000000000064
:103524000000000000000000000000000000000097
:1035340000000000c1890000c187000000000000f5
:10354400005a0000a18b0000a08b0000a08b00009b
:10355400a08b0000a08b0000a08b0000a08b0000bb
:10356400a08b0000a08b0000a08b0000ffffffffda
:10357400ffffffffffffffffffff000001004153bc
:103584004349490000000000000000000000000062
:103594000000000000000000000000000000415393
:1035a4004349490000000000000000000000000042
:1035b4000000000000000000000000000000000007
:1035c400e03300200400000000000000e433002089
:1035d40004000000000000000000002004000000bf
:1035e40000000000e8330020040000000000000098
:1035f40000000000000000002222222222222222b7
:020000040000fa
:103604000d0a0a0a0a0a0a0a0a0a0a0a0a0a0a0a13
:103614000a0a0a0a0000c04650656e6e205374619f
:1036240074652042656872656e6420456d626564e8
:10363400646564204f43584f0d00c04653706f6e4d
:10364400736f726564206279204b796f6365726170
:10365400204156580d0a0d00457363617065207250
:1036640065717565737465642c20706c6561736530
:103674002074727920616761696e210d0000c04673
:103684004572726f723a205258206275666665728e
:10369400206f766572666c6f77210d0021630000e0
:1036a40021730000496e76616c6964206e756d62e9
:1036b40065722072656365697665643a2025730dc9
:1036c4000a00c0462165000021680000456e74654b
:1036d40072696e6720566572626f7365204d6f6400
:1036e400652e2e2e0d00c046566572626f736520de
:1036f4004d6f646520686173206265656e20656e38
:103704007465726564210d0052656365697665644c
:10371400206e657720736574706f696e742e2e2e1b
:103724000d00c046456e64696e6720566572626f0f
:103734007365204d6f64652e2e2e0d0056657262e2
:103744006f7365204d6f64652068617320626565e1
:103754006e20656e646564210d00c0460d0a0a0082
:103764002a2a2a2a2a2a2a2a2a2a2a2a2a2a2a2ab5
:103774002a2a2a2a2a2a2a2a2a2a2a2a2a2a2a2aa5
:103784002a2a2a2a2a2a2a2a2a2a2a2a2a2a2a2a95
:103794002a2a2a2a2a2a2a2a2a2a2a2a2a2a2a2a85
:1037a4002a2a2a2a2a2a2a2a2a2a2a2a2a2a2a2a75
:1037b4002a2a2a2a2a2a2a2a2a2a2a2a0d00c046fa
:1037c40020202020202020202020202020202020f5
:1037d40020202020202020202020202020202020e5
:1037e40020202020202020434f4d4d414e44532083
:1037f4004d454e550d00c0462a2a2a2a2a2a2a2a2d
:103804002a2a2a2a2a2a2a2a2a2a2a2a2a2a2a2a14
:103814002a2a2a2a2a2a2a2a2a2a2a2a2a2a2a2a04
:103824002a2a2a2a2a2a2a2a2a2a2a2a2a2a2a2af4
:103834002a2a2a2a2a2a2a2a2a2a2a2a2a2a2a2ae4
:103844002a2a2a2a2a2a2a2a2a2a2a2a2a2a2a2ad4
:103854002a2a2a2a0d0a0000436f6d6d616e6420c6
:1038640020416374696f6e0d0000c04620202163ff
:103874002020202020426567696e206f7220656ecb
:103884006420766572626f7365206d6f6465200dc8
:103894000000c04620202173202020202053656e84
:1038a400642061206e657720736574706f696e742f
:1038b40020647572696e6720766572626f73652025
:1038c4006d6f64650d00c0462020216520202020f6
:1038d40020456e6420766572626f7365206d6f6437
:1038e400650d000020202168202020202053686fcf
:1038f4007720636f6d6d616e6473206d656e7520e6
:103904000d00c046496e76616c696420636f6d6d0d
:10391400616e642c20706c6561736520747279200b
:08392400616761696e210d006d
:020000040000fa
:10392c00f7b543024a025b0a520a4e004400019367
:10393c0000939446240ec50fdb00360ec90fd2003f
:10394c00ff2e01d1002a01d101204140a01ba94228
:10395c0000d0a1e000282edd002e18d1002a00d1c5
:10396c004ae1411e00290ed101249b185a015bd556
:10397c000134ff2c00d13de10122a4491a405b081f
:10398c000b40134350e0ff2807d1ff244ce0ff2ce1
:10399c004ad08021c9040a4301001b2901dd012200
:1039ac0007e010002026c840711a8a40511e8a4137
:1039bc0002439b18dae7002821d0002c0cd1002bf5
:1039cc0007d0c043002802d19b183400cee7ff2e4d
:1039dc0008d11300340027e0ff2efad08021c9044f
:1039ec0040420b431b2801dd0123ede71900202485
:1039fc00c140201a8340581e83410b43e4e7611ced
:103a0c00ff260f003740012f3fdc002c2bd1002b61
:103a1c0000d1eae0002a07d09b188022d20413427e
:103a2c0002d001247a4a13405a0704d00f221a40bc
:103a3c00042a00d004335a0105d50134ff2c00d1df
:103a4c00e1e0734a1340db08ff2c04d1002b02d0b9
:103a5c008022d20313435b02e4b2e405580aed075b
:103a6c0020432843febd002b00d1c0e03400002ac7
:103a7c00dad08023019adb031a4203d062461a4241
:103a8c0000d10092009bdb007fe7ff2900d1b0e062
:103a9c009b185b080c00c7e7002826dd002e13d10d
:103aac00002a00d1a8e0411e002906d101249b1a4e
:103abc005a01b9d59b019e097ae0ff2800d164e731
:103acc001b2908dd01220ee0ff2cadd08021c9049a
:103adc000a430100f4e710002026c840711a8a40fe
:103aec00511e8a4102439b1ae2e7002822d0002c87
:103afc000dd1002b08d0c043002803d1d31a3400b9
:103b0c000d00d5e7ff2e08d11300340020e0ff2e66
:103b1c00fad08024e404404223431b2801dd012316
:103b2c00ece71c002025c440281a8340581e834112
:103b3c002343e3e7ff20661c0640012e31dc002cfa
:103b4c0017d1002b06d11d00002a00d16ce7130001
:103b5c000d0069e7002a00d166e78026981af60462
:103b6c00304201d0d31af3e7031e00d05ce71d00ee
:103b7c005ae7002b04d1002a40d013000d0004e7b3
:103b8c000400002a00d14fe78023019adb031a427c
:103b9c0000d177e762461a4200d073e700920d001d
:103bac0070e780209e1ac004064215d00d00d61a6c
:103bbc00300004f01bfb330005388340844210dcda
:103bcc00041b1a0020200134e240041ba3405e1e9b
:103bdc00b3410024134327e7002ee9d1330034000e
:103bec00c5e7241a0a4803401ee713001ce713001c
:103bfc00cbe60c00002317e7040015e78023040034
:103c0c009b04150010e700231de7c046ffffff7d56
:043c1c00fffffffbac
:020000040000fa
:103c2000f0b58fb0051c0c1cfdf794f80023af4fc6
:103c3000061cfb560193013365d0211c201c04f0a7
:103c400023fd029000285ed1291c281c04f01cfdd5
:103c500000210390002821d0201c03f07bfd0028c8
:103c600051d001230493a24b281c0593029b0c9373
:103c700003f040f806900791201c03f03bf8002267
:103c80009c4b089009910a920b93019b022b35d013
:103c900004a802f01ffc002827d161e0281c03f0d3
:103ca00059fd002861d00021201c03f053fd029033
:103cb00000282bd0012304938d4b281c0593039bd4
:103cc0000c9303f017f806900791201c03f012f8ec
:103cd000002300220a920b93019b08900991002b6c
:103ce000d6d00022834b0a920b930c9b0193002b9e
:103cf00004d004f039ff0c9b019303600a980b99e0
:103d000001f080ff061c301c0fb0f0bd201c04f039
:103d100099fe0028f7d00021201c03f021fd002887
:103d2000f1d001230493724b281c0593029b0c9342
:103d300002f0e0ff06900791201c02f0dbff002359
:103d4000fb5608900991002b04d1002200230a920f
:103d50000b939de7002068490a900b91022b97d1a5
:103d600004f002ff21230360bfe7301c04f06afe69
:103d70000190002800d08be0281c04f063fe00288e
:103d800000d185e0201c04f05dfe002800d17fe01a
:103d9000311c301c04f078fc0026554bbe5700281f
:103da0001bd001220593019b281c04920c9302f066
:103db000a1ff06900791201c02f09cff00220890b2
:103dc00009910023002ec2d010001900fef772fbeb
:103dd0000a900b91022ec3d05ae703220c90281ca4
:103de0000492059302f086ff06900791201c02f0d2
:103df00081ff08900991002e2ad1e0223f4b120644
:103e00000021281c0a920b9303f0aafc002865d01d
:103e1000fc21201c890501f0a9f802f06bff0400c9
:103e20000d0001f0e1fc02000b002000290003f06e
:103e3000ebfa002804d1e022314b12060a920b93d0
:103e40000023fb56022b49d104f08efe22238ae781
:103e500000222c4b0021281c0a920b9303f080fcbb
:103e60000028edd0fc21201c890501f07ff802f02c
:103e700041ff04000d0001f0b7fc02000b00200020
:103e8000290003f0c1fa0028dad100221a4bd5e745
:103e90000021301c03f05efc002800d133e7281c11
:103ea00004f0d0fd002800d12de7201c04f0cafd4d
:103eb000002800d127e7042304930d4b281c059309
:103ec00000230c9302f016ff06900791201c02f0cd
:103ed00011ff0022089009910023afe704a802f027
:103ee000f9fa002800d000e7aee7c046f033002022
:103ef0001d8c00000000f03f0000f0ffffffef47c7
:083f0000ffffefc70000f07f96
:020000040000fa
:103f0800f7b54602730a802644004a024f00520a57
:103f1800240e3f0ef6040093c50f0192db00c90f73
:103f2800d200e01bb4468d4200d0a0e000282edd70
:103f3800002f18d1002a00d146e1411e00290ed1d8
:103f480001249b185a015ad50134ff2c00d139e1bc
:103f58000122a2491a405b080b4013434fe0ff2897
:103f680007d1ff244be0ff2c49d0310011430a0050
:103f780001001b2901dd012207e010002026c840ae
:103f8800711a8a40511e8a4102439b18dae70028b9
:103f980021d0002c0cd1002b07d0c043002802d11f
:103fa8009b183c00cee7ff2f08d113003c0026e009
:103fb800ff2ffad0310019430b0040421b2801ddc6
:103fc8000123ede719002024c140201a8340581e20
:103fd80083410b43e4e7611cff270e003e40012e9e
:103fe8003edc002c2ad1002b00d1e6e0002a06d0c6
:103ff8009b186246134202d00124794a13405a079b
:1040080004d00f221a40042a00d004335a0105d5df
:104018000134ff2c00d1dee0714a1340db08ff2c8d
:1040280004d1002b02d08022d20313435b02e4b2f6
:10403800e405580aed0720432843febd002b00d1b4
:10404800bde03c00002adad08023009adb031a4244
:1040580003d0019a1a4200d10092009bdb0080e74e
:10406800ff2900d1ade09b185b080c00c7e70028ca
:1040780026dd002f13d1002a00d1a5e0411e00291a
:1040880006d101249b1a5a01b9d59b019e0977e0f4
:10409800ff2800d165e71b2908dd01220ee0ff2c6f
:1040a800add0310011430a000100f4e710002026ca
:1040b800c840711a8a40511e8a4102439b1ae2e79e
:1040c800002822d0002c0dd1002b08d0c043002896
:1040d80003d1d31a3c000d00d5e7ff2f08d11300f8
:1040e8003c0020e0ff2ffad034001c43230040425c
:1040f8001b2801dd0123ece71c002025c440281af9
:104108008340581e83412343e3e7ff20671c074091
:10411800012f2fdc002c15d1002b06d11d00002a01
:1041280000d16ce713000d0069e7002a00d166e7ab
:10413800981a304201d0d31af5e7031e00d05ee783
:104148001d005ce7002b04d1002a3fd013000d00ae
:1041580007e70400002a00d151e78023009adb0317
:104168001a4200d179e7019a1a4200d075e7009205
:104178000d0072e760469e1a064215d00d00d61a49
:10418800300004f035f8330005388340844210dcf1
:10419800041b1a0020200134e240041ba3405e1ec9
:1041a800b341002413432ae7002ee9d13300340039
:1041b800c6e7241a0a48034021e713001fe7130043
:1041c800cfe60c0000231ae7040018e78023040058
:1041d8009b04150013e7002320e7c046ffffff7d7f
:0441e800fffffffbdb
:020000040000fa
:1041ec0082b0b0b596b000af3c1d20606160a2609b
:1041fc00042268218c46bc44624413603023fb18b3
:10420c0018001c231a00002104f07cfc1423fb185a
:10421c0018001c231a00002104f074fc00237b6599
:10422c0000233b653b1d1b68181c02f05dfd040060
:10423c000d00042368229446bc4463441b68181c7c
:10424c0002f052fd02000b002000290004f024f8bb
:10425c0003000c001800210001f0cefc021c3023de
:10426c00fb181a601423fb187d4a1a603b1d1b684f
:10427c00181c02f039fd04000d000423682294463a
:10428c00bc4463445b68181c02f02efd02000b005a
:10429c002000290004f000f803000c001800210095
:1042ac0001f0aafc021c3023fb185a601423fb18e3
:1042bc006c4a5a603b1d1b68181c02f015fd04006b
:1042cc000d00042368229446bc4463449b68181c6c
:1042dc0002f00afd02000b002000290003f0dcffb5
:1042ec0003000c001800210001f086fc021c302396
:1042fc00fb189a601423fb1800229a603b1d5a6825
:10430c003023fb18da601423fb180022da603b1d03
:10431c009b68181c02f0e8fc04000d0004236822c2
:10432c009446bc4463441b68181c02f0ddfc02007c
:10433c000b002000290003f0afff03000c00180055
:10434c00210001f059fc021c3023fb181a611423c4
:10435c00fb1800221a613b1d9b68181c02f0c4fc60
:10436c0004000d00042368229446bc4463445b683b
:10437c00181c02f0b9fc02000b002000290003f00d
:10438c008bff03000c001800210001f035fc021c0f
:10439c003023fb185a611423fb18334a5a613b1d16
:1043ac009b68181c02f0a0fc04000d00042368227a
:1043bc009446bc4463449b68181c02f095fc0200b4
:1043cc000b002000290003f067ff03000c0018000d
:1043dc00210001f011fc021c3023fb189a611423fc
:1043ec00fb18224a9a610023fb6421e03023fb185e
:1043fc00fa6c9200d0581423fb18fa6c9200d35824
:10440c00191c00f0adfd031c191c786dfff776fd2f
:10441c00031c7b653023fb18fa6c9200d358191cd3
:10442c00386dfff76bfd031c3b65fb6c0133fb64c4
:10443c00fb6c062bdadd0021386d03f085f9031ec9
:10444c0001d0002304e0396d786d00f075fe031c7b
:10445c00181cbd4616b0b0bc08bc02b01847c0460c
:10446c003333f33e3333733e333373be3333f3bee4
:020000040000fa
:10447c00f0b5030085b0420006d1cc200021000627
:10448c0000f05afe05b0f0bd002804da011cfff75d
:10449c0047fa0021f4e78b4a011c90423ddc8a4923
:1044ac000022884206dc9821c90500f059fd19222a
:1044bc0003005242df157f3fbf185b02834a5b0a41
:1044cc009818019380231b040340fe20fe218005d5
:1044dc00da155840019b89051843d719fff720fac4
:1044ec00019b041c0f335b025b0a0f2b46dc002183
:1044fc0003f02af9002813d00020002fc2d0380076
:10450c0002f02cfe7249041c00f02afd7149051cb6
:10451c00201c00f025fd011c281cfff7effcb1e767
:10452c006d49201c00f01cfd011cfc208005fff7d0
:10453c00f7f9211c051c201c00f012fd011c281c85
:10454c0000f00efd051c011c002f7bd0380002f082
:10455c0005fe5f49061c00f003fd5e49071c301c7c
:10456c0000f0fefc011c281cfff7daf9211cfff7f8
:10457c00d7f9011c381cfff7d3f983e78021c90553
:10458c00fff7bcfc011c201c00f0d6fd009038008d
:10459c0002f0e4fd00990290081c00f0e1fc4f4a87
:1045ac00019b9446011c63440393051c00f0d8fc4a
:1045bc004b49061c00f0d4fc4a49fff79ffc311c08
:1045cc0000f0cefc4849fff799fc311c00f0c8fc08
:1045dc004649fff793fc291c00f0c2fc4449051c1a
:1045ec00301c00f0bdfc4349fff788fc311c00f087
:1045fc00b7fc4149fff782fc311c00f0b1fc011cf7
:10460c00281cfff77bfc019b051c3c48c01a039b34
:10461c001843002830ddfc21201c890500f0a0fc8b
:10462c00211c00f09dfc061c002f0dd1011c281c28
:10463c00fff764fc009900f093fc011c301cfff7a1
:10464c006ff9011c201c96e72149029800f088fca8
:10465c00311c071c281cfff751fc009900f080fc52
:10466c001c49051c029800f07bfc011c281cfff760
:10467c0045fc011c301c77e7002f07d1291c201c9e
:10468c00fff74ef9009900f06bfcdae7104902983d
:10469c0000f066fc291c061c201cfff741f9009950
:1046ac0000f05efc0b49051c029800f059fc011c43
:1046bc00281cfff735f9211cfff732f9011c301cbf
:1046cc0059e7c046ffff7f7fffff7f0020fb4a00ba
:1046dc008071313fd1f71737abaaaa3e305ccfffc0
:1046ec009788173e25333a3e2549923eabaa2a3f7e
:1046fc004fd01c3e298e633ecdcccc3e88c23500bb
:020000040000fa
:10470c00436f756e74657220697465726174696f3c
:10471c006e2025643a0a0a0d0000c0465468657282
:10472c006d6973746f7220566f6c746167652028a5
:10473c005629203d20252e38660a0a0d0000c04659
:10474c0054656d70657261747572652028432920fb
:10475c003d20252e38660a0a0d00c046536c6f703a
:10476c00652028432f6d7329203d20252e38660a9d
:10477c000a0d00000a0d0d0054686520646567720f
:10478c006565206f66206d656d6265727368697012
:10479c00206f6620636f6c6420697320252e386649
:1047ac000a0a0d0054686520646567726565206fa0
:1047bc0066206d656d62657273686970206f662026
:1047cc006f7074696d616c20697320252e38660ad0
:1047dc000a0d000054686520646567726565206f7a
:1047ec0066206d656d62657273686970206f6620f6
:1047fc00686f7420697320252e38660a0a0d000034
:10480c0054686520646567726565206f66206d6508
:10481c006d62657273686970206f6620646563727f
:10482c00656173696e6720697320252e38660a0ae4
:10483c000d00c04654686520646567726565206f1d
:10484c0066206d656d62657273686970206f662095
:10485c00737461626c6520697320252e38660a0ab0
:10486c000d00c04654686520646567726565206fed
:10487c0066206d656d62657273686970206f662065
:10488c00696e6372656173696e6720697320252e8a
:10489c0038660a0a0d00c046436f6d707574656406
:1048ac0020566f6c746167652041646a7573746d12
:1048bc00656e74203d20252e38660a0a0d00c04610
:1048cc00444143204f757470757420566f6c74613d
:1048dc006765203d20252e38660a0a0d0000c0466b
:1048ec00444143204f7574707574203d2025750a22
:1048fc000d0d00002d2d2d2d2d2d2d2d2d2d2d2d76
:10490c002d2d2d2d2d2d2d2d2d2d2d2d2d2d2d2dcb
:10491c002d2d2d2d2d2d2d2d2d2d2d2d2d2d2d2dbb
:10492c002d2d2d2d2d2d2d2d2d2d2d2d2d2d2d2dab
:0c493c002d2d00000a0d0d0d0000c046de
:020000040000fa
:10494800f0b58bb006920a004332079305900492a3
:104958000a7e0c00109b6e2a00d190e017d8632abb
:104968002dd008d8002a00d19ae0582a55d0260020
:10497800423632702ae0642a01d0692af7d12168c8
:104988001a68080624d5111d1960156826e0732acf
:1049980000d189e008d86f2a2ad0702ae7d12022ce
:1049a80009680a43226003e0752a21d0782aded1fb
:1049b80022007821453211706d4a113230e00e0024
:1049c8001a684236111d196013683370012379e0a3
:1049d8004906d8d5111d19600023d55e002d03dacc
:1049e8002d23049a6d421370614b0a2703932fe01d
:1049f80020681968050603d5081d18600d6805e0cc
:104a08004006f9d50d68081d1860adb2584b082747
:104a180003936f2a18d00a2716e045310a70544ac2
:104a280003921a682168101d18601568080622d5b7
:104a3800cb0702d52023194321601027002d03d16d
:104a4800202322689a4322602300002243331a70ed
:104a58006368a360002b5cdb04222168914321601a
:104a6800002d58d1049e002b64d02600039b4236ab
:104a78001b7833705ee04806dad5adb2d8e709682e
:104a88001a68080605d5111d1960136862691a604d
:104a980006e04906f7d5111d19601368a28a1a8025
:104aa8000023049e236154e01a68111d19601668da
:104ab80000216268300003f097ff002801d0801bb6
:104ac8006060636823610023049a137041e02369de
:104ad800320006990598079da847431c43d02368d0
:104ae80000259b070fd4099be06898423dda18001f
:104af8003be022000123193206990598079eb0472a
:104b0800431c30d00135e368099a9b1a9d42f0dbbb
:104b1800e9e7002da9d0049e2800390002f092fa96
:104b2800039b013e5b5c28003370390002f04efaab
:104b3800051ef1d1082f09d12368db0706d5636864
:104b48002269934202dc3023013e3370049b9b1b95
:104b58002361079b09aa00932100069b059801f091
:104b68007dfb431cb3d1012040420bb0f0bdc046d1
:044b7800748800003d
:020000040000fa
:104b7c00f0b59fb006000f0015000593002804d077
:104b8c008369002b01d102f0f1fe764b9f425ed17e
:104b9c007768bb891b0764d53b69002b61d0002368
:104bac0006ac63612023637630230395a376039dc3
:104bbc002b78002b5fd1039beb1a04930dd0049b35
:104bcc00039a3900300003f005fa431c00d1c2e00f
:104bdc006269049b9446634463612b78002b00d17b
:104bec00b9e00122532100235242626002aa5218fa
:104bfc0001352360e360a3601370a3650522297857
:104c0c00594803f0effe6a1c002838d12168cb0606
:104c1c0006d520239c46532302a8c0186346037074
:104c2c000b0706d52b239c46532302a8c0186346ba
:104c3c0003702b782a2b2bd000200a21e3682a78ca
:104c4c00303a092a69d900282ad0e36028e0474b7a
:104c5c009f4201d1b7689ce7454b9f4299d1f768b9
:104c6c0097e73900300001f033f9002897d0012084
:104c7c0040421fb0f0bd252b9dd0013598e73a4b33
:104c8c002168c01a012383400b4323601500b5e74c
:104c9c00059b181d1b680590002b38dbe360150085
:104cac002b782e2b0bd16b786a1c2a2b3dd1059bb4
:104cbc0002351a1d1b680592002b33db63602978c3
:104ccc0003222c4803f08efe002807d0294b2268c3
:104cdc00c01a4023834013432360013522482978ae
:104cec006b1c06220a300393217603f07bfe05aa87
:104cfc000092214b3a002100002828d03000fdf70b
:104d0c0019f9431c27d06369181860614fe75b429f
:104d1c00e36002230b432360c1e74b4301359b182f
:104d2c0001208ce701235b42c8e7002315000a2011
:104d3c001a00636029783039092903d9002bbed0b9
:104d4c006260bce74243013552180123f2e73000a0
:104d5c00fff7f4fdd5e7bb895b0600d587e76069f3
:104d6c0087e7c046d8880000cc8a0000f88800008d
:0c4d7c00b8880000d28a0000e17f00002f
:020000040000fa
:104d8800f7b5ff214300041c5b08c9058b4205d910
:104d9800011c201cfff7b4f8041c05e0c60f8b4269
:104da80004d1002e00d0b9e0201cfebd5c49884229
:104db80004dd5c49081c00f0d5f8ede7002803daab
:104dc800594a934200d9a9e0584a93426ed9584aa1
:104dd800b50093424ed8574b201c5959fef7a2fdf7
:104de800554b071c5b590125ad1b0193ad1b019960
:104df800381cfef797fd041c211c201c00f0b2f89b
:104e08004e49061c00f0aef84d49fef78bfd311ceb
:104e180000f0a8f84b49fff773f8311c00f0a2f82e
:104e28004949fef77ffd311c00f09cf84749fff720
:104e380067f8311c00f096f8011c201cfef772fd83
:104e4800061c011c201c002d44d100f08bf8802189
:104e5800051cc905301cfef765fd011c281c00f067
:104e68006df9211cfef75efd011cfe208005fef792
:104e780059fd91e73649201c00f074f8354b595913
:104e8800fff73ef803f096f9050002f069f9324998
:104e9800061c00f067f8011c201cfef743fd2f4993
:104ea800071c301c00f05ef80190a0e72c4a9342e2
:104eb8000cd81c49201cfff723f8fe21890502f0b5
:104ec8005ffc002804d0fe21890562e7002593e7ee
:104ed800050091e700f046f8041c8020311cc0054d
:104ee800fef720fd011c201c00f028f9011c019888
:104ef800fef718fd391cfef715fd011cfe20800584
:104f0800fef710fd2b007d3302dbec0524184be780
:104f1800d8216435ed05281809054ce7002443e736
:104f28001772b142caf24971b5f1cf421872b13e57
:104f38009115853fac8b0000b48b00004cbb31331e
:104f48000eeadd3555b38a38610b363babaa2a3eeb
:104f58003baab83fa48b00008071313fd1f71737c7
:044f6800ffff7f3197
:020000040000fa
:104f6c00f0b5c30f85b0440245000391640a2d0ec1
:104f7c000293019330d0ff2d3ad08023e400db0460
:104f8c007f3d1c4300950027039b5e025d00db0ff9
:104f9c00760a2d0e039334d0ff2d3cd080222800ae
:104fac000025f600d20416437f38039b029a5a4020
:104fbc00009b9c4684446346b80028430138591c26
:104fcc000e2833d803f042fd2f2f8c7b7bad8c7bce
:104fdc00ad7b8c7a7a7a6b00002c0fd0200003f01a
:104fec0005f97626431f76429c40331a0093cae794
:104ffc0000950327002cc7d10227c5e70094012791
:10500c00c2e7301e0dd003f0f1f8431f9e4076230b
:10501c005b42181ac9e728000325002ec5d10225ca
:10502c00c3e70125c1e734002f0048e0b7b2a3b2b3
:10503c00200c3c00350c47435c4368435d43230c18
:10504c00ed195b199f4202d980256d024019a4b25b
:10505c001d042d19ac01671ebc41ad0e25431c0c63
:10506c002418a4012c4323013dd5012360081c40c6
:10507c0004430d007f35002d37dd630704d00f236b
:10508c002340042b00d00434230103d580310d00c0
:10509c00284b1c40e308fe2d19dd00230ce0802377
:1050ac00db031c4204d01e4202d13400039b01934b
:1050bc008023019adb032343ff2508e0029a022f89
:1050cc00ebd0032f31d000231d00012fd1d158027a
:1050dc00edb2ed05400ad2072843104305b0f0bdf0
:1050ec003400039aa0e76146c3e70120451b1b2d42
:1050fc001ddc23002020eb40451bac40611e8c4185
:10510c002343590704d00f211940042900d004333c
:10511c008025ed041d40db08002dd8d0002301258f
:10512c00d5e780240023e403c1e70192c0e7002304
:10513c001d00cce7fffffff7f0b5c30f85b04402ad
:10514c0045000391640a2d0e029301930ad0ff2da2
:10515c0038d08023e400db047f3d1c432e00002369
:10516c0000930ae0002c33d0200003f03ff87626a1
:10517c00431f9c407642361a0095039b5f025d00ec
:10518c00db0f7f0a2d0e039325d0ff2d2dd080220f
:10519c0028000025ff00d20417437f38039b029a96
:1051ac00361a5a40009b9800284301380e2824d800
:1051bc0003f04cfc4e9d639d979d634e4e97637917
:1051cc00797954002e000323002cc9d10223c7e7a0
:1051dc0026000123c4e7381e0dd003f007f8431f47
:1051ec009f4076235b42181ad8e728000325002f2e
:1051fc00d4d10225d2e70125d0e76401780184429d
:10520c0028d31a210123241a012527005b006400ee
:10521c00002f01dba04201d8241a2b4301390029ad
:10522c00f3d1611e8c411c4331007f3100293cdde0
:10523c00630704d00f232340042b00d00434230134
:10524c0003d531002b4b80311c40e308fe2921ddb6
:10525c00002310e0013e1b210023d5e78023db0354
:10526c001c4204d01f4202d13c00039b01938023bb
:10527c00019adb032343ff210ce03c00039a0095c9
:10528c00009b022be4d0032b2fd000230098190095
:10529c000128c9d15802c9b2c905400ad20708432e
:1052ac00104305b0f0bd029aeae70120411a1b2910
:1052bc001ddc23002020cb40411a8c40611e8c4108
:1052cc002343590704d00f211940042900d004337b
:1052dc008021c9041940db080029dbd000230121ff
:1052ec00d8e780240023e403c0e70192bfe7002342
:0852fc001900cfe7fffffff7e7
:020000040000fa
:1053040080b500af8223db05422201219954822318
:10531400db053122012199548223db0504229a60a2
:105324008223db054422fd2199548223db053222aa
:10533400012199548223db054622012199548223b9
:10534400db053322012199548223db0520225a6094
:105354008223db0540225a608223db054822412157
:1053640099548223db054922012199548223db05c8
:105374003422222199548223db05802252009a6030
:105384008223db05802292005a608223db055022af
:10539400412199548223db055122412199548223ce
:1053a400db055222412199548223db053822332123
:1053b40099548223db053922032199548223db0586
:1053c400802252029a608223db05802292029a6034
:1053d4008223db058022d2029a608223db054022ed
:1053e400042199548223db05412204219954822308
:1053f400db054722042199548223db054a22042138
:1054040099548223db054b22042199548223db0522
:105414004e22042199548223db054f2204219954fe
:105424008223db055322042199548223db0556226f
:10543400042199548223db055722042199548223a1
:10544400db055822042199548223db0559220421c7
:1054540099548223db055b22042199548223db05c2
:0c5464005c2204219954c046bd4680bd66
:020000040000fa
:1054700090b58bb000aff860b9603b60bb1d1a807f
:1054800000237b6200233b620023fb610023bb619e
:1054900000237b6100233b613968b86bfef746fa55
:1054a000031c1c1cbb1d00229b5e013b180001f06d
:1054b0005bfe031c191c201cfff744fe031c7b62cf
:1054c0003968f868fef732fa031c796a181cfff78e
:1054d00039fe031c181c02f071fe03003b623b6a9c
:1054e000002b02dabb681b685ee0bb1d00229b5ede
:1054f0005a1e3b6a9a420adcbb1d00229b5e2c4a64
:10550000944663449b00ba68d3181b684ce0386a21
:1055100001f02afe031c796a181cfff727fd031c03
:105520003968181cfef7f0fc031cfb613b6a013371
:10553000180001f019fe031c796a181cfff716fd0c
:10554000031c3968181cfef7dffc031cbb613b6ab7
:105550009b00ba68d3181b687b613b6a01339b00d0
:10556000ba68d3181b683b61f969f868fef7def981
:10557000031c1c1c79693869fef7d8f9031c191c37
:10558000201cfff7f3fc031c1c1cf969b869fef72b
:10559000cdf9031c191c201cfff7d4fd031c7969ed
:1055a000181cfef7b1fc031c181cbd460bb090bdc7
:0455b000ffffff3fbb
:020000040000fa
:1055b400f0b50b691500126989b00c00934201da49
:1055c4002c000d0027692e69a268bb19616801933c
:1055d400934200dd013102f095f903001433009386
:1055e400009abb1994469b009c441300002204902b
:1055f40063451cd32a001434bf00e3191432b600e7
:105604000593931902940693069b9a4211d3019b26
:10561400002b06dd04235b429c4463461b68002b7d
:1056240051d0049b019a18001a6109b0f0bd04c35b
:10563400dee71488002c1ed00026009d029f01cfb7
:10564400079508cd039383b2634319006b46000c9e
:105654009b896043cb1803999b19090c4118180cba
:1056640009180e0c9bb209040b4307990b60059ba8
:10567400bb42e4d82e6013681b0c03931ed0002693
:10568400009b029c1b68009807002188039d9bb225
:10569400694320c82d0c49198e1931040b433b6012
:1056a40008cc03991b0c4b437968360c89b25b1800
:1056b40005999b191e0ca142e6d80360009b043295
:0e56c40004330093a0e7019b013b01939fe795
:020000040000fa
:0256d20070471f
:020000040000fa
:1056d400f7b58a8905000c00130760d44b68002bca
:1056e40004dc0b6c002b01dc0020febde76a002ffc
:1056f400fad000232e682b6080235b011a4034d03b
:10570400606da3895b0706d56368c01a636b002bc1
:1057140001d0236cc01a0200216a00232800e76a22
:10572400b847a189431c06d12b681d2b31d82c4abc
:10573400da40d3072dd50023636023692360cb04ab
:1057440005d5431c02d12b68002b00d16065616b29
:105754002e600029c8d023004433994202d0280087
:1057640001f05cfb00206063bfe70123216a28008d
:10577400b847431cc5d12b68002bc2d01d2b01d0c8
:10578400162b01d12e60afe74023a2891343a381d6
:10579400abe740230b430120a3814042a5e70f69f7
:1057a400002fa1d00b680f60db1b0193002392072d
:1057b40000d14b69a360019b002b00dc94e7019ba3
:1057c4003a00216a2800a66ab047002803dc402377
:1057d400a2891343dfe7019b3f181b1a0193eae7f1
:0457e4000100402060
:020000040000fa
:1057e800f0b54e00760db4463d4e85b066440500d2
:1057f8000b0001910200cc0f132e55dc002e28da85
:105808004a005208024322d00a03120b15436a4287
:105818002a4380254b0c120b2d035b042a401a43a4
:10582800304b1100e2009b181e685f6832003b0095
:10583800fcf7b2f802900391029803993b003200fa
:10584800fbf7d2fd4b005b08e4072343190005b0c2
:10585800f0bd254d35412f000f400743f7d06d08a7
:105868002800084010430022904209d0132e01d18d
:10587800802212068027ff023741ab431f4301975e
:10588800184be4001c196568246801992b00100066
:105898002200fcf781f802900391029803992200f4
:1058a8002b00fbf7a1fdd2e7332e08dd8023db00b8
:1058b8009e42ccd102000b00fcf76ef8c7e7012628
:1058c8000a4d76426544ee400642c0d0760806424c
:1058d800d6d08023db052b41b2431a43d0e7c0461c
:1058e80001fcffff008b0000ffff0f00edfbffff37
:020000040000fa
:1058f800f0b503690c6989b00700059100269c4240
:105908006ddc0b00013c1433a50003935b19049371
:105918000300143302935d19049b28681b68591c03
:10592800019301f053fb0190b0422dd0039b0298e4
:105938009c460696624608ca9446019a99b2514313
:105948001b0c534389190a0c9b18079302881e0cd9
:10595800069b89b2d2180368521a190c6b469b8ba6
:10596800cb1a11145b18191492b21b041a43049b26
:10597800069104c06345ddd22b68002b04d1029b3d
:10598800043dab422ed33c610599380002f059fd25
:10599800002823db0025019b02980133039901931a
:1059a80008c9028855199ab2aa1a05681b0c2d0c49
:1059b800eb1a15145b191d1492b21b04134308c08b
:1059c800049b8b42ecd2029aa300d3181a68002acf
:1059d80004d1029a043b9a4209d33c61019e3000eb
:1059e80009b0f0bd2b68002bcdd1013cc7e71a6880
:0859f800002af2d1013cece7aa
:020000040000fa
