:020000040000fa
:10000000f07f0020b90300005b0300005b030000e9
:1000100000000000000000000000000000000000e0
:100020000000000000000000000000005b03000072
:1000300000000000000000005b0300005b03000004
:100040005b0300005b0300005b0300005b03000038
:100050005b0300005b0300005b0300005b03000028
:100060005b0300005b0300005b0300005b03000018
:100070005b03000000000000000000005b030000c4
:10008000000000005b0300005b0300005b03000056
:100090005b0300005b0300005b0300005b030000e8
:1000a0005b0300005b0300005b0300005b030000d8
:1000b0005b0300005b0300005b030000f07f002097
:1000c000b90300005b0300005b03000000000000b8
:1000d0000000000000000000000000000000000020
:1000e00000000000000000005b03000000000000b2
:1000f000000000005b0300005b0300005b030000e6
:100100005b0300005b0300005b0300005b03000077
:100110005b0300005b0300005b0300005b03000067
:100120005b0300005b0300005b0300005b03000057
:1001300000000000000000005b0300000000000061
:100140005b0300005b0300005b0300005b03000037
:100150005b0300005b0300005b0300005b03000027
:100160005b0300005b0300005b0300005b03000017
:080170005b0300005b030000cb
:020000040000fa
:10017800f8b5c046f8bc08bc9e4670473504000078
:10018800f8b5c046f8bc08bc9e4670470d04000090
:020000040000fa
:10019800324b5a6852031b68db0c13439b029b0ac1
:1001a8002f4a936300235375043391690b42fcd1a2
:1001b8002b4a1023d1680b42fcd0294a137d802199
:1001c8000b431375274b284ada61ca2252005a6139
:1001d800943aff3a1a71254b254a1a621a000423e9
:1001e80051680b42fcd0214907220b6a1340072ba8
:1001f800fbd11e4ac5334021d1501100cc228c3b83
:1002080088580342fcd0194ad8234021d150110004
:10021800d822983b88580342fcd0144a86235b00b6
:100228004021d15011001a00cc3b88580342fcd021
:100238000e4a88235b004021d15011001a00d03ba0
:1002480088580342fcd0094afc234021d1501100b0
:10025800fc22bc3b88580342fcd0704720608000d9
:10026800001000400008004012802800001c0040d8
:04027800060101007a
:020000040000fa
:10027c00500000201c000000000000007400002052
:10028c0004000000000000000000002050000000ee
:10029c00000000007c000020200000000100000095
:1002ac00010000000300000000000000000000003e
:1002bc000000000000000000000000006c000020a6
:1002cc006c000020080000000000000078000020f6
:1002dc00040000000000000000000000000000000e
:020000040000fa
:1002ec0010b58223db05fd2142229954413a31207d
:1002fc001a541330195412381a5445241955013410
:10030c001955195401301954dd395960203159608f
:10031c0008315a5401315a541539243c5c54cc31af
:10032c00996049005960b139ff395a5401315a5416
:10033c0001315a543732985401324f399954802232
:0e034c0052029a6052009a6052009a6010bdf0
:020000040000fa
:02035a00fee7bc
:020000040000fa
:10035c0000230e4a10b513600d4a13600d4a13604a
:10036c000d4a13600d4a13600d4a53621361013339
:10037c00936000f026f900f02cf90a4c0a4b9c42d1
:10038c0000d310bd08cc9847f8e7c0467800002091
:10039c000c000020080000200000002004000020b9
:0c03ac00100000209801000098010000e3
:020000040000fa
:1003b8000d4b002b00d098470c4b002b00d09847d2
:1003c80000f084f80a4bff2293430a4a93600a4bd1
:1003d80098470a4b002b00d09847094b002b00d0b8
:1003e800984700f0b5f8fee70000000000000000a4
:1003f8000000000000ed00e05d03000000000000c8
:0404080000000000f0
:020000040000fa
:10040c0010b5064c2378002b07d1054b002b02d0de
:10041c00044800e000bf0123237010bd50000020f1
:10042c000000000000000000044b10b5002b03d0ae
:10043c000349044800e000bf10bdc04600000000a6
:08044c00540000200000000034
:020000040000fa
:100454000f4b01221a7019000b6a1a42fcd10c4b83
:10046400902292015a8001225a7028210320585464
:100474002139d9719a711a78b9310a431a701a78e4
:1004840002210a431a701a00136a002bfcd1704728
:04049400004c0042d6
:020000040000fa
:10049800bff35f8f62b60b4bc222920098580a498d
:1004a80008409850093aff3a1a60c72080001a5845
:1004b80011408022d2010a431a50802292051a6004
:0c04c8007047c04600e100e0ff00ffffad
:020000040000fa
:1004d40010b50a480168002903d14368002b00d1f4
:1004e40010bd04008368064a9bb20c349b009b58e1
:1004f40042682000984780002018ebe77c02000047
:04050400940500005a
:020000040000fa
:10050800084901220b7e1342fcd080b2054b1885a6
:10051800190002220b7e1342fcd0024b02221a76eb
:080528007047c04600040042c8
:020000040000fa
:10053000084b01221a6019000b691a42fcd1054bc5
:100540008222d2001a6033229a721a001369002b99
:08055000fcd17047003c0042a1
:020000040000fa
:1005580010b5fff71dfefff7c5fefff777fffff7a2
:0e056800e3fffff795ff4520fff7cafffbe713
:020000040000fa
:10057600002310b5934206d103201840421e904135
:0e0586009b08c01810bdc45ccc540133f2e7d2
:020000040000fa
:10059400bd05000077050000e9050000e90500003d
:0405a400e905000065
:020000040000fa
:1005a80010b500f019f8024b1860586010bdc0462d
:0405b8006c000020b3
:020000040000fa
:1005bc008a18914201d10020704700230b70013141
:0205cc00f7e74f
:020000040000fa
:1005ce0010b5fff7eaff00f00af800f008f810bdca
:020000040000fa
:0205de00704764
:020000040000fa
:0805e000004870477c00002078
:020000040000fa
:0405e8000020704738
:020000040000fa
:0205ec00704756
:00000001FF
