:020000040000fa
:10000000f87f0020f5020000970200009702000030
:1000100000000000000000000000000000000000e0
:100020000000000000000000000000009702000037
:10003000000000000000000097020000970200008e
:10004000970200009702000097020000970200004c
:10005000970200009702000097020000970200003c
:10006000970200009702000097020000970200002c
:10007000970200000000000000000000970200004e
:1000800000000000970200009702000097020000a5
:1000900097020000970200009702000097020000fc
:1000a00097020000970200009702000097020000ec
:1000b000970200009702000097020000f87f0020de
:1000c000f502000097020000970200000000000007
:1000d0000000000000000000000000000000000020
:1000e0000000000000000000970200000000000077
:1000f0000000000097020000970200009702000035
:10010000970200009702000097020000970200008b
:10011000970200009702000097020000970200007b
:10012000970200009702000097020000970200006b
:100130000000000000000000970200000000000026
:10014000970200009702000097020000970200004b
:10015000970200009702000097020000970200003b
:10016000970200009702000097020000970200002b
:08017000970200009702000055
:020000040000fa
:10017800f8b5c046f8bc08bc9e467047110400009c
:10018800f8b5c046f8bc08bc9e467047e9030000b5
:020000040000fa
:10019800900000201c00000000000000500000201b
:1001a8004000000000000000bc0000200200000029
:1001b80000000000b400002004000000000000005f
:1001c800000000205000000000000000b8000020df
:1001d8000400000000000000c00000202000000013
:1001e8000100000001000000030000000000000002
:1001f80000000000000000000000000000000000f7
:10020800ac000020ac000020080000000000000046
:1002180000000000000000006666666666666666a6
:020000040000fa
:1002280010b58223db05fd2142229954413a312041
:100238001a541330195412381a54452419550134d4
:100248001955195401301954dd3959602031596054
:1002580008315a5401315a541539243c5c54cc3174
:10026800996049005960b139ff395a5401315a54db
:1002780001315a543732985401324f3999548022f7
:0e02880052029a6052009a6052009a6010bdb5
:020000040000fa
:02029600fee781
:020000040000fa
:1002980000230e4a10b513600d4a13600d4a13600f
:1002a8000d4a13600d4a13600d4a536213610133fe
:1002b800936000f094f900f034f90a4c0a4b9c4220
:1002c80000d310bd08cc9847f8e7c046b800002016
:1002d8000c0000200800002000000020040000207e
:0c02e800100000209801000098010000a8
:020000040000fa
:1002f4000d4b002b00d098470c4b002b00d0984797
:1003040000f0d4f80a4bff2293430a4a93600a4b45
:1003140098470a4b002b00d09847094b002b00d07c
:10032400984700f02bf9fee70000000000000000f1
:100334000000000000ed00e0990200000000000051
:0403440000000000b5
:020000040000fa
:10034800114b1a6802218a431a6001221a601900a7
:10035800cb691a42fcd10c4b0c4a1a600f2252424c
:100368009a81c02292025a601a00d369002bfcd1ec
:10037800054b1a6802210a431a6004229a75997576
:10038800034bd2011a60704700040042000110407c
:0403980000e100e0a0
:020000040000fa
:10039c00114b00221a7718002c210232435c1342b5
:1003ac00fcd10d4b5a6a20210a435a621a6a1f3932
:1003bc000a431a621a7f02210a431a771800302165
:1003cc000122435c1342fcd0034830210222435cdf
:0c03dc001342fcd07047c04600100040e7
:020000040000fa
:1003e80010b5064c2378002b07d1054b002b02d003
:1003f800044800e000bf0123237010bd90000020d6
:100408000000000000000000044b10b5002b03d0d2
:100418000349044800e000bf10bdc04600000000ca
:08042800940000200000000018
:020000040000fa
:100430000e4b5a6852031b68db0c13439b029b0a4a
:100440000b4a9363537ddbb25375110004228b6911
:100450001a42fcd1064910220b7d1342fcd1044afa
:10046000137d80210b4313757047c04620608000c8
:040470000010004038
:020000040000fa
:1004740010b50a4b1a7801323f231340084a127808
:10048400d2b29a4208d005490a78d2b2054ca05497
:100494000b70054b01229a7510bdc046bc000020ac
:0c04a400bd0000205000002000040042b9
:020000040000fa
:1004b00010b50a480168002903d14368002b00d118
:1004c00010bd04008368064a9bb20c349b009b5805
:1004d00042682000984780002018ebe79801000050
:0404e000ac05000067
:020000040000fa
:1004e400074b084a1a62190004224b681a42fcd0ce
:1004f400034907220b6a1340072bfbd17047c04600
:08050400001c0040070101008a
:020000040000fa
:10050c00002310b5934206d103201840421e90419f
:0e051c009b08c01810bdc45ccc540133f2e73c
:020000040000fa
:02052a00704718
:020000040000fa
:10052c00044b054a5a62190008224b681a42fcd047
:0c053c007047c046001c00400601010092
:020000040000fa
:10054800054b4122cc215a500c315a5034315a5063
:0c05580004315a507047c046001c00409f
:020000040000fa
:1005640010b5fff763fffff7dffffff715fffff796
:0c057400b7ff00f00ff8fff7e5ff10bd27
:020000040000fa
:1005800010b5fff7effffff74ffefff7ddfe452049
:06059000fff770fffbe71e
:020000040000fa
:020596007047ac
:020000040000fa
:10059800024ad169024b0b43d361704700080040ff
:0405a8001200280015
:020000040000fa
:1005ac00d50500000d050000010600000106000045
:0405bc000106000034
:020000040000fa
:1005c00010b500f019f8024b1860586010bdc04615
:0405d000ac0000205b
:020000040000fa
:1005d4008a18914201d10020704700230b70013129
:0205e400f7e737
:020000040000fa
:1005e60010b5fff7eafffff7d3fffff7d1ff10bd06
:020000040000fa
:0805f80000487047c00000201c
:020000040000fa
:04060000002070471f
:00000001FF
