:020000040000fa
:10000000f87f0020d5540000af380000af38000062
:1000100000000000000000000000000000000000e0
:10002000000000000000000000000000af380000e9
:100030000000000000000000af380000cd5e0000ae
:10004000af380000af380000af380000af38000014
:10005000af380000af380000af380000af38000004
:10006000af380000d13b0000af380000af380000cf
:10007000af3800000000000000000000af380000b2
:1000800000000000af380000af380000af380000bb
:10009000af380000af380000af380000af380000c4
:1000a000af380000af380000af380000af380000b4
:1000b000af380000694e0000af380000f87f002024
:1000c000d5540000af380000af3800000000000039
:1000d0000000000000000000000000000000000020
:1000e0000000000000000000af3800000000000029
:1000f00000000000af380000cd5e0000af38000007
:10010000af380000af380000af380000af38000053
:10011000af380000af380000af380000af38000043
:10012000d13b0000af380000af380000af3800000e
:100130000000000000000000af38000000000000d8
:10014000af380000af380000af380000af38000013
:10015000af380000af380000af380000af38000003
:10016000af380000af380000af380000af380000f3
:08017000694e0000af380000e9
:020000040000fa
:10017800f8b5c046f8bc08bc9e467047d956000082
:10018800f8b5c046f8bc08bc9e467047b15600009a
:020000040000fa
:10019800f0b516001f00446a9db00490259d069690
:1001a8000797002c08d1102005f07cff049b5862ab
:1001b800446084600460c460049b5b6a1968002919
:1001c8000bd05a68012393404a608b60049805f06d
:1001d80089fc0022049b5b6a1a60079b002b1cdacf
:1001e80001232b607b005b080793079cba4b220016
:1001f80019931a409a421cd1b84b249a1360069a54
:10020800b74b002a03d1240301d100f08cfd269ab4
:10021800002a05d109330a9308e000232b60e4e79c
:100228001a0009320a920c33269a13600a981db0f4
:10023800f0bd069e079f002200233000390004f01d
:10024800e1fd051e0ed00123249a1360a44b1a0069
:100258000d320a92269a002ae8d01a0026990e3200
:100268000a60e3e71aab01931bab009332003b0033
:10027800049804f02ff9630005905b0d00d17fe02e
:100288003a03984c120b14432100974a30001895f2
:100298009e180022954b00f059fd954a954b02f0a7
:1002a8006ffa954a954b01f029f8040030000d00cb
:1002b80004f03aff924a934b02f062fa02000b00f4
:1002c8002000290001f01af804000d0005f00af8d2
:1002d8000022039000232000290004f099fd002843
:1002e8000ed0039804f020ff0b0002002900200024
:1002f80004f088fd030058425841039b1b1a0393de
:1003080001231693039b162b0fd87f49db00c918ce
:1003180008684968069a079b04f08efd00284bd0b0
:10032800039b013b0393002316931a9b9e1b0023f8
:100338000b933300013b0c9304d501239b1b0b93b8
:1003480000230c93039b002b38db039a0c9b9446e9
:1003580063440c9300230f920893229b0125092bd9
:1003680000d991e0052b02dd0025043b2293229b56
:10037800981e032800d991e005f080fe8284297632
:100388001a9b1b9a9e18614bf218202a0fdd203bfe
:100398000698f318d84040239b1a9c40204305f048
:1003a80007f801235a4c013e0919189371e72023d5
:1003b80006989b1a9840f2e71690b6e70b9b039aab
:1003c8009b1a0b935342089300230f93c5e701230d
:1003d8000e93239b002b65dd1f000d93049a546a2e
:1003e8000022626004221100143199425fd96168c9
:1003f800049804f0d3fe049b20605b6a1b680a9390
:100408000e2f00d9fce0002d00d1f9e0069b079cd7
:1004180014931594039b002b00dc7de01a000f2138
:10042800394b0a40d2009b185c681b6810931194e2
:10043800039b02241d11eb060ad5364b0d401a6aa0
:100448005b6a1498159901f0e3fc03240690079160
:10045800304e002d30d1109a119b0698079901f063
:10046800d7fc0690079171e00123239a0e939446d6
:10047800039b63445f1c0d933b1eafdc0123ade778
:100488000023a5e70023f0e700230e952293013b04
:100498000d931f000022122323929fe701230e933e
:1004a800023bf5e701230d931f001a00f4e761688a
:1004b80052000131616096e701231d4208d010986f
:1004c8001199e4183268736802f05af91090119182
:1004d8006d100836bde7c0460000f07f0f2700000a
:1004e800186100000000f03f01fcffff0000f83f2a
:1004f80061436f63a787d23fb3c8608b288ac63f22
:10050800fb799f501344d33fa842000032040000f7
:10051800000010fe085d0000039b0224002b15d08c
:10052800149815995d420f23c94a2b40db00d31854
:100538001a685b6802f024f9002306900791c54efb
:100548002d11002d00d08be0002b8ad1169b002b9b
:1005580000d191e0069a079b109211931098119977
:100568000022bd4b04f054fc002800d184e0002f89
:1005780000d181e00d9b002b3edd10981199039b63
:1005880000225e1eb54b02f0fbf8069007910d9d08
:100598000134200004f0c8fd069a079b02f0f0f829
:1005a8000022af4b00f0aafe12901391129b139ced
:1005b800ac4a10931194139b9c181194002d5ed192
:1005c800069807990022a84b00f0c0fb109a230058
:1005d8000690079104f030fc002800d000e3a348ff
:1005e8001399844661440b0006980799109a04f001
:1005f8000ffc002800d0e7e2149b159c0693079493
:100608001b9b002b00da56e1039a0e2a00dd52e10b
:100618008f4bd2009b185c681b6808930994239b36
:10062800002b00dbcee0002f00ddcbe000d0cee2d7
:100638000898099900228c4b02f0a2f8069a079ba9
:1006480004f004fc3e000897002800d0a3e20a9baf
:100658000a9a5d1c31231370039b013303939ee2b6
:100668000122154205d0a4183268736802f088f890
:1006780001236d10083664e7039e3d0089e70a9a56
:10068800691e521917920e9a714bc900002a4ad056
:100698005b181a685b680020754901f0b9fb109a6d
:1006a800119b00f053fb0a9b10901191129306982e
:1006b800079904f017fe040004f036fd02000b0051
:1006c8000698079900f042fb129b30345d1c1c70a1
:1006d800109a119b0690079104f09afb002865d1a7
:1006e800069a079b00205c4900f030fb109a119b8a
:1006f80004f08efb002800d0bde0179b9d4200d17e
:100708007ae7109811990022544b02f039f8002228
:100718001090119106980799504b02f031f81295f4
:1007280006900791c3e7591808684968109a119b01
:1007380002f026f8109011910a9c179d06980799c7
:1007480004f0d0fd129004f0effc02000b000698b4
:10075800079900f0fbfa129b06900791303323703b
:10076800179b01340022a34224d1414b10981199c0
:1007780000f0c4fd02000b000698079904f05cfb2a
:10078800002800d077e0109a119b0020384900f02b
:10079800ddfa02000b000698079904f039fb0028df
:1007a80000d129e76b1e1a78302a01d003963fe062
:1007b8001d00f7e706980799284b01f0e1ff06901e
:1007c8000791bbe70a9e089a099b0698079901f0ca
:1007d8001ffb04f087fd040004f0a6fc089a099b9f
:1007e80001f0ceff0b0002000698079900f0aefa60
:1007f8002300303333700a9b751ceb1a9f424bd190
:1008080002000b0000f07afd06000f0002000b004a
:100818000898099904f0fcfa00282bd1089809993e
:1008280032003b0004f0eefa002801d0e30721d49f
:100838000599049805f056f900232b70039b249a18
:1008480001331360269b002b00d1efe41d60ede41b
:10085800a8420000085d00000000f03f00002440ae
:1008680000001c400000c0fc000014400000c07cd8
:100878000000e03f039e6b1e1a78392a06d10a9ab7
:100888009a4207d130231370130001361a780132c7
:100898001a708be71d00eee70022cf4b01f070ffc6
:1008a80000220023069007912e0004f0abfa0028de
:1008b80000d188e7bce70e9a002a00d187e0229a87
:1008c800012a6edc189a002a67d0c44a9b18089d32
:1008d8000b9c0b9a0121d2180b920c9a0498d318ee
:1008e8000c9305f0fcfb0600002c0edd0c9b002b86
:1008f8000bdd0c9a2300944200dd13000b9ae41ad6
:10090800d21a0b920c9ad31a0c93089b002b1ed068
:100918000e9b002b5fd0002d11dd31002a000498ba
:1009280003f0d2fe059a01000600049802f02cff9d
:1009380005991090049805f0d5f8109b0593089b2d
:100948005a1b04d00599049803f0befe05900121b6
:10095800049805f0c4fb0f9b0890002b3ddd1a009e
:100968000100049803f0b0fe229b08900025012b9b
:100978003bdc0025069bab4233d1079b1b03ab42f4
:100988002fd1199b079a13422bd00b9b01250133ba
:100998000b930c9b01330c9323e036231a9a9b1a72
:1009a80095e7089b7d1eab4206db5d1b002f0bda2b
:1009b8000b9bdc1b00238ce7089b0895ea1a0f9b0e
:1009c80000259b180f93f1e70b9c3b0081e7089dde
:1009d8000b9c0e9e88e7089ab4e7229b0025012b02
:1009e800c7dd0f9b0120002b0bd0089b089a1b69c1
:1009f8000f9303339b00d318586805f03ff8202362
:100a0800181a0c9bc0181f23184000d1abe02023f4
:100a18001b1a042b00dc9be01c23181a0b9b2418c0
:100a28001b180b930c9b1b180c930b9b002b05ddc1
:100a38001a000599049803f0f5fd05900c9b002b0e
:100a480005dd1a000899049803f0ecfd0890169b40
:100a5800002b00d189e00899059805f05cf800287a
:100a680000db82e0039b0a22013b039305990023e4
:100a7800049804f06dfa0e9b0590002b00d15be101
:100a8800002331000a22049804f062fa0d9b060044
:100a9800002b02dc229b022b6ddc002c05dd3100d3
:100aa8002200049803f0befd06003000002d11d08e
:100ab8007168049804f072fb3100040033690c314a
:100ac8009a1c92000c3005f001fb012221000498c9
:100ad80003f0a8fd0d9f0a9b013f0b93db1937001c
:100ae80006000f930899059802f068ff39000d90e9
:100af8000400059805f00ff832000e900899049844
:100b080003f068fb01230c93c36830340500002b05
:100b180004d10100059804f0feff0c902900049808
:100b280004f0e0ff0c9b229a134300d089e00123d4
:100b3800069a134200d084e0392c00d1a3e00e9b22
:100b4800002b01dd0d9c31340b9b5d1c1c7027e0d4
:100b5800042b00d169e70b9a1c33d2180b920c9a1c
:100b6800e418d31860e70300f5e7002f3cdc229b6c
:100b7800022b39dd0d970d9b002b0cd1089905220e
:100b8800049804f0e5f908900100059804f0c3ff03
:100b9800002800dd5be5239b0a9ddb4303930027c8
:100ba8000899049804f09eff002e00d140e6002f1b
:100bb80005d0b74203d03900049804f093ff310000
:100bc800049804f08fff33e608952e00e3e700232e
:100bd80008931e00dfe7c0460000244033040000ed
:100be800039608952e0032e50e9b0d97002b00d03a
:100bf80053e70a9d0899059802f0e0fe0a9b3030f9
:100c08000d9a287001350400eb1a9a4278dc151efb
:100c180000dc012500270a9b5d190599012204982b
:100c280003f000fd0899059004f075ff00282fdcfb
:100c380001d1e3072cd46b1e1a78302ab0d11d00dd
:100c4800f9e70e9b002b07db1d00229b1d4326d1d5
:100c58000123069a134222d10c9b002b00dc73e778
:100c680005990122049803f0ddfc0899059004f029
:100c780052ff002804dc00d066e7e30700d463e7ee
:100c8800392c00d05ee70b9b0b9a5d1c392313703f
:100c98006b1e1a78392a3bd001321a7080e70b9bf9
:100ca80001330d930c9b002b05dd392cebd00d9dea
:100cb80001340b9b4ae70b9b0f9a0d9d1c709342c6
:100cc800abd000230a220599049804f041f90023c7
:100cd80005900a2239000498b74206d104f038f981
:100ce800070006000d9b0b93fce604f031f9310078
:100cf800070000230a22049804f02af90600f1e705
:100d080000230a220599049804f022f9059071e756
:100d18000a9a9a4205d1039b013303933123137036
:100d28003ee71d00b4e7269a0a930833002a01d04b
:100d3800fff77afafff77afa0d9b002b00dd58e7e8
:0c0d4800229b022b00dc54e715e7c0469c
:020000040000fa
:100d5400f7b50d0009036c00ed0f0095490a450f26
:100d640029431d035e00c700d80f6b0a550f2b43a0
:100d7400c14d640d760dd200ae4203d11d008446f0
:100d8400154302d101254540ac46009da01bac454e
:100d940000d036e1002861dd002e25d11d00154369
:100da40000d196e2461e002e19d1ba18ba42a441c7
:100db400c91864420919170001240b0200d4bee0cb
:100dc400ad4b01349c4200d180e2ac487b08014029
:100dd400012007401f43c80707434908afe0a64d59
:100de400a84209d1a44caae0a34dac4200d1a6e08c
:100df400802506002d042b43382e2adc1f2e17dcf9
:100e040020201d00801b8540ac4615000190f54054
:100e1400604605430198f3408240501e82411543c9
:100e2400ed195b18bd428941494259182f00c4e7a6
:100e340030001d002038c5400020202e03d0402063
:100e4400861bb34018000243501e82411543002301
:100e5400e6e71a4315006a1e9541f8e7002850d0ca
:100e6400002c14d10c003c4300d128e2c443002cd4
:100e740007d1bf189742a441c91864420919340024
:100e84009be77d48864209d119001700aae77a4cee
:100e9400a642f9d04442802000040143382c2bdcc4
:100ea4001f2c17dc2025281b01900800019de14020
:100eb400a840844638006546e0402843019daf4081
:100ec4007d1eaf413843871897429241c918524258
:100ed4008918d4e720000d002038c54028000025db
:100ee400202c03d040252c1ba1400d002f437d1e38
:100ef400af4138430021e6e70f433800471eb841ad
:100f0400f8e7661c75056d0d012d00dd69e008002c
:100f14003843002c49d1002800d1d3e118001043f4
:100f24000dd0ba18ba42b641c9188023764289193d
:100f34001b041700194202d00124504b19407b07af
:100f440009d00f233b40042b05d03b1dbb42bf41be
:100f54007f42c9191f000b0206d5474b01349c423e
:100f640000d1c3e1454b1940434b4807ff083843c0
:100f7400c9089c4206d103000b4300d1b9e1802388
:100f84001b031943002709033b0d1b05090b1943d8
:100f94003b4b6405194064080c43009b6400d9076b
:100fa40064080c43210003b0f0bd002800d16be7b6
:100fb4001800104300d115e74807ff0807438020b5
:100fc400c9080003014207d0dc08044204d1d20856
:100fd4005b0713431f002100780fc9000143ff0082
:100fe40000e7254ca64200d16fe1ba18c918ba42ed
:100ff4009b415b42cb18df07520817435908340062
:101004009de700285ddd002e3cd11d00154300d175
:101014005fe1461e002e0ed1ba1a9742bf41c91a8b
:101024007f42c91b012417000b0200d487e7490241
:101034004d0a3e00f9e0104da84200d1d2e6382e08
:101044003adc1f2e27dc20201d00801b8540ac4687
:1010540015000190f540604605430198f340824035
:10106400501e824115437d1bcb1aaf428941494230
:10107400591a2f00d8e7c046ff070000ffff7fff83
:10108400ffff0f809c4dac4200d158e780252d0412
:101094002b430600d3e730001d002038c540002054
:1010a400202e03d04020861bb34018000243501e5c
:1010b400824115430023d6e71a4315006a1e954161
:1010c400f8e700284dd0002c17d10c003c4300d188
:1010d40001e1c443002c09d1d71bba429241591ae9
:1010e40063465242891a340000939de7824886423f
:1010f4000ad119001700804c45e07f4ca642f8d075
:101104004442802000040143382c25dc1f2c11dcd0
:101114002025281b00900800009de140a840050000
:101124003800e0402843009daf407d1eaf41384366
:10113400171ad2e720000d002038c54028000025ea
:10114400202c03d040252c1ba1400d002f437d1ed5
:10115400af4138430021ebe70f433800471eb84145
:10116400f8e7601c4005400d01284cdc18000d0018
:1011740010433d43002c24d1002d07d1071e00d17c
:10118400ade01900170063460093d8e6002800d1ab
:10119400d5e6bd1aaf42b641c81a7642801b8026f6
:1011a4003604304206d0d71bba429241591a5242f1
:1011b400891ae8e72f00074300d190e001002f00cf
:1011c400bde6002d07d1071e00d18be01900634650
:1011d4001700009306e6002800d103e64807ff083d
:1011e40007438020c9080003014200d1f4e6dc086b
:1011f400044200d0f0e6d2085b0713431f006346a5
:1012040021000093e8e6be1ab7428041cd1a40425d
:101214002d1a8020000405422dd0d61bb242ad41c8
:10122400591a63466d424d1b0093002d29d02800a6
:1012340004f0b6fb0300083b1f2b27dc20223100ff
:101244009e40d21a9d40d14037000d439c4232dc6f
:101254001c1b661c1f2e1edc20233a0029009b1b2e
:101264009940f2409f400a43791e8f412900f14082
:101274001743002463e637002f43d6d139003c00de
:101284002ee0300004f08cfb2030d3e73500283802
:1012940085400027dae72a001f3ce2400023202e85
:1012a40003d040239e1b2b00b3401f437b1e9f4152
:1012b40000211743dde71149e41a29403fe61900ec
:1012c40017009ce61900170039e60b4c00210f00ab
:1012d40035e6040033e619001700340053e73900fb
:1012e40000972ce68021044cc903f9e700210f0084
:1012f4003ae6190046e6c046ff070000ffff7ffffd
:10130400f7b50d0009036c00ed0f0095490a450f70
:101314005e0029431d03db0f9c466b0a550f2b43cc
:10132400009d640d760dc700d200a01b654500d05a
:1013340036e1002861dd002e25d11d00154300d1c2
:1013440097e2461e002e19d1ba18ba42a441c91810
:1013540064420919170001240b0200d4bee0bd4bfe
:1013640001349c4200d181e2bb487b08014001204a
:1013740007401f43c80707434908afe0b54da842db
:1013840009d1b44caae0b34dac4200d1a6e080250b
:1013940006002d042b43382e2adc1f2e17dc2020b8
:1013a4001d00801b8540ac4615000190f540604649
:1013b40005430198f3408240501e82411543ed19c4
:1013c4005b18bd428941494259182f00c4e73000d7
:1013d4001d002038c5400020202e03d04020861b4d
:1013e400b34018000243501e824115430023e6e730
:1013f4001a4315006a1e9541f8e7002850d0002cc6
:1014040014d10c003c4300d129e2c443002c07d181
:10141400bf189742a441c9186442091934009be7d4
:101424008c48864209d119001700aae7894ca642c4
:10143400f9d04442802000040143382c2bdc1f2cbb
:1014440017dc2025281b01900800019de140a840dd
:10145400844638006546e0402843019daf407d1e28
:10146400af413843871897429241c91852428918ac
:10147400d4e720000d002038c54028000025202c8a
:1014840003d040252c1ba1400d002f437d1eaf41ee
:1014940038430021e6e70f433800471eb841f8e718
:1014a400661c75056d0d012d00dd69e008003843eb
:1014b400002c49d1002800d1d4e1180010430dd0ec
:1014c400ba18ba42b641c9188023764289191b0456
:1014d4001700194202d001245f4b19407b0709d041
:1014e4000f233b40042b05d03b1dbb42bf417f4231
:1014f400c9191f000b0206d5564b01349c4200d17a
:10150400c4e1554b1940534b4807ff083843c908f9
:101514009c4206d103000b4300d1bae180231b0394
:101524001943002709033b0d1b05090b19434b4bba
:101534006405194064080c43009b6400d9076408df
:101544000c43210003b0f0bd002800d16be7180064
:10155400404c1043c2d04807ff0807438020c90805
:101564000003014207d0dc08044204d1d2085b071f
:1015740013431f002100780fc9000143ff0000e757
:10158400344ca64200d170e1ba18c918ba429b4142
:101594005b42cb18df0752081743590834009de714
:1015a40000285ddd002e35d11d00154300d160e11a
:1015b400461e002e0ed1ba1a9742bf41c91a7f4265
:1015c400c91b012417000b0200d487e749024d0a06
:1015d4003e00fae01f4da84200d1d2e6382e33dc9b
:1015e4001f2e20dc20201d00801b8540ac461500ea
:1015f4000190f540604605430198f3408240501e37
:10160400824115437d1bcb1aaf4289414942591a85
:101614002f00d8e70f4dac4200d15fe780252d04a1
:101624002b430600dae730001d002038c5400020b7
:10163400202e03d04020861bb34018000243501ec6
:10164400824115430023dde71a4315006a1e9541c4
:10165400f8e7c046ff070000ffff7fffffff0f8092
:1016640000284dd0002c17d10c003c4300d102e1de
:10167400c443002c09d1d71bba429241591a63467c
:101684005242891a340000939de7834886420ad166
:1016940019001700804c45e07f4ca642f8d0444224
:1016a400802000040143382c25dc1f2c11dc20256c
:1016b400281b00900800009de140a8400500380068
:1016c400e0402843009daf407d1eaf413843171ac8
:1016d400d2e720000d002038c54028000025202c2a
:1016e40003d040252c1ba1400d002f437d1eaf418c
:1016f40038430021ebe70f433800471eb841f8e7b1
:10170400601c4005400d01284ddc18000d001043fd
:101714003d43002c24d1002d07d1071e00d1aee09b
:101724001900170063460093d8e6002800d1d5e6d7
:10173400bd1aaf42b641c81a7642801b80263604d1
:10174400304206d0d71bba429241591a5242891ae2
:10175400e8e72f00074300d191e001002f00bde628
:10176400002d07d1071e00d18ce019006346170035
:10177400009306e6484c002800d1afe64807ff086e
:1017840007438020c9080003014200d1f3e6dc08c6
:10179400044200d0efe6d2085b0713431f00634600
:1017a40021000093e7e6be1ab7428041cd1a4042b9
:1017b4002d1a8020000405422dd0d61bb242ad4123
:1017c400591a63466d424d1b0093002d29d0280001
:1017d40004f0e6f80300083b1f2b27dc202231002d
:1017e4009e40d21a9d40d14037000d439c4232dcca
:1017f4001c1b661c1f2e1edc20233a0029009b1b89
:101804009940f2409f400a43791e8f412900f140dc
:101814001743002462e637002f43d6d139003c0039
:101824002ee0300004f0bcf82030d3e7350028382f
:1018340085400027dae72a001f3ce2400023202edf
:1018440003d040239e1b2b00b3401f437b1e9f41ac
:1018540000211743dde71149e41a29403ee6190047
:1018640017009be61900170038e60b4c00210f0007
:1018740034e6040032e619001700340052e7390058
:1018840000972be68021044cc903f9e700210f00df
:1018940039e6190045e6c046ff070000ffff7fff59
:020000040000fa
:1018a400f0b597b00c00089209931c9d079004f0c2
:1018b400affb036818000e9304f034fc237e266803
:1018c4000b930f902b680722f1054bd59b1893437c
:1018d4001a0008322a601a685b68a264e364012271
:1018e400e76ca36c7d000a936d080c935242c04bc5
:1018f4000a98290004f0def8002800d070e20122e2
:10190400bb4b52420a98290003f08efa002800d0fb
:1019140066e2002200230c98390003f07bfa0028c9
:1019240003d023002d2243331a70b24b1a1d0a929e
:101934000b9a472a00d80a93032300272361042320
:101944003d009e432660099b14aa00932100089b36
:10195400079802f003fb431c00d007e1012040423a
:1019640017b0f0bd0733b2e763685a1c00d0ace08f
:101974000623636080230022db0033432360656811
:101984001092974205da802109067b181f002d2347
:10199400109320230b9a9a430d920d9b0322462bfe
:1019a40004d0453b5842584102222d1814ab0493ed
:1019b40013ab039312ab029300923b0001950c9a74
:1019c4000798fef7e7fb0d9b0a90472b02d1f3071c
:1019d40000d418e20a9b5e190d9b462b10d10a9b7a
:1019e4001b78302b0ad1002200230c98390003f015
:1019f4000bfa002802d101235d1b1295129bf618e5
:101a0400002200230c98390003f0fef9302200284c
:101a140069d01496149b0a9a9f1a0d9b472b0ad1de
:101a2400129bda1c03db6268934200dc8ce00b9ba4
:101a3400023bdbb20b930b9b129a652b68d8694669
:101a44002c202300091809785033551e0d93197062
:101a540002330c931295013b002d48da0125ad1a8f
:101a64002d221a70092d4bdd27260cabf618731e98
:101a740028000a21119302f0cdfd731e3031197034
:101a840028000a2102f07cfd0500092831dc272109
:101a9400023e30350caa0c9b357089181a008e4210
:101aa40029d30d9bd51aeb192361012f02dc22687f
:101ab400d20701d501332361109b002b00d142e7eb
:101ac40023002d2243331a703de720220b999143c2
:101ad400472900d04ee7002b00d04be7012348e70d
:101ae400591c14911a70149b9e42f9d892e72b2228
:101af400b7e7119ebbe7327801361a700133cde7a0
:101b040030230c9a30351370130002325d70c8e72d
:101b14000b9b662b1ad16368002a0cdd2261002b13
:101b240002d12168c90702d501339b182361129b96
:101b34000025a365c0e7002b03d1012221681142cf
:101b440000d09a1c2261f2e767230b93129bbb42dd
:101b540005db22682361d207e9d50133e6e70122d8
:101b6400002b01dc0222d21ad219ebe722685305ba
:101b740008d423690a9a08990798099da847431c21
:101b840029d1ebe60b9b652b00d8d7e0a06ce16c68
:101b94000022002303f038f9002839d0154a012324
:101ba400103208990798099da847431c00d1d5e62f
:101bb400129bbb4202db2368db070cd5099d0f9bfc
:101bc4000e9a08990798a8470025431c00d1c5e63a
:101bd4007b1e9d4210db236800259b0700d5f9e09e
:101be400149be068984200dbbae61800b8e6c046e9
:101bf400ffffef7f18580000220001231a320899d2
:101c04000798099eb047431c00d1a7e60135dfe7da
:101c1400129b002b2ddc7e4a012310320899079871
:101c2400099da847431c00d198e6129b002b04d1c0
:101c3400002f02d12368db07cdd5099d0f9b0e9a97
:101c440008990798a8470025431c00d186e6129bf3
:101c54005b429d4201db3b008ce7220001231a32e8
:101c640008990798099eb047431c00d176e60135d0
:101c7400ede7a56dbd4200dd3d00002d34dc002301
:101c84000b93eb43db170c930c9ba66d0b9a2b4029
:101c9400f31a9a4231db129bbb423cdb2368db071d
:101ca40039d4129abb1bbd1a9d4200dd1d00002dc4
:101cb4003adc00230a93eb43db170b93129b0b9a3a
:101cc400fb1a2a409b1a0a9a9a4284da22000123b8
:101cd4001a3208990798099eb047431c00d13de683
:101ce4000a9b01330a93e9e72b000a9a089907989b
:101cf400099eb047431cc2d130e6220001231a32a8
:101d040008990798099eb047431c00d126e60b9b0f
:101d140001330b93b8e70f9b0e9a08990798099d16
:101d2400a847431cbdd119e60a9b08999a1907983c
:101d34002b00099eb047431cbbd10fe6012f02dce8
:101d440001231a4239d001230a9a08990798099e57
:101d5400b047431c00d101e60f9b0e9a08990798df
:101d6400099eb047431c00d1f8e5a06ce16c002348
:101d7400002203f049f80023002815d10a9a7b1e9b
:101d8400013208990798099eb047431c11d1e5e533
:101d9400220001231a3208990798099eb047431c70
:101da40000d1dbe50a9b01330a930a9a7b1e9a420f
:101db400eedb22002b005032dde60a9ae1e7220036
:101dc4000123193208990798099eb047431c00d192
:101dd400c4e50135e368149a9b1a9d42efdbffe6e4
:101de4000c9a3b000c98390003f064fe002800d1e3
:101df400bae5074b1a000c320a920b9a472a00d90b
:101e04009ae5083397e5149b0a9a9f1a08e6c04698
:041e1400185800005a
:020000040000fa
:101e1800f0b58bb0060004930400cb0f0d03480007
:101e280000922d0b400d0393029346d0584b9842d5
:101e380067d08023720f1b04ed0013432b431f0050
:101e4800544bf400c31800260193049b009a1d0309
:101e58005800db0f2d0b400d069361d04c4b984278
:101e680000d181e08023520f1b041343ed001d4372
:101e7800484a009b8218db00944600220698039982
:101e88004140604604910199091ab0001043013895
:101e980005910e2800d981e004f00ef97500490279
:101ea800ed0149023d024902ed01750075003d0250
:101eb800ed01fc01fc01fc01e2012f00374327d0b2
:101ec800002d13d0280003f069fd01000b391c29ef
:101ed80011dc02001d2337003400083a5b1a9540d4
:101ee800df4094402f432c4b1b1aace7300003f023
:101ef80055fd2030e9e70300283b9e4000243700c9
:101f0800f1e72e43371e07d02f00019003269ce7e8
:101f18003c000197012698e734000190022694e7d7
:101f2800009b2b4327d0002d13d0280003f036fd4b
:101f380001000b391c2911dc1d2302005b1a0099d2
:101f4800083ad940009b954093400d43124a121a13
:101f580092e7100003f022fd2030e9e70300009d1e
:101f6800283b9d400023f1e7009b2b4307d013003b
:101f78008446032282e71d009c4601227ee71d005d
:101f8800844602227ae700252c00014b4ee1c04628
:101f9800ff07000001fcffff0dfcffffaf4204d864
:101fa80000d057e19c4200d254e1f907620811437e
:101fb800e0070c0001907f082d021a0e2a431b022d
:101fc8000293130c03936b4600921b880399380005
:101fd800079302f03ffd0600079b0690039938001f
:101fe8005e4302f073fd250c09040d43069fae42c3
:101ff80009d9009b013fed18ab4204d8ae4202d983
:10200800069fed18023fab1b03991800069302f0d8
:1020180021fd079e050046430399069802f056fde8
:10202800a4b209040c432a00a64208d9009b013a2d
:10203800e418a34203d8a64201d9aa1ee4183b0417
:1020480002991343029a0904120c090c089206918a
:10205800089d06989ab2a61b1c0c514360436a431c
:102068006c4312180d0caa18904202d98020400225
:102078002418100c09041204090c04195218a64259
:1020880005d31f00a64227d10199914224d2029874
:1020980001998446614401918142894100984942ed
:1020a800091876185f1eb04204d315d1614601980d
:1020b800814211d8b44203d80ed101998a420bd972
:1020c80002999f1e8c46019b634401938b429b415e
:1020d80000995b425b18f618019b341b9b1a099305
:1020e800099a019b93429b415b42e41a009ba342dd
:1020f80000d1d2e00399200002f0acfc079d060055
:1021080045430399200002f0e1fc099b09041c0cdb
:102118000c430196a5420cd93300013b0193009b67
:10212800e418a34205d8a54203d9b31e0193009b26
:10213800e418641b0399200002f08cfc079d06003c
:1021480045430399200002f0c1fc6b460a04998cb0
:10215800330011438d4208d9009a013b89188a42fd
:1021680003d88d4201d9b31e8918019a089c12041c
:102178001a43100c93b24d1b16000699069a414358
:102188005a43634360435b18140ce318994202d91d
:10219800802149024018190c12041b04120c08185b
:1021a8009b18854204d3340085421bd1002b1bd0d9
:1021b800009a741e5519aa420fd8a84203d811d103
:1021c800029a9a420bd2029ab41e5100914292414d
:1021d800009e52429219ad180291854202d1029a8c
:1021e800934201d001231c43059b564a9b18002ba0
:1021f80056dd620709d00f222240042a05d0221d8d
:10220800a242a44164423f191400fa0106d5802273
:10221800d20094464c4b1f40059b63444b4a934263
:1022280000dd88e0e40879070c43fd0800212d0350
:102238000a0d12052d0b1543454a5b0515405b0831
:102248002b43049a5b00d2075b0813432000190054
:102258000bb0f0bd059a013a059200220192abe657
:102268008022120317425ad0154258d12f001c0061
:10227800069b029353e02f0016001c00069b049354
:10228800022e58d0032e50d0012eadd100242500a7
:102298002300cbe7039b0493f2e701246442a3e7fe
:1022a8000122d21a382af1dc1f2a21dc202320003f
:1022b8009b1a39009c403d009940d040631e9c41c8
:1022c800d54001430c43630709d00f232340042b57
:1022d80005d0231da342a44164422d191c0080236c
:1022e8001b042b402ad16907e4080c43ed089de73d
:1022f8001f214942cb1a3900d9400b000021202a5e
:1023080003d040218a1a390091400c43611e8c4148
:1023180000251c43d7e7802700243f03029480252b
:10232800029b2d033d4304932fe6049ba1e7002560
:102338002c002b007ae70024250026e6002501233f
:102348002c0073e7ff030000fffffffefe070000fd
:04235800ffff0f80f4
:020000040000fa
:10235c00f0b5a3b00390029114000793002805d0a8
:10236c0083690493002b01d102f086ffa44b029adf
:10237c009a425bd1039b5b680293029b9b891b0770
:10238c0062d5029b1b690493002b5dd000220f9237
:10239c0020220aab5a76302205949a76059d2b782a
:1023ac00002b5bd1059bec1a0cd02300059a0299eb
:1023bc00039803f0e3f9431c00d1cde10f9b1c19ea
:1023cc0004930f942b78002b00d1c5e101225b26de
:1023dc0000230aac5242626004aab61801350a9373
:1023ec00e360a3603370a365864f052234372978e8
:1023fc00380003f021fe6a1c002833d12168cb067b
:10240c0001d5202333700b0701d52b2333702b7888
:10241c002a2b2fd000200a21e3682a78303a092a87
:10242c0000d870e000282dd0e3602be0764b029aa8
:10243c009a4202d1039b9b689ee7744b029a9a4284
:10244c009bd1039bdb6897e70299039801f030fc62
:10245c0000289bd00120404223b0f0bd252ba1d0f9
:10246c0001359ce70123c01b8340216815000b43f9
:10247c002360b9e7079b181d1b680790002b3cdbfa
:10248c00e36015002b782e2b0bd16b786a1c2a2b52
:10249c0041d1079b02351a1d1b680792002b37dbb5
:1024ac006360584e29783a360322300003f0c4fd9d
:1024bc00002806d04023801b83402268013513433b
:1024cc002360504f297838006b1c3e300622217651
:1024dc00059303f0b1fd011e2fd007ab0093029ab8
:1024ec004b4b21000398fff7d7f9431c00d133e184
:1024fc000f9b181804930f9050e75b42e360022384
:10250c000b432360bde74b4301359b18012084e747
:10251c0001235b42c4e7002315000a201a00636004
:10252c0029783039092903d9002bbad06260b8e771
:10253c004243013552180123f2e75b25237e04aa9e
:10254c00ad18692b0ed015d8582b63d006d8002b9c
:10255c0000d1d9e05a2504aaad182ae0632b21d06a
:10256c00642bf7d12268079b110625d51a1d0792fb
:10257c001e6827e0732b00d1c8e008d86f2b2ad037
:10258c00702be7d1202322681343236003e0752bc3
:10259c0021d0782bded15d23782204a95b181a7028
:1025ac0023373ce05a25079b1a1d07921b6804aa87
:1025bc00ad182b700123b6e05206d7d51a1d002694
:1025cc009e5f0792002e02da2d2376422b700a238f
:1025dc00123704933ce02168079a080603d5111db5
:1025ec000791166805e04906f9d51668111d079183
:1025fc00b6b212376f2b74d00a23049323e0c04673
:10260c002c5f00005d5800004c5f00000c5f000068
:10261c00895700005d2204a9521813701237079bca
:10262c002268191d07911e68110656d5d30702d5cd
:10263c0020231a43226010230493002e03d120235d
:10264c0022689a4322605b23002204a95b181a704b
:10265c006368a360002b00da85e0042221689143b3
:10266c002160002e3fd1002b00d07ee05b2504ab17
:10267c00ed18049b082b0dd10a9bdb070ad50b9b8d
:10268c0004930e9b0693069a049b934202dc302320
:10269c00013d2b705b2304aa9b185b1b0e93364bde
:1026ac0009aa00930aa9029b039801f053fc431c4e
:1026bc0052d00e9b2a000299039803f05ff8431c3a
:1026cc004ad00a9b002404939b073ed4099b0d9887
:1026dc00984200db09e7180007e75106a6d5b6b209
:1026ec00a4e7082389e75b2504abed1830000499b7
:1026fc0002f0eaf97b5c013d30002b70049902f08a
:10270c00a7f9061ef2d1b4e72361c8e7079b1a1d8f
:10271c0007921d686268280003f08efc002801d027
:10272c00401b6060636823615b23002204a95b1873
:10273c001a70b4e7312204a90123521803980299a4
:10274c0003f01cf8431c07d001340d9b099a049329
:10275c009b1a9c42eedbb9e7029b0f989b895b06a8
:10276c0000d479e676e6002ebdd15a2504abed18df
:0c277c003b782b707de7c04689570000b9
:020000040000fa
:10278800f0b58bb001920593ca0f0c034b000600fd
:10279800240b5b0d0492039245d0c64a934265d040
:1027a8008022410f12040a43e4001443c24ac500c0
:1027b8009b1800270293059b019a1e035800db0f04
:1027c800360b400d059360d0ba4b984200d180e09b
:1027d8008023520f1b041343f6001e43b64a019b85
:1027e8008218db0094460022059804994140019123
:1027f8000299b800614410430791013801310691ec
:102808000e2879d803f058fc740074007b0171011c
:102818007101bc017b017101bc0171017b016f0178
:102828006f016f0164012500054326d0002c13d0e9
:10283800200003f0b3f801000b391c2910dc1d231c
:1028480002005b1a31003500083a9440d94095409f
:102858000c439a4b1b1aace703f0a0f82030eae7c8
:1028680003003400283b9c400025f2e7050025437f
:1028780007d00500029303279de72c000295012746
:1028880099e72c000293022795e7019b334327d051
:10289800002e13d0300003f081f801000b391c29f9
:1028a80011dc1d2302005b1a0199083ad940019beb
:1028b800964093400e43814a121a93e7100003f0a2
:1028c8006df82030e9e70300019e283b9e40002375
:1028d800f1e7019b334307d013008446032283e7c3
:1028e8001e009c4601227fe71e00844602227be7e9
:1028f80034001d001700f8e0190c9bb20291190072
:102908002a0c514318008c46029f0299adb26843c5
:1029180051436f4304916744010cc91903908c45d6
:1029280006d9049f380080277f02bc466044049083
:10293800684680890f0c090409180991310cb6b250
:10294800039130003100bc46039f694350437d43e7
:102958007a432d180f0c7d19a84202d98020400215
:102968001218280c82182d0489b205926a18089248
:102978001800089962468c46029f210ca4b2604355
:102988004b43674362449446029dff18020cd219d8
:102998004d43934202d980235b02ed183700130c94
:1029a8005b190293039b67434e435c435943a41945
:1029b8003b0c120480b21c191018a64202d98023bd
:1029c8005b02c918049b220463441e00089bbfb223
:1029d8009e42ad418619d2198642bf410298059b95
:1029e80084466d42d218ab189c440393059b6046fd
:1029f8009a429241039b5242ab429b415b427f42c7
:102a08001a43029b3818240c1219b842bf419c453e
:102a1800a4417f4264423c4314196418c30d640204
:102a28001c43099b75021d43691e8d41f60d3543f4
:102a380040020543e30167d501226b0815401d4399
:102a4800e307d4401d43069b1d4a9b18002b5eddff
:102a58006a0709d00f222a40042a05d02a1daa4253
:102a6800ad416d4264191500e20106d58022d200fd
:102a78009446144b1c40069b6344134a934200dd62
:102a88008be06207ed081543e408002124030a0dd2
:102a98001205240b14430d4a5b0514405b082343bd
:102aa800019a5b00d2075b081343280019000bb09a
:102ab800f0bdc046ff07000001fcffff0dfcffff53
:102ac800ff030000fffffffefe070000ffff0f806f
:102ad80080221203144257d0164255d134001d00eb
:102ae800059b039350e0049b0193022f55d0032fbd
:102af80051d0012fa7d100252c002b00c5e71d00c0
:102b0800059b34000193f5e6079b06939be701229a
:102b1800d21a382aefdc1f2a20dc202321009b1a36
:102b280028009d409940d0406b1e9d41d4400143f0
:102b38000d436b0709d00f232b40042b05d02b1d09
:102b4800ab42ad416d4264191d0080231b04234034
:102b580000d196e700240123250096e71f2149426a
:102b6800cb1a2100d9400023202a03d040239a1ae7
:102b7800230093401d436b1e9d4100240d43d8e75d
:102b8800802400252403039580231b031c43039bf7
:102b98000193034b79e7019ba3e700252c00f8e795
:042ba800ff07000023
:020000040000fa
:102bac000d0a0a0a0a0a0a0a0a0a0a0a0a0a0a0a76
:102bbc000a0a0a0a0000c04650656e6e2053746102
:102bcc0074652042656872656e6420456d6265644b
:102bdc00646564204f43584f0d00c04653706f6eb0
:102bec00736f726564206279204b796f63657261d3
:102bfc00204156580d0a0d004573636170652072b3
:102c0c0065717565737465642c20706c6561736592
:102c1c002074727920616761696e210d0000c046d5
:102c2c004572726f723a20525820627566666572f0
:102c3c00206f766572666c6f77210d002163000042
:102c4c0021730000496e76616c6964206e756d624b
:102c5c0065722072656365697665643a2025730d2b
:102c6c000a00c0462165000021680000456e7465ad
:102c7c0072696e6720566572626f7365204d6f6462
:102c8c00652e2e2e0d00c046566572626f73652040
:102c9c004d6f646520686173206265656e20656e9a
:102cac007465726564210d005265636569766564af
:102cbc00206e657720736574706f696e742e2e2e7e
:102ccc000d00c046456e64696e6720566572626f72
:102cdc007365204d6f64652e2e2e0d005665726245
:102cec006f7365204d6f6465206861732062656544
:102cfc006e20656e646564210d00c0460d0a0a00e5
:102d0c002a2a2a2a2a2a2a2a2a2a2a2a2a2a2a2a17
:102d1c002a2a2a2a2a2a2a2a2a2a2a2a2a2a2a2a07
:102d2c002a2a2a2a2a2a2a2a2a2a2a2a2a2a2a2af7
:102d3c002a2a2a2a2a2a2a2a2a2a2a2a2a2a2a2ae7
:102d4c002a2a2a2a2a2a2a2a2a2a2a2a2a2a2a2ad7
:102d5c002a2a2a2a2a2a2a2a2a2a2a2a0d00c0465c
:102d6c002020202020202020202020202020202057
:102d7c002020202020202020202020202020202047
:102d8c0020202020202020434f4d4d414e445320e5
:102d9c004d454e550d00c0462a2a2a2a2a2a2a2a8f
:102dac002a2a2a2a2a2a2a2a2a2a2a2a2a2a2a2a77
:102dbc002a2a2a2a2a2a2a2a2a2a2a2a2a2a2a2a67
:102dcc002a2a2a2a2a2a2a2a2a2a2a2a2a2a2a2a57
:102ddc002a2a2a2a2a2a2a2a2a2a2a2a2a2a2a2a47
:102dec002a2a2a2a2a2a2a2a2a2a2a2a2a2a2a2a37
:102dfc002a2a2a2a0d0a0000436f6d6d616e642029
:102e0c0020416374696f6e0d0000c0462020216361
:102e1c002020202020426567696e206f7220656e2d
:102e2c006420766572626f7365206d6f6465200d2a
:102e3c000000c04620202173202020202053656ee6
:102e4c00642061206e657720736574706f696e7491
:102e5c0020647572696e6720766572626f73652087
:102e6c006d6f64650d00c046202021652020202058
:102e7c0020456e6420766572626f7365206d6f6499
:102e8c00650d000020202168202020202053686f31
:102e9c007720636f6d6d616e6473206d656e752048
:102eac000d00c046496e76616c696420636f6d6d70
:102ebc00616e642c20706c6561736520747279206e
:082ecc00616761696e210d00d0
:020000040000fa
:102ed400f7b543024a025b0a520a4e0044000193ca
:102ee40000939446240ec50fdb00360ec90fd200a2
:102ef400ff2e01d1002a01d101204140a01ba9428b
:102f040000d0a1e000282edd002e18d1002a00d127
:102f14004ae1411e00290ed101249b185a015bd5b8
:102f24000134ff2c00d13de10122a4491a405b0881
:102f34000b40134350e0ff2807d1ff244ce0ff2c43
:102f44004ad08021c9040a4301001b2901dd012262
:102f540007e010002026c840711a8a40511e8a4199
:102f640002439b18dae7002821d0002c0cd1002b57
:102f740007d0c043002802d19b183400cee7ff2eaf
:102f840008d11300340027e0ff2efad08021c904b1
:102f940040420b431b2801dd0123ede719002024e7
:102fa400c140201a8340581e83410b43e4e7611c4f
:102fb400ff260f003740012f3fdc002c2bd1002bc4
:102fc40000d1eae0002a07d09b188022d2041342e1
:102fd40002d001247a4a13405a0704d00f221a401f
:102fe400042a00d004335a0105d50134ff2c00d142
:102ff400e1e0734a1340db08ff2c04d1002b02d01c
:103004008022d20313435b02e4b2e405580aed07bd
:1030140020432843febd002b00d1c0e03400002a29
:10302400dad08023019adb031a4203d062461a42a3
:1030340000d10092009bdb007fe7ff2900d1b0e0c4
:103044009b185b080c00c7e7002826dd002e13d16f
:10305400002a00d1a8e0411e002906d101249b1ab0
:103064005a01b9d59b019e097ae0ff2800d164e793
:103074001b2908dd01220ee0ff2cadd08021c904fc
:103084000a430100f4e710002026c840711a8a4060
:10309400511e8a4102439b1ae2e7002822d0002ce9
:1030a4000dd1002b08d0c043002803d1d31a34001b
:1030b4000d00d5e7ff2e08d11300340020e0ff2ec9
:1030c400fad08024e404404223431b2801dd012379
:1030d400ece71c002025c440281a8340581e834175
:1030e4002343e3e7ff20661c0640012e31dc002c5d
:1030f40017d1002b06d11d00002a00d16ce7130064
:103104000d0069e7002a00d166e78026981af604c4
:10311400304201d0d31af3e7031e00d05ce71d0050
:103124005ae7002b04d1002a40d013000d0004e715
:103134000400002a00d14fe78023019adb031a42de
:1031440000d177e762461a4200d073e700920d007f
:1031540070e780209e1ac004064215d00d00d61ace
:10316400300002f01dfc330005388340844210dc3b
:10317400041b1a0020200134e240041ba3405e1efd
:10318400b3410024134327e7002ee9d13300340070
:10319400c5e7241a0a4803401ee713001ce713007e
:1031a400cbe60c00002317e7040015e78023040096
:1031b4009b04150010e700231de7c046ffffff7db9
:0431c400fffffffb0f
:020000040000fa
:1031c800d00200201c00000000000000ec020020db
:1031d800140000000000000014030020010000009b
:1031e800000000001503002001000000000000009e
:1031f80070010020000100000000000016030020fc
:10320800010000000000000017030020010000007a
:10321800000000000003002004000000000000007f
:1032280004030020040000000100000070020020d8
:103238007002002060000000010000000000000093
:103248002c5f00004c5f00000c5f000000000000d5
:103258000000000000000000000000000000000066
:103268000000000000000000000000000000000056
:103278000000000000000000000000000000000046
:103288000000000000000000000000000000000036
:103298000000000000000000000000000400002002
:1032a8006c01000001000000430000000000000065
:1032b8000000000000000000000000000000000006
:1032c80000000000000000004300000000000000b3
:1032d80000000000000000000000000000000000e6
:1032e8000000000000000000430000000000000093
:1032f80000000000000000000000000000000000c6
:103308000000000000000000430000000000000072
:1033180000000000000000000000000000000000a5
:103328000000000000000000430000000000000052
:103338000000000000000000000000000000000085
:103348000000000000000000430000000000000032
:103358000000000000000000000000000000000065
:103368000000000000000000430000000000000012
:103378000000000000000000000000000000000045
:103388000000000000000000fb5f0000195e000064
:1033980000000000cc3a0000656100006461000094
:1033a8006461000064610000646100006461000001
:1033b80064610000646100006461000064610000f1
:1033c800ffffffffffffffffffffffffffff000003
:1033d800010041534349490000000000000000007b
:1033e80000000000000000000000000000000000d5
:1033f800000041534349490000000000000000005c
:1034080000000000000000000000000000000000b4
:103418000000000008030020040000000000000075
:103428000c03002004000000000000000000002041
:103438000400000000000000100300200400000049
:1034480000000000000000000000000022222222ec
:020000040000fa
:10345800f0b5c30f85b0440245000391640a2d0ef0
:10346800029301930ad0ff2d38d08023e400db04b7
:103478007f3d1c432e00002300930ae0002c33d02c
:10348800200002f08bfa7626431f9c407642361abb
:103498000095039b5f025d00db0f7f0a2d0e0393ef
:1034a80025d0ff2d2dd0802228000025ff00d20432
:1034b80017437f38039b029a361a5a40009b98009c
:1034c800284301380e2824d802f0d8fd4e9d639d6c
:1034d800979d634e4e976379797954002e000323a4
:1034e800002cc9d10223c7e726000123c4e7381ef0
:1034f8000dd002f053fa431f9f4076235b42181aff
:10350800d8e728000325002fd4d10225d2e70125ca
:10351800d0e764017801844228d31a210123241ab0
:10352800012527005b006400002f01dba04201d8c1
:10353800241a2b4301390029f3d1611e8c411c4305
:1035480031007f3100293cdd630704d00f2323407d
:10355800042b00d00434230103d531002b4b8031d8
:103568001c40e308fe2921dd002310e0013e1b2159
:103578000023d5e78023db031c4204d01f4202d17d
:103588003c00039b01938023019adb032343ff2123
:103598000ce03c00039a0095009b022be4d0032b1f
:1035a8002fd00023009819000128c9d15802c9b2a8
:1035b800c905400ad2070843104305b0f0bd029a76
:1035c800eae70120411a1b291ddc23002020cb40fb
:1035d800411a8c40611e8c412343590704d00f21a6
:1035e8001940042900d004338021c9041940db089c
:1035f8000029dbd000230121d8e780240023e4033d
:10360800c0e70192bfe700231900cfe7fffffff7ec
:020000040000fa
:1036180080b500af8223db054222fd219954822325
:10362800db053122012199548223db054422fd2147
:1036380099548223db053222012199548223db0528
:103648004522fd2199548223db054622fd21995408
:103658008223db053222fd2199548223db053322a4
:10366800fd2199548223db0520225a608223db0541
:1036780040225a608223db05482241219954822343
:10368800db054922012199548223db0534222221ba
:1036980099548223db05802252009a608223db053d
:1036a800802292005a608223db05502241219954de
:1036b8008223db055122412199548223db055222c2
:1036c800412199548223db053822332199548223de
:1036d800db053922032199548223db05802252021b
:1036e8009a608223db05802292029a608223db059e
:1036f8008022d2029a608223db0540220421995459
:103708008223db054122042199548223db054722c9
:10371800042199548223db054a22042199548223e7
:10372800db054b22042199548223db054e22042118
:1037380099548223db054f22042199548223db0507
:103748005322042199548223db05562204219954db
:103758008223db055722042199548223db05582252
:10376800042199548223db05592204219954822388
:10377800db055b22042199548223db055c220421aa
:083788009954c046bd4680bd06
:020000040000fa
:10379000f0b50b691500126989b00c00934201da8b
:1037a0002c000d0027692e69a268bb19616801937e
:1037b000934200dd013101f0f5fc03001433009366
:1037c000009abb1994469b009c441300002204906d
:1037d00063451cd32a001434bf00e3191432b60029
:1037e0000593931902940693069b9a4211d3019b69
:1037f000002b06dd04235b429c4463461b68002bc0
:1038000051d0049b019a18001a6109b0f0bd04c39d
:10381000dee71488002c1ed00026009d029f01cff9
:10382000079508cd039383b2634319006b46000ce0
:103830009b896043cb1803999b19090c4118180cfc
:1038400009180e0c9bb209040b4307990b60059bea
:10385000bb42e4d82e6013681b0c03931ed00026d5
:10386000009b029c1b68009807002188039d9bb267
:10387000694320c82d0c49198e1931040b433b6054
:1038800008cc03991b0c4b437968360c89b25b1842
:1038900005999b191e0ca142e6d80360009b0432d7
:0e38a00004330093a0e7019b013b01939fe7d7
:020000040000fa
:0238ae00fee733
:020000040000fa
:1038b000f7b58a8905000c00130760d44b68002b0c
:1038c00004dc0b6c002b01dc0020febde76a002f3e
:1038d000fad000232e682b6080235b011a4034d07d
:1038e000606da3895b0706d56368c01a636b002b04
:1038f00001d0236cc01a0200216a00232800e76a65
:10390000b847a189431c06d12b681d2b31d82c4afe
:10391000da40d3072dd50023636023692360cb04ed
:1039200005d5431c02d12b68002b00d16065616b6b
:103930002e600029c8d023004433994202d02800c9
:1039400000f0b2ff00206063bfe70123216a280076
:10395000b847431cc5d12b68002bc2d01d2b01d00a
:10396000162b01d12e60afe74023a2891343a38118
:10397000abe740230b430120a3814042a5e70f6939
:10398000002fa1d00b680f60db1b0193002392076f
:1039900000d14b69a360019b002b00dc94e7019be5
:1039a0003a00216a2800a66ab047002803dc4023b9
:1039b000a2891343dfe7019b3f181b1a0193eae733
:0439c00001004020a2
:020000040000fa
:1039c400f0b503690c6989b00700059100269c4293
:1039d4006ddc0b00013c1433a50003935b190493c5
:1039e4000300143302935d19049b28681b68591c57
:1039f400019301f031f80190b0422dd0039b02985d
:103a04009c460696624608ca9446019a99b2514366
:103a14001b0c534389190a0c9b18079302881e0c2c
:103a2400069b89b2d2180368521a190c6b469b8bf9
:103a3400cb1a11145b18191492b21b041a43049b79
:103a4400069104c06345ddd22b68002b04d1029b90
:103a5400043dab422ed33c610599380002f05df879
:103a6400002823db0025019b02980133039901936d
:103a740008c9028855199ab2aa1a05681b0c2d0c9c
:103a8400eb1a15145b191d1492b21b04134308c0de
:103a9400049b8b42ecd2029aa300d3181a68002a22
:103aa40004d1029a043b9a4209d33c61019e30003e
:103ab40009b0f0bd2b68002bcdd1013cc7e71a68d3
:083ac400002af2d1013cece7fd
:020000040000fa
:103acc0000202020202020202020282828282820e2
:103adc0020202020202020202020202020202020da
:103aec002088101010101010101010101010101042
:103afc001004040404040404040404101010101032
:103b0c0010104141414141410101010101010101fb
:103b1c00010101010101010101010101101010104d
:103b2c0010104242424242420202020202020202cd
:103b3c000202020202020202020202021010101021
:103b4c002000000000000000000000000000000049
:103b5c000000000000000000000000000000000059
:103b6c000000000000000000000000000000000049
:103b7c000000000000000000000000000000000039
:103b8c000000000000000000000000000000000029
:103b9c000000000000000000000000000000000019
:103bac000000000000000000000000000000000009
:103bbc0000000000000000000000000000000000f9
:013bcc0000f8
:020000040000fa
:103bd00080b582b000af334b1b7edbb21a000423ea
:103be000134045d02f4b1b8d9ab2fb1d1a70fb1d45
:103bf0001b781b2b0dd12c4b180002f04dfa2b4bd0
:103c000000221a702a4b14220021180002f074fac4
:103c100044e0264b1b78122b1dd8244b1b7819002f
:103c2000234bfa1d12785a54204b1b780133dab219
:103c30001e4b1a70fb1d1b780a2b19d11b4b1b78ce
:103c40001a001b4b002199541a4b01221a70174b72
:103c500000221a700ce0154b00221a70134b1b78cf
:103c60001a00134b00219954134b180002f014fa58
:103c70000c4b1b7edbb25bb2002b0fda0c4b142219
:103c80000021180002f038fa084b00221a70064b87
:103c9000180002f001fa034b80221a76bd4602b0ea
:103ca00080bdc04600040042042c00001403002024
:0c3cb000ec020020150300202c2c00006a
:020000040000fa
:103cbc00364b70b51d6806000c00002d05d0ab69a5
:103ccc00002b02d1280001f0d7fa314b9c420fd1c6
:103cdc006c680c23e25e93b219072dd4d90611d46b
:103cec0009233360402301201343a381404270bd5c
:103cfc00284b9c4201d1ac68ebe7274b9c42e8d1a6
:103d0c00ec68e6e75b0713d5616b002908d023004c
:103d1c004433994202d0300000f0c0fd00236363ad
:103d2c002422a3899343a381002363602369236026
:103d3c000823a2891343a3812369002b0bd1a02153
:103d4c008022a389890092000b40934203d021006a
:103d5c00300001f007f80123a289134011d0002391
:103d6c00a36063695b42a361002023698342bed1d7
:103d7c000c23e25e1306bad540231343a38101380a
:103d8c00b5e7920700d46369a360ede70403002054
:0c3d9c002c5f00004c5f00000c5f00007a
:020000040000fa
:103da800b0b582b000af02003960fb1d1a70fb1d70
:103db8001b787f2b28d82f4cfb1d1b785bb29b08e8
:103dc8002c49fa1d127852b29208c0329200525809
:103dd800f91d0978080003210140c900ff20884027
:103de8000100c94311403a689201ff201040fa1db2
:103df8001278150003222a40d200904002000a439c
:103e0800c0339b001a5131e01b4cfb1d1b781a0074
:103e18000f231340083b9908174afb1d1b7818000d
:103e28000f230340083b9b0806339b00d318043339
:103e38001b68fa1d1278100003220240d200ff20ee
:103e480090400200d2431a403b689b01ff20184073
:103e5800fb1d1b781d0003232b40db00984003004b
:103e68001a438b1d9b00e31804331a60c046bd46f5
:0c3e780002b0b0bd00e100e000ed00e091
:020000040000fa
:103e840070b505000e00002804d08369002b01d111
:103e940001f0f6f9ab69ac68002b02d1280001f0ff
:103ea400eff92a4b9c421bd16c680c23e25e802301
:103eb4009b011a4205d11343a381226e244b134064
:103ec4002366a3891b0702d52369002b20d1210077
:103ed4002800fff7f1fe00281ad00120404270bdef
:103ee4001c4b9c4201d1ac68dfe71b4b9c42dcd1ec
:103ef400ec68dae7013b0136a360002b04daa2691f
:103f0400934216db0a2914d023685a1c22601970c4
:103f14003178a3680029edd1013ba360002b0fdaaf
:103f240022000a21280000f0f1f8431cd5d00a2011
:103f3400d5e72200280000f0e9f8431ce8d1cce7db
:103f44000a2023685a1c22601870c8e72c5f0000fe
:0c3f5400ffdfffff4c5f00000c5f00006f
:020000040000fa
:103f6000f7b5150001938a680b6900900c00934225
:103f700000da130022002b6043321278002a01d0ad
:103f800001332b6023689b0602d52b6802332b601c
:103f9000062723681f4027d0230043331b785a1e6f
:103fa00093412268920630d422000199433200984e
:103fb000089eb047431c25d0062320682a68e16884
:103fc00003400025042b03d18d1aeb43db171d4062
:103fd000a3682269934201dd9b1aed180027bd42b8
:103fe00020d1002010e00137e3682a689b1a9f4225
:103ff000d2da22000123193201990098089eb047b5
:10400000431cf0d101204042febd3020e118433175
:10401000087021005a1c45310978a2184332023336
:104020001170c1e7220001231a3201990098089efd
:0a403000b047431ce6d00137d1e78a
:020000040000fa
:02403a007047cd
:020000040000fa
:10403c0090b585b000af2e4b06225a60fff7e6fa1a
:10404c0001f0c8ff01f0aefd01f0bafa02f00af877
:10405c0001f086ff00f084fd01f062fc254bfb6053
:10406c000a23fb1800221a800823fb1800221a804e
:10407c0000237b60fa68204b1100180001f030ff20
:10408c0001f012fe0a23fc1801f006fc0300238049
:10409c00fa239b00180001f0a7fe0823fc1801f07e
:1040ac00fbfb0300238001f013fe0a23fb18198885
:1040bc000823fb181a88114b180001f011ff082374
:1040cc00fb181a880a23fb181b881100180000f033
:1040dc0005fd031c7b60786800f094fb03000c006a
:1040ec0007491a002300080001f0fafec8e7c04691
:1040fc000040004128550000445500004855000080
:04410c0064550000f6
:020000040000fa
:10411000f8b505000e001400002804d08369002bb8
:1041200001d101f0aff8294b9c4233d16c68a369ef
:10413000a360a3891b0737d52369002b34d00c2338
:10414000e25e80239b01f7b2f6b21a4236d02368b2
:104150002269981a6369984205db2100280001f062
:104160008df9002826d1a3680130013ba3602368a4
:104170005a1c22601f706369984204d0a389db0730
:104180001ad50a2e18d12100280001f077f900284d
:1041900012d00fe00e4b9c4201d1ac68c7e70d4b2b
:1041a0009c42c4d1ec68c2e721002800fff786fddd
:1041b0000028c4d0012676423000f8bd1343a38105
:1041c000226e054b13402366c1e7c0462c5f0000fa
:0c41d0004c5f00000c5f0000ffdffffff1
:020000040000fa
:1041dc00f0b50d0085b0070011002800140001f0a7
:1041ec0098fc061e08d10100380000f0d5ff012311
:1041fc004661036105b0f0bd01230193002804db87
:10420c0023002c001d00002301936168380000f08e
:10421c00c3ff2f000022019b2669c3601434b30036
:10422c00e31802932b6914379b00fb1803930300cc
:10423c009446143320cc04cf0192aab294446a461b
:10424c00614692882d0c8a1a0199090c691a151469
:10425c0049190d1492b209040a431a60039aac4628
:10426c000433ba42e6d802991a008c4205d3043ab8
:10427c001368002b0ed00661bce704cc91b26144ec
:10428c000d14120c5219151489b212040a43ac46bf
:08429c0004c3e8e7013eeae774
:020000040000fa
:0442a4007002002084
:020000040000fa
:1042a800000000000000f03f000000000000244073
:1042b80000000000000059400000000000408f404e
:1042c800000000000088c34000000000006af840b9
:1042d8000000000080842e4100000000d0126341dd
:1042e8000000000084d797410000000065cdcd4153
:1042f800000000205fa00242000000e87648374234
:10430800000000a2941a6d42000040e59c30a242d1
:104318000000901ec4bcd64200003426f56b0c4346
:104328000080e03779c3414300a0d88557347643ed
:1043380000c84e676dc1ab43003d9160e458e1434e
:10434800408cb5781daf154450efe2d6e41a4b44c3
:1043580092d54d06cff08044f64ae1c7022db54408
:08436800b49dd9794378ea44c1
:020000040000fa
:10437000032370b5cd1c9d43083506000c2d1ed2bd
:104380000c25a9421dd83000fff757fe254a1468b6
:104390002100002919d1244c2368002b03d13000bf
:1043a00001f04cfd20602900300001f047fd431c66
:1043b0002cd10c233000336000f089f903e0002d8c
:1043c000dfda0c233360002070bd0b685b1b1ad44e
:1043d0000b2b03d90b60cc18256003e08c420ed167
:1043e00063681360300000f072f9200007220b3080
:1043f000231d9043c31ae7d05a42e250e4e74b68ca
:1044000063600c00eee70c004968c2e70323c41c9c
:104410009c43a042e0d0211a300001f00ffd431c64
:0c442000dad1c6e7080300200c030020de
:020000040000fa
:10442c00f0b54d006d0dac4685b01d035e00db0f85
:10443c000193264b0c030290240bc90f03922d0bf6
:10444c00760d9c4503d12700022307432dd11f4b2a
:10445c009e4203d12f000223174326d10027634627
:10446c00bb4203d1204347424741ffb2002e01d14a
:10447c002a431dd0002f1fd0019b013b0120034379
:10448c0013e0b44501da4b1ef8e7ac4219d809d158
:10449c00029b039a934214d8029a03983b008242df
:1044ac00f1d302e03b00ac42edd3180005b0f0bdf7
:1044bc003300002ff9d104e0019b994201d1b4459e
:1044cc00dfdd012349420b43efe7c046ff07000045
:020000040000fa
:1044dc00f7b51d000121089f140000f05dfe2b03b1
:1044ec006d0006001b0b6d0d24d10193002c27d001
:1044fc006846009400f08cff009c00281ed0019ba5
:10450c0020211a00091a8a40c34022437261019388
:10451c00019cb461631e9c4101343461002d18d0a0
:10452c00124bed1835232d183d60181a099b186095
:10453c003000febd802252031343d6e77461e7e7d7
:10454c0001a800f065ff0124019b346173612030e8
:10455c00e4e7074bc018074b3860e3189b00f318cf
:10456c00586901f089fa6401201adfe7cdfbffffdf
:08457c00cefbffffffffff3f34
:020000040000fa
:10458400002941d010b4041c4c40a446012300224d
:10459400002900d54942002800d5404288422cd346
:1045a40001242407a14204d2814202d209011b0141
:1045b400f8e7e400a14204d2814202d249005b0040
:1045c400f8e7884201d3401a1a434c08a04202d3a8
:1045d400001b5c0822438c08a04202d3001b9c08e9
:1045e4002243cc08a04202d3001bdc08224300284b
:1045f40003d01b0901d00909e3e7101c6446002c11
:1046040000d5404210bc704701b5002001f0c4fd44
:1046140002bdc0460029f7d003b5fff7b3ff0ebcb7
:084624004243891a1847c04601
:020000040000fa
:10462c00f0b50d0017002b69541185b0e3180293f7
:10463c00013301934968ab680390019a934234dbd0
:10464c00039800f0a9fd00230200060019001432a3
:10465c00a3422ddbe343db171c402b001f21a400de
:10466c0014192a69143392009a180f4024d020216f
:10467c00c91b8c4600211868b84001436046216074
:10468c0002cb0434c1409a42f5d82160002902d0f3
:10469c00029b02330193019b0398013b3361290078
:1046ac0001f01efa300005b0f0bd01315b00c4e72b
:1046bc00980011500133cbe702cb02c49a42fbd8cd
:0246cc00e9e71c
:020000040000fa
:0246ce00704733
:020000040000fa
:1046d0000323f7b5134005000e001400002b08d08b
:1046e0002149013b9a0052580023310000f034fc6c
:1046f0000600a310019335d06c6a002c07d110205e
:1047000001f0d4fc6862446084600460c4606f6a35
:10471000bc68002c07d11549280001f0e4fc0023f7
:104720000400b8600360019bdb070ad5310022005a
:104730002800fff72df807003100280001f0d6f916
:104740003e00019b5b1001930cd02068002807d12c
:10475000220021002800fff71bf8002320600360df
:104760000400e0e73000febd386100007102000087
:020000040000fa
:10477000f7b51e035c00db0f0093244b0d034f00c5
:1047800084462d0b7f0dc90f0192360b640d9f429d
:1047900002d12b0003432bd11c4b9c4202d133008e
:1047a000134325d100239f4203d128434342434171
:1047b000dbb2002c01d132431dd0002b1fd000985a
:1047c0000138012103e0a74203da0120013908433f
:1047d0000de0b54218d807d1019a944514d81800b5
:1047e000019b9c45f1d302e01800b542edd3febd1c
:1047f00002204042fbe72000002bf8d104e0009aa1
:10480000914201d1a742dedd4842dae7ff0700000e
:1048100070b54400240e631c4102dbb24d0ac60f82
:10482000012b16dde0239b00e418090b6d07002324
:104830000903080b190d09050143184864050140d7
:1048400064080c436400f607640834432800210020
:1048500070bd002c17d12100002de8d0280001f0f8
:10486000a1f80a2809dc0b2329001b1ad9400300f0
:1048700015339d400a4c241ad9e7030029000b3b4d
:1048800099402500f6e7002d06d00c0b8021090386
:104890006d072143034ccae72900fbe7ffff0f80a8
:0848a00089030000ff0700007e
:020000040000fa
:1048a80070b50500002910d00c1f2368002b00da12
:1048b800e4182800fff7bdfb1d4a1368002b05d13b
:1048c800636014602800fff7fefe70bda34209d99b
:1048d800216860188342f3d118685b684118216029
:1048e800eee713005a68002a01d0a242f9d91968e4
:1048f8005818a0420bd1206809185818196082422c
:10490800e0d110685268411819605a60dae7a0428d
:1049180002d90c232b60d5e721686018824203d1a5
:10492800106852684118216062605c60cae7c0463e
:044938000803002050
:020000040000fa
:10493c0080b500af214acc234021d150c0461f4a3c
:10494c00cc23d35840221340402bf8d11b4ad823f8
:10495c004021d150c046194ad823d3584022134085
:10496c00402bf8d1154a86235b004021d150c0461c
:10497c00124a86235b00d35840221340402bf7d1b8
:10498c000e4a88235b004021d150c0460b4a882335
:10499c005b00d35840221340402bf7d1074afc232d
:1049ac004021d150c046054afc23d3584022134025
:1049bc00402bf8d1c046bd4680bdc046001c00400f
:020000040000fa
:1049cc00204a214b70b50021934203d21970013358
:1049dc009342fbd1002503261c4803684168002b39
:1049ec0018d100292dd083680c30002b18d000234f
:1049fc000022845c9c5401328a42fad333000b406f
:104a0c005a1e934189085918890040180368416857
:104a1c00002be6d082680c30002a07d10029dcd0ac
:104a2c0059181d7001338b42fbd1d6e70029dfd119
:104a3c0033000b405a1e93418908591889004018bd
:104a4c00e4e770bd0400002004000020c831000021
:020000040000fa
:104a5c00002934d00123002210b488422cd3012425
:104a6c002407a14204d2814202d209011b01f8e7ba
:104a7c00e400a14204d2814202d249005b00f8e773
:104a8c00884201d3401a1a434c08a04202d3001b9f
:104a9c005c0822438c08a04202d3001b9c082243d2
:104aac00cc08a04202d3001bdc082243002803d010
:104abc001b0901d00909e3e7101c10bc704701b5b4
:104acc00002001f065fb02bd0029f8d003b5fff70b
:0c4adc00c1ff0ebc4243891a1847c046b7
:020000040000fa
:104ae80090b585b000af0200bb1d1a803b1d0a1ca3
:104af8001a803a1dbb1d12881b889a4208d30e23c0
:104b0800fb18391dba1d098812888a1a1a8012e002
:104b1800bb1d1b88114ad21a3b1d1b88d3180133b1
:104b2800180000f061f8031c0e22bc18181c01f0d4
:104b380023f8030023800e23fb181b88180000f0bd
:104b4800b9fa031c0649181cfef782fc031cbb605b
:104b5800bb68181cbd4605b090bdc046ffff0000ed
:044b6800001b374aad
:020000040000fa
:104b6c0080b500af1e4b01221a70c0461c4b1b6a4d
:104b7c0001221340012bf9d0194b902292015a803b
:104b8c00174b01225a70164b00225a72144a2823d2
:104b9c000021d154124a2c234021d154104b07220e
:104bac00da710f4b01229a710d4b01229a720c494a
:104bbc000b4b1b78dbb2402252421343dbb20b701f
:104bcc00074a074b1b78dbb202210b43dbb2137095
:104bdc00c046034b1b6a002bfbd1c046bd4680bdb3
:044bec00004c004237
:020000040000fa
:104bf00070b5041e38d0c317c4185c40c50f200020
:104c000000f0d0fe9e231b1a962b0adc9622d21aa5
:104c100094406402dbb2db05600aed0718432843c9
:104c200070bd992b09dd05222100121ad140b9224d
:104c3000d21a9440621e94410c4399212200c91a51
:104c4000002900dd8a40140009490c40560704d0b1
:104c50000f263240042a00d00434620102d59f237b
:104c60000c401b1ae408d4e703000500d1e7c04656
:044c7000fffffffb48
:020000040000fa
:104c7400f8b51e4b07001e68b369002b02d1300043
:104c840000f0fefa4836b4687368013b04d5336813
:104c9400002b07d03668f6e70c22a55e002d0dd058
:104ca4006434f2e70421380000f096ff30600028f5
:104cb400f0d10c2304003b602000f8bd01235b42cb
:104cc400e381200001232566a3812560a56065603a
:104cd40025616561a56108222900583001f00afaae
:104ce4006563a563a564e564e6e7c046a4420000e5
:020000040000fa
:104cf400f0b585b001900e00140001f053f90128bd
:104d04001ad1731efe2b17d8050002ab1e710027a3
:104d1400af4220d003abd95da368013ba360002b55
:104d240004daa269934219db0a2917d023685a1cb2
:104d3400226019700137ebe723003200583303a9ce
:104d4400019800f067fc0500431ce0d140230600f5
:104d5400a2891343a381300005b0f0bd220001985d
:0c4d6400fff7d4f9431ce5d10600f4e78a
:020000040000fa
:104d7000f7b502268b8905000c00334206d02300cc
:104d800047332360236101236361f7bd01ab6a46aa
:104d900000f0f4fb009907002800fff7e9fa00286b
:104da00006d10c22a35e9a05efd41e43a681e6e746
:104db0000d4bab628023a28920601343a381009b2b
:104dc00020616361019b002b0ad00e23e15e280065
:104dd00001f06af8002803d00123a2891343a381bc
:0c4de000a0893843a081d0e709610000e1
:020000040000fa
:104dec008446101c62468c46191c634600e0c04683
:104dfc001fb5fff715fb002801d40021c8421fbdc9
:104e0c0010b500f001fa4042013010bd10b5fff7ab
:104e1c0007fb002801db002010bd012010bdc0469f
:104e2c0010b5fff7fdfa002801dd002010bd0120b0
:104e3c0010bdc04610b5fff795fc002801dc002022
:104e4c0010bd012010bdc04610b5fff78bfc00282b
:0c4e5c0001da002010bd012010bdc0468e
:020000040000fa
:104e680080b582b000af00237b60174bdb79dbb2e3
:104e78001a000123134022d0134b5b6a7b607b68c6
:104e88001b127b60114b1b78dbb21a007968104b40
:104e98009200d1500d4b1b78dbb20133dab20b4bc9
:104ea8001a700a4b1b78dbb2402b05d1074b002246
:104eb8001a70084b01221a70034b0122da71c0469e
:104ec800bd4602b080bdc046004c0042160300201b
:084ed800700100201703002007
:020000040000fa
:104ee000f0b54a0245024600c30f48006d0a360e6f
:104ef000520a000ec90fff2e01d1002d25d1ff2827
:104f000001d1002a21d10024a64202d16c426c4179
:104f1000e4b2002801d1002a1ad0002c05d18b421e
:104f200001d1864205dd5b4206e0012001390843dc
:104f3000f0bd864203da013b01201843f8e79542b1
:104f4000f1d820009542f6d3f2e702204042efe785
:084f50001000002cecd1e6e793
:020000040000fa
:104f5800f7b51e0014239c4607000c0000200d69bd
:104f68008c44634619881b6851431b0c53438919a9
:104f78000e0c9b1989b21e0c1b045b18614601308c
:104f880008c18c468542ecdc002e1bd0a3689d42ec
:104f980012db63683800591c00f000f9210023690e
:104fa80001909a1c92000c310c3001f08ff821000e
:104fb800380000f097fd019c2b1d9b00e31801357c
:084fc8005e6025612000febdc2
:020000040000fa
:104fd000f0b54a024f00450246006d0a360ec30f77
:104fe000520a3f0ec90fff2e02d10220002d19d107
:104ff000ff2f02d10220002a14d10024a64202d1a0
:105000006c426c41e4b2002f01d1002a17d0002c71
:1050100005d18b4201d1be4205dd5b4206e0012095
:1050200001390843f0bdbe4203da013b01201843b9
:10503000f8e79542f1d820009542f6d3f2e7100048
:06504000002cefd1e9e7ae
:020000040000fa
:105048008446081c6146ffe71fb5fff7bdff00282f
:1050580001d40021c8421fbd10b500f0fffa40423c
:10506800013010bd10b5fff7afff002801db0020ad
:1050780010bd012010bdc04610b5fff7a5ff0028e0
:1050880001dd002010bd012010bdc04610b5fff79e
:1050980023ff002801dc002010bd012010bdc04600
:1050a80010b5fff719ff002801da002010bd012014
:1050b80010bdc04670b50300041e08d000f06efc99
:1050c8009e231b1a962b08dc9622d21a9440d8b23b
:1050d8006402640ac005204370bd992b0addb92219
:1050e8002100d21a91400a00511e8a410521091a4d
:1050f800cc40144399212200c91a002900dd8a40b6
:10510800140008490c40550704d00f252a40042aea
:1051180000d00434620102d59f230c401b1ae40816
:10512800d5e7c046fffffffbf8b5051e2ad0c31719
:10513800c5185d40c40f280000f030fc1349144b1b
:10514800091a5b1a1f2b17dc0b22101a2a00c240ff
:105158009d401000002700033a0d000b1205024382
:105168000c484b0502405b0813435b00e4075b08ef
:10517800234328001900f8bd2800074b00255b1ab7
:105188009840e7e701000400e4e7c0461e04000079
:0c51980033040000ffff0f801304000030
:020000040000fa
:1051a40070b5466a04000d00002e07d1102000f0ef
:1051b4007bff6062466086600660c660666af3686c
:1051c400002b13d0636aaa00db689b1818680028b8
:1051d40018d101210e00ae40721d9200200000f093
:1051e400effe00280cd0456086600de021220421ea
:1051f400200000f0e5fe636af060db68002be1d17b
:10520400002070bd02681a6000230361c360f8e7e0
:020000040000fa
:10521400f0b50c0385b04d000600c90f17481f03f5
:1052240001915900db0f240b6d0d03923f0b490dc7
:105234000293854206d12300012033431ad1a942a7
:1052440018d101e0814203d13a430120002a11d14f
:1052540001208d420ed1bc420cd1039a964209d151
:10526400019b029a934207d0002d03d134432000be
:10527400441ea04105b0f0bd0020fbe7ff0700007d
:020000040000fa
:10528400836913b50400002b28d18364c3640365c8
:10529400134b144a1b6882620193984201d1012383
:1052a40083612000fff7e4fc60602000fff7e0fc6e
:1052b400a0602000fff7dcfc0022e06004216068ad
:1052c40000f084fa01220921a06800f07ffa02228a
:1052d4001221e06800f07afa0123a36113bdc046ed
:0852e400a44200000961000072
:020000040000fa
:1052ec0030b5134c0b034a0005001b0b520dc90fb4
:1052fc000020a24204dd0f48824202dd0e4bc8188a
:10530c0030bd80200d4c40030343a41a1f2c09dc34
:10531c000b48e54012189340180028430029efd0a1
:10532c004042ede70748821ad3401800f6e7c04622
:10533c00fe0300001d040000ffffff7f330400008c
:08534c00edfbffff130400005c
:020000040000fa
:1053540090b583b000af154b5c681b68610a0023ed
:105364001a000b009b029b0a7b60114b7a689a63bc
:105374000f4b00225a75c0460d4b9b690422134003
:10538400042bf9d0c0460a4bdb6810221340102bc3
:10539400f9d10749064b1b7ddbb2802252421343ed
:1053a400dbb20b75c046bd4603b090bd20608000e3
:0453b40000100040a5
:020000040000fa
:1053b80070b5051e21d000f0f1fa124c124b241ad8
:1053c8001b1b1f2b13dc0b22101a2a009d40c24006
:1053d80000211203130b0a0d12051a4363050b4c27
:1053e8005b08224013435b002800590870bd2a005f
:1053f800074b00251b1b9a40eae702000500040042
:10540800e6e7c0461e04000033040000ffff0f80db
:045418001304000079
:020000040000fa
:10541c000722036810b501001a400dd001240020aa
:10542c00234205d10220034203d0e34020000b604d
:10543c0010bd9b080b60fbe79cb21000002c01d147
:10544c0010201b0cdab2002a01d108301b0a1a07f3
:10545c0001d104301b099a0701d102309b08da07ed
:0e546c00e8d45b0801d00130e4e72020e0e73f
:020000040000fa
:10547c000b6970b505000c00002b01d1002070bd2c
:10548c00002804d08369002b01d1fff7f5fe0b4bec
:10549c009c4209d16c680c22a35e002beed021003b
:1054ac002800fef7fff9eae7054b9c4201d1ac68f6
:1054bc00f1e7044b9c42eed1ec68ece72c5f00006a
:0854cc004c5f00000c5f0000c2
:020000040000fa
:1054d4000d4b002b00d098470c4b002b00d0984765
:1054e400fff772fa0a4aff210a4b8b4393600a4b77
:1054f40098470a4b002b00d09847094b002b00d04b
:105504009847fef799fdfee7000000000000000048
:1055140000ed00e000000000415700000000000022
:045524000000000083
:020000040000fa
:105528005265616368656420746865207768696c92
:1055380065206c6f6f70210a0a0a0d002573000040
:1055480053746172742069732025752c20656e640c
:105558002069732025750a0a0a0d000054696d65d3
:10556800722072616e20666f7220252e38660a0ad4
:045578000a0d000018
:020000040000fa
:10557c0070b50e001d000e23c95e90b014000029fa
:10558c0007da00232b60b3891b0611d48023db00c0
:10559c000fe001aa00f070fc0028f2dbf022029b65
:1055ac0012021340054a9b185a4253412b60ede7f7
:1055bc0040230020236010b070bdc04600e0ffff08
:020000040000fa
:1055cc0080b500af0e4bc02292025a60c0460c4b05
:1055dc00db69002bfbd10a4b0a4a1a60084b0a4aba
:1055ec009a81074b064a126802210a431a60044b3f
:1055fc0004229a75024b02229a75c046bd4680bda4
:0c560c00000400428421124034600000c1
:020000040000fa
:105618007fb51d000f4b04001b681b6a002911d1c0
:10562800002b00d10c4be0331e6800222b0001a98f
:105638002000b047431c03d100232b608a2323603a
:1056480004b070bd002b00d1034be0331e682b0063
:0c565800eee7c046040300200400002020
:020000040000fa
:1056640070b5430242004e024d00c40f5b0a120e95
:10567400760a2d0ec90f0120ff2a06d1002b13d163
:10568400ff2d11d1002e0fd105e0ff2d0cd0aa4221
:105694000ad1b34208d100208c4205d00120002a4f
:0a56a40002d11800431e984170bdaa
:020000040000fa
:1056b00010b5064c2378002b07d1054b002b02d0e8
:1056c000044800e000bf0123237010bdd002002079
:1056d0000000000000000000044b10b5002b03d0b8
:1056e0000349044800e000bf10bdc04600000000b0
:0856f000d402002000000000bc
:020000040000fa
:1056f80080b582b000af0200fb1d1a70c0460d4b8a
:105708001b7edbb21a0001231340f8d0094afb1da7
:105718001b789bb21385c046064b1b7edbb21a0072
:1057280002231340f8d0034b02221a76c046bd4626
:0857380002b080bd0004004234
:020000040000fa
:1057400070b500260c4d0d4c641ba410a64209d167
:105750000026faf711fd0a4d0a4c641ba410a6425c
:1057600005d170bdb300eb5898470136eee7b300a2
:10577000eb5898470136f2e79801000098010000c5
:085780009801000098010000ef
:020000040000fa
:10578800f8b50d00096e06001400d718890418d55d
:105798009f08bf00d719bc4201d1002008e02a00a9
:1057a80002cc300000f0edfb431cf4d10120404254
:1057b800f8bd21782a00300000f04efa0134431c6d
:0857c800f4d0bc42f5d1e8e782
:020000040000fa
:1057d000002310b504000360436083608181036689
:1057e000c28103614361836119000822583000f0cf
:1057f00083fc054b24626362044ba362044be362a7
:10580000044b236310bdc046315d0000195a0000ef
:08581000095c00004561000085
:020000040000fa
:10581800494e4600696e66004e414e006e616e004c
:105828003000303132333435363738394142434429
:1058380045460030313233343536373839616263a2
:1058480064656600232d302b2000686c4c0065666b
:105858006745464700494e4600696e66004e414e10
:10586800006e616e003000303132333435363738ef
:1058780039414243444546003031323334353637b6
:10588800383961626364656600232d302b20006817
:0a5898006c4c00656667454647004a
:020000040000fa
:1058a40080b500af0e490e4b5b79dbb280225242c9
