:020000040000fa
:10000000f07f00209979000071870000718700005f
:1000100000000000000000000000000000000000e0
:1000200000000000000000000000000071870000d8
:100030000000000000000000718700001185000032
:1000400071870000718700007187000071870000d0
:1000500071870000718700007187000071870000c0
:1000600071870000b559000071870000718700009a
:100070007187000000000000000000007187000090
:100080000000000071870000718700007187000088
:100090007187000071870000718700007187000080
:1000a0007187000071870000718700007187000070
:1000b000718700003d6a000071870000f07f00201a
:1000c000997900007187000071870000000000002e
:1000d0000000000000000000000000000000000020
:1000e0000000000000000000718700000000000018
:1000f000000000007187000011850000718700007a
:10010000718700007187000071870000718700000f
:1001100071870000718700007187000071870000ff
:10012000b5590000718700007187000071870000d9
:1001300000000000000000007187000000000000c7
:1001400071870000718700007187000071870000cf
:1001500071870000718700007187000071870000bf
:1001600071870000718700007187000071870000af
:080170003d6a000071870000e8
:020000040000fa
:10017800f8b5c046f8bc08bc9e467047997b00009d
:10018800f8b5c046f8bc08bc9e467047717b0000b5
:020000040000fa
:10019800f0b516001f00446a9db00490259d069690
:1001a8000797002c08d1102008f0b8fa049b586271
:1001b800446084600460c460049b5b6a1968002919
:1001c8000bd05a68012393404a608b60049807f06b
:1001d8005bff0022049b5b6a1a60079b002b1cdafa
:1001e80001232b607b005b080793079cba4b220016
:1001f80019931a409a421cd1b84b249a1360069a54
:10020800b74b002a03d1240301d100f08cfd269ab4
:10021800002a05d109330a9308e000232b60e4e79c
:100228001a0009320a920c33269a13600a981db0f4
:10023800f0bd069e079f002200233000390006f01b
:1002480037ff051e0ed00123249a1360a44b1a0011
:100258000d320a92269a002ae8d01a0026990e3200
:100268000a60e3e71aab01931bab009332003b0033
:10027800049806f055f9630005905b0d00d17fe006
:100288003a03984c120b14432100974a30001895f2
:100298009e180022954b01f0a7f8954a954b02f05d
:1002a800a7fb954a954b01f077fb040030000d0041
:1002b80007f00cf9924a934b02f09afb02000b00ec
:1002c8002000290001f068fb04000d0007f0dcf9ac
:1002d8000022039000232000290006f0effe0028ea
:1002e8000ed0039807f0f2f80b0002002900200056
:1002f80006f0defe030058425841039b1b1a039385
:1003080001231693039b162b0fd87f49db00c918ce
:1003180008684968069a079b06f0e4fe00284bd057
:10032800039b013b0393002316931a9b9e1b0023f8
:100338000b933300013b0c9304d501239b1b0b93b8
:1003480000230c93039b002b38db039a0c9b9446e9
:1003580063440c9300230f920893229b0125092bd9
:1003680000d991e0052b02dd0025043b2293229b56
:10037800981e032800d991e008f0b2f98284297602
:100388001a9b1b9a9e18614bf218202a0fdd203bfe
:100398000698f318d84040239b1a9c40204307f046
:1003a8003dfa01235a4c013e0919189371e720239d
:1003b80006989b1a9840f2e71690b6e70b9b039aab
:1003c8009b1a0b935342089300230f93c5e701230d
:1003d8000e93239b002b65dd1f000d93049a546a2e
:1003e8000022626004221100143199425fd96168c9
:1003f800049807f0ddf8049b20605b6a1b680a9389
:100408000e2f00d9fce0002d00d1f9e0069b079cd7
:1004180014931594039b002b00dc7de01a000f2138
:10042800394b0a40d2009b185c681b6810931194e2
:10043800039b02241d11eb060ad5364b0d401a6aa0
:100448005b6a1498159902f031f803240690079115
:10045800304e002d30d1109a119b0698079902f062
:1004680025f80690079171e00123239a0e9394468c
:10047800039b63445f1c0d933b1eafdc0123ade778
:100488000023a5e70023f0e700230e952293013b04
:100498000d931f000022122323929fe701230e933e
:1004a800023bf5e701230d931f001a00f4e761688a
:1004b80052000131616096e701231d4208d010986f
:1004c8001199e4183268736802f092fa1090119149
:1004d8006d100836bde7c0460000f07f0f2700000a
:1004e800c08700000000f03f01fcffff0000f83f5c
:1004f80061436f63a787d23fb3c8608b288ac63f22
:10050800fb799f501344d33f8861000032040000f8
:10051800000010fe28830000039b0224002b15d046
:10052800149815995d420f23c94a2b40db00d31854
:100538001a685b6802f05cfa002306900791c54ec2
:100548002d11002d00d08be0002b8ad1169b002b9b
:1005580000d191e0069a079b109211931098119977
:100568000022bd4b06f0aafd002800d184e0002f30
:1005780000d181e00d9b002b3edd10981199039b63
:1005880000225e1eb54b02f033fa069007910d9dce
:100598000134200006f09aff069a079b02f028fa19
:1005a8000022af4b01f0f8f912901391129b139ca3
:1005b800ac4a10931194139b9c181194002d5ed192
:1005c800069807990022a84b00f00eff109a230006
:1005d8000690079106f086fd002800d000e3a348a6
:1005e8001399844661440b0006980799109a06f0ff
:1005f80065fd002800d0e7e2149b159c069307943c
:100608001b9b002b00da56e1039a0e2a00dd52e10b
:100618008f4bd2009b185c681b6808930994239b36
:10062800002b00dbcee0002f00ddcbe000d0cee2d7
:100638000898099900228c4b02f0daf9069a079b70
:1006480006f05afd3e000897002800d0a3e20a9b56
:100658000a9a5d1c31231370039b013303939ee2b6
:100668000122154205d0a4183268736802f0c0f957
:1006780001236d10083664e7039e3d0089e70a9a56
:10068800691e521917920e9a714bc900002a4ad056
:100698005b181a685b680020754901f007ff109a1b
:1006a800119b00f0a1fe0a9b1090119112930698dd
:1006b800079906f0e9ff040006f008ff02000b00a6
:1006c8000698079900f090fe129b30345d1c1c7050
:1006d800109a119b0690079106f0f0fc002865d14e
:1006e800069a079b00205c4900f07efe109a119b39
:1006f80006f0e4fc002800d0bde0179b9d4200d125
:100708007ae7109811990022544b02f071f90022ef
:100718001090119106980799504b02f069f91295bb
:1007280006900791c3e7591808684968109a119b01
:1007380002f05ef9109011910a9c179d069807998e
:1007480006f0a2ff129006f0c1fe02000b00069808
:10075800079900f049fe129b0690079130332370e9
:10076800179b01340022a34224d1414b10981199c0
:1007780001f012f902000b000698079906f0b2fc86
:10078800002800d077e0109a119b0020384900f02b
:100798002bfe02000b000698079906f08ffc002834
:1007a80000d129e76b1e1a78302a01d003963fe062
:1007b8001d00f7e706980799284b02f019f90690eb
:1007c8000791bbe70a9e089a099b0698079901f0ca
:1007d8006dfe06f059ff040006f078fe089a099ba2
:1007e80002f006f90b0002000698079900f0fcfddc
:1007f8002300303333700a9b751ceb1a9f424bd190
:1008080002000b0001f0c8f806000f0002000b0000
:100818000898099906f052fc00282bd108980999e4
:1008280032003b0006f044fc002801d0e30721d445
:100838000599049807f028fc00232b70039b249a41
:1008480001331360269b002b00d1efe41d60ede41b
:1008580088610000288300000000f03f0000244069
:1008680000001c400000c0fc000014400000c07cd8
:100878000000e03f039e6b1e1a78392a06d10a9ab7
:100888009a4207d130231370130001361a780132c7
:100898001a708be71d00eee70022cf4b02f0a8f894
:1008a80000220023069007912e0006f001fc002884
:1008b80000d188e7bce70e9a002a00d187e0229a87
:1008c800012a6edc189a002a67d0c44a9b18089d32
:1008d8000b9c0b9a0121d2180b920c9a0498d318ee
:1008e8000c9307f02eff0600002c0edd0c9b002b4e
:1008f8000bdd0c9a2300944200dd13000b9ae41ad6
:10090800d21a0b920c9ad31a0c93089b002b1ed068
:100918000e9b002b5fd0002d11dd31002a000498ba
:1009280005f0ecff059a01000600049804f096fc17
:1009380005991090049807f0a7fb109b0593089b56
:100948005a1b04d00599049805f0d8ff0590012199
:10095800049807f0f6fe0f9b0890002b3ddd1a0067
:100968000100049805f0caff229b08900025012b7e
:100978003bdc0025069bab4233d1079b1b03ab42f4
:100988002fd1199b079a13422bd00b9b01250133ba
:100998000b930c9b01330c9323e036231a9a9b1a72
:1009a80095e7089b7d1eab4206db5d1b002f0bda2b
:1009b8000b9bdc1b00238ce7089b0895ea1a0f9b0e
:1009c80000259b180f93f1e70b9c3b0081e7089dde
:1009d8000b9c0e9e88e7089ab4e7229b0025012b02
:1009e800c7dd0f9b0120002b0bd0089b089a1b69c1
:1009f8000f9303339b00d318586807f011fb20238b
:100a0800181a0c9bc0181f23184000d1abe02023f4
:100a18001b1a042b00dc9be01c23181a0b9b2418c0
:100a28001b180b930c9b1b180c930b9b002b05ddc1
:100a38001a000599049805f0bffe05900c9b002b41
:100a480005dd1a000899049805f0b6fe0890169b73
:100a5800002b00d189e00899059807f02efb0028a3
:100a680000db82e0039b0a22013b039305990023e4
:100a7800049806f03ffc0e9b0590002b00d15be12b
:100a8800002331000a22049806f034fc0d9b06006e
:100a9800002b02dc229b022b6ddc002c05dd3100d3
:100aa8002200049805f088fe06003000002d11d0c1
:100ab8007168049806f07cfd3100040033690c313c
:100ac8009a1c92000c3007f033fe01222100049892
:100ad80005f072fe0d9f0a9b013f0b93db1937004f
:100ae80006000f930899059804f05afd39000d90f7
:100af8000400059807f0e1fa32000e90089904986e
:100b080005f0d8fa01230c93c36830340500002b94
:100b180004d10100059807f0d0fa0c902900049838
:100b280007f0b2fa0c9b229a134300d089e0012304
:100b3800069a134200d084e0392c00d1a3e00e9b22
:100b4800002b01dd0d9c31340b9b5d1c1c7027e0d4
:100b5800042b00d169e70b9a1c33d2180b920c9a1c
:100b6800e418d31860e70300f5e7002f3cdc229b6c
:100b7800022b39dd0d970d9b002b0cd1089905220e
:100b8800049806f0b7fb08900100059807f095fa5d
:100b9800002800dd5be5239b0a9ddb4303930027c8
:100ba8000899049807f070fa002e00d140e6002f4b
:100bb80005d0b74203d03900049807f065fa310030
:100bc800049807f061fa33e608952e00e3e700235e
:100bd80008931e00dfe7c0460000244033040000ed
:100be800039608952e0032e50e9b0d97002b00d03a
:100bf80053e70a9d0899059804f0d2fc0a9b303007
:100c08000d9a287001350400eb1a9a4278dc151efb
:100c180000dc012500270a9b5d190599012204982b
:100c280005f0cafd0899059007f047fa00282fdc5f
:100c380001d1e3072cd46b1e1a78302ab0d11d00dd
:100c4800f9e70e9b002b07db1d00229b1d4326d1d5
:100c58000123069a134222d10c9b002b00dc73e778
:100c680005990122049805f0a7fd0899059007f059
:100c780024fa002804dc00d066e7e30700d463e721
:100c8800392c00d05ee70b9b0b9a5d1c392313703f
:100c98006b1e1a78392a3bd001321a7080e70b9bf9
:100ca80001330d930c9b002b05dd392cebd00d9dea
:100cb80001340b9b4ae70b9b0f9a0d9d1c709342c6
:100cc800abd000230a220599049806f013fb0023f1
:100cd80005900a2239000498b74206d106f00afbab
:100ce800070006000d9b0b93fce606f003fb3100a2
:100cf800070000230a22049806f0fcfa0600f1e730
:100d080000230a220599049806f0f4fa059071e781
:100d18000a9a9a4205d1039b013303933123137036
:100d28003ee71d00b4e7269a0a930833002a01d04b
:100d3800fff77afafff77afa0d9b002b00dd58e7e8
:0c0d4800229b022b00dc54e715e7c0469c
:020000040000fa
:100d5400f0b58bb00191019f061c7d006d0800d198
:100d640009e3ff22440003906408d205944206dca0
:100d7400fe239b05954207dd9c4200d1fbe2864899
:100d840007f06efd0bb0f0bd00210291002822dabd
:100d940082498d421ddc824b9d420ddd9623ea156e
:100da4009a1a2b001341190091408d4204d101225b
:100db40013400222d31a0293fe239b059d421ed1a7
:100dc400301c002fdedafe20311c800504f010f800
:100dd400d8e7022102919542eed19c4200d1cae2a9
:100de40004dd0198002fcdda0020cbe7002ffbdad9
:100df400802212069446019b63441800c2e78023b4
:100e0400db059f4204d1311c301c03f005ffb9e718
:100e1400fc23301c9b059f4204d1002e02db05f00d
:100e24002bfbafe707f03bfd002c05d0fe22b300ff
:100e34009b08920593421bd1002f04da011cfe206b
:100e4400800503f0d5ff039b002b9bda554be41878
:100e5400029b1c4304d1011c02f0dcfc011cb5e71d
:100e6400029b012b00d08de780231b06c01889e765
:100e7400f30f013b0593059a029b134302d1311ce6
:100e8400301ce9e79a23db059d4200dc9ce0464bdd
:100e94009c4204dc002fa7da4449081cb5e7444b04
:100ea4009c4202dd002ff7dc9ee7fe21890502f05b
:100eb400b1fc4049041c03f0affe3f49051c201c53
:100ec40003f0aafefa21061c8905201c03f0a4fee7
:100ed400011c3a4802f09efc211c03f09dfe011cfb
:100ee400fc20800502f096fc211c071c201c03f04a
:100ef40093fe011c381c03f08ffe314903f08cfe75
:100f0400011c301c02f086fc011c061c281c02f08b
:100f14006fff040b2403291c201c02f07bfc011c22
:100f2400301c02f077fc029b059a013b071c13431b
:100f340000d054e1234e019b01981d0b2d03291c65
:100f440002f068fc211c03f067fe01990290381c32
:100f540003f062fe011c029802f04aff291c019072
:100f6400201c03f059fe02900390011c019802f02a
:100f74003fff4700051c04907f08002800dc60e167
:100f84008623db059f4200dc2ce10849301c03f07a
:100f940043fe064939e7c046b1570000ffff7f4bc7
:100fa400ffff7f3f000080c0f7ff7f3fcaf2497117
:100fb4000700803f00aab83f70a5ec36abaaaa3e52
:100fc4003baab83f000080bfec4b00229c4206dce9
:100fd4009721c90503f020fe182204005242fe2581
:100fe400e3157f3b9b1804936402e54b640aad054b
:100ff400254300269c4209dde24b01269c4205dd87
:10100400049b9b1900260493df4bed18b300069351
:10101400de4bb200d458281c211c099502f0fafbbf
:10102400211c0790281c02f0e3fe011cfe20800511
:1010340003f0defe011c0890079803f0edfd039019
:10104400039b6d101f0b80239b051d438023db0234
:10105400ed1876053f03ae19311c381c03f0dcfd96
:10106400011c079802f0d6fb211c051c301c02f061
:10107400d1fb011c099802f0cdfb391c03f0ccfd17
:10108400011c281c02f0c6fb089903f0c5fd039956
:101094000790081c03f0c0fdbd49041c03f0bcfd0f
:1010a400bc4902f0a5fe211c03f0b6fdba4902f0ca
:1010b4009ffe211c03f0b0fdb84902f099fe211ceb
:1010c40003f0aafdb64902f093fe211c03f0a4fd2f
:1010d400b44902f08dfe211c051c201c03f09cfd6c
:1010e400011c281c03f098fd0399041c381c02f011
:1010f4007ffe079903f090fd211c02f079fe391c54
:10110400061c381c03f088fda749089002f070fe05
:10111400311c02f06dfe040b2403211c381c03f067
:101124007bfda149051c201c02f074fb089902f008
:1011340071fb011c301c02f06dfb039903f06cfd84
:101144000799061c201c03f067fd011c301c02f0eb
:101154004ffe061c011c281c02f04afe040b24034b
:101164009249201c03f058fd291c0390201c02f016
:1011740051fb011c301c02f04dfb8d4903f04cfd6a
:101184008c49051c201c03f047fd011c281c02f09f
:101194002ffe894b069ad15802f02afe051c0498aa
:1011a40005f038fe854b069a071cd658291c03986f
:1011b40002f01efe311c02f01bfe391c02f018fe68
:1011c400040b2403391c201c02f024fb311c02f004
:1011d40021fb039902f01efb011c281ca1e6fe263c
:1011e400b605a8e69f4241d17549019802f000fe78
:1011f4000299041c281c02f00dfb011c201c06f0a3
:1012040019f9002800d0c0e6802424042200fb152c
:101214007e3b1a415519eb15dbb2584a7f3b1a4104
:101224002900914317226d026d0ad31a2c431c41e5
:10123400049b002b00da6442029802f0ebfa03905c
:1012440019e0604b9f4205dd5f49301c03f0e4fc6c
:101254005d49dae59f4209d1029902f0dbfa011ceb
:10126400019806f0ddf80028ced0ede7fc23002439
:101274009b059f42c8dc0199039802f0b9fd050b58
:101284002d035249281c03f0c7fc03990290281c23
:1012940002f0c0fa011c019802f0bcfa4c4903f0b8
:1012a400bbfc4c49071c281c03f0b6fc011c381c71
:1012b40002f09efd071c011c029802f099fd0299a0
:1012c400051c02f0a7fa011c381c02f0a3fa291c21
:1012d4000190281c03f0a0fc3f49071c03f09cfc70
:1012e4003e4902f097fa391c03f096fc3c4902f09f
:1012f4007ffd391c03f090fc3a4902f08bfa391c4b
:1013040003f08afc384902f073fd391c03f084fcb5
:10131400011c281c02f07efa071c011c281c03f087
:101324007bfc80210290c905381c02f073fa011c71
:10133400029803f05dfd0199071c281c03f06cfc66
:10134400019902f055fd011c381c02f063fa291cb6
:1013540002f060fa011cfe20800502f05bfae3054e
:101364001b18da15002a04dc210005f0d5f9311c1c
:101374004be5181cfbe7fe20800503e5ffff7f001b
:1013840071c41c00d6b35d00000080ff4c880000cf
:1013940042f1533e55326c3e05a38b3eabaaaa3ea6
:1013a400b76ddb3e9a99193f000040400038763f04
:1013b4004f38763fa0c39d365c88000054880000f7
:1013c4003caa3833000016436042a20d0072313f3c
:1013d4001872313f8cbebf354cbb31330eeadd355c
:0c13e40055b38a38610b363babaa2a3e99
:020000040000fa
:1013f000f7b50d0009036c00ed0f0095490a450f84
:1014000029431d035e00c700d80f6b0a550f2b43fd
:10141000c14d640d760dd200ae4203d11d0084464d
:10142000154302d101254540ac46009da01bac45ab
:1014300000d036e1002861dd002e25d11d001543c6
:1014400000d196e2461e002e19d1ba18ba42a44124
:10145000c91864420919170001240b0200d4bee028
:10146000ad4b01349c4200d180e2ac487b08014086
:10147000012007401f43c80707434908afe0a64db6
:10148000a84209d1a44caae0a34dac4200d1a6e0e9
:10149000802506002d042b43382e2adc1f2e17dc56
:1014a00020201d00801b8540ac4615000190f540b2
:1014b000604605430198f3408240501e8241154327
:1014c000ed195b18bd428941494259182f00c4e704
:1014d00030001d002038c5400020202e03d04020c1
:1014e000861bb34018000243501e8241154300235f
:1014f000e6e71a4315006a1e9541f8e7002850d028
:10150000002c14d10c003c4300d128e2c443002c31
:1015100007d1bf189742a441c91864420919340081
:101520009be77d48864209d119001700aae77a4c4b
:10153000a642f9d04442802000040143382c2bdc21
:101540001f2c17dc2025281b01900800019de1407d
:10155000a840844638006546e0402843019daf40de
:101560007d1eaf413843871897429241c9185242b5
:101570008918d4e720000d002038c5402800002538
:10158000202c03d040252c1ba1400d002f437d1e95
:10159000af4138430021e6e70f433800471eb8410a
:1015a000f8e7661c75056d0d012d00dd69e008008a
:1015b0003843002c49d1002800d1d3e11800104352
:1015c0000dd0ba18ba42b641c9188023764289199b
:1015d0001b041700194202d00124504b19407b070d
:1015e00009d00f233b40042b05d03b1dbb42bf411c
:1015f0007f42c9191f000b0206d5474b01349c429c
:1016000000d1c3e1454b1940434b4807ff0838431d
:10161000c9089c4206d103000b4300d1b9e18023e5
:101620001b031943002709033b0d1b05090b194335
:101630003b4b6405194064080c43009b6400d907c8
:1016400064080c43210003b0f0bd002800d16be713
:101650001800104300d115e74807ff080743802012
:10166000c9080003014207d0dc08044204d1d208b3
:101670005b0713431f002100780fc9000143ff00df
:1016800000e7254ca64200d16fe1ba18c918ba424a
:101690009b415b42cb18df075208174359083400bf
:1016a0009de700285ddd002e3cd11d00154300d1d3
:1016b0005fe1461e002e0ed1ba1a9742bf41c91ae9
:1016c0007f42c91b012417000b0200d487e749029f
:1016d0004d0a3e00f9e0104da84200d1d2e6382e66
:1016e0003adc1f2e27dc20201d00801b8540ac46e5
:1016f00015000190f540604605430198f340824093
:10170000501e824115437d1bcb1aaf42894149428d
:10171000591a2f00d8e7c046ff070000ffff7fffe0
:10172000ffff0f809c4dac4200d158e780252d046f
:101730002b430600d3e730001d002038c5400020b1
:10174000202e03d04020861bb34018000243501eb9
:10175000824115430023d6e71a4315006a1e9541be
:10176000f8e700284dd0002c17d10c003c4300d1e5
:1017700001e1c443002c09d1d71bba429241591a46
:1017800063465242891a340000939de7824886429c
:101790000ad119001700804c45e07f4ca642f8d0d2
:1017a0004442802000040143382c25dc1f2c11dc2e
:1017b0002025281b00900800009de140a84005005e
:1017c0003800e0402843009daf407d1eaf413843c4
:1017d000171ad2e720000d002038c5402800002548
:1017e000202c03d040252c1ba1400d002f437d1e33
:1017f000af4138430021ebe70f433800471eb841a3
:10180000f8e7601c4005400d01284cdc18000d0075
:1018100010433d43002c24d1002d07d1071e00d1d9
:10182000ade01900170063460093d8e6002800d108
:10183000d5e6bd1aaf42b641c81a7642801b802653
:101840003604304206d0d71bba429241591a52424e
:10185000891ae8e72f00074300d190e001002f002c
:10186000bde6002d07d1071e00d18be019006346ad
:101870001700009306e6002800d103e64807ff089a
:1018800007438020c9080003014200d1f4e6dc08c8
:10189000044200d0f0e6d2085b0713431f00634602
:1018a00021000093e8e6be1ab7428041cd1a4042bb
:1018b0002d1a8020000405422dd0d61bb242ad4126
:1018c000591a63466d424d1b0093002d29d0280004
:1018d00006f0eafa0300083b1f2b27dc2022310028
:1018e0009e40d21a9d40d14037000d439c4232dccd
:1018f0001c1b661c1f2e1edc20233a0029009b1b8c
:101900009940f2409f400a43791e8f412900f140df
:101910001743002463e637002f43d6d139003c003b
:101920002ee0300006f0c0fa2030d3e7350028382a
:1019300085400027dae72a001f3ce2400023202ee2
:1019400003d040239e1b2b00b3401f437b1e9f41af
:1019500000211743dde71149e41a29403fe6190049
:1019600017009ce61900170039e60b4c00210f0008
:1019700035e6040033e619001700340053e7390058
:1019800000972ce68021044cc903f9e700210f00e1
:101990003ae6190046e6c046ff070000ffff7fff5a
:1019a000f7b50d0009036c00ed0f0095490a450fce
:1019b0005e0029431d03db0f9c466b0a550f2b432a
:1019c000009d640d760dc700d200a01b654500d0b8
:1019d00036e1002861dd002e25d11d00154300d120
:1019e00097e2461e002e19d1ba18ba42a441c9186e
:1019f00064420919170001240b0200d4bee0bd4b5c
:101a000001349c4200d181e2bb487b0801400120a7
:101a100007401f43c80707434908afe0b54da84238
:101a200009d1b44caae0b34dac4200d1a6e0802568
:101a300006002d042b43382e2adc1f2e17dc202015
:101a40001d00801b8540ac4615000190f5406046a6
:101a500005430198f3408240501e82411543ed1921
:101a60005b18bd428941494259182f00c4e7300034
:101a70001d002038c5400020202e03d04020861baa
:101a8000b34018000243501e824115430023e6e78d
:101a90001a4315006a1e9541f8e7002850d0002c23
:101aa00014d10c003c4300d129e2c443002c07d1df
:101ab000bf189742a441c9186442091934009be732
:101ac0008c48864209d119001700aae7894ca64222
:101ad000f9d04442802000040143382c2bdc1f2c19
:101ae00017dc2025281b01900800019de140a8403b
:101af000844638006546e0402843019daf407d1e86
:101b0000af413843871897429241c9185242891809
:101b1000d4e720000d002038c54028000025202ce7
:101b200003d040252c1ba1400d002f437d1eaf414b
:101b300038430021e6e70f433800471eb841f8e775
:101b4000661c75056d0d012d00dd69e00800384348
:101b5000002c49d1002800d1d4e1180010430dd049
:101b6000ba18ba42b641c9188023764289191b04b3
:101b70001700194202d001245f4b19407b0709d09e
:101b80000f233b40042b05d03b1dbb42bf417f428e
:101b9000c9191f000b0206d5564b01349c4200d1d7
:101ba000c4e1554b1940534b4807ff083843c90857
:101bb0009c4206d103000b4300d1bae180231b03f2
:101bc0001943002709033b0d1b05090b19434b4b18
:101bd0006405194064080c43009b6400d90764083d
:101be0000c43210003b0f0bd002800d16be71800c2
:101bf000404c1043c2d04807ff0807438020c90863
:101c00000003014207d0dc08044204d1d2085b077c
:101c100013431f002100780fc9000143ff0000e7b4
:101c2000344ca64200d170e1ba18c918ba429b419f
:101c30005b42cb18df0752081743590834009de771
:101c400000285ddd002e35d11d00154300d160e177
:101c5000461e002e0ed1ba1a9742bf41c91a7f42c2
:101c6000c91b012417000b0200d487e749024d0a63
:101c70003e00fae01f4da84200d1d2e6382e33dcf8
:101c80001f2e20dc20201d00801b8540ac46150047
:101c90000190f540604605430198f3408240501e94
:101ca000824115437d1bcb1aaf4289414942591ae3
:101cb0002f00d8e70f4dac4200d15fe780252d04ff
:101cc0002b430600dae730001d002038c540002015
:101cd000202e03d04020861bb34018000243501e24
:101ce000824115430023dde71a4315006a1e954122
:101cf000f8e7c046ff070000ffff7fffffff0f80f0
:101d000000284dd0002c17d10c003c4300d102e13b
:101d1000c443002c09d1d71bba429241591a6346d9
:101d20005242891a340000939de7834886420ad1c3
:101d300019001700804c45e07f4ca642f8d0444281
:101d4000802000040143382c25dc1f2c11dc2025c9
:101d5000281b00900800009de140a84005003800c5
:101d6000e0402843009daf407d1eaf413843171a25
:101d7000d2e720000d002038c54028000025202c87
:101d800003d040252c1ba1400d002f437d1eaf41e9
:101d900038430021ebe70f433800471eb841f8e70e
:101da000601c4005400d01284ddc18000d0010435b
:101db0003d43002c24d1002d07d1071e00d1aee0f9
:101dc0001900170063460093d8e6002800d1d5e635
:101dd000bd1aaf42b641c81a7642801b802636042f
:101de000304206d0d71bba429241591a5242891a40
:101df000e8e72f00074300d191e001002f00bde686
:101e0000002d07d1071e00d18ce019006346170092
:101e1000009306e6484c002800d1afe64807ff08cb
:101e200007438020c9080003014200d1f3e6dc0823
:101e3000044200d0efe6d2085b0713431f0063465d
:101e400021000093e7e6be1ab7428041cd1a404216
:101e50002d1a8020000405422dd0d61bb242ad4180
:101e6000591a63466d424d1b0093002d29d028005e
:101e700006f01af80300083b1f2b27dc2022310054
:101e80009e40d21a9d40d14037000d439c4232dc27
:101e90001c1b661c1f2e1edc20233a0029009b1be6
:101ea0009940f2409f400a43791e8f412900f1403a
:101eb0001743002462e637002f43d6d139003c0097
:101ec0002ee0300005f0f0ff2030d3e73500283851
:101ed00085400027dae72a001f3ce2400023202e3d
:101ee00003d040239e1b2b00b3401f437b1e9f410a
:101ef00000211743dde71149e41a29403ee61900a5
:101f000017009be61900170038e60b4c00210f0064
:101f100034e6040032e619001700340052e73900b5
:101f200000972be68021044cc903f9e700210f003c
:101f300039e6190045e6c046ff070000ffff7fffb6
:020000040000fa
:101f4000f0b597b00c00089209931c9d079006f01d
:101f50008bfb036818000e9306f03afc237e26687c
:101f60000b930f902b680722f1054bd59b189343d9
:101f70001a0008322a601a685b68a264e3640122ce
:101f8000e76ca36c7d000a936d080c935242c04b22
:101f90000a98290006f062f8002800d070e20122b9
:101fa000bb4b52420a98290005f096f8002800d051
:101fb00066e2002200230c98390005f083f800281f
:101fc00003d023002d2243331a70b24b1a1d0a92fc
:101fd0000b9a472a00d80a9303230027236104237e
:101fe0003d009e432660099b14aa00932100089b94
:101ff000079803f08fff431c00d007e10120404207
:1020000017b0f0bd0733b2e763685a1c00d0ace0ec
:102010000623636080230022db003343236065686e
:102020001092974205da802109067b181f002d23a4
:10203000109320230b9a9a430d920d9b0322462b5b
:1020400004d0453b5842584102222d1814ab04934a
:1020500013ab039312ab029300923b0001950c9ad1
:102060000798fef799f80d9b0a90472b02d1f307ca
:1020700000d418e20a9b5e190d9b462b10d10a9bd7
:102080001b78302b0ad1002200230c98390005f070
:1020900013f8002802d101235d1b1295129bf6183c
:1020a000002200230c98390005f006f830220028a1
:1020b00069d01496149b0a9a9f1a0d9b472b0ad13c
:1020c000129bda1c03db6268934200dc8ce00b9b02
:1020d000023bdbb20b930b9b129a652b68d86946c7
:1020e0002c202300091809785033551e0d931970c0
:1020f00002330c931295013b002d48da0125ad1aed
:102100002d221a70092d4bdd27260cabf618731ef5
:1021100028000a21119304f0a5fa731e30311970ba
:1021200028000a2104f054fa0500092831dc27218f
:10213000023e30350caa0c9b357089181a008e426d
:1021400029d30d9bd51aeb192361012f02dc2268dc
:10215000d20701d501332361109b002b00d142e748
:1021600023002d2243331a703de720220b9991431f
:10217000472900d04ee7002b00d04be7012348e76a
:10218000591c14911a70149b9e42f9d892e72b2285
:10219000b7e7119ebbe7327801361a700133cde7fd
:1021a00030230c9a30351370130002325d70c8e78b
:1021b0000b9b662b1ad16368002a0cdd2261002b71
:1021c00002d12168c90702d501339b182361129bf4
:1021d0000025a365c0e7002b03d10122216811422d
:1021e00000d09a1c2261f2e767230b93129bbb423b
:1021f00005db22682361d207e9d50133e6e7012236
:10220000002b01dc0222d21ad219ebe72268530517
:1022100008d423690a9a08990798099da847431c7e
:1022200029d1ebe60b9b652b00d8d7e0a06ce16cc5
:102230000022002304f040ff002839d0154a012372
:10224000103208990798099da847431c00d1d5e68c
:10225000129bbb4202db2368db070cd5099d0f9b59
:102260000e9a08990798a8470025431c00d1c5e697
:102270007b1e9d4210db236800259b0700d5f9e0fb
:10228000149be068984200dbbae61800b8e6c04646
:10229000ffffef7f207d0000220001231a32089902
:1022a0000798099eb047431c00d1a7e60135dfe738
:1022b000129b002b2ddc7e4a0123103208990798cf
:1022c000099da847431c00d198e6129b002b04d11e
:1022d000002f02d12368db07cdd5099d0f9b0e9af5
:1022e00008990798a8470025431c00d186e6129b51
:1022f0005b429d4201db3b008ce7220001231a3246
:1023000008990798099eb047431c00d176e601352d
:10231000ede7a56dbd4200dd3d00002d34dc00235e
:102320000b93eb43db170c930c9ba66d0b9a2b4086
:10233000f31a9a4231db129bbb423cdb2368db077a
:1023400039d4129abb1bbd1a9d4200dd1d00002d21
:102350003adc00230a93eb43db170b93129b0b9a97
:10236000fb1a2a409b1a0a9a9a4284da2200012315
:102370001a3208990798099eb047431c00d13de6e0
:102380000a9b01330a93e9e72b000a9a08990798f8
:10239000099eb047431cc2d130e6220001231a3205
:1023a00008990798099eb047431c00d126e60b9b6d
:1023b00001330b93b8e70f9b0e9a08990798099d74
:1023c000a847431cbdd119e60a9b08999a1907989a
:1023d0002b00099eb047431cbbd10fe6012f02dc46
:1023e00001231a4239d001230a9a08990798099eb5
:1023f000b047431c00d101e60f9b0e9a089907983d
:10240000099eb047431c00d1f8e5a06ce16c0023a5
:10241000002204f051fe0023002815d10a9a7b1ee9
:10242000013208990798099eb047431c11d1e5e590
:10243000220001231a3208990798099eb047431ccd
:1024400000d1dbe50a9b01330a930a9a7b1e9a426c
:10245000eedb22002b005032dde60a9ae1e7220093
:102460000123193208990798099eb047431c00d1ef
:10247000c4e50135e368149a9b1a9d42efdbffe641
:102480000c9a3b000c98390005f0e8fd002800d1bb
:10249000bae5074b1a000c320a920b9a472a00d968
:1024a0009ae5083397e5149b0a9a9f1a08e6c046f6
:0424b000207d00008b
:020000040000fa
:1024b400f0b58bb0060004930400cb0f0d03480065
:1024c40000922d0b400d0393029346d0584b984233
:1024d40067d08023720f1b04ed0013432b431f00ae
:1024e400544bf400c31800260193049b009a1d0367
:1024f4005800db0f2d0b400d069361d04c4b9842d6
:1025040000d181e08023520f1b041343ed001d43cf
:10251400484a009b8218db009446002206980399df
:102524004140604604910199091ab00010430138f2
:1025340005910e2800d981e006f0def87500490205
:10254400ed0149023d024902ed01750075003d02ad
:10255400ed01fc01fc01fc01e2012f00374327d00f
:10256400002d13d0280005f09dfc01000b391c2917
:1025740011dc02001d2337003400083a5b1a954031
:10258400df4094402f432c4b1b1aace7300005f07e
:1025940089fc2030e9e70300283b9e4000243700f3
:1025a400f1e72e43371e07d02f00019003269ce746
:1025b4003c000197012698e734000190022694e735
:1025c400009b2b4327d0002d13d0280005f06afc74
:1025d40001000b391c2911dc1d2302005b1a009930
:1025e400083ad940009b954093400d43124a121a71
:1025f40092e7100005f056fc2030e9e70300009d47
:10260400283b9d400023f1e7009b2b4307d0130098
:102614008446032282e71d009c4601227ee71d00ba
:10262400844602227ae700252c00014b4ee1c04685
:10263400ff07000001fcffff0dfcffffaf4204d8c1
:1026440000d057e19c4200d254e1f90762081143db
:10265400e0070c0001907f082d021a0e2a431b028a
:102664000293130c03936b4600921b880399380062
:10267400079304f005fb0600079b069003993800b6
:102684005e4304f039fb250c09040d43069fae425a
:1026940009d9009b013fed18ab4204d8ae4202d9e0
:1026a400069fed18023fab1b03991800069304f034
:1026b400e7fa079e050046430399069804f01cfbbd
:1026c400a4b209040c432a00a64208d9009b013a8b
:1026d400e418a34203d8a64201d9aa1ee4183b0475
:1026e40002991343029a0904120c090c08920691e8
:1026f400089d06989ab2a61b1c0c514360436a437a
:102704006c4312180d0caa18904202d98020400282
:102714002418100c09041204090c04195218a642b6
:1027240005d31f00a64227d10199914224d20298d1
:10273400019984466144019181428941009849424a
:10274400091876185f1eb04204d315d1614601986a
:10275400814211d8b44203d80ed101998a420bd9cf
:1027640002999f1e8c46019b634401938b429b41bb
:1027740000995b425b18f618019b341b9b1a099362
:10278400099a019b93429b415b42e41a009ba3423a
:1027940000d1d2e00399200004f072fa079d0600ec
:1027a40045430399200004f0a7fa099b09041c0c73
:1027b4000c430196a5420cd93300013b0193009bc5
:1027c400e418a34205d8a54203d9b31e0193009b84
:1027d400e418641b0399200004f052fa079d0600d4
:1027e40045430399200004f087fa6b460a04998c48
:1027f400330011438d4208d9009a013b89188a425b
:1028040003d88d4201d9b31e8918019a089c120479
:102814001a43100c93b24d1b16000699069a4143b5
:102824005a43634360435b18140ce318994202d97a
:10283400802149024018190c12041b04120c0818b8
:102844009b18854204d3340085421bd1002b1bd036
:10285400009a741e5519aa420fd8a84203d811d160
:10286400029a9a420bd2029ab41e510091429241aa
:10287400009e52429219ad180291854202d1029ae9
:10288400934201d001231c43059b564a9b18002bfd
:1028940056dd620709d00f222240042a05d0221dea
:1028a400a242a44164423f191400fa0106d58022d1
:1028b400d20094464c4b1f40059b63444b4a9342c1
:1028c40000dd88e0e40879070c43fd0800212d03ae
:1028d4000a0d12052d0b1543454a5b0515405b088f
:1028e4002b43049a5b00d2075b08134320001900b2
:1028f4000bb0f0bd059a013a059200220192abe6b5
:102904008022120317425ad0154258d12f001c00be
:10291400069b029353e02f0016001c00069b0493b1
:10292400022e58d0032e50d0012eadd10024250004
:102934002300cbe7039b0493f2e701246442a3e75b
:102944000122d21a382af1dc1f2a21dc202320009c
:102954009b1a39009c403d009940d040631e9c4125
:10296400d54001430c43630709d00f232340042bb4
:1029740005d0231da342a44164422d191c008023c9
:102984001b042b402ad16907e4080c43ed089de79a
:102994001f214942cb1a3900d9400b000021202abb
:1029a40003d040218a1a390091400c43611e8c41a6
:1029b40000251c43d7e7802700243f030294802589
:1029c400029b2d033d4304932fe6049ba1e70025be
:1029d4002c002b007ae70024250026e6002501239d
:1029e4002c0073e7ff030000fffffffefe0700005b
:1029f400ffff0f80f0b58bb001920593ca0f0c0353
:102a04004b000600240b5b0d0492039245d0c64a8a
:102a1400934265d08022410f12040a43e400144318
:102a2400c24ac5009b1800270293059b019a1e0306
:102a34005800db0f360b400d059360d0ba4b98421b
:102a440000d180e08023520f1b041343f6001e4381
:102a5400b64a019b8218db0094460022059804992b
:102a6400414001910299b800614410430791013833
:102a7400013106910e2879d805f03efe74007400e9
:102a84007b0171017101bc017b017101bc01710108
:102a94007b016f016f016f0164012500054326d09e
:102aa400002c13d0200005f0fdf901000b391c297e
:102ab40010dc1d2302005b1a31003500083a9440f3
:102ac400d94095400c439a4b1b1aace705f0eaf940
:102ad4002030eae703003400283b9c400025f2e75d
:102ae4000500254307d00500029303279de72c002a
:102af4000295012799e72c000293022795e7019b91
:102b0400334327d0002e13d0300005f0cbf9010059
:102b14000b391c2911dc1d2302005b1a0199083aa8
:102b2400d940019b964093400e43814a121a93e781
:102b3400100005f0b7f92030e9e70300019e283bb7
:102b44009e400023f1e7019b334307d013008446e2
:102b5400032283e71e009c4601227fe71e00844671
:102b640002227be734001d001700f8e0190c9bb229
:102b7400029119002a0c514318008c46029f0299b5
:102b8400adb2684351436f4304916744010cc919c2
:102b940003908c4506d9049f380080277f02bc46e9
:102ba40060440490684680890f0c0904091809914f
:102bb400310cb6b2039130003100bc46039f694327
:102bc40050437d437a432d180f0c7d19a84202d936
:102bd400802040021218280c82182d0489b2059214
:102be4006a1808921800089962468c46029f210cc4
:102bf400a4b260434b43674362449446029dff186a
:102c0400020cd2194d43934202d980235b02ed1882
:102c14003700130c5b190293039b67434e435c43d9
:102c24005943a4193b0c120480b21c191018a64273
:102c340002d980235b02c918049b220463441e004a
:102c4400089bbfb29e42ad418619d2198642bf414c
:102c54000298059b84466d42d218ab189c4403939a
:102c6400059b60469a429241039b5242ab429b4170
:102c74005b427f421a43029b3818240c1219b84253
:102c8400bf419c45a4417f4264423c4314196418eb
:102c9400c30d64021c43099b75021d43691e8d41cb
:102ca400f60d354340020543e30167d501226b0865
:102cb40015401d43e307d4401d43069b1d4a9b1842
:102cc400002b5edd6a0709d00f222a40042a05d0b2
:102cd4002a1daa42ad416d4264191500e20106d5d0
:102ce4008022d2009446144b1c40069b6344134a32
:102cf400934200dd8be06207ed081543e4080021f0
:102d040024030a0d1205240b14430d4a5b051440d9
:102d14005b082343019a5b00d2075b081343280036
:102d240019000bb0f0bdc046ff07000001fcffff17
:102d34000dfcffffff030000fffffffefe07000086
:102d4400ffff0f8080221203144257d0164255d140
:102d540034001d00059b039350e0049b0193022f54
:102d640055d0032f51d0012fa7d100252c002b00c3
:102d7400c5e71d00059b34000193f5e6079b069308
:102d84009be70122d21a382aefdc1f2a20dc2023f9
:102d940021009b1a28009d409940d0406b1e9d4104
:102da400d44001430d436b0709d00f232b40042b60
:102db40005d02b1dab42ad416d4264191d0080232b
:102dc4001b04234000d196e700240123250096e745
:102dd4001f214942cb1a2100d9400023202a03d0c5
:102de40040239a1a230093401d436b1e9d410024e7
:102df4000d43d8e7802400252403039580231b0377
:102e04001c43039b0193034b79e7019ba3e7002534
:082e14002c00f8e7ff070000a5
:020000040000fa
:102e1c00b0b590b006afc14b06225a6002f0c4f8b0
:102e2c0005f0eafb05f0a8f904f02afe05f042fcd7
:102e3c0005f0a8fb04f02cf804f050fd04f0f2ffb0
:102e4c0005f098fcb64b181c03f09effb54cb64a27
:102e5c00b449b648b64b0093231c04f0d9f8b54cd2
:102e6c00b54ab449b548b44b0093231c04f0d0f8d0
:102e7c00ac4cb34aab49b348fe239b050093231ccf
:102e8c0004f0c6f8b04b1b68b04cb14aaf49b1481e
:102e9c000093231c04f03cf8af4b1a68af4b1b6833
:102eac00fe24a405fe218905ad480093231c04f0e3
:102ebc002ff8ac4b1a68a54ca449ab48ab4b00930c
:102ecc00231c04f025f81e2308229446bc446344ba
:102edc0000221a800e2308229446bc44634400222c
:102eec001a8000233b6100233b620023fb6000231c
:102efc00fb610a23fb18f6221a809d4b3b620a23c6
:102f0c00fb181b88180005f055f80023bb611e2325
:102f1c0008229446bc44634400221a8005f0aef9a2
:102f2c0004f016fcc046934b1b78dbb201225340d5
:102f3c00dbb2002bf7d105f0d7f80e230822ba1814
:102f4c00d41804f00bff0300238005f0abf90e231b
:102f5c0008229446bc4463441a881e2308218c46dc
:102f6c00bc4463441b881100180004f049f9031c8d
:102f7c003b6105f083f91e230822ba18d41804f01b
:102f8c00edfe0300238003f0bdfe04f013fc04f0ff
:102f9c0029ff794b1b68b969181c00f037fc031c1e
:102fac003969181c01f020ff031c1a1c724bda60e3
:102fbc00714b1b68bb61704b1868654c80239a0081
:102fcc0064496a4b0093231c02f0a4f8021c6b4b5f
:102fdc001a60694b18685e4c80239a006049634bf9
:102fec000093231c02f096f8021c644b5a60624b4f
:102ffc001868574c80239a005b495c4b0093231c48
:10300c0002f088f8021c5d4b9a605b4bd868464c0a
:10301c0080239a004549fe239b050093231c02f054
:10302c0079f8021c564b1a60534bd8683e4c8023df
:10303c009a004249fe239b050093231c02f06af878
:10304c00021c4f4b5a604c4bd868374c80239a006b
:10305c003c49fe239b050093231c02f05bf8021ce9
:10306c00474b9a604649454a6b4618000b1d30cbbe
:10307c0030c00b6810685168926801f027f8031c87
:10308c00fb60f968386a00f0c1fb031cfb61f8694e
:10309c0003f082fc3b4a3c4b04f00ef8031e01d0bb
:1030ac003a4bfb612949f86904f0c0f9031e01d0c1
:1030bc00264bfb610a23fc18fb69181c03f0d6fa9b
:1030cc00030023800a23fb181b88180004f072ffee
:1030dc00fb693b62284b1b68181c03f05dfc3860d5
:1030ec007960254bdb68181c03f056fc04000d00be
:1030fc00f86903f051fc02000b000a2179180988c9
:10310c002348049102920393009401953a687b68da
:10311c0004f06aff642005f077f901e700400041f4
:10312c000000c442cdcccc3d000080bf0418002070
:10313c003333b3becdcc4c3e8fc2f5bc0420002043
:10314c003333b33e042800204c35002000002040cf
:10315c00000020c20400002050350020543500200f
:10316c000408002058350020041000200000f04214
:10317c0079e6193f6f3500201c3500202c350020d6
:10318c0038350020333333333333e33f9a99193fc7
:04319c003886000071
:020000040000fa
:1031a000d03400201c000000000000000835002082
:1031b00014000000000000006c3500200100000039
:1031c000000000006d35002001000000000000003c
:1031d0007033002000010000000000006e35002068
:1031e00001000000000000006f3500200100000019
:1031f00000000000ec3400201c0000000100000072
:10320000000040400000404000d08445e1c1643ae5
:10321000d60f5a39de8e6033339388431c35002035
:103220001000000000000000043000200002000038
:1032300000000000443500200400000000000000f1
:103240004835002004000000000000004c3500203c
:1032500004000000000000005035002004000000c1
:1032600000000000543500200400000000000000b1
:103270005835002004000000000000002c3500201c
:103280000c00000000000000383500200c00000099
:1032900000000000040000200018000000000000f2
:1032a0000418002000180000000000007035002005
:1032b0000100000001000000010000005c3500205a
:1032c0000400000001000000703400207034002071
:1032d00060000000010000000000000050850000b8
:1032e0007085000030850000000000000000000034
:1032f00000000000000000000000000000000000ce
:1033000000000000000000000000000000000000bd
:1033100000000000000000000000000000000000ad
:10332000000000000000000000000000000000009d
:103330000000000000000000043200206c010000ca
:103340000100000043000000000000000000000039
:10335000000000000000000000000000000000006d
:10336000000000004300000000000000000000001a
:10337000000000000000000000000000000000004d
:1033800000000000430000000000000000000000fa
:10339000000000000000000000000000000000002d
:1033a00000000000430000000000000000000000da
:1033b000000000000000000000000000000000000d
:1033c00000000000430000000000000000000000ba
:1033d00000000000000000000000000000000000ed
:1033e000000000004300000000000000000000009a
:1033f00000000000000000000000000000000000cd
:103400000000000043000000000000000000000079
:1034100000000000000000000000000000000000ac
:103420000000000051860000398400000000000008
:10343000b05600003188000030880000308800005d
:10344000308800003088000030880000308800009c
:10345000308800003088000030880000ffffffff48
:10346000ffffffffffffffffffff000001004153d1
:103470004349490000000000000000000000000077
:1034800000000000000000000000000000004153a8
:103490004349490000000000000000000000000057
:1034a000000000000000000000000000000000001c
:1034b000603500200400000000000000643500209a
:1034c00004000000000000000000002004000000d4
:1034d000000000006835002004000000000000002b
:1034e00000000000000000002222222222222222cc
:020000040000fa
:1034f0000d0a0a0a0a0a0a0a0a0a0a0a0a0a0a0a29
:103500000a0a0a0a0000c04650656e6e20537461b4
:1035100074652042656872656e6420456d626564fd
:10352000646564204f43584f0d00c04653706f6e62
:10353000736f726564206279204b796f6365726185
:10354000204156580d0a0d00457363617065207265
:1035500065717565737465642c20706c6561736545
:103560002074727920616761696e210d0000c04688
:103570004572726f723a20525820627566666572a3
:10358000206f766572666c6f77210d0021630000f5
:1035900021730000496e76616c6964206e756d62fe
:1035a00065722072656365697665643a2025730dde
:1035b0000a00c0462165000021680000456e746560
:1035c00072696e6720566572626f7365204d6f6415
:1035d000652e2e2e0d00c046566572626f736520f3
:1035e0004d6f646520686173206265656e20656e4d
:1035f0007465726564210d00526563656976656462
:10360000206e657720736574706f696e742e2e2e30
:103610000d00c046456e64696e6720566572626f24
:103620007365204d6f64652e2e2e0d0056657262f7
:103630006f7365204d6f64652068617320626565f6
:103640006e20656e646564210d00c0460d0a0a0097
:103650002a2a2a2a2a2a2a2a2a2a2a2a2a2a2a2aca
:103660002a2a2a2a2a2a2a2a2a2a2a2a2a2a2a2aba
:103670002a2a2a2a2a2a2a2a2a2a2a2a2a2a2a2aaa
:103680002a2a2a2a2a2a2a2a2a2a2a2a2a2a2a2a9a
:103690002a2a2a2a2a2a2a2a2a2a2a2a2a2a2a2a8a
:1036a0002a2a2a2a2a2a2a2a2a2a2a2a0d00c0460f
:1036b000202020202020202020202020202020200a
:1036c00020202020202020202020202020202020fa
:1036d00020202020202020434f4d4d414e44532098
:1036e0004d454e550d00c0462a2a2a2a2a2a2a2a42
:1036f0002a2a2a2a2a2a2a2a2a2a2a2a2a2a2a2a2a
:103700002a2a2a2a2a2a2a2a2a2a2a2a2a2a2a2a19
:103710002a2a2a2a2a2a2a2a2a2a2a2a2a2a2a2a09
:103720002a2a2a2a2a2a2a2a2a2a2a2a2a2a2a2af9
:103730002a2a2a2a2a2a2a2a2a2a2a2a2a2a2a2ae9
:103740002a2a2a2a0d0a0000436f6d6d616e6420db
:1037500020416374696f6e0d0000c0462020216314
:103760002020202020426567696e206f7220656ee0
:103770006420766572626f7365206d6f6465200ddd
:103780000000c04620202173202020202053656e99
:10379000642061206e657720736574706f696e7444
:1037a00020647572696e6720766572626f7365203a
:1037b0006d6f64650d00c04620202165202020200b
:1037c00020456e6420766572626f7365206d6f644c
:1037d000650d000020202168202020202053686fe4
:1037e0007720636f6d6d616e6473206d656e7520fb
:1037f0000d00c046496e76616c696420636f6d6d23
:10380000616e642c20706c65617365207472792020
:08381000616761696e210d0082
:020000040000fa
:10381800f7b543024a025b0a520a4e00440001937c
:1038280000939446240ec50fdb00360ec90fd20054
:10383800ff2e01d1002a01d101204140a01ba9423d
:1038480000d0a1e000282edd002e18d1002a00d1da
:103858004ae1411e00290ed101249b185a015bd56b
:103868000134ff2c00d13de10122a4491a405b0834
:103878000b40134350e0ff2807d1ff244ce0ff2cf6
:103888004ad08021c9040a4301001b2901dd012215
:1038980007e010002026c840711a8a40511e8a414c
:1038a80002439b18dae7002821d0002c0cd1002b0a
:1038b80007d0c043002802d19b183400cee7ff2e62
:1038c80008d11300340027e0ff2efad08021c90464
:1038d80040420b431b2801dd0123ede7190020249a
:1038e800c140201a8340581e83410b43e4e7611c02
:1038f800ff260f003740012f3fdc002c2bd1002b77
:1039080000d1eae0002a07d09b188022d204134293
:1039180002d001247a4a13405a0704d00f221a40d1
:10392800042a00d004335a0105d50134ff2c00d1f4
:10393800e1e0734a1340db08ff2c04d1002b02d0ce
:103948008022d20313435b02e4b2e405580aed0770
:1039580020432843febd002b00d1c0e03400002adc
:10396800dad08023019adb031a4203d062461a4256
:1039780000d10092009bdb007fe7ff2900d1b0e077
:103988009b185b080c00c7e7002826dd002e13d122
:10399800002a00d1a8e0411e002906d101249b1a63
:1039a8005a01b9d59b019e097ae0ff2800d164e746
:1039b8001b2908dd01220ee0ff2cadd08021c904af
:1039c8000a430100f4e710002026c840711a8a4013
:1039d800511e8a4102439b1ae2e7002822d0002c9c
:1039e8000dd1002b08d0c043002803d1d31a3400ce
:1039f8000d00d5e7ff2e08d11300340020e0ff2e7c
:103a0800fad08024e404404223431b2801dd01232b
:103a1800ece71c002025c440281a8340581e834127
:103a28002343e3e7ff20661c0640012e31dc002c0f
:103a380017d1002b06d11d00002a00d16ce7130016
:103a48000d0069e7002a00d166e78026981af60477
:103a5800304201d0d31af3e7031e00d05ce71d0003
:103a68005ae7002b04d1002a40d013000d0004e7c8
:103a78000400002a00d14fe78023019adb031a4291
:103a880000d177e762461a4200d073e700920d0032
:103a980070e780209e1ac004064215d00d00d61a81
:103aa800300004f0fdf9330005388340844210dc0f
:103ab800041b1a0020200134e240041ba3405e1eb0
:103ac800b3410024134327e7002ee9d13300340023
:103ad800c5e7241a0a4803401ee713001ce7130031
:103ae800cbe60c00002317e7040015e78023040049
:103af8009b04150010e700231de7c046ffffff7d6c
:043b0800fffffffbc1
:020000040000fa
:103b0c00f0b58fb0051c0c1cfdf71ef90023af4f50
:103b1c00061cfb560193013365d0211c201c04f0bc
:103b2c00e9fb029000285ed1291c281c04f0e2fb62
:103b3c0000210390002821d0201c03f05dfc0028fc
:103b4c0051d001230493a24b281c0593029b0c9388
:103b5c0002f022ff06900791201c02f01dff0022ac
:103b6c009c4b089009910a920b93019b022b35d028
:103b7c0004a802f001fb002827d161e0281c03f007
:103b8c003bfc002861d00021201c03f035fc029086
:103b9c0000282bd0012304938d4b281c0593039be9
:103bac000c9302f0f9fe06900791201c02f0f4fe33
:103bbc00002300220a920b93019b08900991002b81
:103bcc00d6d00022834b0a920b930c9b0193002bb3
:103bdc0004d004f00bfe0c9b019303600a980b9924
:103bec0001f062fe061c301c0fb0f0bd201c04f06e
:103bfc006bfd0028f7d00021201c03f003fc0028eb
:103c0c00f1d001230493724b281c0593029b0c9357
:103c1c0002f0c2fe06900791201c02f0bdfe0023ac
:103c2c00fb5608900991002b04d1002200230a9224
:103c3c000b939de7002068490a900b91022b97d1ba
:103c4c0004f0d4fd21230360bfe7301c04f03cfddd
:103c5c000190002800d08be0281c04f035fd0028d2
:103c6c0000d185e0201c04f02ffd002800d17fe05e
:103c7c00311c301c04f03efb0026554bbe5700286f
:103c8c001bd001220593019b281c04920c9302f07b
:103c9c0083fe06900791201c02f07efe0022089005
:103cac0009910023002ec2d010001900fef7fcfb76
:103cbc000a900b91022ec3d05ae703220c90281cb9
:103ccc000492059302f068fe06900791201c02f006
:103cdc0063fe08900991002e2ad1e0223f4b120678
:103cec000021281c0a920b9303f08cfb002865d052
:103cfc00fc21201c890500f08bff02f04dfe040016
:103d0c000d0001f0c3fb02000b002000290003f0a2
:103d1c00cdf9002804d1e022314b12060a920b9304
:103d2c000023fb56022b49d104f060fd22238ae7c5
:103d3c0000222c4b0021281c0a920b9303f062fbef
:103d4c000028edd0fc21201c890500f061ff02f059
:103d5c0023fe04000d0001f099fb02000b00200073
:103d6c00290003f0a3f90028dad100221a4bd5e779
:103d7c000021301c03f040fb002800d133e7281c45
:103d8c0004f0a2fc002800d12de7201c04f09cfcc0
:103d9c00002800d127e7042304930d4b281c05931e
:103dac0000230c9302f0f8fd06900791201c02f002
:103dbc00f3fd0022089009910023afe704a802f05c
:103dcc00dbf9002800d000e7aee7c04670350020d4
:103ddc00ad8800000000f03f0000f0ffffffef4750
:083dec00ffffefc70000f07fac
:020000040000fa
:103df400f7b54602730a802644004a024f00520a6d
:103e0400240e3f0ef6040093c50f0192db00c90f88
:103e1400d200e01bb4468d4200d0a0e000282edd85
:103e2400002f18d1002a00d146e1411e00290ed1ed
:103e340001249b185a015ad50134ff2c00d139e1d1
:103e44000122a2491a405b080b4013434fe0ff28ac
:103e540007d1ff244be0ff2c49d0310011430a0065
:103e640001001b2901dd012207e010002026c840c3
:103e7400711a8a40511e8a4102439b18dae70028ce
:103e840021d0002c0cd1002b07d0c043002802d134
:103e94009b183c00cee7ff2f08d113003c0026e01e
:103ea400ff2ffad0310019430b0040421b2801dddb
:103eb4000123ede719002024c140201a8340581e35
:103ec40083410b43e4e7611cff270e003e40012eb3
:103ed4003edc002c2ad1002b00d1e6e0002a06d0db
:103ee4009b186246134202d00124794a13405a07b0
:103ef40004d00f221a40042a00d004335a0105d5f5
:103f04000134ff2c00d1dee0714a1340db08ff2ca2
:103f140004d1002b02d08022d20313435b02e4b20b
:103f2400e405580aed0720432843febd002b00d1c9
:103f3400bde03c00002adad08023009adb031a4259
:103f440003d0019a1a4200d10092009bdb0080e763
:103f5400ff2900d1ade09b185b080c00c7e70028df
:103f640026dd002f13d1002a00d1a5e0411e00292f
:103f740006d101249b1a5a01b9d59b019e0977e009
:103f8400ff2800d165e71b2908dd01220ee0ff2c84
:103f9400add0310011430a000100f4e710002026df
:103fa400c840711a8a40511e8a4102439b1ae2e7b3
:103fb400002822d0002c0dd1002b08d0c0430028ab
:103fc40003d1d31a3c000d00d5e7ff2f08d113000d
:103fd4003c0020e0ff2ffad034001c432300404271
:103fe4001b2801dd0123ece71c002025c440281a0e
:103ff4008340581e83412343e3e7ff20671c0740a7
:10400400012f2fdc002c15d1002b06d11d00002a16
:1040140000d16ce713000d0069e7002a00d166e7c0
:10402400981a304201d0d31af5e7031e00d05ee798
:104034001d005ce7002b04d1002a3fd013000d00c3
:1040440007e70400002a00d151e78023009adb032c
:104054001a4200d179e7019a1a4200d075e700921a
:104064000d0072e760469e1a064215d00d00d61a5e
:10407400300003f017ff330005388340844210dc1e
:10408400041b1a0020200134e240041ba3405e1ede
:10409400b341002413432ae7002ee9d1330034004e
:1040a400c6e7241a0a48034021e713001fe7130058
:1040b400cfe60c0000231ae7040018e7802304006d
:1040c4009b04150013e7002320e7c046ffffff7d94
:0440d400fffffffbf0
:020000040000fa
:1040d80082b0b0b596b000af3c1d20606160a260b0
:1040e800042268218c46bc44624413603023fb18c8
:1040f80018001c231a00002104f04efb1423fb189f
:1041080018001c231a00002104f046fb00237b65dd
:1041180000233b653b1d1b68181c02f03ffc040094
:104128000d00042368229446bc4463441b68181c91
:1041380002f034fc02000b002000290003f0eafe24
:1041480003000c001800210001f0b0fb021c302312
:10415800fb181a601423fb187d4a1a603b1d1b6864
:10416800181c02f01bfc04000d000423682294466e
:10417800bc4463445b68181c02f010fc02000b008e
:104188002000290003f0c6fe03000c0018002100df
:1041980001f08cfb021c3023fb185a601423fb1817
:1041a8006c4a5a603b1d1b68181c02f0f7fb0400a0
:1041b8000d00042368229446bc4463449b68181c81
:1041c80002f0ecfb02000b002000290003f0a2fe25
:1041d80003000c001800210001f068fb021c3023ca
:1041e800fb189a601423fb1800229a603b1d5a683a
:1041f8003023fb18da601423fb180022da603b1d19
:104208009b68181c02f0cafb04000d0004236822f6
:104218009446bc4463441b68181c02f0bffb0200b0
:104228000b002000290003f075fe03000c001800a5
:10423800210001f03bfb021c3023fb181a611423f8
:10424800fb1800221a613b1d9b68181c02f0a6fb94
:1042580004000d00042368229446bc4463445b6850
:10426800181c02f09bfb02000b002000290003f041
:1042780051fe03000c001800210001f017fb021c7e
:104288003023fb185a611423fb18334a5a613b1d2b
:104298009b68181c02f082fb04000d0004236822ae
:1042a8009446bc4463449b68181c02f077fb0200e8
:1042b8000b002000290003f02dfe03000c0018005d
:1042c800210001f0f3fa021c3023fb189a61142331
:1042d800fb18224a9a610023fb6421e03023fb1873
:1042e800fa6c9200d0581423fb18fa6c9200d35839
:1042f800191c00f08ffc031c191c786dfff776fd64
:10430800031c7b653023fb18fa6c9200d358191ce8
:10431800386dfff76bfd031c3b65fb6c0133fb64d9
:10432800fb6c062bdadd0021386d03f067f8031efd
:1043380001d0002304e0396d786d00f057fd031caf
:10434800181cbd4616b0b0bc08bc02b01847c04621
:104358003333f33e3333733e333373be3333f3bef9
:020000040000fa
:10436800f0b5030085b0420006d1cc20002100063c
:1043780000f03cfd05b0f0bd002804da011cfff791
:1043880047fa0021f4e78b4a011c90423ddc8a4938
:104398000022884206dc9821c90500f03bfc19225e
:1043a80003005242df157f3fbf185b02834a5b0a56
:1043b8009818019380231b040340fe20fe218005ea
:1043c800da155840019b89051843d719fff720fad9
:1043d800019b041c0f335b025b0a0f2b46dc002198
:1043e80003f00cf8002813d00020002fc2d03800aa
:1043f80002f00efd7249041c00f00cfc7149051c0a
:10440800201c00f007fc011c281cfff7effcb1e79b
:104418006d49201c00f0fefb011cfc208005fff705
:10442800f7f9211c051c201c00f0f4fb011c281cba
:1044380000f0f0fb051c011c002f7bd0380002f0b7
:10444800e7fc5f49061c00f0e5fb5e49071c301cd1
:1044580000f0e0fb011c281cfff7daf9211cfff72c
:10446800d7f9011c381cfff7d3f983e78021c90568
:10447800fff7bcfc011c201c00f0b8fc00903800c1
:1044880002f0c6fc00990290081c00f0c3fb4f4ada
:10449800019b9446011c63440393051c00f0bafb7e
:1044a8004b49061c00f0b6fb4a49fff79ffc311c3c
:1044b80000f0b0fb4849fff799fc311c00f0aafb5b
:1044c8004649fff793fc291c00f0a4fb4449051c4e
:1044d800301c00f09ffb4349fff788fc311c00f0bb
:1044e80099fb4149fff782fc311c00f093fb011c4a
:1044f800281cfff77bfc019b051c3c48c01a039b4a
:104508001843002830ddfc21201c890500f082fbbf
:10451800211c00f07ffb061c002f0dd1011c281c5c
:10452800fff764fc009900f075fb011c301cfff7d5
:104538006ff9011c201c96e72149029800f06afbdc
:10454800311c071c281cfff751fc009900f062fb86
:104558001c49051c029800f05dfb011c281cfff794
:1045680045fc011c301c77e7002f07d1291c201cb3
:10457800fff74ef9009900f04dfbdae71049029871
:1045880000f048fb291c061c201cfff741f9009984
:1045980000f040fb0b49051c029800f03bfb011c96
:1045a800281cfff735f9211cfff732f9011c301cd4
:1045b80059e7c046ffff7f7fffff7f0020fb4a00cf
:1045c8008071313fd1f71737abaaaa3e305ccfffd5
:1045d8009788173e25333a3e2549923eabaa2a3f93
:1045e8004fd01c3e298e633ecdcccc3e88c23500d0
:020000040000fa
:1045f800f0b58bb006920a004332079305900492f7
:104608000a7e0c00109b6e2a00d190e017d8632a0e
:104618002dd008d8002a00d19ae0582a55d0260073
:10462800423632702ae0642a01d0692af7d121681b
:104638001a68080624d5111d1960156826e0732a22
:1046480000d189e008d86f2a2ad0702ae7d1202221
:1046580009680a43226003e0752a21d0782aded14e
:1046680022007821453211706d4a113230e00e0077
:104678001a684236111d196013683370012379e0f6
:104688004906d8d5111d19600023d55e002d03da1f
:104698002d23049a6d421370614b0a2703932fe070
:1046a80020681968050603d5081d18600d6805e01f
:1046b8004006f9d50d68081d1860adb2584b08279b
:1046c80003936f2a18d00a2716e045310a70544a16
:1046d80003921a682168101d18601568080622d50b
:1046e800cb0702d52023194321601027002d03d1c1
:1046f800202322689a4322602300002243331a7041
:104708006368a360002b5cdb04222168914321606d
:10471800002d58d1049e002b64d02600039b4236fe
:104728001b7833705ee04806dad5adb2d8e7096881
:104738001a68080605d5111d1960136862691a60a0
:1047480006e04906f7d5111d19601368a28a1a8078
:104758000023049e236154e01a68111d196016682d
:1047680000216268300003f087ff002801d0801b19
:104778006060636823610023049a137041e0236931
:10478800320006990598079da847431c43d0236823
:1047980000259b070fd4099be06898423dda180072
:1047a8003be022000123193206990598079eb0477d
:1047b800431c30d00135e368099a9b1a9d42f0db0f
:1047c800e9e7002da9d0049e2800390002f092faea
:1047d800039b013e5b5c28003370390002f04efaff
:1047e800051ef1d1082f09d12368db0706d56368b8
:1047f8002269934202dc3023013e3370049b9b1be9
:104808002361079b09aa00932100069b059801f0e4
:104818007dfb431cb3d1012040420bb0f0bdc04624
:04482800ec8400001c
:020000040000fa
:10482c00f0b59fb006000f0015000593002804d0ca
:10483c008369002b01d102f0f1fe764b9f425ed1d1
:10484c007768bb891b0764d53b69002b61d00023bb
:10485c0006ac63612023637630230395a376039d16
:10486c002b78002b5fd1039beb1a04930dd0049b88
:10487c00039a3900300003f005fa431c00d1c2e062
:10488c006269049b9446634463612b78002b00d1ce
:10489c00b9e00122532100235242626002aa52184d
:1048ac0001352360e360a3601370a36505222978aa
:1048bc00594803f0dffe6a1c002838d12168cb066a
:1048cc0006d520239c46532302a8c01863460370c8
:1048dc000b0706d52b239c46532302a8c01863460e
:1048ec0003702b782a2b2bd000200a21e3682a781e
:1048fc00303a092a69d900282ad0e36028e0474bce
:10490c009f4201d1b7689ce7454b9f4299d1f7680c
:10491c0097e73900300001f033f9002897d00120d7
:10492c0040421fb0f0bd252b9dd0013598e73a4b86
:10493c002168c01a012383400b4323601500b5e79f
:10494c00059b181d1b680590002b38dbe3601500d8
:10495c002b782e2b0bd16b786a1c2a2b3dd1059b07
:10496c0002351a1d1b680592002b33db6360297816
:10497c0003222c4803f07efe002807d0294b226826
:10498c00c01a402383401343236001352248297801
:10499c006b1c06220a300393217603f06bfe05aaea
:1049ac000092214b3a002100002828d03000fdf75e
:1049bc00c1fa431c27d06369181860614fe75b424a
:1049cc00e36002230b432360c1e74b4301359b1883
:1049dc0001208ce701235b42c8e7002315000a2065
:1049ec001a00636029783039092903d9002bbed00d
:1049fc006260bce74243013552180123f2e73000f4
:104a0c00fff7f4fdd5e7bb895b0600d587e7606946
:104a1c0087e7c046508500005c8700007085000069
:0c4a2c003085000062870000917c0000d3
:020000040000fa
:104a3800f7b5ff214300041c5b08c9058b4205d963
:104a4800011c201cfff7d2f9041c05e0c60f8b429d
:104a580004d1002e00d0b9e0201cfebd5c4988427c
:104a680004dd5c49081c00f0d5f8ede7002803dafe
:104a7800594a934200d9a9e0584a93426ed9584af4
:104a8800b50093424ed8574b201c5959fef7c0fe2b
:104a9800554b071c5b590125ad1b0193ad1b0199b3
:104aa800381cfef7b5fe041c211c201c00f0b2f8cf
:104ab8004e49061c00f0aef84d49fef7a9fe311c20
:104ac80000f0a8f84b49fff791f9311c00f0a2f863
:104ad8004949fef79dfe311c00f09cf84749fff755
:104ae80085f9311c00f096f8011c201cfef790fe99
:104af800061c011c201c002d44d100f08bf88021dd
:104b0800051cc905301cfef783fe011c281c00f09b
:104b18006df9211cfef77cfe011cfe208005fef7c6
:104b280077fe91e73649201c00f074f8354b595947
:104b3800fff75cf903f096f9050002f069f93249cc
:104b4800061c00f067f8011c201cfef761fe2f49c7
:104b5800071c301c00f05ef80190a0e72c4a934235
:104b68000cd81c49201cfff741f9fe21890502f0e9
:104b78005ffc002804d0fe21890562e7002593e741
:104b8800050091e700f046f8041c8020311cc005a0
:104b9800fef73efe011c201c00f028f9011c0198bc
:104ba800fef736fe391cfef733fe011cfe20800599
:104bb800fef72efe2b007d3302dbec0524184be7b5
:104bc800d8216435ed05281809054ce7002443e78a
:104bd8001772b142caf24971b5f1cf421872b13eab
:104be8009115853f3c880000448800004cbb313358
:104bf8000eeadd3555b38a38610b363babaa2a3e3f
:104c08003baab83f348800008071313fd1f717378d
:044c1800ffff7f31ea
:020000040000fa
:104c1c00f0b5c30f85b0440245000391640a2d0e14
:104c2c000293019330d0ff2d3ad08023e400db04b3
:104c3c007f3d1c4300950027039b5e025d00db0f4c
:104c4c00760a2d0e039334d0ff2d3cd08022280001
:104c5c000025f600d20416437f38039b029a5a4073
:104c6c00009b9c4684446346b80028430138591c79
:104c7c000e2833d803f032fd2f2f8c7b7bad8c7b31
:104c8c00ad7b8c7a7a7a6b00002c0fd0200003f06d
:104c9c0005f97626431f76429c40331a0093cae7e7
:104cac0000950327002cc7d10227c5e700940127e4
:104cbc00c2e7301e0dd003f0f1f8431f9e4076235f
:104ccc005b42181ac9e728000325002ec5d102251e
:104cdc00c3e70125c1e734002f0048e0b7b2a3b207
:104cec00200c3c00350c47435c4368435d43230c6c
:104cfc00ed195b199f4202d980256d024019a4b2af
:104d0c001d042d19ac01671ebc41ad0e25431c0cb6
:104d1c002418a4012c4323013dd5012360081c4019
:104d2c0004430d007f35002d37dd630704d00f23be
:104d3c002340042b00d00434230103d580310d0013
:104d4c00284b1c40e308fe2d19dd00230ce08023ca
:104d5c00db031c4204d01e4202d13400039b01939e
:104d6c008023019adb032343ff2508e0029a022fdc
:104d7c00ebd0032f31d000231d00012fd1d15802cd
:104d8c00edb2ed05400ad2072843104305b0f0bd43
:104d9c003400039aa0e76146c3e70120451b1b2d95
:104dac001ddc23002020eb40451bac40611e8c41d8
:104dbc002343590704d00f211940042900d0043390
:104dcc008025ed041d40db08002dd8d000230125e3
:104ddc00d5e780240023e403c1e70192c0e7002358
:104dec001d00cce7fffffff7f0b5c30f85b0440201
:104dfc0045000391640a2d0e029301930ad0ff2df6
:104e0c0038d08023e400db047f3d1c432e000023bc
:104e1c0000930ae0002c33d0200003f03ff87626f4
:104e2c00431f9c407642361a0095039b5f025d003f
:104e3c00db0f7f0a2d0e039325d0ff2d2dd0802262
:104e4c0028000025ff00d20417437f38039b029ae9
:104e5c00361a5a40009b9800284301380e2824d853
:104e6c0003f03cfc4e9d639d979d634e4e9763797a
:104e7c00797954002e000323002cc9d10223c7e7f3
:104e8c0026000123c4e7381e0dd003f007f8431f9a
:104e9c009f4076235b42181ad8e728000325002f81
:104eac00d4d10225d2e70125d0e7640178018442f0
:104ebc0028d31a210123241a012527005b00640042
:104ecc00002f01dba04201d8241a2b430139002901
:104edc00f3d1611e8c411c4331007f3100293cdd34
:104eec00630704d00f232340042b00d00434230188
:104efc0003d531002b4b80311c40e308fe2921dd0a
:104f0c00002310e0013e1b210023d5e78023db03a7
:104f1c001c4204d01f4202d13c00039b019380230e
:104f2c00019adb032343ff210ce03c00039a00951c
:104f3c00009b022be4d0032b2fd0002300981900e8
:104f4c000128c9d15802c9b2c905400ad207084381
:104f5c00104305b0f0bd029aeae70120411a1b2963
:104f6c001ddc23002020cb40411a8c40611e8c415b
:104f7c002343590704d00f211940042900d00433ce
:104f8c008021c9041940db080029dbd00023012152
:104f9c00d8e780240023e403c0e70192bfe7002395
:084fac001900cfe7fffffff73a
:020000040000fa
:104fb40080b500af8223db0542220121995482236c
:104fc400db053122012199548223db0504229a60f6
:104fd4008223db054422fd2199548223db053222fe
:104fe400012199548223db0546220121995482230d
:104ff400db053322012199548223db0520225a60e8
:105004008223db0540225a608223db0548224121aa
:1050140099548223db054922012199548223db051b
:105024003422222199548223db05802252009a6083
:105034008223db05802292005a608223db05502202
:10504400412199548223db05512241219954822321
:10505400db055222412199548223db053822332176
:1050640099548223db053922032199548223db05d9
:10507400802252029a608223db05802292029a6087
:105084008223db058022d2029a608223db05402240
:10509400042199548223db0541220421995482235b
:1050a400db054722042199548223db054a2204218b
:1050b40099548223db054b22042199548223db0576
:1050c4004e22042199548223db054f220421995452
:1050d4008223db055322042199548223db055622c3
:1050e400042199548223db055722042199548223f5
:1050f400db055822042199548223db05592204211b
:1051040099548223db055b22042199548223db0515
:0c5114005c2204219954c046bd4680bdb9
:020000040000fa
:1051200090b58bb000aff860b9603b60bb1d1a80d2
:1051300000237b6200233b620023fb610023bb61f1
:1051400000237b6100233b613968b86bfef764fb89
:10515000031c1c1cbb1d00229b5e013b180001f0c0
:105160005bfe031c191c201cfff744fe031c7b6222
:105170003968f868fef750fb031c796a181cfff7c2
:1051800039fe031c181c02f071fe03003b623b6aef
:10519000002b02dabb681b685ee0bb1d00229b5e31
:1051a0005a1e3b6a9a420adcbb1d00229b5e2c4ab7
:1051b000944663449b00ba68d3181b684ce0386a75
:1051c00001f02afe031c796a181cfff727fd031c57
:1051d0003968181cfef70efe031cfb613b6a0133a5
:1051e000180001f019fe031c796a181cfff716fd60
:1051f000031c3968181cfef7fdfd031cbb613b6aec
:105200009b00ba68d3181b687b613b6a01339b0023
:10521000ba68d3181b683b61f969f868fef7fcfab5
:10522000031c1c1c79693869fef7f6fa031c191c6b
:10523000201cfff7f3fc031c1c1cf969b869fef77e
:10524000ebfa031c191c201cfff7d4fd031c796921
:10525000181cfef7cffd031c181cbd460bb090bdfb
:04526000ffffff3f0e
:020000040000fa
:10526400f0b50b691500126989b00c00934201da9c
:105274002c000d0027692e69a268bb19616801938f
:10528400934200dd013102f095f9030014330093d9
:10529400009abb1994469b009c441300002204907e
:1052a40063451cd32a001434bf00e3191432b6003a
:1052b4000593931902940693069b9a4211d3019b7a
:1052c400002b06dd04235b429c4463461b68002bd1
:1052d40051d0049b019a18001a6109b0f0bd04c3af
:1052e400dee71488002c1ed00026009d029f01cf0b
:1052f400079508cd039383b2634319006b46000cf2
:105304009b896043cb1803999b19090c4118180c0d
:1053140009180e0c9bb209040b4307990b60059bfb
:10532400bb42e4d82e6013681b0c03931ed00026e6
:10533400009b029c1b68009807002188039d9bb278
:10534400694320c82d0c49198e1931040b433b6065
:1053540008cc03991b0c4b437968360c89b25b1853
:1053640005999b191e0ca142e6d80360009b0432e8
:0e53740004330093a0e7019b013b01939fe7e8
:020000040000fa
:02538200704772
:020000040000fa
:10538400f7b58a8905000c00130760d44b68002b1d
:1053940004dc0b6c002b01dc0020febde76a002f4f
:1053a400fad000232e682b6080235b011a4034d08e
:1053b400606da3895b0706d56368c01a636b002b15
:1053c40001d0236cc01a0200216a00232800e76a76
:1053d400b847a189431c06d12b681d2b31d82c4a10
:1053e400da40d3072dd50023636023692360cb04ff
:1053f40005d5431c02d12b68002b00d16065616b7d
:105404002e600029c8d023004433994202d02800da
:1054140001f05cfb00206063bfe70123216a2800e0
:10542400b847431cc5d12b68002bc2d01d2b01d01b
:10543400162b01d12e60afe74023a2891343a38129
:10544400abe740230b430120a3814042a5e70f694a
:10545400002fa1d00b680f60db1b01930023920780
:1054640000d14b69a360019b002b00dc94e7019bf6
:105474003a00216a2800a66ab047002803dc4023ca
:10548400a2891343dfe7019b3f181b1a0193eae744
:0454940001004020b3
:020000040000fa
:10549800f0b54e00760db4463d4e85b06644050025
:1054a8000b0001910200cc0f132e55dc002e28dad8
:1054b8004a005208024322d00a03120b15436a42db
:1054c8002a4380254b0c120b2d035b042a401a43f8
:1054d800304b1100e2009b181e685f6832003b00e9
:1054e800fcf75afa02900391029803993b003200a4
:1054f800fbf77aff4b005b08e4072343190005b06c
:10550800f0bd254d35412f000f400743f7d06d08fa
:105518002800084010430022904209d0132e01d1e0
:10552800802212068027ff023741ab431f430197b1
:10553800184be4001c196568246801992b001000b9
:105548002200fcf729fa029003910298039922009d
:105558002b00fbf749ffd2e7332e08dd8023db0061
:105568009e42ccd102000b00fcf716fac7e70126d1
:105578000a4d76426544ee400642c0d0760806429f
:10558800d6d08023db052b41b2431a43d0e7c0466f
:1055980001fcffff90870000ffff0f00edfbfffffe
:020000040000fa
:1055a800f0b503690c6989b00700059100269c4293
:1055b8006ddc0b00013c1433a50003935b190493c5
:1055c8000300143302935d19049b28681b68591c57
:1055d800019301f053fb0190b0422dd0039b029838
:1055e8009c460696624608ca9446019a99b2514367
:1055f8001b0c534389190a0c9b18079302881e0c2d
:10560800069b89b2d2180368521a190c6b469b8bf9
:10561800cb1a11145b18191492b21b041a43049b79
:10562800069104c06345ddd22b68002b04d1029b90
:10563800043dab422ed33c610599380002f03dfd94
:10564800002823db0025019b02980133039901936d
:1056580008c9028855199ab2aa1a05681b0c2d0c9c
:10566800eb1a15145b191d1492b21b04134308c0de
:10567800049b8b42ecd2029aa300d3181a68002a22
:1056880004d1029a043b9a4209d33c61019e30003e
:1056980009b0f0bd2b68002bcdd1013cc7e71a68d3
:0856a800002af2d1013cece7fd
:020000040000fa
:1056b00000202020202020202020282828282820e2
:1056c00020202020202020202020202020202020da
:1056d0002088101010101010101010101010101042
:1056e0001004040404040404040404101010101032
:1056f00010104141414141410101010101010101fc
:10570000010101010101010101010101101010104d
:1057100010104242424242420202020202020202cd
:105720000202020202020202020202021010101021
:105730002000000000000000000000000000000049
:105740000000000000000000000000000000000059
:105750000000000000000000000000000000000049
:105760000000000000000000000000000000000039
:105770000000000000000000000000000000000029
:105780000000000000000000000000000000000019
:105790000000000000000000000000000000000009
:1057a00000000000000000000000000000000000f9
:0157b00000f8
:020000040000fa
:0157b10000f7
:020000040000fa
:1057b20090b58db000aff860b9607a603b600023ad
:1057c2007b6200233b620023fb620023fb61002318
:1057d200bb610023bb6200237b617968f86801f03a
:1057e20020fe031e26d07968f868fef714f8031c21
:1057f2007b62796a786afff710fa031c1a1c80230d
:105802001b0653401c00b968b868fff706fa031c70
:10581200191c181cfef7edfa031c191c201cfff7bb
:10582200e8fa031c3b623b6a181c00f024fa031cd2
:10583200fb6202e0fe239b05fb62396cf86801f013
:10584200f0fd031e03d0fe239b05bb6225e0396ced
:10585200f868fdf7e0ff031cfb61f969f869fff7df
:10586200dcf9031c1a1c80231b0653401c003968f8
:105872003868fff7d2f9031c191c181cfef7b9fa95
:10588200031c191c201cfff7b4fa031cbb61bb6983
:10589200181c00f0f0f9031cbb62b96af86afff742
:1058a200bcf9031c7b617b69181cbd460db090bd21
:020000040000fa
:0258b20070473d
:020000040000fa
:1058b400f0b50e034d00430f6d0d760a1e436b1cad
:1058c4005b05c90fc2005b0d012b52dd344bec1894
:1058d400fe2c5ddc002c27dc230017335bdb8023ec
:1058e4001e271b041e433f1b1f2f0cdc2d4b1000d7
:1058f400ed18aa401300ae405a1e9341f8403343ba
:105904000343002417e002204042041b3000e0401f
:105914000024202f03d03400234bed18ac40224345
:1059240013005a1e9341ebe78001431e9841520f26
:105934000243f30013435a0704d00f221a40042ae7
:1059440000d004335a0104d50134ff2c25d0174a62
:105954001340db08ff2c04d1002b02d08022d20399
:1059640013435b02e4b2e405580ac9072043084321
:10597400f0bd13003343002d02d15a1e9341c0e7fa
:10598400ff24002bd7d08023f6009b043343d2e7b7
:105994000023ff24cfe70123b3e70023d9e7c04660
:1059a40080fcffff82fcffffa2fcfffffffffffb69
:020000040000fa
:1059b40080b582b000af334b1b7edbb21a000423e8
:1059c400134045d02f4b1b8d9ab2fb1d1a70fb1d43
:1059d4001b781b2b0dd12c4b180002f097fe2b4b80
