:020000040000fa
:10000000f07f002025750000874e0000874e00001d
:1000100000000000000000000000000000000000e0
:10002000000000000000000000000000874e0000fb
:100030000000000000000000874e0000d17f00009b
:10004000874e0000874e0000874e0000874e00005c
:10005000874e0000874e0000874e0000874e00004c
:10006000874e0000c9550000874e0000874e0000f3
:10007000874e00000000000000000000874e0000d6
:1000800000000000874e0000874e0000874e0000f1
:10009000874e0000874e0000874e0000874e00000c
:1000a000874e0000874e0000874e0000874e0000fc
:1000b000874e0000d9660000874e0000f07f0020c8
:1000c00025750000874e0000874e000000000000ec
:1000d0000000000000000000000000000000000020
:1000e0000000000000000000874e0000000000003b
:1000f00000000000874e0000d17f0000874e000006
:10010000874e0000874e0000874e0000874e00009b
:10011000874e0000874e0000874e0000874e00008b
:10012000c9550000874e0000874e0000874e000032
:100130000000000000000000874e000000000000ea
:10014000874e0000874e0000874e0000874e00005b
:10015000874e0000874e0000874e0000874e00004b
:10016000874e0000874e0000874e0000874e00003b
:08017000d9660000874e000073
:020000040000fa
:10017800f8b5c046f8bc08bc9e467047d576000066
:10018800f8b5c046f8bc08bc9e467047ad7600007e
:020000040000fa
:10019800f0b516001f00446a9db00490259d069690
:1001a8000797002c08d1102008f002f8049b586229
:1001b800446084600460c460049b5b6a1968002919
:1001c8000bd05a68012393404a608b60049807f06b
:1001d800bbfc0022049b5b6a1a60079b002b1cda9d
:1001e80001232b607b005b080793079cba4b220016
:1001f80019931a409a421cd1b84b249a1360069a54
:10020800b74b002a03d1240301d100f08cfd269ab4
:10021800002a05d109330a9308e000232b60e4e79c
:100228001a0009320a920c33269a13600a981db0f4
:10023800f0bd069e079f002200233000390006f01b
:1002480007fd051e0ed00123249a1360a44b1a0043
:100258000d320a92269a002ae8d01a0026990e3200
:100268000a60e3e71aab01931bab009332003b0033
:10027800049805f05dff630005905b0d00d17fe0f9
:100288003a03984c120b14432100974a30001895f2
:100298009e180022954b01f0a7f8954a954b02f05d
:1002a800a7fb954a954b01f077fb040030000d0041
:1002b80006f0a0fe924a934b02f09afb02000b0054
:1002c8002000290001f068fb04000d0006f03cff47
:1002d8000022039000232000290006f0bffc00281c
:1002e8000ed0039806f086fe0b00020029002000bd
:1002f80006f0aefc030058425841039b1b1a0393b7
:1003080001231693039b162b0fd87f49db00c918ce
:1003180008684968069a079b06f0b4fc00284bd089
:10032800039b013b0393002316931a9b9e1b0023f8
:100338000b933300013b0c9304d501239b1b0b93b8
:1003480000230c93039b002b38db039a0c9b9446e9
:1003580063440c9300230f920893229b0125092bd9
:1003680000d991e0052b02dd0025043b2293229b56
:10037800981e032800d991e007f0fcfe82842976b4
:100388001a9b1b9a9e18614bf218202a0fdd203bfe
:100398000698f318d84040239b1a9c40204307f046
:1003a80003f801235a4c013e0919189371e72023d9
:1003b80006989b1a9840f2e71690b6e70b9b039aab
:1003c8009b1a0b935342089300230f93c5e701230d
:1003d8000e93239b002b65dd1f000d93049a546a2e
:1003e8000022626004221100143199425fd96168c9
:1003f800049806f071fe049b20605b6a1b680a93f0
:100408000e2f00d9fce0002d00d1f9e0069b079cd7
:1004180014931594039b002b00dc7de01a000f2138
:10042800394b0a40d2009b185c681b6810931194e2
:10043800039b02241d11eb060ad5364b0d401a6aa0
:100448005b6a1498159902f031f803240690079115
:10045800304e002d30d1109a119b0698079902f062
:1004680025f80690079171e00123239a0e9394468c
:10047800039b63445f1c0d933b1eafdc0123ade778
:100488000023a5e70023f0e700230e952293013b04
:100498000d931f000022122323929fe701230e933e
:1004a800023bf5e701230d931f001a00f4e761688a
:1004b80052000131616096e701231d4208d010986f
:1004c8001199e4183268736802f092fa1090119149
:1004d8006d100836bde7c0460000f07f0f2700000a
:1004e800488200000000f03f01fcffff0000f83fd9
:1004f80061436f63a787d23fb3c8608b288ac63f22
:10050800fb799f501344d33f985d000032040000ec
:10051800000010fee87d0000039b0224002b15d08c
:10052800149815995d420f23c94a2b40db00d31854
:100538001a685b6802f05cfa002306900791c54ec2
:100548002d11002d00d08be0002b8ad1169b002b9b
:1005580000d191e0069a079b109211931098119977
:100568000022bd4b06f07afb002800d184e0002f62
:1005780000d181e00d9b002b3edd10981199039b63
:1005880000225e1eb54b02f033fa069007910d9dce
:100598000134200006f02efd069a079b02f028fa87
:1005a8000022af4b01f0f8f912901391129b139ca3
:1005b800ac4a10931194139b9c181194002d5ed192
:1005c800069807990022a84b00f00eff109a230006
:1005d8000690079106f056fb002800d000e3a348d8
:1005e8001399844661440b0006980799109a06f0ff
:1005f80035fb002800d0e7e2149b159c069307946e
:100608001b9b002b00da56e1039a0e2a00dd52e10b
:100618008f4bd2009b185c681b6808930994239b36
:10062800002b00dbcee0002f00ddcbe000d0cee2d7
:100638000898099900228c4b02f0daf9069a079b70
:1006480006f02afb3e000897002800d0a3e20a9b88
:100658000a9a5d1c31231370039b013303939ee2b6
:100668000122154205d0a4183268736802f0c0f957
:1006780001236d10083664e7039e3d0089e70a9a56
:10068800691e521917920e9a714bc900002a4ad056
:100698005b181a685b680020754901f007ff109a1b
:1006a800119b00f0a1fe0a9b1090119112930698dd
:1006b800079906f049fd040006f09cfc02000b00b7
:1006c8000698079900f090fe129b30345d1c1c7050
:1006d800109a119b0690079106f0c0fa002865d180
:1006e800069a079b00205c4900f07efe109a119b39
:1006f80006f0b4fa002800d0bde0179b9d4200d157
:100708007ae7109811990022544b02f071f90022ef
:100718001090119106980799504b02f069f91295bb
:1007280006900791c3e7591808684968109a119b01
:1007380002f05ef9109011910a9c179d069807998e
:1007480006f002fd129006f055fc02000b00069818
:10075800079900f049fe129b0690079130332370e9
:10076800179b01340022a34224d1414b10981199c0
:1007780001f012f902000b000698079906f082fab8
:10078800002800d077e0109a119b0020384900f02b
:100798002bfe02000b000698079906f05ffa002866
:1007a80000d129e76b1e1a78302a01d003963fe062
:1007b8001d00f7e706980799284b02f019f90690eb
:1007c8000791bbe70a9e089a099b0698079901f0ca
:1007d8006dfe06f0b9fc040006f00cfc089a099bb3
:1007e80002f006f90b0002000698079900f0fcfddc
:1007f8002300303333700a9b751ceb1a9f424bd190
:1008080002000b0001f0c8f806000f0002000b0000
:100818000898099906f022fa00282bd10898099916
:1008280032003b0006f014fa002801d0e30721d477
:100838000599049807f088f900232b70039b249ae4
:1008480001331360269b002b00d1efe41d60ede41b
:10085800985d0000e87d00000000f03f00002440a3
:1008680000001c400000c0fc000014400000c07cd8
:100878000000e03f039e6b1e1a78392a06d10a9ab7
:100888009a4207d130231370130001361a780132c7
:100898001a708be71d00eee70022cf4b02f0a8f894
:1008a80000220023069007912e0006f0d1f90028b7
:1008b80000d188e7bce70e9a002a00d187e0229a87
:1008c800012a6edc189a002a67d0c44a9b18089d32
:1008d8000b9c0b9a0121d2180b920c9a0498d318ee
:1008e8000c9307f078fc0600002c0edd0c9b002b07
:1008f8000bdd0c9a2300944200dd13000b9ae41ad6
:10090800d21a0b920c9ad31a0c93089b002b1ed068
:100918000e9b002b5fd0002d11dd31002a000498ba
:1009280005f0a2fd059a01000600049804f018fae3
:1009380005991090049807f007f9109b0593089bf8
:100948005a1b04d00599049805f08efd05900121e5
:10095800049807f040fc0f9b0890002b3ddd1a001f
:100968000100049805f080fd229b08900025012bca
:100978003bdc0025069bab4233d1079b1b03ab42f4
:100988002fd1199b079a13422bd00b9b01250133ba
:100998000b930c9b01330c9323e036231a9a9b1a72
:1009a80095e7089b7d1eab4206db5d1b002f0bda2b
:1009b8000b9bdc1b00238ce7089b0895ea1a0f9b0e
:1009c80000259b180f93f1e70b9c3b0081e7089dde
:1009d8000b9c0e9e88e7089ab4e7229b0025012b02
:1009e800c7dd0f9b0120002b0bd0089b089a1b69c1
:1009f8000f9303339b00d318586807f071f820232e
:100a0800181a0c9bc0181f23184000d1abe02023f4
:100a18001b1a042b00dc9be01c23181a0b9b2418c0
:100a28001b180b930c9b1b180c930b9b002b05ddc1
:100a38001a000599049805f075fc05900c9b002b8d
:100a480005dd1a000899049805f06cfc0890169bbf
:100a5800002b00d189e00899059807f08ef8002846
:100a680000db82e0039b0a22013b039305990023e4
:100a7800049806f0d3f90e9b0590002b00d15be19a
:100a8800002331000a22049806f0c8f90d9b0600dd
:100a9800002b02dc229b022b6ddc002c05dd3100d3
:100aa8002200049805f03efc06003000002d11d00d
:100ab8007168049806f010fb3100040033690c31aa
:100ac8009a1c92000c3007f07dfb0122210004984b
:100ad80005f028fc0d9f0a9b013f0b93db1937009b
:100ae80006000f930899059804f064fb39000d90ef
:100af8000400059807f041f832000e900899049810
:100b080005f0e2f801230c93c36830340500002b8c
:100b180004d10100059807f030f80c9029000498da
:100b280007f012f80c9b229a134300d089e00123a6
:100b3800069a134200d084e0392c00d1a3e00e9b22
:100b4800002b01dd0d9c31340b9b5d1c1c7027e0d4
:100b5800042b00d169e70b9a1c33d2180b920c9a1c
:100b6800e418d31860e70300f5e7002f3cdc229b6c
:100b7800022b39dd0d970d9b002b0cd1089905220e
:100b8800049806f04bf908900100059806f0f5ff67
:100b9800002800dd5be5239b0a9ddb4303930027c8
:100ba8000899049806f0d0ff002e00d140e6002fe7
:100bb80005d0b74203d03900049806f0c5ff3100cc
:100bc800049806f0c1ff33e608952e00e3e70023fa
:100bd80008931e00dfe7c0460000244033040000ed
:100be800039608952e0032e50e9b0d97002b00d03a
:100bf80053e70a9d0899059804f0dcfa0a9b3030ff
:100c08000d9a287001350400eb1a9a4278dc151efb
:100c180000dc012500270a9b5d190599012204982b
:100c280005f080fb0899059006f0a7ff00282fdc47
:100c380001d1e3072cd46b1e1a78302ab0d11d00dd
:100c4800f9e70e9b002b07db1d00229b1d4326d1d5
:100c58000123069a134222d10c9b002b00dc73e778
:100c680005990122049805f05dfb0899059006f0a6
:100c780084ff002804dc00d066e7e30700d463e7bc
:100c8800392c00d05ee70b9b0b9a5d1c392313703f
:100c98006b1e1a78392a3bd001321a7080e70b9bf9
:100ca80001330d930c9b002b05dd392cebd00d9dea
:100cb80001340b9b4ae70b9b0f9a0d9d1c709342c6
:100cc800abd000230a220599049806f0a7f8002360
:100cd80005900a2239000498b74206d106f09ef81a
:100ce800070006000d9b0b93fce606f097f8310011
:100cf800070000230a22049806f090f80600f1e79e
:100d080000230a220599049806f088f8059071e7ef
:100d18000a9a9a4205d1039b013303933123137036
:100d28003ee71d00b4e7269a0a930833002a01d04b
:100d3800fff77afafff77afa0d9b002b00dd58e7e8
:0c0d4800229b022b00dc54e715e7c0469c
:020000040000fa
:100d5400f0b58bb00191019f061c7d006d0800d198
:100d640009e3ff22440003906408d205944206dca0
:100d7400fe239b05954207dd9c4200d1fbe2864899
:100d840007f0b2fa0bb0f0bd00210291002822da7c
:100d940082498d421ddc824b9d420ddd9623ea156e
:100da4009a1a2b001341190091408d4204d101225b
:100db40013400222d31a0293fe239b059d421ed1a7
:100dc400301c002fdedafe20311c800503f034fed7
:100dd400d8e7022102919542eed19c4200d1cae2a9
:100de40004dd0198002fcdda0020cbe7002ffbdad9
:100df400802212069446019b63441800c2e78023b4
:100e0400db059f4204d1311c301c03f029fdb9e7f6
:100e1400fc23301c9b059f4204d1002e02db05f00d
:100e240033f9afe707f07cfa002c05d0fe22b300bb
:100e34009b08920593421bd1002f04da011cfe206b
:100e4400800503f0f9fd039b002b9bda554be41856
:100e5400029b1c4304d1011c02f012fb011cb5e7e8
:100e6400029b012b00d08de780231b06c01889e765
:100e7400f30f013b0593059a029b134302d1311ce6
:100e8400301ce9e79a23db059d4200dc9ce0464bdd
:100e94009c4204dc002fa7da4449081cb5e7444b04
:100ea4009c4202dd002ff7dc9ee7fe21890502f05b
:100eb400e7fa4049041c03f0d3fc3f49051c201cfd
:100ec40003f0cefcfa21061c8905201c03f0c8fca3
:100ed400011c3a4802f0d4fa211c03f0c1fc011ca5
:100ee400fc20800502f0ccfa211c071c201c03f016
:100ef400b7fc011c381c03f0b3fc314903f0b0fc0f
:100f0400011c301c02f0bcfa011c061c281c02f057
:100f1400a5fd040b2403291c201c02f0b1fa011cba
:100f2400301c02f0adfa029b059a013b071c1343e7
:100f340000d054e1234e019b01981d0b2d03291c65
:100f440002f09efa211c03f08bfc01990290381cdc
:100f540003f086fc011c029802f080fd291c01901c
:100f6400201c03f07dfc02900390011c019802f008
:100f740075fd4700051c04907f08002800dc60e133
:100f84008623db059f4200dc2ce10849301c03f07a
:100f940067fc064939e7c046c5530000ffff7f4b95
:100fa400ffff7f3f000080c0f7ff7f3fcaf2497117
:100fb4000700803f00aab83f70a5ec36abaaaa3e52
:100fc4003baab83f000080bfec4b00229c4206dce9
:100fd4009721c90503f044fc182204005242fe255f
:100fe400e3157f3b9b1804936402e54b640aad054b
:100ff400254300269c4209dde24b01269c4205dd87
:10100400049b9b1900260493df4bed18b300069351
:10101400de4bb200d458281c211c099502f030fa8a
:10102400211c0790281c02f019fd011cfe208005dc
:1010340003f002fd011c0890079803f011fc0390d3
:10104400039b6d101f0b80239b051d438023db0234
:10105400ed1876053f03ae19311c381c03f000fc73
:10106400011c079802f00cfa211c051c301c02f02c
:1010740007fa011c099802f003fa391c03f0f0fb8b
:10108400011c281c02f0fcf9089903f0e9fb039900
:101094000790081c03f0e4fbbd49041c03f0e0fbcb
:1010a400bc4902f0dbfc211c03f0dafbba4902f074
:1010b400d5fc211c03f0d4fbb84902f0cffc211c61
:1010c40003f0cefbb64902f0c9fc211c03f0c8fbb7
:1010d400b44902f0c3fc211c051c201c03f0c0fb16
:1010e400011c281c03f0bcfb0399041c381c02f0ef
:1010f400b5fc079903f0b4fb211c02f0affc391cca
:10110400061c381c03f0acfba749089002f0a6fcaf
:10111400311c02f0a3fc040b2403211c381c03f033
:101124009ffba149051c201c02f0aaf9089902f0b2
:10113400a7f9011c301c02f0a3f9039903f090fbfa
:101144000799061c201c03f08bfb011c301c02f0c9
:1011540085fc061c011c281c02f080fc040b2403e3
:101164009249201c03f07cfb291c0390201c02f0f4
:1011740087f9011c301c02f083f98d4903f070fbe0
:101184008c49051c201c03f06bfb011c281c02f07d
:1011940065fc894b069ad15802f060fc051c049842
:1011a40005f086fc854b069a071cd658291c039823
:1011b40002f054fc311c02f051fc391c02f04efccc
:1011c400040b2403391c201c02f05af9311c02f0d0
:1011d40057f9039902f054f9011c281ca1e6fe26d4
:1011e400b605a8e69f4241d17549019802f036fc44
:1011f4000299041c281c02f043f9011c201c05f070
:10120400adfe002800d0c0e6802424042200fb1593
:101214007e3b1a415519eb15dbb2584a7f3b1a4104
:101224002900914317226d026d0ad31a2c431c41e5
:10123400049b002b00da6442029802f021f9039027
:1012440019e0604b9f4205dd5f49301c03f008fb49
:101254005d49dae59f4209d1029902f011f9011cb6
:10126400019805f071fe0028ced0ede7fc230024a0
:101274009b059f42c8dc0199039802f0effb050b24
:101284002d035249281c03f0ebfa03990290281c01
:1012940002f0f6f8011c019802f0f2f84c4903f050
:1012a400dffa4c49071c281c03f0dafa011c381c2d
:1012b40002f0d4fb071c011c029802f0cffb029938
:1012c400051c02f0ddf8011c381c02f0d9f8291cb9
:1012d4000190281c03f0c4fa3f49071c03f0c0fa2c
:1012e4003e4902f0cdf8391c03f0bafa3c4902f049
:1012f400b5fb391c03f0b4fa3a4902f0c1f8391cc1
:1013040003f0aefa384902f0a9fb391c03f0a8fa3d
:10131400011c281c02f0b4f8071c011c281c03f053
:101324009ffa80210290c905381c02f0a9f8011c1b
:10133400029803f081fb0199071c281c03f090fa22
:10134400019902f08bfb011c381c02f099f8291c4e
:1013540002f096f8011cfe20800502f091f8e305e6
:101364001b18da15002a04dc210004f08bff311c61
:101374004be5181cfbe7fe20800503e5ffff7f001b
:1013840071c41c00d6b35d00000080ffd48200004d
:1013940042f1533e55326c3e05a38b3eabaaaa3ea6
:1013a400b76ddb3e9a99193f000040400038763f04
:1013b4004f38763fa0c39d36e4820000dc820000f3
:1013c4003caa3833000016436042a20d0072313f3c
:1013d4001872313f8cbebf354cbb31330eeadd355c
:0c13e40055b38a38610b363babaa2a3e99
:020000040000fa
:1013f000f7b50d0009036c00ed0f0095490a450f84
:1014000029431d035e00c700d80f6b0a550f2b43fd
:10141000c14d640d760dd200ae4203d11d0084464d
:10142000154302d101254540ac46009da01bac45ab
:1014300000d036e1002861dd002e25d11d001543c6
:1014400000d196e2461e002e19d1ba18ba42a44124
:10145000c91864420919170001240b0200d4bee028
:10146000ad4b01349c4200d180e2ac487b08014086
:10147000012007401f43c80707434908afe0a64db6
:10148000a84209d1a44caae0a34dac4200d1a6e0e9
:10149000802506002d042b43382e2adc1f2e17dc56
:1014a00020201d00801b8540ac4615000190f540b2
:1014b000604605430198f3408240501e8241154327
:1014c000ed195b18bd428941494259182f00c4e704
:1014d00030001d002038c5400020202e03d04020c1
:1014e000861bb34018000243501e8241154300235f
:1014f000e6e71a4315006a1e9541f8e7002850d028
:10150000002c14d10c003c4300d128e2c443002c31
:1015100007d1bf189742a441c91864420919340081
:101520009be77d48864209d119001700aae77a4c4b
:10153000a642f9d04442802000040143382c2bdc21
:101540001f2c17dc2025281b01900800019de1407d
:10155000a840844638006546e0402843019daf40de
:101560007d1eaf413843871897429241c9185242b5
:101570008918d4e720000d002038c5402800002538
:10158000202c03d040252c1ba1400d002f437d1e95
:10159000af4138430021e6e70f433800471eb8410a
:1015a000f8e7661c75056d0d012d00dd69e008008a
:1015b0003843002c49d1002800d1d3e11800104352
:1015c0000dd0ba18ba42b641c9188023764289199b
:1015d0001b041700194202d00124504b19407b070d
:1015e00009d00f233b40042b05d03b1dbb42bf411c
:1015f0007f42c9191f000b0206d5474b01349c429c
:1016000000d1c3e1454b1940434b4807ff0838431d
:10161000c9089c4206d103000b4300d1b9e18023e5
:101620001b031943002709033b0d1b05090b194335
:101630003b4b6405194064080c43009b6400d907c8
:1016400064080c43210003b0f0bd002800d16be713
:101650001800104300d115e74807ff080743802012
:10166000c9080003014207d0dc08044204d1d208b3
:101670005b0713431f002100780fc9000143ff00df
:1016800000e7254ca64200d16fe1ba18c918ba424a
:101690009b415b42cb18df075208174359083400bf
:1016a0009de700285ddd002e3cd11d00154300d1d3
:1016b0005fe1461e002e0ed1ba1a9742bf41c91ae9
:1016c0007f42c91b012417000b0200d487e749029f
:1016d0004d0a3e00f9e0104da84200d1d2e6382e66
:1016e0003adc1f2e27dc20201d00801b8540ac46e5
:1016f00015000190f540604605430198f340824093
:10170000501e824115437d1bcb1aaf42894149428d
:10171000591a2f00d8e7c046ff070000ffff7fffe0
:10172000ffff0f809c4dac4200d158e780252d046f
:101730002b430600d3e730001d002038c5400020b1
:10174000202e03d04020861bb34018000243501eb9
:10175000824115430023d6e71a4315006a1e9541be
:10176000f8e700284dd0002c17d10c003c4300d1e5
:1017700001e1c443002c09d1d71bba429241591a46
:1017800063465242891a340000939de7824886429c
:101790000ad119001700804c45e07f4ca642f8d0d2
:1017a0004442802000040143382c25dc1f2c11dc2e
:1017b0002025281b00900800009de140a84005005e
:1017c0003800e0402843009daf407d1eaf413843c4
:1017d000171ad2e720000d002038c5402800002548
:1017e000202c03d040252c1ba1400d002f437d1e33
:1017f000af4138430021ebe70f433800471eb841a3
:10180000f8e7601c4005400d01284cdc18000d0075
:1018100010433d43002c24d1002d07d1071e00d1d9
:10182000ade01900170063460093d8e6002800d108
:10183000d5e6bd1aaf42b641c81a7642801b802653
:101840003604304206d0d71bba429241591a52424e
:10185000891ae8e72f00074300d190e001002f002c
:10186000bde6002d07d1071e00d18be019006346ad
:101870001700009306e6002800d103e64807ff089a
:1018800007438020c9080003014200d1f4e6dc08c8
:10189000044200d0f0e6d2085b0713431f00634602
:1018a00021000093e8e6be1ab7428041cd1a4042bb
:1018b0002d1a8020000405422dd0d61bb242ad4126
:1018c000591a63466d424d1b0093002d29d0280004
:1018d00006f064f80300083b1f2b27dc20223100b0
:1018e0009e40d21a9d40d14037000d439c4232dccd
:1018f0001c1b661c1f2e1edc20233a0029009b1b8c
:101900009940f2409f400a43791e8f412900f140df
:101910001743002463e637002f43d6d139003c003b
:101920002ee0300006f03af82030d3e735002838b2
:1019300085400027dae72a001f3ce2400023202ee2
:1019400003d040239e1b2b00b3401f437b1e9f41af
:1019500000211743dde71149e41a29403fe6190049
:1019600017009ce61900170039e60b4c00210f0008
:1019700035e6040033e619001700340053e7390058
:1019800000972ce68021044cc903f9e700210f00e1
:101990003ae6190046e6c046ff070000ffff7fff5a
:1019a000f7b50d0009036c00ed0f0095490a450fce
:1019b0005e0029431d03db0f9c466b0a550f2b432a
:1019c000009d640d760dc700d200a01b654500d0b8
:1019d00036e1002861dd002e25d11d00154300d120
:1019e00097e2461e002e19d1ba18ba42a441c9186e
:1019f00064420919170001240b0200d4bee0bd4b5c
:101a000001349c4200d181e2bb487b0801400120a7
:101a100007401f43c80707434908afe0b54da84238
:101a200009d1b44caae0b34dac4200d1a6e0802568
:101a300006002d042b43382e2adc1f2e17dc202015
:101a40001d00801b8540ac4615000190f5406046a6
:101a500005430198f3408240501e82411543ed1921
:101a60005b18bd428941494259182f00c4e7300034
:101a70001d002038c5400020202e03d04020861baa
:101a8000b34018000243501e824115430023e6e78d
:101a90001a4315006a1e9541f8e7002850d0002c23
:101aa00014d10c003c4300d129e2c443002c07d1df
:101ab000bf189742a441c9186442091934009be732
:101ac0008c48864209d119001700aae7894ca64222
:101ad000f9d04442802000040143382c2bdc1f2c19
:101ae00017dc2025281b01900800019de140a8403b
:101af000844638006546e0402843019daf407d1e86
:101b0000af413843871897429241c9185242891809
:101b1000d4e720000d002038c54028000025202ce7
:101b200003d040252c1ba1400d002f437d1eaf414b
:101b300038430021e6e70f433800471eb841f8e775
:101b4000661c75056d0d012d00dd69e00800384348
:101b5000002c49d1002800d1d4e1180010430dd049
:101b6000ba18ba42b641c9188023764289191b04b3
:101b70001700194202d001245f4b19407b0709d09e
:101b80000f233b40042b05d03b1dbb42bf417f428e
:101b9000c9191f000b0206d5564b01349c4200d1d7
:101ba000c4e1554b1940534b4807ff083843c90857
:101bb0009c4206d103000b4300d1bae180231b03f2
:101bc0001943002709033b0d1b05090b19434b4b18
:101bd0006405194064080c43009b6400d90764083d
:101be0000c43210003b0f0bd002800d16be71800c2
:101bf000404c1043c2d04807ff0807438020c90863
:101c00000003014207d0dc08044204d1d2085b077c
:101c100013431f002100780fc9000143ff0000e7b4
:101c2000344ca64200d170e1ba18c918ba429b419f
:101c30005b42cb18df0752081743590834009de771
:101c400000285ddd002e35d11d00154300d160e177
:101c5000461e002e0ed1ba1a9742bf41c91a7f42c2
:101c6000c91b012417000b0200d487e749024d0a63
:101c70003e00fae01f4da84200d1d2e6382e33dcf8
:101c80001f2e20dc20201d00801b8540ac46150047
:101c90000190f540604605430198f3408240501e94
:101ca000824115437d1bcb1aaf4289414942591ae3
:101cb0002f00d8e70f4dac4200d15fe780252d04ff
:101cc0002b430600dae730001d002038c540002015
:101cd000202e03d04020861bb34018000243501e24
:101ce000824115430023dde71a4315006a1e954122
:101cf000f8e7c046ff070000ffff7fffffff0f80f0
:101d000000284dd0002c17d10c003c4300d102e13b
:101d1000c443002c09d1d71bba429241591a6346d9
:101d20005242891a340000939de7834886420ad1c3
:101d300019001700804c45e07f4ca642f8d0444281
:101d4000802000040143382c25dc1f2c11dc2025c9
:101d5000281b00900800009de140a84005003800c5
:101d6000e0402843009daf407d1eaf413843171a25
:101d7000d2e720000d002038c54028000025202c87
:101d800003d040252c1ba1400d002f437d1eaf41e9
:101d900038430021ebe70f433800471eb841f8e70e
:101da000601c4005400d01284ddc18000d0010435b
:101db0003d43002c24d1002d07d1071e00d1aee0f9
:101dc0001900170063460093d8e6002800d1d5e635
:101dd000bd1aaf42b641c81a7642801b802636042f
:101de000304206d0d71bba429241591a5242891a40
:101df000e8e72f00074300d191e001002f00bde686
:101e0000002d07d1071e00d18ce019006346170092
:101e1000009306e6484c002800d1afe64807ff08cb
:101e200007438020c9080003014200d1f3e6dc0823
:101e3000044200d0efe6d2085b0713431f0063465d
:101e400021000093e7e6be1ab7428041cd1a404216
:101e50002d1a8020000405422dd0d61bb242ad4180
:101e6000591a63466d424d1b0093002d29d028005e
:101e700005f094fd0300083b1f2b27dc20223100d6
:101e80009e40d21a9d40d14037000d439c4232dc27
:101e90001c1b661c1f2e1edc20233a0029009b1be6
:101ea0009940f2409f400a43791e8f412900f1403a
:101eb0001743002462e637002f43d6d139003c0097
:101ec0002ee0300005f06afd2030d3e735002838d9
:101ed00085400027dae72a001f3ce2400023202e3d
:101ee00003d040239e1b2b00b3401f437b1e9f410a
:101ef00000211743dde71149e41a29403ee61900a5
:101f000017009be61900170038e60b4c00210f0064
:101f100034e6040032e619001700340052e73900b5
:101f200000972be68021044cc903f9e700210f003c
:101f300039e6190045e6c046ff070000ffff7fffb6
:020000040000fa
:101f4000f0b597b00c00089209931c9d079006f01d
:101f5000dff8036818000e9306f07ef9237e2668ea
:101f60000b930f902b680722f1054bd59b189343d9
:101f70001a0008322a601a685b68a264e3640122ce
:101f8000e76ca36c7d000a936d080c935242c04b22
:101f90000a98290005f0c2fd002800d070e2012255
:101fa000bb4b52420a98290004f066fe002800d07c
:101fb00066e2002200230c98390004f053fe00284a
:101fc00003d023002d2243331a70b24b1a1d0a92fc
:101fd0000b9a472a00d80a9303230027236104237e
:101fe0003d009e432660099b14aa00932100089b94
:101ff000079803f099fd431c00d007e101204042ff
:1020000017b0f0bd0733b2e763685a1c00d0ace0ec
:102010000623636080230022db003343236065686e
:102020001092974205da802109067b181f002d23a4
:10203000109320230b9a9a430d920d9b0322462b5b
:1020400004d0453b5842584102222d1814ab04934a
:1020500013ab039312ab029300923b0001950c9ad1
:102060000798fef799f80d9b0a90472b02d1f307ca
:1020700000d418e20a9b5e190d9b462b10d10a9bd7
:102080001b78302b0ad1002200230c98390004f071
:10209000e3fd002802d101235d1b1295129bf61867
:1020a000002200230c98390004f0d6fd30220028cd
:1020b00069d01496149b0a9a9f1a0d9b472b0ad13c
:1020c000129bda1c03db6268934200dc8ce00b9b02
:1020d000023bdbb20b930b9b129a652b68d86946c7
:1020e0002c202300091809785033551e0d931970c0
:1020f00002330c931295013b002d48da0125ad1aed
:102100002d221a70092d4bdd27260cabf618731ef5
:1021100028000a21119304f0adf8731e30311970b4
:1021200028000a2104f05cf80500092831dc272189
:10213000023e30350caa0c9b357089181a008e426d
:1021400029d30d9bd51aeb192361012f02dc2268dc
:10215000d20701d501332361109b002b00d142e748
:1021600023002d2243331a703de720220b9991431f
:10217000472900d04ee7002b00d04be7012348e76a
:10218000591c14911a70149b9e42f9d892e72b2285
:10219000b7e7119ebbe7327801361a700133cde7fd
:1021a00030230c9a30351370130002325d70c8e78b
:1021b0000b9b662b1ad16368002a0cdd2261002b71
:1021c00002d12168c90702d501339b182361129bf4
:1021d0000025a365c0e7002b03d10122216811422d
:1021e00000d09a1c2261f2e767230b93129bbb423b
:1021f00005db22682361d207e9d50133e6e7012236
:10220000002b01dc0222d21ad219ebe72268530517
:1022100008d423690a9a08990798099da847431c7e
:1022200029d1ebe60b9b652b00d8d7e0a06ce16cc5
:102230000022002304f010fd002839d0154a0123a4
:10224000103208990798099da847431c00d1d5e68c
:10225000129bbb4202db2368db070cd5099d0f9b59
:102260000e9a08990798a8470025431c00d1c5e697
:102270007b1e9d4210db236800259b0700d5f9e0fb
:10228000149be068984200dbbae61800b8e6c04646
:10229000ffffef7f14780000220001231a32089913
:1022a0000798099eb047431c00d1a7e60135dfe738
:1022b000129b002b2ddc7e4a0123103208990798cf
:1022c000099da847431c00d198e6129b002b04d11e
:1022d000002f02d12368db07cdd5099d0f9b0e9af5
:1022e00008990798a8470025431c00d186e6129b51
:1022f0005b429d4201db3b008ce7220001231a3246
:1023000008990798099eb047431c00d176e601352d
:10231000ede7a56dbd4200dd3d00002d34dc00235e
:102320000b93eb43db170c930c9ba66d0b9a2b4086
:10233000f31a9a4231db129bbb423cdb2368db077a
:1023400039d4129abb1bbd1a9d4200dd1d00002d21
:102350003adc00230a93eb43db170b93129b0b9a97
:10236000fb1a2a409b1a0a9a9a4284da2200012315
:102370001a3208990798099eb047431c00d13de6e0
:102380000a9b01330a93e9e72b000a9a08990798f8
:10239000099eb047431cc2d130e6220001231a3205
:1023a00008990798099eb047431c00d126e60b9b6d
:1023b00001330b93b8e70f9b0e9a08990798099d74
:1023c000a847431cbdd119e60a9b08999a1907989a
:1023d0002b00099eb047431cbbd10fe6012f02dc46
:1023e00001231a4239d001230a9a08990798099eb5
:1023f000b047431c00d101e60f9b0e9a089907983d
:10240000099eb047431c00d1f8e5a06ce16c0023a5
:10241000002204f021fc0023002815d10a9a7b1e1b
:10242000013208990798099eb047431c11d1e5e590
:10243000220001231a3208990798099eb047431ccd
:1024400000d1dbe50a9b01330a930a9a7b1e9a426c
:10245000eedb22002b005032dde60a9ae1e7220093
:102460000123193208990798099eb047431c00d1ef
:10247000c4e50135e368149a9b1a9d42efdbffe641
:102480000c9a3b000c98390005f048fb002800d15d
:10249000bae5074b1a000c320a920b9a472a00d968
:1024a0009ae5083397e5149b0a9a9f1a08e6c046f6
:0424b000147800009c
:020000040000fa
:1024b400f0b58bb0060004930400cb0f0d03480065
:1024c40000922d0b400d0393029346d0584b984233
:1024d40067d08023720f1b04ed0013432b431f00ae
:1024e400544bf400c31800260193049b009a1d0367
:1024f4005800db0f2d0b400d069361d04c4b9842d6
:1025040000d181e08023520f1b041343ed001d43cf
:10251400484a009b8218db009446002206980399df
:102524004140604604910199091ab00010430138f2
:1025340005910e2800d981e005f028fe75004902b6
:10254400ed0149023d024902ed01750075003d02ad
:10255400ed01fc01fc01fc01e2012f00374327d00f
:10256400002d13d0280005f017fa01000b391c299f
:1025740011dc02001d2337003400083a5b1a954031
:10258400df4094402f432c4b1b1aace7300005f07e
:1025940003fa2030e9e70300283b9e40002437007b
:1025a400f1e72e43371e07d02f00019003269ce746
:1025b4003c000197012698e734000190022694e735
:1025c400009b2b4327d0002d13d0280005f0e4f9fd
:1025d40001000b391c2911dc1d2302005b1a009930
:1025e400083ad940009b954093400d43124a121a71
:1025f40092e7100005f0d0f92030e9e70300009dd0
:10260400283b9d400023f1e7009b2b4307d0130098
:102614008446032282e71d009c4601227ee71d00ba
:10262400844602227ae700252c00014b4ee1c04685
:10263400ff07000001fcffff0dfcffffaf4204d8c1
:1026440000d057e19c4200d254e1f90762081143db
:10265400e0070c0001907f082d021a0e2a431b028a
:102664000293130c03936b4600921b880399380062
:10267400079304f053f90600079b0690039938006a
:102684005e4304f087f9250c09040d43069fae420e
:1026940009d9009b013fed18ab4204d8ae4202d9e0
:1026a400069fed18023fab1b03991800069304f034
:1026b40035f9079e050046430399069804f06af924
:1026c400a4b209040c432a00a64208d9009b013a8b
:1026d400e418a34203d8a64201d9aa1ee4183b0475
:1026e40002991343029a0904120c090c08920691e8
:1026f400089d06989ab2a61b1c0c514360436a437a
:102704006c4312180d0caa18904202d98020400282
:102714002418100c09041204090c04195218a642b6
:1027240005d31f00a64227d10199914224d20298d1
:10273400019984466144019181428941009849424a
:10274400091876185f1eb04204d315d1614601986a
:10275400814211d8b44203d80ed101998a420bd9cf
:1027640002999f1e8c46019b634401938b429b41bb
:1027740000995b425b18f618019b341b9b1a099362
:10278400099a019b93429b415b42e41a009ba3423a
:1027940000d1d2e00399200004f0c0f8079d0600a0
:1027a40045430399200004f0f5f8099b09041c0c27
:1027b4000c430196a5420cd93300013b0193009bc5
:1027c400e418a34205d8a54203d9b31e0193009b84
:1027d400e418641b0399200004f0a0f8079d060088
:1027e40045430399200004f0d5f86b460a04998cfc
:1027f400330011438d4208d9009a013b89188a425b
:1028040003d88d4201d9b31e8918019a089c120479
:102814001a43100c93b24d1b16000699069a4143b5
:102824005a43634360435b18140ce318994202d97a
:10283400802149024018190c12041b04120c0818b8
:102844009b18854204d3340085421bd1002b1bd036
:10285400009a741e5519aa420fd8a84203d811d160
:10286400029a9a420bd2029ab41e510091429241aa
:10287400009e52429219ad180291854202d1029ae9
:10288400934201d001231c43059b564a9b18002bfd
:1028940056dd620709d00f222240042a05d0221dea
:1028a400a242a44164423f191400fa0106d58022d1
:1028b400d20094464c4b1f40059b63444b4a9342c1
:1028c40000dd88e0e40879070c43fd0800212d03ae
:1028d4000a0d12052d0b1543454a5b0515405b088f
:1028e4002b43049a5b00d2075b08134320001900b2
:1028f4000bb0f0bd059a013a059200220192abe6b5
:102904008022120317425ad0154258d12f001c00be
:10291400069b029353e02f0016001c00069b0493b1
:10292400022e58d0032e50d0012eadd10024250004
:102934002300cbe7039b0493f2e701246442a3e75b
:102944000122d21a382af1dc1f2a21dc202320009c
:102954009b1a39009c403d009940d040631e9c4125
:10296400d54001430c43630709d00f232340042bb4
:1029740005d0231da342a44164422d191c008023c9
:102984001b042b402ad16907e4080c43ed089de79a
:102994001f214942cb1a3900d9400b000021202abb
:1029a40003d040218a1a390091400c43611e8c41a6
:1029b40000251c43d7e7802700243f030294802589
:1029c400029b2d033d4304932fe6049ba1e70025be
:1029d4002c002b007ae70024250026e6002501239d
:1029e4002c0073e7ff030000fffffffefe0700005b
:1029f400ffff0f80f0b58bb001920593ca0f0c0353
:102a04004b000600240b5b0d0492039245d0c64a8a
:102a1400934265d08022410f12040a43e400144318
:102a2400c24ac5009b1800270293059b019a1e0306
:102a34005800db0f360b400d059360d0ba4b98421b
:102a440000d180e08023520f1b041343f6001e4381
:102a5400b64a019b8218db0094460022059804992b
:102a6400414001910299b800614410430791013833
:102a7400013106910e2879d805f088fb74007400a2
:102a84007b0171017101bc017b017101bc01710108
:102a94007b016f016f016f0164012500054326d09e
:102aa400002c13d0200004f077ff01000b391c29ff
:102ab40010dc1d2302005b1a31003500083a9440f3
:102ac400d94095400c439a4b1b1aace704f064ffc1
:102ad4002030eae703003400283b9c400025f2e75d
:102ae4000500254307d00500029303279de72c002a
:102af4000295012799e72c000293022795e7019b91
:102b0400334327d0002e13d0300004f045ff0100da
:102b14000b391c2911dc1d2302005b1a0199083aa8
:102b2400d940019b964093400e43814a121a93e781
:102b3400100004f031ff2030e9e70300019e283b38
:102b44009e400023f1e7019b334307d013008446e2
:102b5400032283e71e009c4601227fe71e00844671
:102b640002227be734001d001700f8e0190c9bb229
:102b7400029119002a0c514318008c46029f0299b5
:102b8400adb2684351436f4304916744010cc919c2
:102b940003908c4506d9049f380080277f02bc46e9
:102ba40060440490684680890f0c0904091809914f
:102bb400310cb6b2039130003100bc46039f694327
:102bc40050437d437a432d180f0c7d19a84202d936
:102bd400802040021218280c82182d0489b2059214
:102be4006a1808921800089962468c46029f210cc4
:102bf400a4b260434b43674362449446029dff186a
:102c0400020cd2194d43934202d980235b02ed1882
:102c14003700130c5b190293039b67434e435c43d9
:102c24005943a4193b0c120480b21c191018a64273
:102c340002d980235b02c918049b220463441e004a
:102c4400089bbfb29e42ad418619d2198642bf414c
:102c54000298059b84466d42d218ab189c4403939a
:102c6400059b60469a429241039b5242ab429b4170
:102c74005b427f421a43029b3818240c1219b84253
:102c8400bf419c45a4417f4264423c4314196418eb
:102c9400c30d64021c43099b75021d43691e8d41cb
:102ca400f60d354340020543e30167d501226b0865
:102cb40015401d43e307d4401d43069b1d4a9b1842
:102cc400002b5edd6a0709d00f222a40042a05d0b2
:102cd4002a1daa42ad416d4264191500e20106d5d0
:102ce4008022d2009446144b1c40069b6344134a32
:102cf400934200dd8be06207ed081543e4080021f0
:102d040024030a0d1205240b14430d4a5b051440d9
:102d14005b082343019a5b00d2075b081343280036
:102d240019000bb0f0bdc046ff07000001fcffff17
:102d34000dfcffffff030000fffffffefe07000086
:102d4400ffff0f8080221203144257d0164255d140
:102d540034001d00059b039350e0049b0193022f54
:102d640055d0032f51d0012fa7d100252c002b00c3
:102d7400c5e71d00059b34000193f5e6079b069308
:102d84009be70122d21a382aefdc1f2a20dc2023f9
:102d940021009b1a28009d409940d0406b1e9d4104
:102da400d44001430d436b0709d00f232b40042b60
:102db40005d02b1dab42ad416d4264191d0080232b
:102dc4001b04234000d196e700240123250096e745
:102dd4001f214942cb1a2100d9400023202a03d0c5
:102de40040239a1a230093401d436b1e9d410024e7
:102df4000d43d8e7802400252403039580231b0377
:102e04001c43039b0193034b79e7019ba3e7002534
:082e14002c00f8e7ff070000a5
:020000040000fa
:102e1c00e81800201c000000000000002019002011
:102e2c0014000000000000006c19002001000000dc
:102e3c00000000006d1900200100000000000000df
:102e4c00dc17002080000000000000006e1900203c
:102e5c0001000000000000006f19002001000000bc
:102e6c0000000000041900201c00000001000000fc
:102e7c00000040400000404000d08445e1c1643a6d
:102e8c00d60f5a39de8e60333393884348190020ad
:102e9c001000000000000000dc1600200001000003
:102eac000000000058190020040000000000000081
:102ebc00bc1800202c00000001000000000020c203
:102ecc000000f042000080bf0000803f0000204066
:102edc000000803fcdcc4c3e3333b3be8fc2f5bc2b
:102eec008fc2f53c3333b33e04000020000c0000cd
:102efc0000000000040c00206c0900000000000021
:102f0c00341900201400000000000000701900208b
:102f1c000100000001000000010000005c1900200d
:102f2c0004000000010000005c1800205c18002068
:102f3c006000000001000000000000001080000094
:102f4c0030800000f07f0000000000000000000056
:102f5c000000000000000000000000000000000065
:102f6c000000000000000000000000000000000055
:102f7c000000000000000000000000000000000045
:102f8c000000000000000000000000000000000035
:102f9c000000000000000000701500206c01000013
:102fac0001000000430000000000000000000000d1
:102fbc000000000000000000000000000000000005
:102fcc0000000000430000000000000000000000b2
:102fdc0000000000000000000000000000000000e5
:102fec000000000043000000000000000000000092
:102ffc0000000000000000000000000000000000c5
:10300c000000000043000000000000000000000071
:10301c0000000000000000000000000000000000a4
:10302c000000000043000000000000000000000051
:10303c000000000000000000000000000000000084
:10304c000000000043000000000000000000000031
:10305c000000000000000000000000000000000064
:10306c000000000043000000000000000000000011
:10307c000000000000000000000000000000000044
:10308c0000000000f9800000f97e00000000000044
:10309c00c4520000b9820000b8820000b88200005f
:1030ac00b8820000b8820000b8820000b88200002c
:1030bc00b8820000b8820000b8820000ffffffff5a
:1030cc00ffffffffffffffffffff00000100415369
:1030dc00434949000000000000000000000000000f
:1030ec000000000000000000000000000000415340
:1030fc0043494900000000000000000000000000ef
:10310c0000000000000000000000000000000000b3
:10311c006019002004000000000000006419002069
:10312c00040000000000000000000020040000006b
:10313c0000000000681900200400000000000000de
:10314c000000000000000000222222222222222263
:020000040000fa
:10315c000d0a0a0a0a0a0a0a0a0a0a0a0a0a0a0ac0
:10316c000a0a0a0a0000c04650656e6e205374614c
:10317c0074652042656872656e6420456d62656495
:10318c00646564204f43584f0d00c04653706f6efa
:10319c00736f726564206279204b796f636572611d
:1031ac00204156580d0a0d004573636170652072fd
:1031bc0065717565737465642c20706c65617365dd
:1031cc002074727920616761696e210d0000c04620
:1031dc004572726f723a205258206275666665723b
:1031ec00206f766572666c6f77210d00216300008d
:1031fc0021730000496e76616c6964206e756d6296
:10320c0065722072656365697665643a2025730d75
:10321c000a00c0462165000021680000456e7465f7
:10322c0072696e6720566572626f7365204d6f64ac
:10323c00652e2e2e0d00c046566572626f7365208a
:10324c004d6f646520686173206265656e20656ee4
:10325c007465726564210d005265636569766564f9
:10326c00206e657720736574706f696e742e2e2ec8
:10327c000d00c046456e64696e6720566572626fbc
:10328c007365204d6f64652e2e2e0d00566572628f
:10329c006f7365204d6f646520686173206265658e
:1032ac006e20656e646564210d00c0460d0a0a002f
:1032bc002a2a2a2a2a2a2a2a2a2a2a2a2a2a2a2a62
:1032cc002a2a2a2a2a2a2a2a2a2a2a2a2a2a2a2a52
:1032dc002a2a2a2a2a2a2a2a2a2a2a2a2a2a2a2a42
:1032ec002a2a2a2a2a2a2a2a2a2a2a2a2a2a2a2a32
:1032fc002a2a2a2a2a2a2a2a2a2a2a2a2a2a2a2a22
:10330c002a2a2a2a2a2a2a2a2a2a2a2a0d00c046a6
:10331c0020202020202020202020202020202020a1
:10332c002020202020202020202020202020202091
:10333c0020202020202020434f4d4d414e4453202f
:10334c004d454e550d00c0462a2a2a2a2a2a2a2ad9
:10335c002a2a2a2a2a2a2a2a2a2a2a2a2a2a2a2ac1
:10336c002a2a2a2a2a2a2a2a2a2a2a2a2a2a2a2ab1
:10337c002a2a2a2a2a2a2a2a2a2a2a2a2a2a2a2aa1
:10338c002a2a2a2a2a2a2a2a2a2a2a2a2a2a2a2a91
:10339c002a2a2a2a2a2a2a2a2a2a2a2a2a2a2a2a81
:1033ac002a2a2a2a0d0a0000436f6d6d616e642073
:1033bc0020416374696f6e0d0000c04620202163ac
:1033cc002020202020426567696e206f7220656e78
:1033dc006420766572626f7365206d6f6465200d75
:1033ec000000c04620202173202020202053656e31
:1033fc00642061206e657720736574706f696e74dc
:10340c0020647572696e6720766572626f736520d1
:10341c006d6f64650d00c0462020216520202020a2
:10342c0020456e6420766572626f7365206d6f64e3
:10343c00650d000020202168202020202053686f7b
:10344c007720636f6d6d616e6473206d656e752092
:10345c000d00c046496e76616c696420636f6d6dba
:10346c00616e642c20706c656173652074727920b8
:08347c00616761696e210d001a
:020000040000fa
:10348400f7b543024a025b0a520a4e004400019314
:1034940000939446240ec50fdb00360ec90fd200ec
:1034a400ff2e01d1002a01d101204140a01ba942d5
:1034b40000d0a1e000282edd002e18d1002a00d172
:1034c4004ae1411e00290ed101249b185a015bd503
:1034d4000134ff2c00d13de10122a4491a405b08cc
:1034e4000b40134350e0ff2807d1ff244ce0ff2c8e
:1034f4004ad08021c9040a4301001b2901dd0122ad
:1035040007e010002026c840711a8a40511e8a41e3
:1035140002439b18dae7002821d0002c0cd1002ba1
:1035240007d0c043002802d19b183400cee7ff2ef9
:1035340008d11300340027e0ff2efad08021c904fb
:1035440040420b431b2801dd0123ede71900202431
:10355400c140201a8340581e83410b43e4e7611c99
:10356400ff260f003740012f3fdc002c2bd1002b0e
:1035740000d1eae0002a07d09b188022d20413422b
:1035840002d001247a4a13405a0704d00f221a4069
:10359400042a00d004335a0105d50134ff2c00d18c
:1035a400e1e0734a1340db08ff2c04d1002b02d066
:1035b4008022d20313435b02e4b2e405580aed0708
:1035c40020432843febd002b00d1c0e03400002a74
:1035d400dad08023019adb031a4203d062461a42ee
:1035e40000d10092009bdb007fe7ff2900d1b0e00f
:1035f4009b185b080c00c7e7002826dd002e13d1ba
:10360400002a00d1a8e0411e002906d101249b1afa
:103614005a01b9d59b019e097ae0ff2800d164e7dd
:103624001b2908dd01220ee0ff2cadd08021c90446
:103634000a430100f4e710002026c840711a8a40aa
:10364400511e8a4102439b1ae2e7002822d0002c33
:103654000dd1002b08d0c043002803d1d31a340065
:103664000d00d5e7ff2e08d11300340020e0ff2e13
:10367400fad08024e404404223431b2801dd0123c3
:10368400ece71c002025c440281a8340581e8341bf
:103694002343e3e7ff20661c0640012e31dc002ca7
:1036a40017d1002b06d11d00002a00d16ce71300ae
:1036b4000d0069e7002a00d166e78026981af6040f
:1036c400304201d0d31af3e7031e00d05ce71d009b
:1036d4005ae7002b04d1002a40d013000d0004e760
:1036e4000400002a00d14fe78023019adb031a4229
:1036f40000d177e762461a4200d073e700920d00ca
:1037040070e780209e1ac004064215d00d00d61a18
:10371400300004f041f9330005388340844210dc62
:10372400041b1a0020200134e240041ba3405e1e47
:10373400b3410024134327e7002ee9d133003400ba
:10374400c5e7241a0a4803401ee713001ce71300c8
:10375400cbe60c00002317e7040015e780230400e0
:103764009b04150010e700231de7c046ffffff7d03
:04377400fffffffb59
:020000040000fa
:10377800f0b58fb0051c0c1cfdf7e8fa0023af4f1d
:10378800061cfb560193013365d0211c201c04f054
:1037980013fb029000285ed1291c281c04f00cfba6
:1037a80000210390002821d0201c03f0bbfb002837
:1037b80051d001230493a24b281c0593029b0c9320
:1037c80002f03aff06900791201c02f035ff002214
:1037d8009c4b089009910a920b93019b022b35d0c0
:1037e80004a804f0a3fd002827d161e0281c03f0f9
:1037f80099fb002861d00021201c03f093fb029064
:1038080000282bd0012304938d4b281c0593039b80
:103818000c9302f011ff06900791201c02f00cff98
:10382800002300220a920b93019b08900991002b18
:10383800d6d00022834b0a920b930c9b0193002b4a
:1038480004d004f019fd0c9b019303600a980b99ae
:1038580001f036fe061c301c0fb0f0bd201c04f031
:103868007ffc0028f7d00021201c03f061fb002812
:10387800f1d001230493724b281c0593029b0c93ef
:1038880002f0dafe06900791201c02f0d5fe002314
:10389800fb5608900991002b04d1002200230a92bc
:1038a8000b939de7002068490a900b91022b97d152
:1038b80004f0e2fc21230360bfe7301c04f050fc55
:1038c8000190002800d08be0281c04f049fc002857
:1038d80000d185e0201c04f043fc002800d17fe0e3
:1038e800311c301c04f068fa0026554bbe570028de
:1038f8001bd001220593019b281c04920c9302f013
:103908009bfe06900791201c02f096fe002208906c
:1039180009910023002ec2d010001900fef7c6fd41
:103928000a900b91022ec3d05ae703220c90281c50
:103938000492059302f080fe06900791201c02f085
:103948007bfe08900991002e2ad1e0223f4b1206f7
:103958000021281c0a920b9303f0eafa002865d08c
:10396800fc21201c890500f079ff02f065fe0400a7
:103978000d0001f097fb02000b002000290003f066
:1039880067f9002804d1e022314b12060a920b9302
:103998000023fb56022b49d104f06efc22238ae750
:1039a80000222c4b0021281c0a920b9303f0c0fa2a
:1039b8000028edd0fc21201c890500f04fff02f003
:1039c8003bfe04000d0001f06dfb02000b0020001f
:1039d800290003f03df90028dad100221a4bd5e777
:1039e8000021301c03f09efa002800d133e7281c80
:1039f80004f0b6fb002800d12de7201c04f0b0fb32
:103a0800002800d127e7042304930d4b281c0593b5
:103a180000230c9302f010fe06900791201c02f080
:103a28000bfe0022089009910023afe704a804f0d8
:103a38007dfc002800d000e7aee7c04670190020e2
:103a48002f8300000000f03f0000f0ffffffef476a
:083a5800ffffefc70000f07f43
:020000040000fa
:103a6000f7b54602730a802644004a024f00520a04
:103a7000240e3f0ef6040093c50f0192db00c90f20
:103a8000d200e01bb4468d4200d0a0e000282edd1d
:103a9000002f18d1002a00d146e1411e00290ed185
:103aa00001249b185a015ad50134ff2c00d139e169
:103ab0000122a2491a405b080b4013434fe0ff2844
:103ac00007d1ff244be0ff2c49d0310011430a00fd
:103ad00001001b2901dd012207e010002026c8405b
:103ae000711a8a40511e8a4102439b18dae7002866
:103af00021d0002c0cd1002b07d0c043002802d1cc
:103b00009b183c00cee7ff2f08d113003c0026e0b5
:103b1000ff2ffad0310019430b0040421b2801dd72
:103b20000123ede719002024c140201a8340581ecc
:103b300083410b43e4e7611cff270e003e40012e4a
:103b40003edc002c2ad1002b00d1e6e0002a06d072
:103b50009b186246134202d00124794a13405a0747
:103b600004d00f221a40042a00d004335a0105d58c
:103b70000134ff2c00d1dee0714a1340db08ff2c3a
:103b800004d1002b02d08022d20313435b02e4b2a3
:103b9000e405580aed0720432843febd002b00d161
:103ba000bde03c00002adad08023009adb031a42f1
:103bb00003d0019a1a4200d10092009bdb0080e7fb
:103bc000ff2900d1ade09b185b080c00c7e7002877
:103bd00026dd002f13d1002a00d1a5e0411e0029c7
:103be00006d101249b1a5a01b9d59b019e0977e0a1
:103bf000ff2800d165e71b2908dd01220ee0ff2c1c
:103c0000add0310011430a000100f4e71000202676
:103c1000c840711a8a40511e8a4102439b1ae2e74a
:103c2000002822d0002c0dd1002b08d0c043002842
:103c300003d1d31a3c000d00d5e7ff2f08d11300a4
:103c40003c0020e0ff2ffad034001c432300404208
:103c50001b2801dd0123ece71c002025c440281aa5
:103c60008340581e83412343e3e7ff20671c07403e
:103c7000012f2fdc002c15d1002b06d11d00002aae
:103c800000d16ce713000d0069e7002a00d166e758
:103c9000981a304201d0d31af5e7031e00d05ee730
:103ca0001d005ce7002b04d1002a3fd013000d005b
:103cb00007e70400002a00d151e78023009adb03c4
:103cc0001a4200d179e7019a1a4200d075e70092b2
:103cd0000d0072e760469e1a064215d00d00d61af6
:103ce000300003f05bfe330005388340844210dc73
:103cf000041b1a0020200134e240041ba3405e1e76
:103d0000b341002413432ae7002ee9d133003400e5
:103d1000c6e7241a0a48034021e713001fe71300ef
:103d2000cfe60c0000231ae7040018e78023040004
:103d30009b04150013e7002320e7c046ffffff7d2b
:043d4000fffffffb87
:020000040000fa
:103d4400f0b5030085b0420006d1cc200021000666
:103d540000f072fe05b0f0bd002804da011cfff784
:103d64008ffb0021f4e78b4a011c90423ddc8a4919
:103d74000022884206dc9821c90500f071fd192251
:103d840003005242df157f3fbf185b02834a5b0a80
:103d94009818019380231b040340fe20fe21800514
:103da400da155840019b89051843d719fff768fbba
:103db400019b041c0f335b025b0a0f2b46dc0021c2
:103dc40003f0b2f8002813d00020002fc2d038002e
:103dd40002f06efe7249041c00f042fd7149051c9c
:103de400201c00f03dfd011c281cfff737feb1e745
:103df4006d49201c00f034fd011cfc208005fff7f8
:103e04003ffb211c051c201c00f02afd011c281c62
:103e140000f026fd051c011c002f7bd0380002f0a9
:103e240047fe5f49061c00f01bfd5e49071c301c61
:103e340000f016fd011c281cfff722fb211cfff7d4
:103e44001ffb011c381cfff71bfb83e78021c905fe
:103e5400fff704fe011c201c00f0eefd009038006a
:103e640002f026fe00990290081c00f0f9fc4f4a6b
:103e7400019b9446011c63440393051c00f0f0fc71
:103e84004b49061c00f0ecfc4a49fff7e7fd311ce6
:103e940000f0e6fc4849fff7e1fd311c00f0e0fcce
:103ea4004649fff7dbfd291c00f0dafc4449051cf8
:103eb400301c00f0d5fc4349fff7d0fd311c00f065
:103ec400cffc4149fff7cafd311c00f0c9fc011cbd
:103ed400281cfff7c3fd019b051c3c48c01a039b2b
:103ee4001843002830ddfc21201c890500f0b8fcb3
:103ef400211c00f0b5fc061c002f0dd1011c281c50
:103f0400fff7acfd009900f0abfc011c301cfff77f
:103f1400b7fa011c201c96e72149029800f0a0fc86
:103f2400311c071c281cfff799fd009900f098fc30
:103f34001c49051c029800f093fc011c281cfff787
:103f44008dfd011c301c77e7002f07d1291c201c94
:103f5400fff796fa009900f083fcdae7104902981b
:103f640000f07efc291c061c201cfff789fa00992e
:103f740000f076fc0b49051c029800f071fc011c52
:103f8400281cfff77dfa211cfff77afa011c301c6c
:103f940059e7c046ffff7f7fffff7f0020fb4a00f9
:103fa4008071313fd1f71737abaaaa3e305ccfffff
:103fb4009788173e25333a3e2549923eabaa2a3fbd
:103fc4004fd01c3e298e633ecdcccc3e88c23500fa
:020000040000fa
:103fd40090b587b002af824b06225a6000f00cfe07
:103fe40004f06ef803f02cfe03f0ecfa04f0b0f8e1
:103ff40004f02cf802f09efd03f03afa03f090fc72
:1040040004f0fdf8774b181c03f09ef9764b996980
:10401400754b9a68744b9c69734bdb6973480093c6
:10402400231c02f0bffa704b99696f4b1a6a6e4bee
:104034009c696d4b5b6a6e480093231c02f0b2fad4
:10404400694b9969684b9a6a674b9c69664bdb6854
:1040540068480093231c02f0a5fa634b1969624b6c
:104064001a68614b1c69644b5b6864480093231ca9
:1040740002f04cfa5c4b59695f4b9a685a4b5c6985
:104084005d4bdb685e480093231c02f03ffa564bfd
:104094001969594b1a69544b1c69534b5b6859484d
:1040a4000093231c02f032fa574bbb60ba68574b9b
:1040b4001100180003f0fcfcbb1d00221a803b1dfc
:1040c40000221a8000233b600123fb60fa68504bf6
:1040d4001100180003f0ecfcbb1d00221a803b1dec
:1040e40000221a8003f02efebc1d03f0b5fb030072
:1040f4002380484b180003f0dbfc03f0c1f8c046f2
:10410400454b1b78dbb201225340dbb2002bf7d1c5
:10411400424b180003f0ccfc03f04afd3c1d03f0b5
:104124009bfb0300238003f021fe3b1d1a88bb1d6b
:104134001b881100180002f037fc031c3b60386830
:1041440002f07cfa03000c0035491a002300080031
:1041540003f0aefc02f06afc324b5b68181c02f000
:104164006dfa03000c0030491a002300080003f024
:104174009ffc2c4b9b68181c02f060fa03000c0097
:104184002a491a002300080003f092fc03f0aaf85d
:10419400244b1b68181c02f051fa03000c0024493c
:1041a4001a002300080003f083fc03f099fb3b682a
:1041b400181c03f02bfc1b4b1b68181c02f03efa66
:1041c40003000c001b491a002300080003f070fcd4
:1041d400194b180003f07cfefb680133fb6075e7a4
:1041e400004000410000c242bc180020040c002022
:1041f400280f00204c120020341900200400002055
:1042040004040020040800209c4f0000b84f000064
:10421400bc4f0000d84f00006f190020f04f000081
:1042240000500000481900202450000040500000b5
:0c4234006050000088500000881300005b
:020000040000fa
:10424000f0b58bb006920a004332079305900492b2
:104250000a7e0c00109b6e2a00d190e017d8632aca
:104260002dd008d8002a00d19ae0582a55d026002f
:10427000423632702ae0642a01d0692af7d12168d7
:104280001a68080624d5111d1960156826e0732ade
:1042900000d189e008d86f2a2ad0702ae7d12022dd
:1042a00009680a43226003e0752a21d0782aded10a
:1042b00022007821453211706d4a113230e00e0033
:1042c0001a684236111d196013683370012379e0b2
:1042d0004906d8d5111d19600023d55e002d03dadb
:1042e0002d23049a6d421370614b0a2703932fe02c
:1042f00020681968050603d5081d18600d6805e0db
:104300004006f9d50d68081d1860adb2584b082756
:1043100003936f2a18d00a2716e045310a70544ad1
:1043200003921a682168101d18601568080622d5c6
:10433000cb0702d52023194321601027002d03d17c
:10434000202322689a4322602300002243331a70fc
:104350006368a360002b5cdb042221689143216029
:10436000002d58d1049e002b64d02600039b4236ba
:104370001b7833705ee04806dad5adb2d8e709683d
:104380001a68080605d5111d1960136862691a605c
:1043900006e04906f7d5111d19601368a28a1a8034
:1043a0000023049e236154e01a68111d19601668e9
:1043b00000216268300003f0b7fe002801d0801ba6
:1043c0006060636823610023049a137041e02369ed
:1043d000320006990598079da847431c43d02368df
:1043e00000259b070fd4099be06898423dda18002e
:1043f0003be022000123193206990598079eb04739
:10440000431c30d00135e368099a9b1a9d42f0dbca
:10441000e9e7002da9d0049e2800390002f0bcfa7b
:10442000039b013e5b5c28003370390002f078fa90
:10443000051ef1d1082f09d12368db0706d5636873
:104440002269934202dc3023013e3370049b9b1ba4
:104450002361079b09aa00932100069b059801f0a0
:1044600063fb431cb3d1012040420bb0f0bdc046fa
:04447000ac7f00001d
:020000040000fa
:10447400f0b59fb006000f0015000593002804d086
:104484008369002b01d102f095fe764b9f425ed1e9
:104494007768bb891b0764d53b69002b61d0002377
:1044a40006ac63612023637630230395a376039dd2
:1044b4002b78002b5fd1039beb1a04930dd0049b44
:1044c400039a3900300003f05bf9431c00d1c2e0c9
:1044d4006269049b9446634463612b78002b00d18a
:1044e400b9e00122532100235242626002aa521809
:1044f40001352360e360a3601370a3650522297866
:10450400594803f00ffe6a1c002838d12168cb06f5
:1045140006d520239c46532302a8c0186346037083
:104524000b0706d52b239c46532302a8c0186346c9
:1045340003702b782a2b2bd000200a21e3682a78d9
:10454400303a092a69d900282ad0e36028e0474b89
:104554009f4201d1b7689ce7454b9f4299d1f768c8
:1045640097e73900300001f019f9002897d00120ad
:1045740040421fb0f0bd252b9dd0013598e73a4b42
:104584002168c01a012383400b4323601500b5e75b
:10459400059b181d1b680590002b38dbe360150094
:1045a4002b782e2b0bd16b786a1c2a2b3dd1059bc3
:1045b40002351a1d1b680592002b33db63602978d2
:1045c40003222c4803f0aefd002807d0294b2268b3
:1045d400c01a4023834013432360013522482978bd
:1045e4006b1c06220a300393217603f09bfd05aa77
:1045f4000092214b3a002100002828d03000fdf71a
:104604009dfc431c27d06369181860614fe75b4227
:10461400e36002230b432360c1e74b4301359b183e
:1046240001208ce701235b42c8e7002315000a2020
:104634001a00636029783039092903d9002bbed0c8
:104644006260bce74243013552180123f2e73000af
:10465400fff7f4fdd5e7bb895b0600d587e7606902
:1046640087e7c04610800000f08100003080000021
:0c467400f07f0000f68100008577000058
:020000040000fa
:10468000f7b5ff214300041c5b08c9058b4205d91f
:10469000011c201cfff7e4f9041c05e0c60f8b4247
:1046a00004d1002e00d0b9e0201cfebd5c49884238
:1046b00004dd5c49081c00f0d5f8ede7002803daba
:1046c000594a934200d9a9e0584a93426ed9584ab0
:1046d000b50093424ed8574b201c5959fef7d2fed5
:1046e000554b071c5b590125ad1b0193ad1b01996f
:1046f000381cfef7c7fe041c211c201c00f0b2f879
:104700004e49061c00f0aef84d49fef7bbfe311cc9
:1047100000f0a8f84b49fff7a3f9311c00f0a2f80c
:104720004949fef7affe311c00f09cf84749fff7fe
:1047300097f9311c00f096f8011c201cfef7a2fe30
:10474000061c011c201c002d44d100f08bf8802198
:10475000051cc905301cfef795fe011c281c00f045
:104760006df9211cfef78efe011cfe208005fef770
:1047700089fe91e73649201c00f074f8354b5959f1
:10478000fff76ef903f0ecf8050002f093f93249f7
:10479000061c00f067f8011c201cfef773fe2f4971
:1047a000071c301c00f05ef80190a0e72c4a9342f1
:1047b0000cd81c49201cfff753f9fe21890502f093
:1047c000cffb002804d0fe21890562e7002593e78e
:1047d000050091e700f046f8041c8020311cc0055c
:1047e000fef750fe011c201c00f028f9011c019866
:1047f000fef748fe391cfef745fe011cfe20800531
:10480000fef740fe2b007d3302dbec0524184be75e
:10481000d8216435ed05281809054ce7002443e745
:104820001772b142caf24971b5f1cf421872b13e66
:104830009115853fc4820000cc8200004cbb31330f
:104840000eeadd3555b38a38610b363babaa2a3efa
:104850003baab83fbc8200008071313fd1f71737c7
:04486000ffff7f31a6
:020000040000fa
:10486400f0b5c30f85b0440245000391640a2d0ed0
:104874000293019330d0ff2d3ad08023e400db046f
:104884007f3d1c4300950027039b5e025d00db0f08
:10489400760a2d0e039334d0ff2d3cd080222800bd
:1048a4000025f600d20416437f38039b029a5a402f
:1048b400009b9c4684446346b80028430138591c35
:1048c4000e2833d803f058fc2f2f8c7b7bad8c7bc8
:1048d400ad7b8c7a7a7a6b00002c0fd0200003f029
:1048e4005bf87626431f76429c40331a0093cae74e
:1048f40000950327002cc7d10227c5e700940127a0
:10490400c2e7301e0dd003f047f8431f9e407623c4
:104914005b42181ac9e728000325002ec5d10225d9
:10492400c3e70125c1e734002f0048e0b7b2a3b2c2
:10493400200c3c00350c47435c4368435d43230c27
:10494400ed195b199f4202d980256d024019a4b26a
:104954001d042d19ac01671ebc41ad0e25431c0c72
:104964002418a4012c4323013dd5012360081c40d5
:1049740004430d007f35002d37dd630704d00f237a
:104984002340042b00d00434230103d580310d00cf
:10499400284b1c40e308fe2d19dd00230ce0802386
:1049a400db031c4204d01e4202d13400039b01935a
:1049b4008023019adb032343ff2508e0029a022f98
:1049c400ebd0032f31d000231d00012fd1d1580289
:1049d400edb2ed05400ad2072843104305b0f0bdff
:1049e4003400039aa0e76146c3e70120451b1b2d51
:1049f4001ddc23002020eb40451bac40611e8c4194
:104a04002343590704d00f211940042900d004334b
:104a14008025ed041d40db08002dd8d0002301259e
:104a2400d5e780240023e403c1e70192c0e7002313
:104a34001d00cce7fffffff7f0b5c30f85b04402bc
:104a440045000391640a2d0e029301930ad0ff2db1
:104a540038d08023e400db047f3d1c432e00002378
:104a640000930ae0002c33d0200002f095ff762654
:104a7400431f9c407642361a0095039b5f025d00fb
:104a8400db0f7f0a2d0e039325d0ff2d2dd080221e
:104a940028000025ff00d20417437f38039b029aa5
:104aa400361a5a40009b9800284301380e2824d80f
:104ab40003f062fb4e9d639d979d634e4e97637911
:104ac400797954002e000323002cc9d10223c7e7af
:104ad40026000123c4e7381e0dd002f05dff431ffa
:104ae4009f4076235b42181ad8e728000325002f3d
:104af400d4d10225d2e70125d0e7640178018442ac
:104b040028d31a210123241a012527005b006400fd
:104b1400002f01dba04201d8241a2b4301390029bc
:104b2400f3d1611e8c411c4331007f3100293cddef
:104b3400630704d00f232340042b00d00434230143
:104b440003d531002b4b80311c40e308fe2921ddc5
:104b5400002310e0013e1b210023d5e78023db0363
:104b64001c4204d01f4202d13c00039b01938023ca
:104b7400019adb032343ff210ce03c00039a0095d8
:104b8400009b022be4d0032b2fd0002300981900a4
:104b94000128c9d15802c9b2c905400ad20708433d
:104ba400104305b0f0bd029aeae70120411a1b291f
:104bb4001ddc23002020cb40411a8c40611e8c4117
:104bc4002343590704d00f211940042900d004338a
:104bd4008021c9041940db080029dbd0002301210e
:104be400d8e780240023e403c0e70192bfe7002351
:084bf4001900cfe7fffffff7f6
:020000040000fa
:104bfc0080b500af8223db05422201219954822328
:104c0c00db053122012199548223db0504229a60b1
:104c1c008223db054422fd2199548223db053222b9
:104c2c00012199548223db054622012199548223c8
:104c3c00db053322012199548223db0520225a60a3
:104c4c008223db0540225a608223db054822412166
:104c5c0099548223db054922012199548223db05d7
:104c6c003422222199548223db05802252009a603f
:104c7c008223db05802292005a608223db055022be
:104c8c00412199548223db055122412199548223dd
:104c9c00db055222412199548223db053822332132
:104cac0099548223db053922032199548223db0595
:104cbc00802252029a608223db05802292029a6043
:104ccc008223db058022d2029a608223db054022fc
:104cdc00042199548223db05412204219954822317
:104cec00db054722042199548223db054a22042147
:104cfc0099548223db054b22042199548223db0532
:104d0c004e22042199548223db054f22042199540d
:104d1c008223db055322042199548223db0556227e
:104d2c00042199548223db055722042199548223b0
:104d3c00db055822042199548223db0559220421d6
:104d4c0099548223db055b22042199548223db05d1
:0c4d5c005c2204219954c046bd4680bd75
:020000040000fa
:104d6800f0b50b691500126989b00c00934201da9d
:104d78002c000d0027692e69a268bb196168019390
:104d8800934200dd013102f0a7f9030014330093c8
:104d9800009abb1994469b009c441300002204907f
:104da80063451cd32a001434bf00e3191432b6003b
:104db8000593931902940693069b9a4211d3019b7b
:104dc800002b06dd04235b429c4463461b68002bd2
:104dd80051d0049b019a18001a6109b0f0bd04c3b0
:104de800dee71488002c1ed00026009d029f01cf0c
:104df800079508cd039383b2634319006b46000cf3
:104e08009b896043cb1803999b19090c4118180c0e
:104e180009180e0c9bb209040b4307990b60059bfc
:104e2800bb42e4d82e6013681b0c03931ed00026e7
:104e3800009b029c1b68009807002188039d9bb279
:104e4800694320c82d0c49198e1931040b433b6066
:104e580008cc03991b0c4b437968360c89b25b1854
:104e680005999b191e0ca142e6d80360009b0432e9
:0e4e780004330093a0e7019b013b01939fe7e9
:020000040000fa
:024e8600fee745
:020000040000fa
:104e8800f7b58a8905000c00130760d44b68002b1e
:104e980004dc0b6c002b01dc0020febde76a002f50
:104ea800fad000232e682b6080235b011a4034d08f
:104eb800606da3895b0706d56368c01a636b002b16
:104ec80001d0236cc01a0200216a00232800e76a77
:104ed800b847a189431c06d12b681d2b31d82c4a11
:104ee800da40d3072dd50023636023692360cb0400
:104ef80005d5431c02d12b68002b00d16065616b7e
:104f08002e600029c8d023004433994202d02800db
:104f180001f028fc00206063bfe70123216a280014
:104f2800b847431cc5d12b68002bc2d01d2b01d01c
:104f3800162b01d12e60afe74023a2891343a3812a
:104f4800abe740230b430120a3814042a5e70f694b
:104f5800002fa1d00b680f60db1b01930023920781
:104f680000d14b69a360019b002b00dc94e7019bf7
:104f78003a00216a2800a66ab047002803dc4023cb
:104f8800a2891343dfe7019b3f181b1a0193eae745
:044f980001004020b4
:020000040000fa
:104f9c005265616368656420746865207768696c24
:104fac0065206c6f6f700a0a0a0d000025730000f3
:104fbc00436f756e74657220697465726174696f84
:104fcc006e2025643a0a0a0d0000c04642656769e6
:104fdc006e6e696e672073616d706c696e670a0a1c
:104fec000d00c0464275666665722066756c6c0a6b
:104ffc000a0d0000456c61707365642073616d70ff
:10500c006c696e672074696d6520697320252e3874
:10501c0066200a0a0d00c046566f6c7461676520e5
:10502c0073616d706c65203120697320252e386694
:10503c000a0a0d00566f6c746167652073616d70a0
:10504c006c6520363320697320252e38660a0a0dcc
:10505c000000c04641766572616765206f662076f8
:10506c006f6c746167652073616d706c657320691a
:10507c007320252e38660a0a0d00c04641766572eb
:10508c00616765206f662074656d702073616d704b
:10509c006c657320697320252e38660a0a0d000092
:020000040000fa
:1050ac00f0b54e00760db4463d4e85b06644050015
:1050bc000b0001910200cc0f132e55dc002e28dac8
:1050cc004a005208024322d00a03120b15436a42cb
:1050dc002a4380254b0c120b2d035b042a401a43e8
:1050ec00304b1100e2009b181e685f6832003b00d9
:1050fc00fcf750fc02900391029803993b0032009c
:10510c00fcf770f94b005b08e4072343190005b06a
:10511c00f0bd254d35412f000f400743f7d06d08ea
:10512c002800084010430022904209d0132e01d1d0
:10513c00802212068027ff023741ab431f430197a1
:10514c00184be4001c196568246801992b001000a9
:10515c002200fcf71ffc0290039102980399220095
:10516c002b00fcf73ff9d2e7332e08dd8023db0060
:10517c009e42ccd102000b00fcf70cfcc7e70126c9
:10518c000a4d76426544ee400642c0d0760806428f
:10519c00d6d08023db052b41b2431a43d0e7c0465f
:1051ac0001fcffff18820000ffff0f00edfbffff6b
:020000040000fa
:1051bc00f0b503690c6989b00700059100269c4283
:1051cc006ddc0b00013c1433a50003935b190493b5
:1051dc000300143302935d19049b28681b68591c47
:1051ec00019301f097fb0190b0422dd0039b0298e4
:1051fc009c460696624608ca9446019a99b2514357
:10520c001b0c534389190a0c9b18079302881e0c1c
:10521c00069b89b2d2180368521a190c6b469b8be9
:10522c00cb1a11145b18191492b21b041a43049b69
:10523c00069104c06345ddd22b68002b04d1029b80
:10524c00043dab422ed33c610599380002f093fc2f
:10525c00002823db0025019b02980133039901935d
:10526c0008c9028855199ab2aa1a05681b0c2d0c8c
:10527c00eb1a15145b191d1492b21b04134308c0ce
:10528c00049b8b42ecd2029aa300d3181a68002a12
:10529c0004d1029a043b9a4209d33c61019e30002e
:1052ac0009b0f0bd2b68002bcdd1013cc7e71a68c3
:0852bc00002af2d1013cece7ed
:020000040000fa
:1052c40000202020202020202020282828282820d2
:1052d40020202020202020202020202020202020ca
:1052e4002088101010101010101010101010101032
:1052f4001004040404040404040404101010101022
:1053040010104141414141410101010101010101eb
:10531400010101010101010101010101101010103d
:1053240010104242424242420202020202020202bd
:105334000202020202020202020202021010101011
:105344002000000000000000000000000000000039
:105354000000000000000000000000000000000049
:105364000000000000000000000000000000000039
:105374000000000000000000000000000000000029
:105384000000000000000000000000000000000019
:105394000000000000000000000000000000000009
:1053a40000000000000000000000000000000000f9
:1053b40000000000000000000000000000000000e9
:0153c40000e8
:020000040000fa
:0153c50000e7
:020000040000fa
:1053c60090b58db000aff860b9607a603b6000239d
:1053d6007b6200233b620023fb620023fb61002308
:1053e600bb610023bb6200237b617968f86801f02a
:1053f600aafd031e26d07968f868fef740f8031c5c
:105406007b62796a786afff72afa031c1a1c8023e2
:105416001b0653401c00b968b868fff720fa031c46
:10542600191c181cfef719fb031c191c201cfff77e
:1054360002fb031c3b623b6a181c00f024fa031ca7
:10544600fb6202e0fe239b05fb62396cf86801f003
:105456007afd031e26d0396cf868fef710f8031c97
:10546600fb61f969f869fff7faf9031c1a1c802336
:105476001b0653401c0039683868fff7f0f9031c17
:10548600191c181cfef7e9fa031c191c201cfff74f
:10549600d2fa031cbb61bb69181c00f0f4f9031cab
:1054a600bb6202e0fe239b05bb62b96af86afff79e
:1054b600d6f9031c7b617b69181cbd460db090bdf7
:020000040000fa
:0254c60070472d
:020000040000fa
:1054c800f0b50e034d00430f6d0d760a1e436b1c9d
:1054d8005b05c90fc2005b0d012b52dd344bec1884
:1054e800fe2c5ddc002c27dc230017335bdb8023dc
:1054f8001e271b041e433f1b1f2f0cdc2d4b1000c7
:10550800ed18aa401300ae405a1e9341f8403343a9
:105518000343002417e002204042041b3000e0400f
:105528000024202f03d03400234bed18ac40224335
:1055380013005a1e9341ebe78001431e9841520f16
:105548000243f30013435a0704d00f221a40042ad7
:1055580000d004335a0104d50134ff2c25d0174a52
:105568001340db08ff2c04d1002b02d08022d20389
:1055780013435b02e4b2e405580ac9072043084311
:10558800f0bd13003343002d02d15a1e9341c0e7ea
:10559800ff24002bd7d08023f6009b043343d2e7a7
:1055a8000023ff24cfe70123b3e70023d9e7c04650
:1055b80080fcffff82fcffffa2fcfffffffffffb59
:020000040000fa
:1055c80080b582b000af334b1b7edbb21a000423d8
:1055d800134045d02f4b1b8d9ab2fb1d1a70fb1d33
:1055e8001b781b2b0dd12c4b180002f0d7fd2b4b31
:1055f80000221a702a4b14220021180002f010fe13
:1056080044e0264b1b78122b1dd8244b1b7819001d
:10561800234bfa1d12785a54204b1b780133dab207
:105628001e4b1a70fb1d1b780a2b19d11b4b1b78bc
:105638001a001b4b002199541a4b01221a70174b60
:1056480000221a700ce0154b00221a70134b1b78bd
:105658001a00134b00219954134b180002f09efdb9
:105668000c4b1b7edbb25bb2002b0fda0c4b142207
:105678000021180002f0d4fd084b00221a70064bd6
:10568800180002f08bfd034b80221a76bd4602b04b
:1056980080bdc04600040042b43100006c190020ef
:0c56a800201900206d190020dc310000ea
:020000040000fa
:1056b40070b500268cb0041cfef742fb334b051c6e
:1056c4009e57731c5ed0211c201c02f077fb00281f
:1056d40058d10021201c01f041fc002852d12c4d4e
:1056e4000a90201c039500f0a9ff069007910490ee
:1056f4000591002e13d1e022264b12060021201c16
:105704000892099301f010fc002826d1012302938a
:10571400022e17d102f0b2fd2123036017e000220c
:105724001d4b0021201c0892099301f0fdfb002869
:10573400ecd0022302939e4211d102f09ffd22235a
:10574400036011e002a802f0f3fd0028e2d0681d16
:1057540002f088fd0890099106e00223029302a852
:1057640002f0e6fd0028e8d00a9b0193002b04d048
:1057740002f084fd0a9b0193036008980999fff7de
:10578400a1fe051c281c0cb070bdc0467019002079
:0c57940012820000ffffefc70000f0ffd2
:020000040000fa
:1057a000364b70b51d6806000c00002d05d0ab69a6
:1057b000002b02d1280001f0fffc314b9c420fd19d
:1057c0006c680c23e25e93b219072dd4d90611d46c
:1057d00009233360402301201343a381404270bd5d
:1057e000284b9c4201d1ac68ebe7274b9c42e8d1a7
:1057f000ec68e6e75b0713d5616b002908d023004e
:105800004433994202d0300000f0b0ff00236363bc
:105810002422a3899343a381002363602369236027
:105820000823a2891343a3812369002b0bd1a02154
:105830008022a389890092000b40934203d021006b
:10584000300001f075fa0123a289134011d0002322
:10585000a36063695b42a361002023698342bed1d8
:105860000c23e25e1306bad540231343a38101380b
:10587000b5e7920700d46369a360ede75c190020e7
:0c5880001080000030800000f07f00006d
:020000040000fa
:10588c00f0b58db0041cfef7f5fe00232f4e051c61
:10589c00f356013333d0201c02f060fc00282ed0cc
:1058ac002b49201c01f056fb071e36d00323029314
:1058bc00284b201c039300230a9300f0bbfe00230b
:1058cc00f3560690079104900591002b1ad1e02213
:1058dc00214b12060892099302a802f025fd00281c
:1058ec0016d00a9b0193002b04d002f0c3fc0a9b38
:1058fc000193036008980999fff7e0fd051c281c2b
:10590c000db0f0bd0020154908900991022be3d190
:10591c0002f0b0fc22230360e3e71149201c01f0e4
:10592c0005fb0028ebd0042302930a4b201c0393a5
:10593c000a9700f07ffe00230022089209930023af
:10594c000690079104900591f356dfe7701900203b
:10595c008071b1422a830000ffffef470000f07f07
:04596c00b5f1cfc200
:020000040000fa
:10597000b0b582b000af02003960fb1d1a70fb1d8c
:105980001b787f2b28d82f4cfb1d1b785bb29b0804
:105990002c49fa1d127852b29208c0329200525825
:1059a000f91d0978080003210140c900ff20884043
:1059b0000100c94311403a689201ff201040fa1dce
:1059c0001278150003222a40d200904002000a43b8
:1059d000c0339b001a5131e01b4cfb1d1b781a0091
