:020000040000fa
:10000000f07f00205d7a00007f5400007f540000e4
:1000100000000000000000000000000000000000e0
:100020000000000000000000000000007f540000fd
:1000300000000000000000007f540000b5850000b3
:100040007f5400007f5400007f5400007f54000064
:100050007f5400007f5400007f5400007f54000054
:100060007f540000b15a00007f5400007f5400000c
:100070007f54000000000000000000007f540000da
:10008000000000007f5400007f5400007f540000f7
:100090007f5400007f5400007f5400007f54000014
:1000a0007f5400007f5400007f5400007f54000004
:1000b0007f540000916a00007f540000f07f002010
:1000c0005d7a00007f5400007f54000000000000b3
:1000d0000000000000000000000000000000000020
:1000e00000000000000000007f540000000000003d
:1000f000000000007f540000b58500007f54000020
:100100007f5400007f5400007f5400007f540000a3
:100110007f5400007f5400007f5400007f54000093
:10012000b15a00007f5400007f5400007f5400004b
:1001300000000000000000007f54000000000000ec
:100140007f5400007f5400007f5400007f54000063
:100150007f5400007f5400007f5400007f54000053
:100160007f5400007f5400007f5400007f54000043
:08017000916a00007f540000b9
:020000040000fa
:10017800f8b5c046f8bc08bc9e4670475d7c0000d8
:10018800f8b5c046f8bc08bc9e467047357c0000f0
:020000040000fa
:10019800f0b516001f00446a9db00490259d069690
:1001a8000797002c08d1102008f010fb049b586218
:1001b800446084600460c460049b5b6a1968002919
:1001c8000bd05a68012393404a608b60049807f06b
:1001d800bfff0022049b5b6a1a60079b002b1cda96
:1001e80001232b607b005b080793079cba4b220016
:1001f80019931a409a421cd1b84b249a1360069a54
:10020800b74b002a03d1240301d100f08cfd269ab4
:10021800002a05d109330a9308e000232b60e4e79c
:100228001a0009320a920c33269a13600a981db0f4
:10023800f0bd069e079f002200233000390006f01b
:1002480021ff051e0ed00123249a1360a44b1a0027
:100258000d320a92269a002ae8d01a0026990e3200
:100268000a60e3e71aab01931bab009332003b0033
:10027800049806f0d1f9630005905b0d00d17fe08a
:100288003a03984c120b14432100974a30001895f2
:100298009e180022954b01f0a7f8954a954b02f05d
:1002a800a7fb954a954b01f077fb040030000d0041
:1002b80007f06ef9924a934b02f09afb02000b008a
:1002c8002000290001f068fb04000d0007f03efa49
:1002d8000022039000232000290006f0d9fe002800
:1002e8000ed0039807f054f90b00020029002000f3
:1002f80006f0c8fe030058425841039b1b1a03939b
:1003080001231693039b162b0fd87f49db00c918ce
:1003180008684968069a079b06f0cefe00284bd06d
:10032800039b013b0393002316931a9b9e1b0023f8
:100338000b933300013b0c9304d501239b1b0b93b8
:1003480000230c93039b002b38db039a0c9b9446e9
:1003580063440c9300230f920893229b0125092bd9
:1003680000d991e0052b02dd0025043b2293229b56
:10037800981e032800d991e008f00afa82842976a9
:100388001a9b1b9a9e18614bf218202a0fdd203bfe
:100398000698f318d84040239b1a9c40204307f046
:1003a8009ffa01235a4c013e0919189371e720233b
:1003b80006989b1a9840f2e71690b6e70b9b039aab
:1003c8009b1a0b935342089300230f93c5e701230d
:1003d8000e93239b002b65dd1f000d93049a546a2e
:1003e8000022626004221100143199425fd96168c9
:1003f800049807f03ff9049b20605b6a1b680a9326
:100408000e2f00d9fce0002d00d1f9e0069b079cd7
:1004180014931594039b002b00dc7de01a000f2138
:10042800394b0a40d2009b185c681b6810931194e2
:10043800039b02241d11eb060ad5364b0d401a6aa0
:100448005b6a1498159902f031f803240690079115
:10045800304e002d30d1109a119b0698079902f062
:1004680025f80690079171e00123239a0e9394468c
:10047800039b63445f1c0d933b1eafdc0123ade778
:100488000023a5e70023f0e700230e952293013b04
:100498000d931f000022122323929fe701230e933e
:1004a800023bf5e701230d931f001a00f4e761688a
:1004b80052000131616096e701231d4208d010986f
:1004c8001199e4183268736802f092fa1090119149
:1004d8006d100836bde7c0460000f07f0f2700000a
:1004e800508800000000f03f01fcffff0000f83fcb
:1004f80061436f63a787d23fb3c8608b288ac63f22
:10050800fb799f501344d33f8062000032040000ff
:10051800000010fef0830000039b0224002b15d07e
:10052800149815995d420f23c94a2b40db00d31854
:100538001a685b6802f05cfa002306900791c54ec2
:100548002d11002d00d08be0002b8ad1169b002b9b
:1005580000d191e0069a079b109211931098119977
:100568000022bd4b06f094fd002800d184e0002f46
:1005780000d181e00d9b002b3edd10981199039b63
:1005880000225e1eb54b02f033fa069007910d9dce
:100598000134200006f0fcff069a079b02f028fab7
:1005a8000022af4b01f0f8f912901391129b139ca3
:1005b800ac4a10931194139b9c181194002d5ed192
:1005c800069807990022a84b00f00eff109a230006
:1005d8000690079106f070fd002800d000e3a348bc
:1005e8001399844661440b0006980799109a06f0ff
:1005f8004ffd002800d0e7e2149b159c0693079452
:100608001b9b002b00da56e1039a0e2a00dd52e10b
:100618008f4bd2009b185c681b6808930994239b36
:10062800002b00dbcee0002f00ddcbe000d0cee2d7
:100638000898099900228c4b02f0daf9069a079b70
:1006480006f044fd3e000897002800d0a3e20a9b6c
:100658000a9a5d1c31231370039b013303939ee2b6
:100668000122154205d0a4183268736802f0c0f957
:1006780001236d10083664e7039e3d0089e70a9a56
:10068800691e521917920e9a714bc900002a4ad056
:100698005b181a685b680020754901f007ff109a1b
:1006a800119b00f0a1fe0a9b1090119112930698dd
:1006b800079907f04bf8040006f06aff02000b00e8
:1006c8000698079900f090fe129b30345d1c1c7050
:1006d800109a119b0690079106f0dafc002865d164
:1006e800069a079b00205c4900f07efe109a119b39
:1006f80006f0cefc002800d0bde0179b9d4200d13b
:100708007ae7109811990022544b02f071f90022ef
:100718001090119106980799504b02f069f91295bb
:1007280006900791c3e7591808684968109a119b01
:1007380002f05ef9109011910a9c179d069807998e
:1007480007f004f8129006f023ff02000b00069849
:10075800079900f049fe129b0690079130332370e9
:10076800179b01340022a34224d1414b10981199c0
:1007780001f012f902000b000698079906f09cfc9c
:10078800002800d077e0109a119b0020384900f02b
:100798002bfe02000b000698079906f079fc00284a
:1007a80000d129e76b1e1a78302a01d003963fe062
:1007b8001d00f7e706980799284b02f019f90690eb
:1007c8000791bbe70a9e089a099b0698079901f0ca
:1007d8006dfe06f0bbff040006f0dafe089a099bde
:1007e80002f006f90b0002000698079900f0fcfddc
:1007f8002300303333700a9b751ceb1a9f424bd190
:1008080002000b0001f0c8f806000f0002000b0000
:100818000898099906f03cfc00282bd108980999fa
:1008280032003b0006f02efc002801d0e30721d45b
:100838000599049807f08cfc00232b70039b249add
:1008480001331360269b002b00d1efe41d60ede41b
:1008580080620000f08300000000f03f00002440a8
:1008680000001c400000c0fc000014400000c07cd8
:100878000000e03f039e6b1e1a78392a06d10a9ab7
:100888009a4207d130231370130001361a780132c7
:100898001a708be71d00eee70022cf4b02f0a8f894
:1008a80000220023069007912e0006f0ebfb00289b
:1008b80000d188e7bce70e9a002a00d187e0229a87
:1008c800012a6edc189a002a67d0c44a9b18089d32
:1008d8000b9c0b9a0121d2180b920c9a0498d318ee
:1008e8000c9307f086ff0600002c0edd0c9b002bf6
:1008f8000bdd0c9a2300944200dd13000b9ae41ad6
:10090800d21a0b920c9ad31a0c93089b002b1ed068
:100918000e9b002b5fd0002d11dd31002a000498ba
:1009280006f016f8059a01000600049804f014fd74
:1009380005991090049807f00bfc109b0593089bf1
:100948005a1b04d00599049806f002f80590012175
:10095800049807f04eff0f9b0890002b3ddd1a000e
:100968000100049805f0f4ff229b08900025012b54
:100978003bdc0025069bab4233d1079b1b03ab42f4
:100988002fd1199b079a13422bd00b9b01250133ba
:100998000b930c9b01330c9323e036231a9a9b1a72
:1009a80095e7089b7d1eab4206db5d1b002f0bda2b
:1009b8000b9bdc1b00238ce7089b0895ea1a0f9b0e
:1009c80000259b180f93f1e70b9c3b0081e7089dde
:1009d8000b9c0e9e88e7089ab4e7229b0025012b02
:1009e800c7dd0f9b0120002b0bd0089b089a1b69c1
:1009f8000f9303339b00d318586807f075fb202327
:100a0800181a0c9bc0181f23184000d1abe02023f4
:100a18001b1a042b00dc9be01c23181a0b9b2418c0
:100a28001b180b930c9b1b180c930b9b002b05ddc1
:100a38001a000599049805f0e9fe05900c9b002b17
:100a480005dd1a000899049805f0e0fe0890169b49
:100a5800002b00d189e00899059807f092fb00283f
:100a680000db82e0039b0a22013b039305990023e4
:100a7800049806f0a1fc0e9b0590002b00d15be1c9
:100a8800002331000a22049806f096fc0d9b06000c
:100a9800002b02dc229b022b6ddc002c05dd3100d3
:100aa8002200049805f0b2fe06003000002d11d097
:100ab8007168049806f0defd3100040033690c31da
:100ac8009a1c92000c3007f08bfe0122210004983a
:100ad80005f09cfe0d9f0a9b013f0b93db19370025
:100ae80006000f930899059804f0d8fd39000d9079
:100af8000400059807f045fb32000e900899049809
:100b080005f056fb01230c93c36830340500002b15
:100b180004d10100059807f034fb0c9029000498d3
:100b280007f016fb0c9b229a134300d089e001239f
:100b3800069a134200d084e0392c00d1a3e00e9b22
:100b4800002b01dd0d9c31340b9b5d1c1c7027e0d4
:100b5800042b00d169e70b9a1c33d2180b920c9a1c
:100b6800e418d31860e70300f5e7002f3cdc229b6c
:100b7800022b39dd0d970d9b002b0cd1089905220e
:100b8800049806f019fc08900100059807f0f9fa96
:100b9800002800dd5be5239b0a9ddb4303930027c8
:100ba8000899049807f0d4fa002e00d140e6002fe7
:100bb80005d0b74203d03900049807f0c9fa3100cc
:100bc800049807f0c5fa33e608952e00e3e70023fa
:100bd80008931e00dfe7c0460000244033040000ed
:100be800039608952e0032e50e9b0d97002b00d03a
:100bf80053e70a9d0899059804f050fd0a9b303088
:100c08000d9a287001350400eb1a9a4278dc151efb
:100c180000dc012500270a9b5d190599012204982b
:100c280005f0f4fd0899059007f0abfa00282fdcd1
:100c380001d1e3072cd46b1e1a78302ab0d11d00dd
:100c4800f9e70e9b002b07db1d00229b1d4326d1d5
:100c58000123069a134222d10c9b002b00dc73e778
:100c680005990122049805f0d1fd0899059007f02f
:100c780088fa002804dc00d066e7e30700d463e7bd
:100c8800392c00d05ee70b9b0b9a5d1c392313703f
:100c98006b1e1a78392a3bd001321a7080e70b9bf9
:100ca80001330d930c9b002b05dd392cebd00d9dea
:100cb80001340b9b4ae70b9b0f9a0d9d1c709342c6
:100cc800abd000230a220599049806f075fb00238f
:100cd80005900a2239000498b74206d106f06cfb49
:100ce800070006000d9b0b93fce606f065fb310040
:100cf800070000230a22049806f05efb0600f1e7cd
:100d080000230a220599049806f056fb059071e71e
:100d18000a9a9a4205d1039b013303933123137036
:100d28003ee71d00b4e7269a0a930833002a01d04b
:100d3800fff77afafff77afa0d9b002b00dd58e7e8
:0c0d4800229b022b00dc54e715e7c0469c
:020000040000fa
:100d5400f0b58bb00191019f061c7d006d0800d198
:100d640009e3ff22440003906408d205944206dca0
:100d7400fe239b05954207dd9c4200d1fbe2864899
:100d840007f0b6fd0bb0f0bd00210291002822da75
:100d940082498d421ddc824b9d420ddd9623ea156e
:100da4009a1a2b001341190091408d4204d101225b
:100db40013400222d31a0293fe239b059d421ed1a7
:100dc400301c002fdedafe20311c800504f08ef882
:100dd400d8e7022102919542eed19c4200d1cae2a9
:100de40004dd0198002fcdda0020cbe7002ffbdad9
:100df400802212069446019b63441800c2e78023b4
:100e0400db059f4204d1311c301c03f083ffb9e79a
:100e1400fc23301c9b059f4204d1002e02db05f00d
:100e2400a7fbafe707f083fd002c05d0fe22b3003b
:100e34009b08920593421bd1002f04da011cfe206b
:100e4400800504f053f8039b002b9bda554be41800
:100e5400029b1c4304d1011c02f026fd011cb5e7d2
:100e6400029b012b00d08de780231b06c01889e765
:100e7400f30f013b0593059a029b134302d1311ce6
:100e8400301ce9e79a23db059d4200dc9ce0464bdd
:100e94009c4204dc002fa7da4449081cb5e7444b04
:100ea4009c4202dd002ff7dc9ee7fe21890502f05b
:100eb400fbfc4049041c03f02dff3f49051c201c8a
:100ec40003f028fffa21061c8905201c03f022ffe9
:100ed400011c3a4802f0e8fc211c03f01bff011c32
:100ee400fc20800502f0e0fc211c071c201c03f000
:100ef40011ff011c381c03f00dff314903f00afff8
:100f0400011c301c02f0d0fc011c061c281c02f041
:100f1400b9ff040b2403291c201c02f0c5fc011c8e
:100f2400301c02f0c1fc029b059a013b071c1343d1
:100f340000d054e1234e019b01981d0b2d03291c65
:100f440002f0b2fc211c03f0e5fe01990290381c6a
:100f540003f0e0fe011c029802f094ff291c0190aa
:100f6400201c03f0d7fe02900390011c019802f0ac
:100f740089ff4700051c04907f08002800dc60e11d
:100f84008623db059f4200dc2ce10849301c03f07a
:100f9400c1fe064939e7c046ad580000ffff7f4b4c
:100fa400ffff7f3f000080c0f7ff7f3fcaf2497117
:100fb4000700803f00aab83f70a5ec36abaaaa3e52
:100fc4003baab83f000080bfec4b00229c4206dce9
:100fd4009721c90503f09efe182204005242fe2503
:100fe400e3157f3b9b1804936402e54b640aad054b
:100ff400254300269c4209dde24b01269c4205dd87
:10100400049b9b1900260493df4bed18b300069351
:10101400de4bb200d458281c211c099502f044fc74
:10102400211c0790281c02f02dff011cfe208005c6
:1010340003f05cff011c0890079803f06bfe03901b
:10104400039b6d101f0b80239b051d438023db0234
:10105400ed1876053f03ae19311c381c03f05afe17
:10106400011c079802f020fc211c051c301c02f016
:101074001bfc011c099802f017fc391c03f04afe02
:10108400011c281c02f010fc089903f043fe03998c
:101094000790081c03f03efebd49041c03f03afe11
:1010a400bc4902f0effe211c03f034feba4902f001
:1010b400e9fe211c03f02efeb84902f0e3fe211cd8
:1010c40003f028feb64902f0ddfe211c03f022fee7
:1010d400b44902f0d7fe211c051c201c03f01afea3
:1010e400011c281c03f016fe0399041c381c02f092
:1010f400c9fe079903f00efe211c02f0c3fe391c41
:10110400061c381c03f006fea749089002f0bafe3c
:10111400311c02f0b7fe040b2403211c381c03f01d
:10112400f9fda149051c201c02f0befb089902f040
:10113400bbfb011c301c02f0b7fb039903f0eafd72
:101144000799061c201c03f0e5fd011c301c02f06d
:1011540099fe061c011c281c02f094fe040b2403b7
:101164009249201c03f0d6fd291c0390201c02f098
:101174009bfb011c301c02f097fb8d4903f0cafd58
:101184008c49051c201c03f0c5fd011c281c02f021
:1011940079fe894b069ad15802f074fe051c049816
:1011a40005f062fe854b069a071cd658291c039845
:1011b40002f068fe311c02f065fe391c02f062fe8a
:1011c400040b2403391c201c02f06efb311c02f0ba
:1011d4006bfb039902f068fb011c281ca1e6fe26a8
:1011e400b605a8e69f4241d17549019802f04afe2e
:1011f4000299041c281c02f057fb011c201c06f059
:101204007bf9002800d0c0e6802424042200fb15ca
:101214007e3b1a415519eb15dbb2584a7f3b1a4104
:101224002900914317226d026d0ad31a2c431c41e5
:10123400049b002b00da6442029802f035fb039011
:1012440019e0604b9f4205dd5f49301c03f062fded
:101254005d49dae59f4209d1029902f025fb011ca0
:10126400019806f03ff90028ced0ede7fc230024d6
:101274009b059f42c8dc0199039802f003fe050b0d
:101284002d035249281c03f045fd03990290281ca4
:1012940002f00afb011c019802f006fb4c4903f022
:1012a40039fd4c49071c281c03f034fd011c381c73
:1012b40002f0e8fd071c011c029802f0e3fd02990c
:1012c400051c02f0f1fa011c381c02f0edfa291c8d
:1012d4000190281c03f01efd3f49071c03f01afd72
:1012e4003e4902f0e1fa391c03f014fd3c4902f0d6
:1012f400c9fd391c03f00efd3a4902f0d5fa391c38
:1013040003f008fd384902f0bdfd391c03f002fd6d
:10131400011c281c02f0c8fa071c011c281c03f03d
:10132400f9fc80210290c905381c02f0bdfa011ca9
:10133400029803f0dbfd0199071c281c03f0eafc6a
:10134400019902f09ffd011c381c02f0adfa291c22
:1013540002f0aafa011cfe20800502f0a5fae305ba
:101364001b18da15002a04dc210005f0fff9311cf2
:101374004be5181cfbe7fe20800503e5ffff7f001b
:1013840071c41c00d6b35d00000080ffdc8800003f
:1013940042f1533e55326c3e05a38b3eabaaaa3ea6
:1013a400b76ddb3e9a99193f000040400038763f04
:1013b4004f38763fa0c39d36ec880000e4880000d7
:1013c4003caa3833000016436042a20d0072313f3c
:1013d4001872313f8cbebf354cbb31330eeadd355c
:0c13e40055b38a38610b363babaa2a3e99
:020000040000fa
:1013f000f7b50d0009036c00ed0f0095490a450f84
:1014000029431d035e00c700d80f6b0a550f2b43fd
:10141000c14d640d760dd200ae4203d11d0084464d
:10142000154302d101254540ac46009da01bac45ab
:1014300000d036e1002861dd002e25d11d001543c6
:1014400000d196e2461e002e19d1ba18ba42a44124
:10145000c91864420919170001240b0200d4bee028
:10146000ad4b01349c4200d180e2ac487b08014086
:10147000012007401f43c80707434908afe0a64db6
:10148000a84209d1a44caae0a34dac4200d1a6e0e9
:10149000802506002d042b43382e2adc1f2e17dc56
:1014a00020201d00801b8540ac4615000190f540b2
:1014b000604605430198f3408240501e8241154327
:1014c000ed195b18bd428941494259182f00c4e704
:1014d00030001d002038c5400020202e03d04020c1
:1014e000861bb34018000243501e8241154300235f
:1014f000e6e71a4315006a1e9541f8e7002850d028
:10150000002c14d10c003c4300d128e2c443002c31
:1015100007d1bf189742a441c91864420919340081
:101520009be77d48864209d119001700aae77a4c4b
:10153000a642f9d04442802000040143382c2bdc21
:101540001f2c17dc2025281b01900800019de1407d
:10155000a840844638006546e0402843019daf40de
:101560007d1eaf413843871897429241c9185242b5
:101570008918d4e720000d002038c5402800002538
:10158000202c03d040252c1ba1400d002f437d1e95
:10159000af4138430021e6e70f433800471eb8410a
:1015a000f8e7661c75056d0d012d00dd69e008008a
:1015b0003843002c49d1002800d1d3e11800104352
:1015c0000dd0ba18ba42b641c9188023764289199b
:1015d0001b041700194202d00124504b19407b070d
:1015e00009d00f233b40042b05d03b1dbb42bf411c
:1015f0007f42c9191f000b0206d5474b01349c429c
:1016000000d1c3e1454b1940434b4807ff0838431d
:10161000c9089c4206d103000b4300d1b9e18023e5
:101620001b031943002709033b0d1b05090b194335
:101630003b4b6405194064080c43009b6400d907c8
:1016400064080c43210003b0f0bd002800d16be713
:101650001800104300d115e74807ff080743802012
:10166000c9080003014207d0dc08044204d1d208b3
:101670005b0713431f002100780fc9000143ff00df
:1016800000e7254ca64200d16fe1ba18c918ba424a
:101690009b415b42cb18df075208174359083400bf
:1016a0009de700285ddd002e3cd11d00154300d1d3
:1016b0005fe1461e002e0ed1ba1a9742bf41c91ae9
:1016c0007f42c91b012417000b0200d487e749029f
:1016d0004d0a3e00f9e0104da84200d1d2e6382e66
:1016e0003adc1f2e27dc20201d00801b8540ac46e5
:1016f00015000190f540604605430198f340824093
:10170000501e824115437d1bcb1aaf42894149428d
:10171000591a2f00d8e7c046ff070000ffff7fffe0
:10172000ffff0f809c4dac4200d158e780252d046f
:101730002b430600d3e730001d002038c5400020b1
:10174000202e03d04020861bb34018000243501eb9
:10175000824115430023d6e71a4315006a1e9541be
:10176000f8e700284dd0002c17d10c003c4300d1e5
:1017700001e1c443002c09d1d71bba429241591a46
:1017800063465242891a340000939de7824886429c
:101790000ad119001700804c45e07f4ca642f8d0d2
:1017a0004442802000040143382c25dc1f2c11dc2e
:1017b0002025281b00900800009de140a84005005e
:1017c0003800e0402843009daf407d1eaf413843c4
:1017d000171ad2e720000d002038c5402800002548
:1017e000202c03d040252c1ba1400d002f437d1e33
:1017f000af4138430021ebe70f433800471eb841a3
:10180000f8e7601c4005400d01284cdc18000d0075
:1018100010433d43002c24d1002d07d1071e00d1d9
:10182000ade01900170063460093d8e6002800d108
:10183000d5e6bd1aaf42b641c81a7642801b802653
:101840003604304206d0d71bba429241591a52424e
:10185000891ae8e72f00074300d190e001002f002c
:10186000bde6002d07d1071e00d18be019006346ad
:101870001700009306e6002800d103e64807ff089a
:1018800007438020c9080003014200d1f4e6dc08c8
:10189000044200d0f0e6d2085b0713431f00634602
:1018a00021000093e8e6be1ab7428041cd1a4042bb
:1018b0002d1a8020000405422dd0d61bb242ad4126
:1018c000591a63466d424d1b0093002d29d0280004
:1018d00006f04cfb0300083b1f2b27dc20223100c5
:1018e0009e40d21a9d40d14037000d439c4232dccd
:1018f0001c1b661c1f2e1edc20233a0029009b1b8c
:101900009940f2409f400a43791e8f412900f140df
:101910001743002463e637002f43d6d139003c003b
:101920002ee0300006f022fb2030d3e735002838c7
:1019300085400027dae72a001f3ce2400023202ee2
:1019400003d040239e1b2b00b3401f437b1e9f41af
:1019500000211743dde71149e41a29403fe6190049
:1019600017009ce61900170039e60b4c00210f0008
:1019700035e6040033e619001700340053e7390058
:1019800000972ce68021044cc903f9e700210f00e1
:101990003ae6190046e6c046ff070000ffff7fff5a
:1019a000f7b50d0009036c00ed0f0095490a450fce
:1019b0005e0029431d03db0f9c466b0a550f2b432a
:1019c000009d640d760dc700d200a01b654500d0b8
:1019d00036e1002861dd002e25d11d00154300d120
:1019e00097e2461e002e19d1ba18ba42a441c9186e
:1019f00064420919170001240b0200d4bee0bd4b5c
:101a000001349c4200d181e2bb487b0801400120a7
:101a100007401f43c80707434908afe0b54da84238
:101a200009d1b44caae0b34dac4200d1a6e0802568
:101a300006002d042b43382e2adc1f2e17dc202015
:101a40001d00801b8540ac4615000190f5406046a6
:101a500005430198f3408240501e82411543ed1921
:101a60005b18bd428941494259182f00c4e7300034
:101a70001d002038c5400020202e03d04020861baa
:101a8000b34018000243501e824115430023e6e78d
:101a90001a4315006a1e9541f8e7002850d0002c23
:101aa00014d10c003c4300d129e2c443002c07d1df
:101ab000bf189742a441c9186442091934009be732
:101ac0008c48864209d119001700aae7894ca64222
:101ad000f9d04442802000040143382c2bdc1f2c19
:101ae00017dc2025281b01900800019de140a8403b
:101af000844638006546e0402843019daf407d1e86
:101b0000af413843871897429241c9185242891809
:101b1000d4e720000d002038c54028000025202ce7
:101b200003d040252c1ba1400d002f437d1eaf414b
:101b300038430021e6e70f433800471eb841f8e775
:101b4000661c75056d0d012d00dd69e00800384348
:101b5000002c49d1002800d1d4e1180010430dd049
:101b6000ba18ba42b641c9188023764289191b04b3
:101b70001700194202d001245f4b19407b0709d09e
:101b80000f233b40042b05d03b1dbb42bf417f428e
:101b9000c9191f000b0206d5564b01349c4200d1d7
:101ba000c4e1554b1940534b4807ff083843c90857
:101bb0009c4206d103000b4300d1bae180231b03f2
:101bc0001943002709033b0d1b05090b19434b4b18
:101bd0006405194064080c43009b6400d90764083d
:101be0000c43210003b0f0bd002800d16be71800c2
:101bf000404c1043c2d04807ff0807438020c90863
:101c00000003014207d0dc08044204d1d2085b077c
:101c100013431f002100780fc9000143ff0000e7b4
:101c2000344ca64200d170e1ba18c918ba429b419f
:101c30005b42cb18df0752081743590834009de771
:101c400000285ddd002e35d11d00154300d160e177
:101c5000461e002e0ed1ba1a9742bf41c91a7f42c2
:101c6000c91b012417000b0200d487e749024d0a63
:101c70003e00fae01f4da84200d1d2e6382e33dcf8
:101c80001f2e20dc20201d00801b8540ac46150047
:101c90000190f540604605430198f3408240501e94
:101ca000824115437d1bcb1aaf4289414942591ae3
:101cb0002f00d8e70f4dac4200d15fe780252d04ff
:101cc0002b430600dae730001d002038c540002015
:101cd000202e03d04020861bb34018000243501e24
:101ce000824115430023dde71a4315006a1e954122
:101cf000f8e7c046ff070000ffff7fffffff0f80f0
:101d000000284dd0002c17d10c003c4300d102e13b
:101d1000c443002c09d1d71bba429241591a6346d9
:101d20005242891a340000939de7834886420ad1c3
:101d300019001700804c45e07f4ca642f8d0444281
:101d4000802000040143382c25dc1f2c11dc2025c9
:101d5000281b00900800009de140a84005003800c5
:101d6000e0402843009daf407d1eaf413843171a25
:101d7000d2e720000d002038c54028000025202c87
:101d800003d040252c1ba1400d002f437d1eaf41e9
:101d900038430021ebe70f433800471eb841f8e70e
:101da000601c4005400d01284ddc18000d0010435b
:101db0003d43002c24d1002d07d1071e00d1aee0f9
:101dc0001900170063460093d8e6002800d1d5e635
:101dd000bd1aaf42b641c81a7642801b802636042f
:101de000304206d0d71bba429241591a5242891a40
:101df000e8e72f00074300d191e001002f00bde686
:101e0000002d07d1071e00d18ce019006346170092
:101e1000009306e6484c002800d1afe64807ff08cb
:101e200007438020c9080003014200d1f3e6dc0823
:101e3000044200d0efe6d2085b0713431f0063465d
:101e400021000093e7e6be1ab7428041cd1a404216
:101e50002d1a8020000405422dd0d61bb242ad4180
:101e6000591a63466d424d1b0093002d29d028005e
:101e700006f07cf80300083b1f2b27dc20223100f2
:101e80009e40d21a9d40d14037000d439c4232dc27
:101e90001c1b661c1f2e1edc20233a0029009b1be6
:101ea0009940f2409f400a43791e8f412900f1403a
:101eb0001743002462e637002f43d6d139003c0097
:101ec0002ee0300006f052f82030d3e735002838f5
:101ed00085400027dae72a001f3ce2400023202e3d
:101ee00003d040239e1b2b00b3401f437b1e9f410a
:101ef00000211743dde71149e41a29403ee61900a5
:101f000017009be61900170038e60b4c00210f0064
:101f100034e6040032e619001700340052e73900b5
:101f200000972be68021044cc903f9e700210f003c
:101f300039e6190045e6c046ff070000ffff7fffb6
:020000040000fa
:101f4000f0b597b00c00089209931c9d079006f01d
:101f5000e1fb036818000e9306f082fc237e2668de
:101f60000b930f902b680722f1054bd59b189343d9
:101f70001a0008322a601a685b68a264e3640122ce
:101f8000e76ca36c7d000a936d080c935242c04b22
:101f90000a98290006f0c6f8002800d070e2012255
:101fa000bb4b52420a98290005f080f8002800d067
:101fb00066e2002200230c98390005f06df8002835
:101fc00003d023002d2243331a70b24b1a1d0a92fc
:101fd0000b9a472a00d80a9303230027236104237e
:101fe0003d009e432660099b14aa00932100089b94
:101ff000079804f00df8431c00d007e1012040428f
:1020000017b0f0bd0733b2e763685a1c00d0ace0ec
:102010000623636080230022db003343236065686e
:102020001092974205da802109067b181f002d23a4
:10203000109320230b9a9a430d920d9b0322462b5b
:1020400004d0453b5842584102222d1814ab04934a
:1020500013ab039312ab029300923b0001950c9ad1
:102060000798fef799f80d9b0a90472b02d1f307ca
:1020700000d418e20a9b5e190d9b462b10d10a9bd7
:102080001b78302b0ad1002200230c98390004f071
:10209000fdff002802d101235d1b1295129bf6184b
:1020a000002200230c98390004f0f0ff30220028b1
:1020b00069d01496149b0a9a9f1a0d9b472b0ad13c
:1020c000129bda1c03db6268934200dc8ce00b9b02
:1020d000023bdbb20b930b9b129a652b68d86946c7
:1020e0002c202300091809785033551e0d931970c0
:1020f00002330c931295013b002d48da0125ad1aed
:102100002d221a70092d4bdd27260cabf618731ef5
:1021100028000a21119304f021fb731e303119703d
:1021200028000a2104f0d0fa0500092831dc272113
:10213000023e30350caa0c9b357089181a008e426d
:1021400029d30d9bd51aeb192361012f02dc2268dc
:10215000d20701d501332361109b002b00d142e748
:1021600023002d2243331a703de720220b9991431f
:10217000472900d04ee7002b00d04be7012348e76a
:10218000591c14911a70149b9e42f9d892e72b2285
:10219000b7e7119ebbe7327801361a700133cde7fd
:1021a00030230c9a30351370130002325d70c8e78b
:1021b0000b9b662b1ad16368002a0cdd2261002b71
:1021c00002d12168c90702d501339b182361129bf4
:1021d0000025a365c0e7002b03d10122216811422d
:1021e00000d09a1c2261f2e767230b93129bbb423b
:1021f00005db22682361d207e9d50133e6e7012236
:10220000002b01dc0222d21ad219ebe72268530517
:1022100008d423690a9a08990798099da847431c7e
:1022200029d1ebe60b9b652b00d8d7e0a06ce16cc5
:102230000022002304f02aff002839d0154a012388
:10224000103208990798099da847431c00d1d5e68c
:10225000129bbb4202db2368db070cd5099d0f9b59
:102260000e9a08990798a8470025431c00d1c5e697
:102270007b1e9d4210db236800259b0700d5f9e0fb
:10228000149be068984200dbbae61800b8e6c04646
:10229000ffffef7fe47d0000220001231a3208993e
:1022a0000798099eb047431c00d1a7e60135dfe738
:1022b000129b002b2ddc7e4a0123103208990798cf
:1022c000099da847431c00d198e6129b002b04d11e
:1022d000002f02d12368db07cdd5099d0f9b0e9af5
:1022e00008990798a8470025431c00d186e6129b51
:1022f0005b429d4201db3b008ce7220001231a3246
:1023000008990798099eb047431c00d176e601352d
:10231000ede7a56dbd4200dd3d00002d34dc00235e
:102320000b93eb43db170c930c9ba66d0b9a2b4086
:10233000f31a9a4231db129bbb423cdb2368db077a
:1023400039d4129abb1bbd1a9d4200dd1d00002d21
:102350003adc00230a93eb43db170b93129b0b9a97
:10236000fb1a2a409b1a0a9a9a4284da2200012315
:102370001a3208990798099eb047431c00d13de6e0
:102380000a9b01330a93e9e72b000a9a08990798f8
:10239000099eb047431cc2d130e6220001231a3205
:1023a00008990798099eb047431c00d126e60b9b6d
:1023b00001330b93b8e70f9b0e9a08990798099d74
:1023c000a847431cbdd119e60a9b08999a1907989a
:1023d0002b00099eb047431cbbd10fe6012f02dc46
:1023e00001231a4239d001230a9a08990798099eb5
:1023f000b047431c00d101e60f9b0e9a089907983d
:10240000099eb047431c00d1f8e5a06ce16c0023a5
:10241000002204f03bfe0023002815d10a9a7b1eff
:10242000013208990798099eb047431c11d1e5e590
:10243000220001231a3208990798099eb047431ccd
:1024400000d1dbe50a9b01330a930a9a7b1e9a426c
:10245000eedb22002b005032dde60a9ae1e7220093
:102460000123193208990798099eb047431c00d1ef
:10247000c4e50135e368149a9b1a9d42efdbffe641
:102480000c9a3b000c98390005f04cfe002800d156
:10249000bae5074b1a000c320a920b9a472a00d968
:1024a0009ae5083397e5149b0a9a9f1a08e6c046f6
:0424b000e47d0000c7
:020000040000fa
:1024b400f0b58bb0060004930400cb0f0d03480065
:1024c40000922d0b400d0393029346d0584b984233
:1024d40067d08023720f1b04ed0013432b431f00ae
:1024e400544bf400c31800260193049b009a1d0367
:1024f4005800db0f2d0b400d069361d04c4b9842d6
:1025040000d181e08023520f1b041343ed001d43cf
:10251400484a009b8218db009446002206980399df
:102524004140604604910199091ab00010430138f2
:1025340005910e2800d981e006f036f975004902ac
:10254400ed0149023d024902ed01750075003d02ad
:10255400ed01fc01fc01fc01e2012f00374327d00f
:10256400002d13d0280005f0fffc01000b391c29b5
:1025740011dc02001d2337003400083a5b1a954031
:10258400df4094402f432c4b1b1aace7300005f07e
:10259400ebfc2030e9e70300283b9e400024370091
:1025a400f1e72e43371e07d02f00019003269ce746
:1025b4003c000197012698e734000190022694e735
:1025c400009b2b4327d0002d13d0280005f0ccfc12
:1025d40001000b391c2911dc1d2302005b1a009930
:1025e400083ad940009b954093400d43124a121a71
:1025f40092e7100005f0b8fc2030e9e70300009de5
:10260400283b9d400023f1e7009b2b4307d0130098
:102614008446032282e71d009c4601227ee71d00ba
:10262400844602227ae700252c00014b4ee1c04685
:10263400ff07000001fcffff0dfcffffaf4204d8c1
:1026440000d057e19c4200d254e1f90762081143db
:10265400e0070c0001907f082d021a0e2a431b028a
:102664000293130c03936b4600921b880399380062
:10267400079304f02ffb0600079b0690039938008c
:102684005e4304f063fb250c09040d43069fae4230
:1026940009d9009b013fed18ab4204d8ae4202d9e0
:1026a400069fed18023fab1b03991800069304f034
:1026b40011fb079e050046430399069804f046fb68
:1026c400a4b209040c432a00a64208d9009b013a8b
:1026d400e418a34203d8a64201d9aa1ee4183b0475
:1026e40002991343029a0904120c090c08920691e8
:1026f400089d06989ab2a61b1c0c514360436a437a
:102704006c4312180d0caa18904202d98020400282
:102714002418100c09041204090c04195218a642b6
:1027240005d31f00a64227d10199914224d20298d1
:10273400019984466144019181428941009849424a
:10274400091876185f1eb04204d315d1614601986a
:10275400814211d8b44203d80ed101998a420bd9cf
:1027640002999f1e8c46019b634401938b429b41bb
:1027740000995b425b18f618019b341b9b1a099362
:10278400099a019b93429b415b42e41a009ba3423a
:1027940000d1d2e00399200004f09cfa079d0600c2
:1027a40045430399200004f0d1fa099b09041c0c49
:1027b4000c430196a5420cd93300013b0193009bc5
:1027c400e418a34205d8a54203d9b31e0193009b84
:1027d400e418641b0399200004f07cfa079d0600aa
:1027e40045430399200004f0b1fa6b460a04998c1e
:1027f400330011438d4208d9009a013b89188a425b
:1028040003d88d4201d9b31e8918019a089c120479
:102814001a43100c93b24d1b16000699069a4143b5
:102824005a43634360435b18140ce318994202d97a
:10283400802149024018190c12041b04120c0818b8
:102844009b18854204d3340085421bd1002b1bd036
:10285400009a741e5519aa420fd8a84203d811d160
:10286400029a9a420bd2029ab41e510091429241aa
:10287400009e52429219ad180291854202d1029ae9
:10288400934201d001231c43059b564a9b18002bfd
:1028940056dd620709d00f222240042a05d0221dea
:1028a400a242a44164423f191400fa0106d58022d1
:1028b400d20094464c4b1f40059b63444b4a9342c1
:1028c40000dd88e0e40879070c43fd0800212d03ae
:1028d4000a0d12052d0b1543454a5b0515405b088f
:1028e4002b43049a5b00d2075b08134320001900b2
:1028f4000bb0f0bd059a013a059200220192abe6b5
:102904008022120317425ad0154258d12f001c00be
:10291400069b029353e02f0016001c00069b0493b1
:10292400022e58d0032e50d0012eadd10024250004
:102934002300cbe7039b0493f2e701246442a3e75b
:102944000122d21a382af1dc1f2a21dc202320009c
:102954009b1a39009c403d009940d040631e9c4125
:10296400d54001430c43630709d00f232340042bb4
:1029740005d0231da342a44164422d191c008023c9
:102984001b042b402ad16907e4080c43ed089de79a
:102994001f214942cb1a3900d9400b000021202abb
:1029a40003d040218a1a390091400c43611e8c41a6
:1029b40000251c43d7e7802700243f030294802589
:1029c400029b2d033d4304932fe6049ba1e70025be
:1029d4002c002b007ae70024250026e6002501239d
:1029e4002c0073e7ff030000fffffffefe0700005b
:1029f400ffff0f80f0b58bb001920593ca0f0c0353
:102a04004b000600240b5b0d0492039245d0c64a8a
:102a1400934265d08022410f12040a43e400144318
:102a2400c24ac5009b1800270293059b019a1e0306
:102a34005800db0f360b400d059360d0ba4b98421b
:102a440000d180e08023520f1b041343f6001e4381
:102a5400b64a019b8218db0094460022059804992b
:102a6400414001910299b800614410430791013833
:102a7400013106910e2879d805f096fe7400740091
:102a84007b0171017101bc017b017101bc01710108
:102a94007b016f016f016f0164012500054326d09e
:102aa400002c13d0200005f05ffa01000b391c291b
:102ab40010dc1d2302005b1a31003500083a9440f3
:102ac400d94095400c439a4b1b1aace705f04cfadd
:102ad4002030eae703003400283b9c400025f2e75d
:102ae4000500254307d00500029303279de72c002a
:102af4000295012799e72c000293022795e7019b91
:102b0400334327d0002e13d0300005f02dfa0100f6
:102b14000b391c2911dc1d2302005b1a0199083aa8
:102b2400d940019b964093400e43814a121a93e781
:102b3400100005f019fa2030e9e70300019e283b54
:102b44009e400023f1e7019b334307d013008446e2
:102b5400032283e71e009c4601227fe71e00844671
:102b640002227be734001d001700f8e0190c9bb229
:102b7400029119002a0c514318008c46029f0299b5
:102b8400adb2684351436f4304916744010cc919c2
:102b940003908c4506d9049f380080277f02bc46e9
:102ba40060440490684680890f0c0904091809914f
:102bb400310cb6b2039130003100bc46039f694327
:102bc40050437d437a432d180f0c7d19a84202d936
:102bd400802040021218280c82182d0489b2059214
:102be4006a1808921800089962468c46029f210cc4
:102bf400a4b260434b43674362449446029dff186a
:102c0400020cd2194d43934202d980235b02ed1882
:102c14003700130c5b190293039b67434e435c43d9
:102c24005943a4193b0c120480b21c191018a64273
:102c340002d980235b02c918049b220463441e004a
:102c4400089bbfb29e42ad418619d2198642bf414c
:102c54000298059b84466d42d218ab189c4403939a
:102c6400059b60469a429241039b5242ab429b4170
:102c74005b427f421a43029b3818240c1219b84253
:102c8400bf419c45a4417f4264423c4314196418eb
:102c9400c30d64021c43099b75021d43691e8d41cb
:102ca400f60d354340020543e30167d501226b0865
:102cb40015401d43e307d4401d43069b1d4a9b1842
:102cc400002b5edd6a0709d00f222a40042a05d0b2
:102cd4002a1daa42ad416d4264191500e20106d5d0
:102ce4008022d2009446144b1c40069b6344134a32
:102cf400934200dd8be06207ed081543e4080021f0
:102d040024030a0d1205240b14430d4a5b051440d9
:102d14005b082343019a5b00d2075b081343280036
:102d240019000bb0f0bdc046ff07000001fcffff17
:102d34000dfcffffff030000fffffffefe07000086
:102d4400ffff0f8080221203144257d0164255d140
:102d540034001d00059b039350e0049b0193022f54
:102d640055d0032f51d0012fa7d100252c002b00c3
:102d7400c5e71d00059b34000193f5e6079b069308
:102d84009be70122d21a382aefdc1f2a20dc2023f9
:102d940021009b1a28009d409940d0406b1e9d4104
:102da400d44001430d436b0709d00f232b40042b60
:102db40005d02b1dab42ad416d4264191d0080232b
:102dc4001b04234000d196e700240123250096e745
:102dd4001f214942cb1a2100d9400023202a03d0c5
:102de40040239a1a230093401d436b1e9d410024e7
:102df4000d43d8e7802400252403039580231b0377
:102e04001c43039b0193034b79e7019ba3e7002534
:082e14002c00f8e7ff070000a5
:020000040000fa
:102e1c00b0b588b002afdd4b06225a6002f042f921
:102e2c0005f04cfc05f00cfa04f08cfe05f09afc55
:102e3c0005f00afc04f056f804f0b2fd05f054f865
:102e4c0005f0defcd24b181c03f0c8ffd14cd24a63
:102e5c00d049d248d24b0093231c04f033facd4c0a
:102e6c00d04acc49d048cf4b0093231c04f02afa0b
:102e7c00c84cce4ac749ce48fe239b050093231c61
:102e8c0004f020facb4b1b68cb4ccc4aca49cc483b
:102e9c000093231c04f0daf9ca4b1a68ca4b1b685e
:102eac00fe24a405fe218905c8480093231c04f0c8
:102ebc00cdf9c74b1a68c04cbf49c648c64b0093e6
:102ecc00231c04f0c3f9c54b3b613a69c44b110098
:102edc00180005f079fb0e23fb1800221a800c2336
:102eec00fb1800221a800023bb6001237b610023a6
:102efc007b60bb1c00221a80ba4b180005f0d8f876
:102f0c000e23fb1800221a800c23fb1800221a80b7
:102f1c0005f018fa0e23fc1804f082ff030023803e
:102f2c0004f078fcc046b04b1b78dbb20122534056
:102f3c00dbb2002bf7d105f03bf90c23fc1804f0a5
:102f4c006fff0300238005f011fa0c23fb181a887d
:102f5c000e23fb181b881100180004f03bf9031c0e
:102f6c00bb6003f0f9fe04f087fc04f09dffbb6826
:102f7c00181c05f02ff89d4b1b68181c03f036fd30
:102f8c0003000c009a491a002300080005f01cfbf2
:102f9c00964b5b68181c03f029fd03000c00954947
:102fac001a002300080005f00ffb904b9b68181cbf
:102fbc0003f01cfd03000c008f491a0023000800cd
:102fcc0005f002fbb86803f011fd03000c008b49ff
:102fdc001a002300080005f0f7fa844bdb68181c74
:102fec0003f004fd03000c0085491a0023000800bf
:102ffc0005f0eafa7d4b1868704c80235a00704932
:10300c00754b0093231c02f003f9021c7d4b1a60d4
:10301c00764b1868694c80235a006c496e4b0093b0
:10302c00231c02f0f5f8021c764b5a606f4b1868a3
:10303c00624c80235a006749674b0093231c02f0b3
:10304c00e7f8021c6f4b9a60684bd868524a534998
:10305c00fe239b050093131cc92202f0d9f8021c15
:10306c00694b1a60614bd8684b4a4f49fe239b054c
:10307c000093131cc92202f0cbf8021c624b5a605d
:10308c005a4bd868444a4a49fe239b050093131cab
:10309c00c92202f0bdf8021c5b4b9a605a49594a8e
:1030ac006b4618000b1d30cb30c00b681068516894
:1030bc00926801f0a5f9031c7b60524b1b68181c2d
:1030cc0003f094fc03000c0050491a002300080084
:1030dc0005f07afa4b4b5b68181c03f087fc030075
:1030ec000c004b491a002300080005f06dfa454b03
:1030fc009b68181c03f07afc03000c0045491a006d
:10310c002300080005f060fa3f4b1b68181c03f005
:10311c006dfc03000c0040491a002300080005f068
:10312c0053fa394b5b68181c03f060fc03000c006d
:10313c003a491a002300080005f046fa324b9b6806
:10314c00181c03f053fc03000c0035491a00230033
:10315c00080005f039fa786803f048fc03000c000d
:10316c0030491a002300080005f02efabc1c7b68bd
:10317c00181c03f037ff03002380bb1c1b881800ae
:10318c0004f096ff7b6901337b61b9e60040004196
:10319c000000c242cdcc4c3e000080bf040c00208d
:1031ac003333b3be8fc2f5bc280f00203333b33e8c
:1031bc004c1200203819002000002040000020c2d2
:1031cc00040000203c1900204019002004040020b9
:1031dc0044190020040800200000f0422c49000093
:1031ec0048490000460200005b1900200819002025
:1031fc004c4900007049000094490000b849000097
:10320c00d44900001819002024190020ec490000b2
:10321c00184a0000484a0000744a0000a84a0000fe
:08322c00d84a00000c4b000021
:020000040000fa
:10323400bc1800201c00000000000000f41800204e
:1032440014000000000000005819002001000000d4
:1032540000000000591900200100000000000000d7
:10326400dc17002080000000000000005a19002034
:1032740001000000000000005b19002001000000b4
:1032840000000000d81800201c000000010000000d
:10329400000040400000404000d08445e1c1643a51
:1032a400d60f5a39de8e60333393884308190020d1
:1032b4001000000000000000dc16002000010000e7
:1032c400000000003019002004000000000000008d
:1032d4003419002004000000000000003819002008
:1032e40004000000000000003c190020040000005d
:1032f400000000004019002004000000000000004d
:1033040044190020040000000000000018190020e7
:103314000c00000000000000241900200c00000034
:103324000000000004000020000c00000000000069
:10333400040c00206c090000000000005c1900204f
:1033440001000000010000000100000048190020f5
:1033540004000000010000005c1800205c1800203c
:10336400600000000100000000000000148600005e
:1033740034860000f4850000000000000000000016
:103384000000000000000000000000000000000039
:103394000000000000000000000000000000000029
:1033a4000000000000000000000000000000000019
:1033b4000000000000000000000000000000000009
:1033c4000000000000000000701500206c010000e7
:1033d40001000000430000000000000000000000a5
:1033e40000000000000000000000000000000000d9
:1033f4000000000043000000000000000000000086
:1034040000000000000000000000000000000000b8
:103414000000000043000000000000000000000065
:103424000000000000000000000000000000000098
:103434000000000043000000000000000000000045
:103444000000000000000000000000000000000078
:103454000000000043000000000000000000000025
:103464000000000000000000000000000000000058
:103474000000000043000000000000000000000005
:103484000000000000000000000000000000000038
:1034940000000000430000000000000000000000e5
:1034a4000000000000000000000000000000000018
:1034b40000000000fd860000dd8400000000000024
:1034c400ac570000c1880000c0880000c08800001c
:1034d400c0880000c0880000c0880000c0880000c8
:1034e400c0880000c0880000c0880000ffffffff04
:1034f400ffffffffffffffffffff0000010041533d
:1035040043494900000000000000000000000000e2
:103514000000000000000000000000000000415313
:1035240043494900000000000000000000000000c2
:103534000000000000000000000000000000000087
:103544004c19002004000000000000005019002065
:10355400040000000000000000000020040000003f
:1035640000000000541900200400000000000000c6
:103574000000000000000000222222222222222237
:020000040000fa
:103584000d0a0a0a0a0a0a0a0a0a0a0a0a0a0a0a94
:103594000a0a0a0a0000c04650656e6e2053746120
:1035a40074652042656872656e6420456d62656469
:1035b400646564204f43584f0d00c04653706f6ece
:1035c400736f726564206279204b796f63657261f1
:1035d400204156580d0a0d004573636170652072d1
:1035e40065717565737465642c20706c65617365b1
:1035f4002074727920616761696e210d0000c046f4
:103604004572726f723a205258206275666665720e
:10361400206f766572666c6f77210d002163000060
:1036240021730000496e76616c6964206e756d6269
:1036340065722072656365697665643a2025730d49
:103644000a00c0462165000021680000456e7465cb
:1036540072696e6720566572626f7365204d6f6480
:10366400652e2e2e0d00c046566572626f7365205e
:103674004d6f646520686173206265656e20656eb8
:103684007465726564210d005265636569766564cd
:10369400206e657720736574706f696e742e2e2e9c
:1036a4000d00c046456e64696e6720566572626f90
:1036b4007365204d6f64652e2e2e0d005665726263
:1036c4006f7365204d6f6465206861732062656562
:1036d4006e20656e646564210d00c0460d0a0a0003
:1036e4002a2a2a2a2a2a2a2a2a2a2a2a2a2a2a2a36
:1036f4002a2a2a2a2a2a2a2a2a2a2a2a2a2a2a2a26
:103704002a2a2a2a2a2a2a2a2a2a2a2a2a2a2a2a15
:103714002a2a2a2a2a2a2a2a2a2a2a2a2a2a2a2a05
:103724002a2a2a2a2a2a2a2a2a2a2a2a2a2a2a2af5
:103734002a2a2a2a2a2a2a2a2a2a2a2a0d00c0467a
:103744002020202020202020202020202020202075
:103754002020202020202020202020202020202065
:1037640020202020202020434f4d4d414e44532003
:103774004d454e550d00c0462a2a2a2a2a2a2a2aad
:103784002a2a2a2a2a2a2a2a2a2a2a2a2a2a2a2a95
:103794002a2a2a2a2a2a2a2a2a2a2a2a2a2a2a2a85
:1037a4002a2a2a2a2a2a2a2a2a2a2a2a2a2a2a2a75
:1037b4002a2a2a2a2a2a2a2a2a2a2a2a2a2a2a2a65
:1037c4002a2a2a2a2a2a2a2a2a2a2a2a2a2a2a2a55
:1037d4002a2a2a2a0d0a0000436f6d6d616e642047
:1037e40020416374696f6e0d0000c0462020216380
:1037f4002020202020426567696e206f7220656e4c
:103804006420766572626f7365206d6f6465200d48
:103814000000c04620202173202020202053656e04
:10382400642061206e657720736574706f696e74af
:1038340020647572696e6720766572626f736520a5
:103844006d6f64650d00c046202021652020202076
:1038540020456e6420766572626f7365206d6f64b7
:10386400650d000020202168202020202053686f4f
:103874007720636f6d6d616e6473206d656e752066
:103884000d00c046496e76616c696420636f6d6d8e
:10389400616e642c20706c6561736520747279208c
:0838a400616761696e210d00ee
:020000040000fa
:1038ac00f7b543024a025b0a520a4e0044000193e8
:1038bc0000939446240ec50fdb00360ec90fd200c0
:1038cc00ff2e01d1002a01d101204140a01ba942a9
:1038dc0000d0a1e000282edd002e18d1002a00d146
:1038ec004ae1411e00290ed101249b185a015bd5d7
:1038fc000134ff2c00d13de10122a4491a405b08a0
:10390c000b40134350e0ff2807d1ff244ce0ff2c61
:10391c004ad08021c9040a4301001b2901dd012280
:10392c0007e010002026c840711a8a40511e8a41b7
:10393c0002439b18dae7002821d0002c0cd1002b75
:10394c0007d0c043002802d19b183400cee7ff2ecd
:10395c0008d11300340027e0ff2efad08021c904cf
:10396c0040420b431b2801dd0123ede71900202405
:10397c00c140201a8340581e83410b43e4e7611c6d
:10398c00ff260f003740012f3fdc002c2bd1002be2
:10399c0000d1eae0002a07d09b188022d2041342ff
:1039ac0002d001247a4a13405a0704d00f221a403d
:1039bc00042a00d004335a0105d50134ff2c00d160
:1039cc00e1e0734a1340db08ff2c04d1002b02d03a
:1039dc008022d20313435b02e4b2e405580aed07dc
:1039ec0020432843febd002b00d1c0e03400002a48
:1039fc00dad08023019adb031a4203d062461a42c2
:103a0c0000d10092009bdb007fe7ff2900d1b0e0e2
:103a1c009b185b080c00c7e7002826dd002e13d18d
:103a2c00002a00d1a8e0411e002906d101249b1ace
:103a3c005a01b9d59b019e097ae0ff2800d164e7b1
:103a4c001b2908dd01220ee0ff2cadd08021c9041a
:103a5c000a430100f4e710002026c840711a8a407e
:103a6c00511e8a4102439b1ae2e7002822d0002c07
:103a7c000dd1002b08d0c043002803d1d31a340039
:103a8c000d00d5e7ff2e08d11300340020e0ff2ee7
:103a9c00fad08024e404404223431b2801dd012397
:103aac00ece71c002025c440281a8340581e834193
:103abc002343e3e7ff20661c0640012e31dc002c7b
:103acc0017d1002b06d11d00002a00d16ce7130082
:103adc000d0069e7002a00d166e78026981af604e3
:103aec00304201d0d31af3e7031e00d05ce71d006f
:103afc005ae7002b04d1002a40d013000d0004e734
:103b0c000400002a00d14fe78023019adb031a42fc
:103b1c0000d177e762461a4200d073e700920d009d
:103b2c0070e780209e1ac004064215d00d00d61aec
:103b3c00300004f015fa330005388340844210dc61
:103b4c00041b1a0020200134e240041ba3405e1e1b
:103b5c00b3410024134327e7002ee9d1330034008e
:103b6c00c5e7241a0a4803401ee713001ce713009c
:103b7c00cbe60c00002317e7040015e780230400b4
:103b8c009b04150010e700231de7c046ffffff7dd7
:043b9c00fffffffb2d
:020000040000fa
:103ba000f0b58fb0051c0c1cfdf7d4f80023af4f07
:103bb000061cfb560193013365d0211c201c04f028
:103bc00003fc029000285ed1291c281c04f0fcfb99
:103bd00000210390002821d0201c03f075fc002850
:103be00051d001230493a24b281c0593029b0c93f4
:103bf00002f002ff06900791201c02f0fdfe002259
:103c00009c4b089009910a920b93019b022b35d093
:103c100004a804f003fe002827d161e0281c03f06b
:103c200053fc002861d00021201c03f04dfc0290c1
:103c300000282bd0012304938d4b281c0593039b54
:103c40000c9302f0d9fe06900791201c02f0d4fede
:103c5000002300220a920b93019b08900991002bec
:103c6000d6d00022834b0a920b930c9b0193002b1e
:103c700004d004f009fe0c9b019303600a980b9991
:103c800001f096fe061c301c0fb0f0bd201c04f0a5
:103c900079fd0028f7d00021201c03f01bfc002830
:103ca000f1d001230493724b281c0593029b0c93c3
:103cb00002f0a2fe06900791201c02f09dfe002358
:103cc000fb5608900991002b04d1002200230a9290
:103cd0000b939de7002068490a900b91022b97d126
:103ce00004f0d2fd21230360bfe7301c04f04afd3d
:103cf0000190002800d08be0281c04f043fd002830
:103d000000d185e0201c04f03dfd002800d17fe0bb
:103d1000311c301c04f058fb0026554bbe570028c0
:103d20001bd001220593019b281c04920c9302f0e6
:103d300063fe06900791201c02f05efe00220890b0
:103d400009910023002ec2d010001900fef7b2fb2b
:103d50000a900b91022ec3d05ae703220c90281c24
:103d60000492059302f048fe06900791201c02f091
:103d700043fe08900991002e2ad1e0223f4b120603
:103d80000021281c0a920b9303f0a4fb002865d0a5
:103d9000fc21201c890500f0bfff02f02dfe04006d
:103da0000d0001f0f7fb02000b002000290003f0da
:103db0006df9002804d1e022314b12060a920b93d0
:103dc0000023fb56022b49d104f05efd22238ae733
:103dd00000222c4b0021281c0a920b9303f07afb43
:103de0000028edd0fc21201c890500f095ff02f091
:103df00003fe04000d0001f0cdfb02000b002000cb
:103e0000290003f043f90028dad100221a4bd5e744
:103e10000021301c03f058fb002800d133e7281c98
:103e200004f0b0fc002800d12de7201c04f0aafc0f
:103e3000002800d127e7042304930d4b281c059389
:103e400000230c9302f0d8fd06900791201c02f08d
:103e5000d3fd0022089009910023afe704a804f0e5
:103e6000ddfc002800d000e7aee7c0465c1900206a
:103e70003d8900000000f03f0000f0ffffffef472a
:083e8000ffffefc70000f07f17
:020000040000fa
:103e8800f7b54602730a802644004a024f00520ad8
:103e9800240e3f0ef6040093c50f0192db00c90ff4
:103ea800d200e01bb4468d4200d0a0e000282eddf1
:103eb800002f18d1002a00d146e1411e00290ed159
:103ec80001249b185a015ad50134ff2c00d139e13d
:103ed8000122a2491a405b080b4013434fe0ff2818
:103ee80007d1ff244be0ff2c49d0310011430a00d1
:103ef80001001b2901dd012207e010002026c8402f
:103f0800711a8a40511e8a4102439b18dae7002839
:103f180021d0002c0cd1002b07d0c043002802d19f
:103f28009b183c00cee7ff2f08d113003c0026e089
:103f3800ff2ffad0310019430b0040421b2801dd46
:103f48000123ede719002024c140201a8340581ea0
:103f580083410b43e4e7611cff270e003e40012e1e
:103f68003edc002c2ad1002b00d1e6e0002a06d046
:103f78009b186246134202d00124794a13405a071b
:103f880004d00f221a40042a00d004335a0105d560
:103f98000134ff2c00d1dee0714a1340db08ff2c0e
:103fa80004d1002b02d08022d20313435b02e4b277
:103fb800e405580aed0720432843febd002b00d135
:103fc800bde03c00002adad08023009adb031a42c5
:103fd80003d0019a1a4200d10092009bdb0080e7cf
:103fe800ff2900d1ade09b185b080c00c7e700284b
:103ff80026dd002f13d1002a00d1a5e0411e00299b
:1040080006d101249b1a5a01b9d59b019e0977e074
:10401800ff2800d165e71b2908dd01220ee0ff2cef
:10402800add0310011430a000100f4e7100020264a
:10403800c840711a8a40511e8a4102439b1ae2e71e
:10404800002822d0002c0dd1002b08d0c043002816
:1040580003d1d31a3c000d00d5e7ff2f08d1130078
:104068003c0020e0ff2ffad034001c4323004042dc
:104078001b2801dd0123ece71c002025c440281a79
:104088008340581e83412343e3e7ff20671c074012
:10409800012f2fdc002c15d1002b06d11d00002a82
:1040a80000d16ce713000d0069e7002a00d166e72c
:1040b800981a304201d0d31af5e7031e00d05ee704
:1040c8001d005ce7002b04d1002a3fd013000d002f
:1040d80007e70400002a00d151e78023009adb0398
:1040e8001a4200d179e7019a1a4200d075e7009286
:1040f8000d0072e760469e1a064215d00d00d61aca
:10410800300003f02fff330005388340844210dc71
:10411800041b1a0020200134e240041ba3405e1e49
:10412800b341002413432ae7002ee9d133003400b9
:10413800c6e7241a0a48034021e713001fe71300c3
:10414800cfe60c0000231ae7040018e780230400d8
:104158009b04150013e7002320e7c046ffffff7dff
:04416800fffffffb5b
:020000040000fa
:10416c00f0b5a1b002900f0014000593002805d003
:10417c0083690393002b01d103f0b2fa9b4b9f424e
:10418c0057d1029b5f68bb891b075ed53b69002b2f
:10419c005bd0002308ad6b6120236b763023039436
:1041ac00ab76039c2378002b59d1039be61a0cd0d9
:1041bc003300039a3900029803f0c6fd431c00d16a
:1041cc000ee10d9b9e1903930d962378002b00d1c5
:1041dc0006e101225b26002352426a6002aab6184d
:1041ec002b60eb60ab603370ab65814b01341233e9
:1041fc00039305222178039804f09efa621c002890
:10420c0031d10899cb0601d5202333700b0701d58a
:10421c002b23337023782a2b2ed000200a210b9bc2
:10422c002278303a092a00d86fe000282cd00b9362
:10423c002ae0704b9f4202d1029b9f68a3e76e4b12
:10424c009f42a0d1029bdf689de73900029801f0e4
:10425c0015fd00289dd00120404221b0f0bd252b3a
:10426c00a3d001349ee7039b2968c01a0123834025
:10427c000b432b601400bce7059b181d1b680590b5
:10428c00002b3cdb0b93140023782e2b0bd1637883
:10429c00621c2a2b41d1059b02341a1d1b68059206
:1042ac00002b37db0993524b21781833032218006b
:1042bc00039304f041fa002807d0039b2a68c01a24
:1042cc004023834013432b60013449482178631cfd
:1042dc0006221c302976039304f02efa011e2ed0f0
:1042ec0005ab00933a00454b29000298fdf722fede
:1042fc00431c75d00d9b181804930d9051e75b422d
:10430c000b9302230b430893bde74b4301349b18db
:10431c00012085e701235b42c4e7002314000a2037
:10432c001a00099321783039092903d9002bbad006
:10433c000992b8e74243013452180123f2e72b7e6d
:10434c00002b08d0732b24d05a2602aab61833702f
:10435c0001232b612ce02b61284b07aa009308a9a1
:10436c003b00029801f04efe431c39d00c9b3200ee
:10437c003900029803f0e8fc431c31d0089b002460
:10438c0004939b0725d4079b0b989842b0da18002e
:10439c00aee7059b1a1d05921e686a68300004f092
:1043ac00cbf9002801d0801b6860099b04930c9307
:1043bc005b23002202a95b181a70cde7312202a9f7
:1043cc00012352180298390003f0befc431c07d09d
:1043dc0001340b9b079a04939b1a9c42eedbd2e7a9
:1043ec00bb895b0600d536e70d9836e714860000ce
:1043fc009085000034860000f4850000557d000097
:020000040000fa
:10440c0082b0b0b596b000af3c1d20606160a26078
:10441c00042268218c46bc44624413603023fb1890
:10442c0018001c231a00002104f0fcf91423fb18bb
:10443c0018001c231a00002104f0f4f900237b65fa
:10444c0000233b653b1d1b68181c02f0cffa0400cf
:10445c000d00042368229446bc4463441b68181c5a
:10446c0002f0c4fa02000b002000290003f0cefd7c
:10447c0003000c001800210001f094fa021c3023f8
:10448c00fb181a601423fb187e4a1a603b1d1b682c
:10449c00181c02f0abfa04000d00042368229446a9
:1044ac00bc4463445b68181c02f0a0fa02000b00c9
:1044bc002000290003f0aafd03000c0018002100c5
:1044cc0001f070fa021c3023fb185a601423fb18fd
:1044dc00fe2292055a603b1d1b68181c02f086fade
:1044ec0004000d00042368229446bc4463449b687a
:1044fc00181c02f07bfa02000b002000290003f0cc
:10450c0085fd03000c001800210001f04bfa021c81
:10451c003023fb189a601423fb185b4a9a603b1dee
:10452c005a683023fb18da601423fb18564ada60f9
:10453c003b1d9b68181c02f059fa04000d00042363
:10454c0068229446bc4463441b68181c02f04efa63
:10455c0002000b002000290003f058fd03000c00a2
:10456c001800210001f01efa021c3023fb181a61fe
:10457c001423fb18444a1a613b1d9b68181c02f05b
:10458c0035fa04000d00042368229446bc446344ad
:10459c005b68181c02f02afa02000b0020002900ac
:1045ac0003f034fd03000c001800210001f0faf9af
:1045bc00021c3023fb185a611423fb188022d205ed
:1045cc005a613b1d9b68181c02f010fa04000d0088
:1045dc00042368229446bc4463449b68181c02f074
:1045ec0005fa02000b002000290003f00ffd030068
:1045fc000c001800210001f0d5f9021c3023fb1827
:10460c009a611423fb18214a9a610023fb6421e070
:10461c003023fb18fa6c9200d0581423fb18fa6c58
:10462c009200d358191c00f071fb031c191c786df7
:10463c00fff724fc031c7b653023fb18fa6c9200fb
:10464c00d358191c386dfff719fc031c3b65fb6c28
:10465c000133fb64fb6c062bdadd0021386d02f0b4
:10466c002dff031e01d0002304e0396d786d00f09e
:10467c0039fc031c181cbd4616b0b0bc08bc02b0fb
:10468c001847c0469a99193f6666c63f00002040fd
:020000040000fa
:10469c00f0b5030085b0420006d1cc200021000605
:1046ac0000f020fc05b0f0bd002804da011cfff777
:1046bc00f7f80021f4e78b4a011c90423ddc8a4953
:1046cc000022884206dc9821c90500f01ffb192244
:1046dc0003005242df157f3fbf185b02834a5b0a1f
:1046ec009818019380231b040340fe20fe218005b3
:1046fc00da155840019b89051843d719fff7d0f8f4
:10470c00019b041c0f335b025b0a0f2b46dc002160
:10471c0002f0d4fe002813d00020002fc2d03800a5
:10472c0002f09efb7249041c00f0f0fa7149051c62
:10473c00201c00f0ebfa011c281cfff79ffbb1e7d3
:10474c006d49201c00f0e2fa011cfc208005fff7eb
:10475c00a7f8211c051c201c00f0d8fa011c281cf1
:10476c0000f0d4fa051c011c002f7bd0380002f09d
:10477c0077fb5f49061c00f0c9fa5e49071c301c28
:10478c0000f0c4fa011c281cfff78af8211cfff763
:10479c0087f8011c381cfff783f883e78021c905d3
:1047ac00fff76cfb011c201c00f09cfb00903800f8
:1047bc0002f056fb00990290081c00f0a7fa4f4a31
:1047cc00019b9446011c63440393051c00f09efa64
:1047dc004b49061c00f09afa4a49fff74ffb311c73
:1047ec0000f094fa4849fff749fb311c00f08efaaf
:1047fc004649fff743fb291c00f088fa4449051c85
:10480c00301c00f083fa4349fff738fb311c00f0f1
:10481c007dfa4149fff732fb311c00f077fa011c9d
:10482c00281cfff72bfb019b051c3c48c01a039b63
:10483c001843002830ddfc21201c890500f066faa5
:10484c00211c00f063fa061c002f0dd1011c281c42
:10485c00fff714fb009900f059fa011c301cfff70c
:10486c001ff8011c201c96e72149029800f04efa13
:10487c00311c071c281cfff701fb009900f046fabd
:10488c001c49051c029800f041fa011c281cfff77a
:10489c00f5fa011c301c77e7002f07d1291c201cce
:1048ac00fef7feff009900f031fadae710490298a2
:1048bc0000f02cfa291c061c201cfef7f1ff0099b5
:1048cc0000f024fa0b49051c029800f01ffa011c99
:1048dc00281cfef7e5ff211cfef7e2ff011c301c33
:1048ec0059e7c046ffff7f7fffff7f0020fb4a0098
:1048fc008071313fd1f71737abaaaa3e305ccfff9e
:10490c009788173e25333a3e2549923eabaa2a3f5b
:10491c004fd01c3e298e633ecdcccc3e88c2350098
:020000040000fa
:10492c005265616368656420746865207768696c9a
:10493c0065206c6f6f700a0a0a0d00002573000069
:10494c0041766572616765206f66207468652073b7
:10495c00616d706c657320697320252e38660a0aa8
:10496c000d00c04646697273742074656d70657273
:10497c0061747572652073616d706c653a20252ebb
:10498c0038660a0a0d00c0464c6173742074656d5c
:10499c0070657261747572652073616d706c653ac7
:1049ac0020252e38660a0a0d0000c046456c617041
:1049bc007365642074696d6520697320252e3866d3
:1049cc00200a0a0d0000c046536c6f70652076619a
:1049dc006c756520697320252e38660a0a0d000057
:1049ec0054686520646567726565206f66206d6527
:1049fc006d62657273686970206f6620636f6c649a
:104a0c0020697320252e38660a0a0d00546865202b
:104a1c00646567726565206f66206d656d62657291
:104a2c0073686970206f66206f7074696d616c209b
:104a3c00697320252e38660a0a0d0000546865201b
:104a4c00646567726565206f66206d656d62657261
:104a5c0073686970206f6620686f742069732025f5
:104a6c002e38660a0a0d000054686520646567726a
:104a7c006565206f66206d656d626572736869701f
:104a8c00206f662064656372656173696e67206967
:104a9c007320252e38660a0a0d00c046546865201e
:104aac00646567726565206f66206d656d62657201
:104abc0073686970206f6620737461626c6520691d
:104acc007320252e38660a0a0d00c04654686520ee
:104adc00646567726565206f66206d656d626572d1
:104aec0073686970206f6620696e637265617369a3
:104afc006e6720697320252e38660a0a0d00c046a1
:104b0c004576616c75617465642072756c652d7386
:104b1c006574206f757470757420697320252e3838
:084b2c00660a0a0d0d00c046e7
:020000040000fa
:104b3400f7b5ff214300041c5b08c9058b4205d966
:104b4400011c201cfff79ef9041c05e0c60f8b42d4
:104b540004d1002e00d0b9e0201cfebd5c4988427f
:104b640004dd5c49081c00f0d5f8ede7002803da01
:104b7400594a934200d9a9e0584a93426ed9584af7
:104b8400b50093424ed8574b201c5959fef78cfe62
:104b9400554b071c5b590125ad1b0193ad1b0199b6
:104ba400381cfef781fe041c211c201c00f0b2f806
:104bb4004e49061c00f0aef84d49fef775fe311c57
:104bc40000f0a8f84b49fff75df9311c00f0a2f89a
:104bd4004949fef769fe311c00f09cf84749fff78c
:104be40051f9311c00f096f8011c201cfef75cfe04
:104bf400061c011c201c002d44d100f08bf88021e0
:104c0400051cc905301cfef74ffe011c281c00f0d2
:104c14006df9211cfef748fe011cfe208005fef7fd
:104c240043fe91e73649201c00f074f8354b59597e
:104c3400fff728f903f07af9050002f015f9324973
:104c4400061c00f067f8011c201cfef72dfe2f49fe
:104c5400071c301c00f05ef80190a0e72c4a934238
:104c64000cd81c49201cfff70df9fe21890502f020
:104c740043fc002804d0fe21890562e7002593e760
:104c8400050091e700f046f8041c8020311cc005a3
:104c9400fef70afe011c201c00f028f9011c0198f3
:104ca400fef702fe391cfef7fffd011cfe20800505
:104cb400fef7fafd2b007d3302dbec0524184be7ed
:104cc400d8216435ed05281809054ce7002443e78d
:104cd4001772b142caf24971b5f1cf421872b13eae
:104ce4009115853fcc880000d48800004cbb31333b
:104cf4000eeadd3555b38a38610b363babaa2a3e42
:104d04003baab83fc48800008071313fd1f7173700
:044d1400ffff7f31ed
:020000040000fa
:104d1800f0b5c30f85b0440245000391640a2d0e17
:104d28000293019330d0ff2d3ad08023e400db04b6
:104d38007f3d1c4300950027039b5e025d00db0f4f
:104d4800760a2d0e039334d0ff2d3cd08022280004
:104d58000025f600d20416437f38039b029a5a4076
:104d6800009b9c4684446346b80028430138591c7c
:104d78000e2833d803f00cfd2f2f8c7b7bad8c7b5a
:104d8800ad7b8c7a7a7a6b00002c0fd0200003f070
:104d9800e9f87626431f76429c40331a0093cae707
:104da80000950327002cc7d10227c5e700940127e7
:104db800c2e7301e0dd003f0d5f8431f9e4076237e
:104dc8005b42181ac9e728000325002ec5d1022521
:104dd800c3e70125c1e734002f0048e0b7b2a3b20a
:104de800200c3c00350c47435c4368435d43230c6f
:104df800ed195b199f4202d980256d024019a4b2b2
:104e08001d042d19ac01671ebc41ad0e25431c0cb9
:104e18002418a4012c4323013dd5012360081c401c
:104e280004430d007f35002d37dd630704d00f23c1
:104e38002340042b00d00434230103d580310d0016
:104e4800284b1c40e308fe2d19dd00230ce08023cd
:104e5800db031c4204d01e4202d13400039b0193a1
:104e68008023019adb032343ff2508e0029a022fdf
:104e7800ebd0032f31d000231d00012fd1d15802d0
:104e8800edb2ed05400ad2072843104305b0f0bd46
:104e98003400039aa0e76146c3e70120451b1b2d98
:104ea8001ddc23002020eb40451bac40611e8c41db
:104eb8002343590704d00f211940042900d0043393
:104ec8008025ed041d40db08002dd8d000230125e6
:104ed800d5e780240023e403c1e70192c0e700235b
:104ee8001d00cce7fffffff7f0b5c30f85b0440204
:104ef80045000391640a2d0e029301930ad0ff2df9
:104f080038d08023e400db047f3d1c432e000023bf
:104f180000930ae0002c33d0200003f023f8762613
:104f2800431f9c407642361a0095039b5f025d0042
:104f3800db0f7f0a2d0e039325d0ff2d2dd0802265
:104f480028000025ff00d20417437f38039b029aec
:104f5800361a5a40009b9800284301380e2824d856
:104f680003f016fc4e9d639d979d634e4e976379a3
:104f7800797954002e000323002cc9d10223c7e7f6
:104f880026000123c4e7381e0dd002f0ebff431fb3
:104f98009f4076235b42181ad8e728000325002f84
:104fa800d4d10225d2e70125d0e7640178018442f3
:104fb80028d31a210123241a012527005b00640045
:104fc800002f01dba04201d8241a2b430139002904
:104fd800f3d1611e8c411c4331007f3100293cdd37
:104fe800630704d00f232340042b00d0043423018b
:104ff80003d531002b4b80311c40e308fe2921dd0d
:10500800002310e0013e1b210023d5e78023db03aa
:105018001c4204d01f4202d13c00039b0193802311
:10502800019adb032343ff210ce03c00039a00951f
:10503800009b022be4d0032b2fd0002300981900eb
:105048000128c9d15802c9b2c905400ad207084384
:10505800104305b0f0bd029aeae70120411a1b2966
:105068001ddc23002020cb40411a8c40611e8c415e
:105078002343590704d00f211940042900d00433d1
:105088008021c9041940db080029dbd00023012155
:10509800d8e780240023e403c0e70192bfe7002398
:0850a8001900cfe7fffffff73d
:020000040000fa
:1050b00080b500af8223db0542220121995482236f
:1050c000db053122012199548223db0504229a60f9
:1050d0008223db054422fd2199548223db05322201
:1050e000012199548223db05462201219954822310
:1050f000db053322012199548223db0520225a60eb
:105100008223db0540225a608223db0548224121ad
:1051100099548223db054922012199548223db051e
:105120003422222199548223db05802252009a6086
:105130008223db05802292005a608223db05502205
:10514000412199548223db05512241219954822324
:10515000db055222412199548223db053822332179
:1051600099548223db053922032199548223db05dc
:10517000802252029a608223db05802292029a608a
:105180008223db058022d2029a608223db05402243
:10519000042199548223db0541220421995482235e
:1051a000db054722042199548223db054a2204218e
:1051b00099548223db054b22042199548223db0579
:1051c0004e22042199548223db054f220421995455
:1051d0008223db055322042199548223db055622c6
:1051e000042199548223db055722042199548223f8
:1051f000db055822042199548223db05592204211e
:1052000099548223db055b22042199548223db0518
:0c5210005c2204219954c046bd4680bdbc
:020000040000fa
:10521c0090b58bb000aff860b9603b60bb1d1a80d5
:10522c0000237b6200233b620023fb610023bb61f4
:10523c0000237b6100233b613968b86bfef730fbc0
:10524c00031c1c1cbb1d00229b5e013b180001f0c3
:10525c0007fe031c191c201cfff744fe031c7b6279
:10526c003968f868fef71cfb031c796a181cfff7f9
:10527c0039fe031c181c02f055fe03003b623b6a0e
:10528c00002b02dabb681b685ee0bb1d00229b5e34
:10529c005a1e3b6a9a420adcbb1d00229b5e2c4aba
:1052ac00944663449b00ba68d3181b684ce0386a78
:1052bc0001f0d6fd031c796a181cfff727fd031caf
:1052cc003968181cfef7dafd031cfb613b6a0133dd
:1052dc00180001f0c5fd031c796a181cfff716fdb8
:1052ec00031c3968181cfef7c9fd031cbb613b6a23
:1052fc009b00ba68d3181b687b613b6a01339b0027
:10530c00ba68d3181b683b61f969f868fef7c8faec
:10531c00031c1c1c79693869fef7c2fa031c191ca2
:10532c00201cfff7f3fc031c1c1cf969b869fef781
:10533c00b7fa031c191c201cfff7d4fd031c796958
:10534c00181cfef79bfd031c181cbd460bb090bd32
:04535c00ffffff3f11
:020000040000fa
:10536000f0b50b691500126989b00c00934201da9f
:105370002c000d0027692e69a268bb196168019392
:10538000934200dd013102f079f9030014330093f8
:10539000009abb1994469b009c4413000022049081
:1053a00063451cd32a001434bf00e3191432b6003d
:1053b0000593931902940693069b9a4211d3019b7d
:1053c000002b06dd04235b429c4463461b68002bd4
:1053d00051d0049b019a18001a6109b0f0bd04c3b2
:1053e000dee71488002c1ed00026009d029f01cf0e
:1053f000079508cd039383b2634319006b46000cf5
:105400009b896043cb1803999b19090c4118180c10
:1054100009180e0c9bb209040b4307990b60059bfe
:10542000bb42e4d82e6013681b0c03931ed00026e9
:10543000009b029c1b68009807002188039d9bb27b
:10544000694320c82d0c49198e1931040b433b6068
:1054500008cc03991b0c4b437968360c89b25b1856
:1054600005999b191e0ca142e6d80360009b0432eb
:0e54700004330093a0e7019b013b01939fe7eb
:020000040000fa
:02547e00fee747
:020000040000fa
:10548000f7b58a8905000c00130760d44b68002b20
:1054900004dc0b6c002b01dc0020febde76a002f52
:1054a000fad000232e682b6080235b011a4034d091
:1054b000606da3895b0706d56368c01a636b002b18
:1054c00001d0236cc01a0200216a00232800e76a79
:1054d000b847a189431c06d12b681d2b31d82c4a13
:1054e000da40d3072dd50023636023692360cb0402
:1054f00005d5431c02d12b68002b00d16065616b80
:105500002e600029c8d023004433994202d02800dd
:1055100001f008fb00206063bfe70123216a280037
:10552000b847431cc5d12b68002bc2d01d2b01d01e
:10553000162b01d12e60afe74023a2891343a3812c
:10554000abe740230b430120a3814042a5e70f694d
:10555000002fa1d00b680f60db1b01930023920783
:1055600000d14b69a360019b002b00dc94e7019bf9
:105570003a00216a2800a66ab047002803dc4023cd
:10558000a2891343dfe7019b3f181b1a0193eae747
:0455900001004020b6
:020000040000fa
:10559400f0b54e00760db4463d4e85b06644050028
:1055a4000b0001910200cc0f132e55dc002e28dadb
:1055b4004a005208024322d00a03120b15436a42de
:1055c4002a4380254b0c120b2d035b042a401a43fb
:1055d400304b1100e2009b181e685f6832003b00ec
:1055e400fcf7dcf902900391029803993b00320026
:1055f400fbf7fcfe4b005b08e4072343190005b0ee
:10560400f0bd254d35412f000f400743f7d06d08fd
:105614002800084010430022904209d0132e01d1e3
:10562400802212068027ff023741ab431f430197b4
:10563400184be4001c196568246801992b001000bc
:105644002200fcf7abf9029003910298039922001f
:105654002b00fbf7cbfed2e7332e08dd8023db00e3
:105664009e42ccd102000b00fcf798f9c7e7012653
:105674000a4d76426544ee400642c0d076080642a2
:10568400d6d08023db052b41b2431a43d0e7c04672
:1056940001fcffff20880000ffff0f00edfbffff70
:020000040000fa
:1056a400f0b503690c6989b00700059100269c4296
:1056b4006ddc0b00013c1433a50003935b190493c8
:1056c4000300143302935d19049b28681b68591c5a
:1056d400019301f0fffa0190b0422dd0039b029890
:1056e4009c460696624608ca9446019a99b251436a
:1056f4001b0c534389190a0c9b18079302881e0c30
:10570400069b89b2d2180368521a190c6b469b8bfc
:10571400cb1a11145b18191492b21b041a43049b7c
:10572400069104c06345ddd22b68002b04d1029b93
:10573400043dab422ed33c610599380002f023fdb1
:10574400002823db0025019b029801330399019370
:1057540008c9028855199ab2aa1a05681b0c2d0c9f
:10576400eb1a15145b191d1492b21b04134308c0e1
:10577400049b8b42ecd2029aa300d3181a68002a25
:1057840004d1029a043b9a4209d33c61019e300041
:1057940009b0f0bd2b68002bcdd1013cc7e71a68d6
:0857a400002af2d1013cece700
:020000040000fa
:1057ac0000202020202020202020282828282820e5
:1057bc0020202020202020202020202020202020dd
:1057cc002088101010101010101010101010101045
:1057dc001004040404040404040404101010101035
:1057ec0010104141414141410101010101010101ff
:1057fc000101010101010101010101011010101051
:10580c0010104242424242420202020202020202d0
:10581c000202020202020202020202021010101024
:10582c00200000000000000000000000000000004c
:10583c00000000000000000000000000000000005c
:10584c00000000000000000000000000000000004c
:10585c00000000000000000000000000000000003c
:10586c00000000000000000000000000000000002c
:10587c00000000000000000000000000000000001c
:10588c00000000000000000000000000000000000c
:10589c0000000000000000000000000000000000fc
:0158ac0000fb
:020000040000fa
:0158ad0000fa
:020000040000fa
:1058ae0090b58db000aff860b9607a603b600023b0
:1058be007b6200233b620023fb620023fb6100231b
:1058ce00bb610023bb6200237b617968f86801f03d
:1058de0004fe031e26d07968f868fdf7e0ff031c6e
:1058ee007b62796a786afff710fa031c1a1c802310
:1058fe001b0653401c00b968b868fff706fa031c74
:10590e00191c181cfef7b9fa031c191c201cfff7f2
:10591e00e8fa031c3b623b6a181c00f024fa031cd5
:10592e00fb6202e0fe239b05fb62396cf86801f016
:10593e00d4fd031e03d0fe239b05bb6225e0396c0c
:10594e00f868fdf7acff031cfb61f969f869fff716
:10595e00dcf9031c1a1c80231b0653401c003968fb
:10596e003868fff7d2f9031c191c181cfef785facc
:10597e00031c191c201cfff7b4fa031cbb61bb6986
:10598e00181c00f0f0f9031cbb62b96af86afff745
:10599e00bcf9031c7b617b69181cbd460db090bd24
:020000040000fa
:0259ae00704740
:020000040000fa
:1059b000f0b50e034d00430f6d0d760a1e436b1cb0
:1059c0005b05c90fc2005b0d012b52dd344bec1897
:1059d000fe2c5ddc002c27dc230017335bdb8023ef
:1059e0001e271b041e433f1b1f2f0cdc2d4b1000da
