:020000040000fa
:10000000f87f002041450000cf2f0000cf2f0000d7
:1000100000000000000000000000000000000000e0
:10002000000000000000000000000000cf2f0000d2
:100030000000000000000000cf2f0000894b0000ee
:10004000cf2f0000cf2f0000cf2f0000cf2f0000b8
:10005000cf2f0000cf2f0000cf2f0000cf2f0000a8
:10006000cf2f0000f1320000cf2f0000cf2f000073
:10007000cf2f00000000000000000000cf2f000084
:1000800000000000cf2f0000cf2f0000cf2f000076
:10009000cf2f0000cf2f0000cf2f0000cf2f000068
:1000a000cf2f0000cf2f0000cf2f0000cf2f000058
:1000b000cf2f0000b13f0000cf2f0000f87f0020bd
:1000c00041450000cf2f0000cf2f000000000000ae
:1000d0000000000000000000000000000000000020
:1000e0000000000000000000cf2f00000000000012
:1000f00000000000cf2f0000894b0000cf2f000030
:10010000cf2f0000cf2f0000cf2f0000cf2f0000f7
:10011000cf2f0000cf2f0000cf2f0000cf2f0000e7
:10012000f1320000cf2f0000cf2f0000cf2f0000b2
:100130000000000000000000cf2f000000000000c1
:10014000cf2f0000cf2f0000cf2f0000cf2f0000b7
:10015000cf2f0000cf2f0000cf2f0000cf2f0000a7
:10016000cf2f0000cf2f0000cf2f0000cf2f000097
:08017000b13f0000cf2f000099
:020000040000fa
:10017800f8b5c046f8bc08bc9e4670470d4600005e
:10018800f8b5c046f8bc08bc9e467047e545000077
:020000040000fa
:10019800f0b516001f00446a9db00490259d069690
:1001a8000797002c08d1102004f08cfd049b58629e
:1001b800446084600460c460049b5b6a1968002919
:1001c8000bd05a68012393404a608b60049804f06e
:1001d80067fb0022049b5b6a1a60079b002b1cdaf2
:1001e80001232b607b005b080793079cba4b220016
:1001f80019931a409a421cd1b84b249a1360069a54
:10020800b74b002a03d1240301d100f08cfd269ab4
:10021800002a05d109330a9308e000232b60e4e79c
:100228001a0009320a920c33269a13600a981db0f4
:10023800f0bd069e079f002200233000390003f01e
:100248003fff051e0ed00123249a1360a44b1a0009
:100258000d320a92269a002ae8d01a0026990e3200
:100268000a60e3e71aab01931bab009332003b0033
:10027800049803f0e7fb630005905b0d00d17fe075
:100288003a03984c120b14432100974a30001895f2
:100298009e180022954b00f059fd954a954b02f0a7
:1002a80059f8954a954b01f029f8040030000d00e3
:1002b80003f070ff924a934b02f04cf802000b00d7
:1002c8002000290001f01af804000d0004f040f89d
:1002d8000022039000232000290003f0f7fe0028e5
:1002e8000ed0039803f056ff0b00020029002000ef
:1002f80003f0e6fe030058425841039b1b1a039380
:1003080001231693039b162b0fd87f49db00c918ce
:1003180008684968069a079b03f0ecfe00284bd052
:10032800039b013b0393002316931a9b9e1b0023f8
:100338000b933300013b0c9304d501239b1b0b93b8
:1003480000230c93039b002b38db039a0c9b9446e9
:1003580063440c9300230f920893229b0125092bd9
:1003680000d991e0052b02dd0025043b2293229b56
:10037800981e032800d991e004f090fc8284297625
:100388001a9b1b9a9e18614bf218202a0fdd203bfe
:100398000698f318d84040239b1a9c40204304f049
:1003a8003df801235a4c013e0919189371e720239f
:1003b80006989b1a9840f2e71690b6e70b9b039aab
:1003c8009b1a0b935342089300230f93c5e701230d
:1003d8000e93239b002b65dd1f000d93049a546a2e
:1003e8000022626004221100143199425fd96168c9
:1003f800049803f009ff049b20605b6a1b680a935a
:100408000e2f00d9fce0002d00d1f9e0069b079cd7
:1004180014931594039b002b00dc7de01a000f2138
:10042800394b0a40d2009b185c681b6810931194e2
:10043800039b02241d11eb060ad5364b0d401a6aa0
:100448005b6a1498159901f0e3fc03240690079160
:10045800304e002d30d1109a119b0698079901f063
:10046800d7fc0690079171e00123239a0e939446d6
:10047800039b63445f1c0d933b1eafdc0123ade778
:100488000023a5e70023f0e700230e952293013b04
:100498000d931f000022122323929fe701230e933e
:1004a800023bf5e701230d931f001a00f4e761688a
:1004b80052000131616096e701231d4208d010986f
:1004c8001199e4183268736801f044ff1090119193
:1004d8006d100836bde7c0460000f07f0f2700000a
:1004e800384d00000000f03f01fcffff0000f83f1e
:1004f80061436f63a787d23fb3c8608b288ac63f22
:10050800fb799f501344d33f183800003204000091
:10051800000010fee8490000039b0224002b15d0c0
:10052800149815995d420f23c94a2b40db00d31854
:100538001a685b6801f00eff002306900791c54e0c
:100548002d11002d00d08be0002b8ad1169b002b9b
:1005580000d191e0069a079b109211931098119977
:100568000022bd4b03f0b2fd002800d184e0002f2b
:1005780000d181e00d9b002b3edd10981199039b63
:1005880000225e1eb54b01f0e5fe069007910d9d19
:100598000134200003f0fefd069a079b01f0dafe05
:1005a8000022af4b00f0aafe12901391129b139ced
:1005b800ac4a10931194139b9c181194002d5ed192
:1005c800069807990022a84b00f0c0fb109a230058
:1005d8000690079103f08efd002800d000e3a348a1
:1005e8001399844661440b0006980799109a03f002
:1005f8006dfd002800d0e7e2149b159c0693079434
:100608001b9b002b00da56e1039a0e2a00dd52e10b
:100618008f4bd2009b185c681b6808930994239b36
:10062800002b00dbcee0002f00ddcbe000d0cee2d7
:100638000898099900228c4b01f08cfe069a079bba
:1006480003f062fd3e000897002800d0a3e20a9b51
:100658000a9a5d1c31231370039b013303939ee2b6
:100668000122154205d0a4183268736801f072fea1
:1006780001236d10083664e7039e3d0089e70a9a56
:10068800691e521917920e9a714bc900002a4ad056
:100698005b181a685b680020754901f0b9fb109a6d
:1006a800119b00f053fb0a9b10901191129306982e
:1006b800079903f04dfe040003f06cfd02000b00e7
:1006c8000698079900f042fb129b30345d1c1c70a1
:1006d800109a119b0690079103f0f8fc002865d149
:1006e800069a079b00205c4900f030fb109a119b8a
:1006f80003f0ecfc002800d0bde0179b9d4200d120
:100708007ae7109811990022544b01f023fe002239
:100718001090119106980799504b01f01bfe129505
:1007280006900791c3e7591808684968109a119b01
:1007380001f010fe109011910a9c179d06980799d8
:1007480003f006fe129003f025fd02000b00069848
:10075800079900f0fbfa129b06900791303323703b
:10076800179b01340022a34224d1414b10981199c0
:1007780000f0c4fd02000b000698079903f0bafccc
:10078800002800d077e0109a119b0020384900f02b
:10079800ddfa02000b000698079903f097fc002881
:1007a80000d129e76b1e1a78302a01d003963fe062
:1007b8001d00f7e706980799284b01f0cbfd069036
:1007c8000791bbe70a9e089a099b0698079901f0ca
:1007d8001ffb03f0bdfd040003f0dcfc089a099b35
:1007e80001f0b8fd0b0002000698079900f0aefa78
:1007f8002300303333700a9b751ceb1a9f424bd190
:1008080002000b0000f07afd06000f0002000b004a
:100818000898099903f05afc00282bd108980999df
:1008280032003b0003f04cfc002801d0e30721d440
:100838000599049804f034f800232b70039b249a3c
:1008480001331360269b002b00d1efe41d60ede41b
:1008580018380000e84900000000f03f000024407c
:1008680000001c400000c0fc000014400000c07cd8
:100878000000e03f039e6b1e1a78392a06d10a9ab7
:100888009a4207d130231370130001361a780132c7
:100898001a708be71d00eee70022cf4b01f05afdde
:1008a80000220023069007912e0003f009fc00287f
:1008b80000d188e7bce70e9a002a00d187e0229a87
:1008c800012a6edc189a002a67d0c44a9b18089d32
:1008d8000b9c0b9a0121d2180b920c9a0498d318ee
:1008e8000c9304f00cfa0600002c0edd0c9b002b78
:1008f8000bdd0c9a2300944200dd13000b9ae41ad6
:10090800d21a0b920c9ad31a0c93089b002b1ed068
:100918000e9b002b5fd0002d11dd31002a000498ba
:1009280003f08af9059a01000600049802f0bcfa5f
:1009380005991090049803f0b3ff109b0593089b4a
:100948005a1b04d00599049803f076f90590012103
:10095800049804f0d4f90f9b0890002b3ddd1a0091
:100968000100049803f068f9229b08900025012be8
:100978003bdc0025069bab4233d1079b1b03ab42f4
:100988002fd1199b079a13422bd00b9b01250133ba
:100998000b930c9b01330c9323e036231a9a9b1a72
:1009a80095e7089b7d1eab4206db5d1b002f0bda2b
:1009b8000b9bdc1b00238ce7089b0895ea1a0f9b0e
:1009c80000259b180f93f1e70b9c3b0081e7089dde
:1009d8000b9c0e9e88e7089ab4e7229b0025012b02
:1009e800c7dd0f9b0120002b0bd0089b089a1b69c1
:1009f8000f9303339b00d318586803f01dff20237f
:100a0800181a0c9bc0181f23184000d1abe02023f4
:100a18001b1a042b00dc9be01c23181a0b9b2418c0
:100a28001b180b930c9b1b180c930b9b002b05ddc1
:100a38001a000599049803f0adf805900c9b002b5b
:100a480005dd1a000899049803f0a4f80890169b8d
:100a5800002b00d189e00899059803f03aff002897
:100a680000db82e0039b0a22013b039305990023e4
:100a7800049803f053fb0e9b0590002b00d15be11b
:100a8800002331000a22049803f048fb0d9b06005e
:100a9800002b02dc229b022b6ddc002c05dd3100d3
:100aa8002200049803f076f806003000002d11d0db
:100ab8007168049803f0a8fb3100040033690c3115
:100ac8009a1c92000c3004f011f9012221000498bc
:100ad80003f060f80d9f0a9b013f0b93db19370069
:100ae80006000f930899059802f0f8fa39000d905e
:100af8000400059803f0edfe32000e900899049862
:100b080002f020fe01230c93c36830340500002b4b
:100b180004d10100059803f0dcfe0c90290004982c
:100b280003f0befe0c9b229a134300d089e00123f8
:100b3800069a134200d084e0392c00d1a3e00e9b22
:100b4800002b01dd0d9c31340b9b5d1c1c7027e0d4
:100b5800042b00d169e70b9a1c33d2180b920c9a1c
:100b6800e418d31860e70300f5e7002f3cdc229b6c
:100b7800022b39dd0d970d9b002b0cd1089905220e
:100b8800049803f0cbfa08900100059803f0a1fe41
:100b9800002800dd5be5239b0a9ddb4303930027c8
:100ba8000899049803f07cfe002e00d140e6002f3f
:100bb80005d0b74203d03900049803f071fe310024
:100bc800049803f06dfe33e608952e00e3e7002352
:100bd80008931e00dfe7c0460000244033040000ed
:100be800039608952e0032e50e9b0d97002b00d03a
:100bf80053e70a9d0899059802f070fa0a9b30306d
:100c08000d9a287001350400eb1a9a4278dc151efb
:100c180000dc012500270a9b5d190599012204982b
:100c280002f0b8ff0899059003f053fe00282fdc66
:100c380001d1e3072cd46b1e1a78302ab0d11d00dd
:100c4800f9e70e9b002b07db1d00229b1d4326d1d5
:100c58000123069a134222d10c9b002b00dc73e778
:100c680005990122049802f095ff0899059003f070
:100c780030fe002804dc00d066e7e30700d463e711
:100c8800392c00d05ee70b9b0b9a5d1c392313703f
:100c98006b1e1a78392a3bd001321a7080e70b9bf9
:100ca80001330d930c9b002b05dd392cebd00d9dea
:100cb80001340b9b4ae70b9b0f9a0d9d1c709342c6
:100cc800abd000230a220599049803f027fa0023e1
:100cd80005900a2239000498b74206d103f01efa9b
:100ce800070006000d9b0b93fce603f017fa310092
:100cf800070000230a22049803f010fa0600f1e71f
:100d080000230a220599049803f008fa059071e770
:100d18000a9a9a4205d1039b013303933123137036
:100d28003ee71d00b4e7269a0a930833002a01d04b
:100d3800fff77afafff77afa0d9b002b00dd58e7e8
:0c0d4800229b022b00dc54e715e7c0469c
:020000040000fa
:100d5400f7b50d0009036c00ed0f0095490a450f26
:100d640029431d035e00c700d80f6b0a550f2b43a0
:100d7400c14d640d760dd200ae4203d11d008446f0
:100d8400154302d101254540ac46009da01bac454e
:100d940000d036e1002861dd002e25d11d00154369
:100da40000d196e2461e002e19d1ba18ba42a441c7
:100db400c91864420919170001240b0200d4bee0cb
:100dc400ad4b01349c4200d180e2ac487b08014029
:100dd400012007401f43c80707434908afe0a64d59
:100de400a84209d1a44caae0a34dac4200d1a6e08c
:100df400802506002d042b43382e2adc1f2e17dcf9
:100e040020201d00801b8540ac4615000190f54054
:100e1400604605430198f3408240501e82411543c9
:100e2400ed195b18bd428941494259182f00c4e7a6
:100e340030001d002038c5400020202e03d0402063
:100e4400861bb34018000243501e82411543002301
:100e5400e6e71a4315006a1e9541f8e7002850d0ca
:100e6400002c14d10c003c4300d128e2c443002cd4
:100e740007d1bf189742a441c91864420919340024
:100e84009be77d48864209d119001700aae77a4cee
:100e9400a642f9d04442802000040143382c2bdcc4
:100ea4001f2c17dc2025281b01900800019de14020
:100eb400a840844638006546e0402843019daf4081
:100ec4007d1eaf413843871897429241c918524258
:100ed4008918d4e720000d002038c54028000025db
:100ee400202c03d040252c1ba1400d002f437d1e38
:100ef400af4138430021e6e70f433800471eb841ad
:100f0400f8e7661c75056d0d012d00dd69e008002c
:100f14003843002c49d1002800d1d3e118001043f4
:100f24000dd0ba18ba42b641c9188023764289193d
:100f34001b041700194202d00124504b19407b07af
:100f440009d00f233b40042b05d03b1dbb42bf41be
:100f54007f42c9191f000b0206d5474b01349c423e
:100f640000d1c3e1454b1940434b4807ff083843c0
:100f7400c9089c4206d103000b4300d1b9e1802388
:100f84001b031943002709033b0d1b05090b1943d8
:100f94003b4b6405194064080c43009b6400d9076b
:100fa40064080c43210003b0f0bd002800d16be7b6
:100fb4001800104300d115e74807ff0807438020b5
:100fc400c9080003014207d0dc08044204d1d20856
:100fd4005b0713431f002100780fc9000143ff0082
:100fe40000e7254ca64200d16fe1ba18c918ba42ed
:100ff4009b415b42cb18df07520817435908340062
:101004009de700285ddd002e3cd11d00154300d175
:101014005fe1461e002e0ed1ba1a9742bf41c91a8b
:101024007f42c91b012417000b0200d487e7490241
:101034004d0a3e00f9e0104da84200d1d2e6382e08
:101044003adc1f2e27dc20201d00801b8540ac4687
:1010540015000190f540604605430198f340824035
:10106400501e824115437d1bcb1aaf428941494230
:10107400591a2f00d8e7c046ff070000ffff7fff83
:10108400ffff0f809c4dac4200d158e780252d0412
:101094002b430600d3e730001d002038c540002054
:1010a400202e03d04020861bb34018000243501e5c
:1010b400824115430023d6e71a4315006a1e954161
:1010c400f8e700284dd0002c17d10c003c4300d188
:1010d40001e1c443002c09d1d71bba429241591ae9
:1010e40063465242891a340000939de7824886423f
:1010f4000ad119001700804c45e07f4ca642f8d075
:101104004442802000040143382c25dc1f2c11dcd0
:101114002025281b00900800009de140a840050000
:101124003800e0402843009daf407d1eaf41384366
:10113400171ad2e720000d002038c54028000025ea
:10114400202c03d040252c1ba1400d002f437d1ed5
:10115400af4138430021ebe70f433800471eb84145
:10116400f8e7601c4005400d01284cdc18000d0018
:1011740010433d43002c24d1002d07d1071e00d17c
:10118400ade01900170063460093d8e6002800d1ab
:10119400d5e6bd1aaf42b641c81a7642801b8026f6
:1011a4003604304206d0d71bba429241591a5242f1
:1011b400891ae8e72f00074300d190e001002f00cf
:1011c400bde6002d07d1071e00d18be01900634650
:1011d4001700009306e6002800d103e64807ff083d
:1011e40007438020c9080003014200d1f4e6dc086b
:1011f400044200d0f0e6d2085b0713431f006346a5
:1012040021000093e8e6be1ab7428041cd1a40425d
:101214002d1a8020000405422dd0d61bb242ad41c8
:10122400591a63466d424d1b0093002d29d02800a6
:1012340003f0cafa0300083b1f2b27dc20223100ed
:101244009e40d21a9d40d14037000d439c4232dc6f
:101254001c1b661c1f2e1edc20233a0029009b1b2e
:101264009940f2409f400a43791e8f412900f14082
:101274001743002463e637002f43d6d139003c00de
:101284002ee0300003f0a0fa2030d3e735002838f0
:1012940085400027dae72a001f3ce2400023202e85
:1012a40003d040239e1b2b00b3401f437b1e9f4152
:1012b40000211743dde71149e41a29403fe61900ec
:1012c40017009ce61900170039e60b4c00210f00ab
:1012d40035e6040033e619001700340053e73900fb
:1012e40000972ce68021044cc903f9e700210f0084
:1012f4003ae6190046e6c046ff070000ffff7ffffd
:10130400f7b50d0009036c00ed0f0095490a450f70
:101314005e0029431d03db0f9c466b0a550f2b43cc
:10132400009d640d760dc700d200a01b654500d05a
:1013340036e1002861dd002e25d11d00154300d1c2
:1013440097e2461e002e19d1ba18ba42a441c91810
:1013540064420919170001240b0200d4bee0bd4bfe
:1013640001349c4200d181e2bb487b08014001204a
:1013740007401f43c80707434908afe0b54da842db
:1013840009d1b44caae0b34dac4200d1a6e080250b
:1013940006002d042b43382e2adc1f2e17dc2020b8
:1013a4001d00801b8540ac4615000190f540604649
:1013b40005430198f3408240501e82411543ed19c4
:1013c4005b18bd428941494259182f00c4e73000d7
:1013d4001d002038c5400020202e03d04020861b4d
:1013e400b34018000243501e824115430023e6e730
:1013f4001a4315006a1e9541f8e7002850d0002cc6
:1014040014d10c003c4300d129e2c443002c07d181
:10141400bf189742a441c9186442091934009be7d4
:101424008c48864209d119001700aae7894ca642c4
:10143400f9d04442802000040143382c2bdc1f2cbb
:1014440017dc2025281b01900800019de140a840dd
:10145400844638006546e0402843019daf407d1e28
:10146400af413843871897429241c91852428918ac
:10147400d4e720000d002038c54028000025202c8a
:1014840003d040252c1ba1400d002f437d1eaf41ee
:1014940038430021e6e70f433800471eb841f8e718
:1014a400661c75056d0d012d00dd69e008003843eb
:1014b400002c49d1002800d1d4e1180010430dd0ec
:1014c400ba18ba42b641c9188023764289191b0456
:1014d4001700194202d001245f4b19407b0709d041
:1014e4000f233b40042b05d03b1dbb42bf417f4231
:1014f400c9191f000b0206d5564b01349c4200d17a
:10150400c4e1554b1940534b4807ff083843c908f9
:101514009c4206d103000b4300d1bae180231b0394
:101524001943002709033b0d1b05090b19434b4bba
:101534006405194064080c43009b6400d9076408df
:101544000c43210003b0f0bd002800d16be7180064
:10155400404c1043c2d04807ff0807438020c90805
:101564000003014207d0dc08044204d1d2085b071f
:1015740013431f002100780fc9000143ff0000e757
:10158400344ca64200d170e1ba18c918ba429b4142
:101594005b42cb18df0752081743590834009de714
:1015a40000285ddd002e35d11d00154300d160e11a
:1015b400461e002e0ed1ba1a9742bf41c91a7f4265
:1015c400c91b012417000b0200d487e749024d0a06
:1015d4003e00fae01f4da84200d1d2e6382e33dc9b
:1015e4001f2e20dc20201d00801b8540ac461500ea
:1015f4000190f540604605430198f3408240501e37
:10160400824115437d1bcb1aaf4289414942591a85
:101614002f00d8e70f4dac4200d15fe780252d04a1
:101624002b430600dae730001d002038c5400020b7
:10163400202e03d04020861bb34018000243501ec6
:10164400824115430023dde71a4315006a1e9541c4
:10165400f8e7c046ff070000ffff7fffffff0f8092
:1016640000284dd0002c17d10c003c4300d102e1de
:10167400c443002c09d1d71bba429241591a63467c
:101684005242891a340000939de7834886420ad166
:1016940019001700804c45e07f4ca642f8d0444224
:1016a400802000040143382c25dc1f2c11dc20256c
:1016b400281b00900800009de140a8400500380068
:1016c400e0402843009daf407d1eaf413843171ac8
:1016d400d2e720000d002038c54028000025202c2a
:1016e40003d040252c1ba1400d002f437d1eaf418c
:1016f40038430021ebe70f433800471eb841f8e7b1
:10170400601c4005400d01284ddc18000d001043fd
:101714003d43002c24d1002d07d1071e00d1aee09b
:101724001900170063460093d8e6002800d1d5e6d7
:10173400bd1aaf42b641c81a7642801b80263604d1
:10174400304206d0d71bba429241591a5242891ae2
:10175400e8e72f00074300d191e001002f00bde628
:10176400002d07d1071e00d18ce019006346170035
:10177400009306e6484c002800d1afe64807ff086e
:1017840007438020c9080003014200d1f3e6dc08c6
:10179400044200d0efe6d2085b0713431f00634600
:1017a40021000093e7e6be1ab7428041cd1a4042b9
:1017b4002d1a8020000405422dd0d61bb242ad4123
:1017c400591a63466d424d1b0093002d29d0280001
:1017d40002f0faff0300083b1f2b27dc2022310014
:1017e4009e40d21a9d40d14037000d439c4232dcca
:1017f4001c1b661c1f2e1edc20233a0029009b1b89
:101804009940f2409f400a43791e8f412900f140dc
:101814001743002462e637002f43d6d139003c0039
:101824002ee0300002f0d0ff2030d3e73500283816
:1018340085400027dae72a001f3ce2400023202edf
:1018440003d040239e1b2b00b3401f437b1e9f41ac
:1018540000211743dde71149e41a29403ee6190047
:1018640017009be61900170038e60b4c00210f0007
:1018740034e6040032e619001700340052e7390058
:1018840000972be68021044cc903f9e700210f00df
:1018940039e6190045e6c046ff070000ffff7fff59
:020000040000fa
:1018a400f0b597b00c00089209931c9d079003f0c3
:1018b400dff9036818000e9303f044fa237e2668c8
:1018c4000b930f902b680722f1054bd59b1893437c
:1018d4001a0008322a601a685b68a264e364012271
:1018e400e76ca36c7d000a936d080c935242c04bc5
:1018f4000a98290002f0bcff002800d070e20122ff
:10190400bb4b52420a98290002f0ecfb002800d09d
:1019140066e2002200230c98390002f0d9fb00286b
:1019240003d023002d2243331a70b24b1a1d0a929e
:101934000b9a472a00d80a93032300272361042320
:101944003d009e432660099b14aa00932100089b36
:10195400079801f025fe431c00d007e10120404216
:1019640017b0f0bd0733b2e763685a1c00d0ace08f
:101974000623636080230022db0033432360656811
:101984001092974205da802109067b181f002d2347
:10199400109320230b9a9a430d920d9b0322462bfe
:1019a40004d0453b5842584102222d1814ab0493ed
:1019b40013ab039312ab029300923b0001950c9a74
:1019c4000798fef7e7fb0d9b0a90472b02d1f3071c
:1019d40000d418e20a9b5e190d9b462b10d10a9b7a
:1019e4001b78302b0ad1002200230c98390002f016
:1019f40069fb002802d101235d1b1295129bf61886
:101a0400002200230c98390002f05cfb30220028ed
:101a140069d01496149b0a9a9f1a0d9b472b0ad1de
:101a2400129bda1c03db6268934200dc8ce00b9ba4
:101a3400023bdbb20b930b9b129a652b68d8694669
:101a44002c202300091809785033551e0d93197062
:101a540002330c931295013b002d48da0125ad1a8f
:101a64002d221a70092d4bdd27260cabf618731e98
:101a740028000a21119302f085f8731e3031197081
:101a840028000a2102f034f80500092831dc272156
:101a9400023e30350caa0c9b357089181a008e4210
:101aa40029d30d9bd51aeb192361012f02dc22687f
:101ab400d20701d501332361109b002b00d142e7eb
:101ac40023002d2243331a703de720220b999143c2
:101ad400472900d04ee7002b00d04be7012348e70d
:101ae400591c14911a70149b9e42f9d892e72b2228
:101af400b7e7119ebbe7327801361a700133cde7a0
:101b040030230c9a30351370130002325d70c8e72d
:101b14000b9b662b1ad16368002a0cdd2261002b13
:101b240002d12168c90702d501339b182361129b96
:101b34000025a365c0e7002b03d1012221681142cf
:101b440000d09a1c2261f2e767230b93129bbb42dd
:101b540005db22682361d207e9d50133e6e70122d8
:101b6400002b01dc0222d21ad219ebe722685305ba
:101b740008d423690a9a08990798099da847431c21
:101b840029d1ebe60b9b652b00d8d7e0a06ce16c68
:101b94000022002302f096fa002839d0154a0123c6
:101ba400103208990798099da847431c00d1d5e62f
:101bb400129bbb4202db2368db070cd5099d0f9bfc
:101bc4000e9a08990798a8470025431c00d1c5e63a
:101bd4007b1e9d4210db236800259b0700d5f9e09e
:101be400149be068984200dbbae61800b8e6c046e9
:101bf400ffffef7f04470000220001231a320899f7
:101c04000798099eb047431c00d1a7e60135dfe7da
:101c1400129b002b2ddc7e4a012310320899079871
:101c2400099da847431c00d198e6129b002b04d1c0
:101c3400002f02d12368db07cdd5099d0f9b0e9a97
:101c440008990798a8470025431c00d186e6129bf3
:101c54005b429d4201db3b008ce7220001231a32e8
:101c640008990798099eb047431c00d176e60135d0
:101c7400ede7a56dbd4200dd3d00002d34dc002301
:101c84000b93eb43db170c930c9ba66d0b9a2b4029
:101c9400f31a9a4231db129bbb423cdb2368db071d
:101ca40039d4129abb1bbd1a9d4200dd1d00002dc4
:101cb4003adc00230a93eb43db170b93129b0b9a3a
:101cc400fb1a2a409b1a0a9a9a4284da22000123b8
:101cd4001a3208990798099eb047431c00d13de683
:101ce4000a9b01330a93e9e72b000a9a089907989b
:101cf400099eb047431cc2d130e6220001231a32a8
:101d040008990798099eb047431c00d126e60b9b0f
:101d140001330b93b8e70f9b0e9a08990798099d16
:101d2400a847431cbdd119e60a9b08999a1907983c
:101d34002b00099eb047431cbbd10fe6012f02dce8
:101d440001231a4239d001230a9a08990798099e57
:101d5400b047431c00d101e60f9b0e9a08990798df
:101d6400099eb047431c00d1f8e5a06ce16c002348
:101d7400002202f0a7f90023002815d10a9a7b1e3d
:101d8400013208990798099eb047431c11d1e5e533
:101d9400220001231a3208990798099eb047431c70
:101da40000d1dbe50a9b01330a930a9a7b1e9a420f
:101db400eedb22002b005032dde60a9ae1e7220036
:101dc4000123193208990798099eb047431c00d192
:101dd400c4e50135e368149a9b1a9d42efdbffe6e4
:101de4000c9a3b000c98390002f042fd002800d107
:101df400bae5074b1a000c320a920b9a472a00d90b
:101e04009ae5083397e5149b0a9a9f1a08e6c04698
:041e1400044700007f
:020000040000fa
:101e1800f0b58bb0060004930400cb0f0d03480007
:101e280000922d0b400d0393029346d0584b9842d5
:101e380067d08023720f1b04ed0013432b431f0050
:101e4800544bf400c31800260193049b009a1d0309
:101e58005800db0f2d0b400d069361d04c4b984278
:101e680000d181e08023520f1b041343ed001d4372
:101e7800484a009b8218db00944600220698039982
:101e88004140604604910199091ab0001043013895
:101e980005910e2800d981e002f01eff7500490265
:101ea800ed0149023d024902ed01750075003d0250
:101eb800ed01fc01fc01fc01e2012f00374327d0b2
:101ec800002d13d0280002f07dfc01000b391c29dd
:101ed80011dc02001d2337003400083a5b1a9540d4
:101ee800df4094402f432c4b1b1aace7300002f024
:101ef80069fc2030e9e70300283b9e4000243700b6
:101f0800f1e72e43371e07d02f00019003269ce7e8
:101f18003c000197012698e734000190022694e7d7
:101f2800009b2b4327d0002d13d0280002f04afc39
:101f380001000b391c2911dc1d2302005b1a0099d2
:101f4800083ad940009b954093400d43124a121a13
:101f580092e7100002f036fc2030e9e70300009d0c
:101f6800283b9d400023f1e7009b2b4307d013003b
:101f78008446032282e71d009c4601227ee71d005d
:101f8800844602227ae700252c00014b4ee1c04628
:101f9800ff07000001fcffff0dfcffffaf4204d864
:101fa80000d057e19c4200d254e1f907620811437e
:101fb800e0070c0001907f082d021a0e2a431b022d
:101fc8000293130c03936b4600921b880399380005
:101fd800079301f063ff0600079b069003993800fa
:101fe8005e4301f097ff250c09040d43069fae429e
:101ff80009d9009b013fed18ab4204d8ae4202d983
:10200800069fed18023fab1b03991800069301f0d9
:1020180045ff079e050046430399069801f07aff9d
:10202800a4b209040c432a00a64208d9009b013a2d
:10203800e418a34203d8a64201d9aa1ee4183b0417
:1020480002991343029a0904120c090c089206918a
:10205800089d06989ab2a61b1c0c514360436a431c
:102068006c4312180d0caa18904202d98020400225
:102078002418100c09041204090c04195218a64259
:1020880005d31f00a64227d10199914224d2029874
:1020980001998446614401918142894100984942ed
:1020a800091876185f1eb04204d315d1614601980d
:1020b800814211d8b44203d80ed101998a420bd972
:1020c80002999f1e8c46019b634401938b429b415e
:1020d80000995b425b18f618019b341b9b1a099305
:1020e800099a019b93429b415b42e41a009ba342dd
:1020f80000d1d2e00399200001f0d0fe079d060030
:1021080045430399200001f005ff099b09041c0cb5
:102118000c430196a5420cd93300013b0193009b67
:10212800e418a34205d8a54203d9b31e0193009b26
:10213800e418641b0399200001f0b0fe079d060017
:1021480045430399200001f0e5fe6b460a04998c8b
:10215800330011438d4208d9009a013b89188a42fd
:1021680003d88d4201d9b31e8918019a089c12041c
:102178001a43100c93b24d1b16000699069a414358
:102188005a43634360435b18140ce318994202d91d
:10219800802149024018190c12041b04120c08185b
:1021a8009b18854204d3340085421bd1002b1bd0d9
:1021b800009a741e5519aa420fd8a84203d811d103
:1021c800029a9a420bd2029ab41e5100914292414d
:1021d800009e52429219ad180291854202d1029a8c
:1021e800934201d001231c43059b564a9b18002ba0
:1021f80056dd620709d00f222240042a05d0221d8d
:10220800a242a44164423f191400fa0106d5802273
:10221800d20094464c4b1f40059b63444b4a934263
:1022280000dd88e0e40879070c43fd0800212d0350
:102238000a0d12052d0b1543454a5b0515405b0831
:102248002b43049a5b00d2075b0813432000190054
:102258000bb0f0bd059a013a059200220192abe657
:102268008022120317425ad0154258d12f001c0061
:10227800069b029353e02f0016001c00069b049354
:10228800022e58d0032e50d0012eadd100242500a7
:102298002300cbe7039b0493f2e701246442a3e7fe
:1022a8000122d21a382af1dc1f2a21dc202320003f
:1022b8009b1a39009c403d009940d040631e9c41c8
:1022c800d54001430c43630709d00f232340042b57
:1022d80005d0231da342a44164422d191c0080236c
:1022e8001b042b402ad16907e4080c43ed089de73d
:1022f8001f214942cb1a3900d9400b000021202a5e
:1023080003d040218a1a390091400c43611e8c4148
:1023180000251c43d7e7802700243f03029480252b
:10232800029b2d033d4304932fe6049ba1e7002560
:102338002c002b007ae70024250026e6002501233f
:102348002c0073e7ff030000fffffffefe070000fd
:10235800ffff0f80f0b58bb001920593ca0f0c03f5
:102368004b000600240b5b0d0492039245d0c64a2d
:10237800934265d08022410f12040a43e4001443bb
:10238800c24ac5009b1800270293059b019a1e03a9
:102398005800db0f360b400d059360d0ba4b9842be
:1023a80000d180e08023520f1b041343f6001e4324
:1023b800b64a019b8218db009446002205980499ce
:1023c800414001910299b8006144104307910138d6
:1023d800013106910e2879d802f07efc7400740051
:1023e8007b0171017101bc017b017101bc017101ab
:1023f8007b016f016f016f0164012500054326d041
:10240800002c13d0200002f0ddf901000b391c2943
:1024180010dc1d2302005b1a31003500083a944095
:10242800d94095400c439a4b1b1aace702f0caf905
:102438002030eae703003400283b9c400025f2e7ff
:102448000500254307d00500029303279de72c00cc
:102458000295012799e72c000293022795e7019b33
:10246800334327d0002e13d0300002f0abf901001f
:102478000b391c2911dc1d2302005b1a0199083a4b
:10248800d940019b964093400e43814a121a93e724
:10249800100002f097f92030e9e70300019e283b7d
:1024a8009e400023f1e7019b334307d01300844685
:1024b800032283e71e009c4601227fe71e00844614
:1024c80002227be734001d001700f8e0190c9bb2cc
:1024d800029119002a0c514318008c46029f029958
:1024e800adb2684351436f4304916744010cc91965
:1024f80003908c4506d9049f380080277f02bc468c
:1025080060440490684680890f0c090409180991f1
:10251800310cb6b2039130003100bc46039f6943c9
:1025280050437d437a432d180f0c7d19a84202d9d8
:10253800802040021218280c82182d0489b20592b6
:102548006a1808921800089962468c46029f210c66
:10255800a4b260434b43674362449446029dff180c
:10256800020cd2194d43934202d980235b02ed1825
:102578003700130c5b190293039b67434e435c437c
:102588005943a4193b0c120480b21c191018a64216
:1025980002d980235b02c918049b220463441e00ed
:1025a800089bbfb29e42ad418619d2198642bf41ef
:1025b8000298059b84466d42d218ab189c4403933d
:1025c800059b60469a429241039b5242ab429b4113
:1025d8005b427f421a43029b3818240c1219b842f6
:1025e800bf419c45a4417f4264423c43141964188e
:1025f800c30d64021c43099b75021d43691e8d416e
:10260800f60d354340020543e30167d501226b0807
:1026180015401d43e307d4401d43069b1d4a9b18e4
:10262800002b5edd6a0709d00f222a40042a05d054
:102638002a1daa42ad416d4264191500e20106d572
:102648008022d2009446144b1c40069b6344134ad4
:10265800934200dd8be06207ed081543e408002192
:1026680024030a0d1205240b14430d4a5b0514407c
:102678005b082343019a5b00d2075b0813432800d9
:1026880019000bb0f0bdc046ff07000001fcffffba
:102698000dfcffffff030000fffffffefe07000029
:1026a800ffff0f8080221203144257d0164255d1e3
:1026b80034001d00059b039350e0049b0193022ff7
:1026c80055d0032f51d0012fa7d100252c002b0066
:1026d800c5e71d00059b34000193f5e6079b0693ab
:1026e8009be70122d21a382aefdc1f2a20dc20239c
:1026f80021009b1a28009d409940d0406b1e9d41a7
:10270800d44001430d436b0709d00f232b40042b02
:1027180005d02b1dab42ad416d4264191d008023cd
:102728001b04234000d196e700240123250096e7e7
:102738001f214942cb1a2100d9400023202a03d067
:1027480040239a1a230093401d436b1e9d41002489
:102758000d43d8e7802400252403039580231b0319
:102768001c43039b0193034b79e7019ba3e70025d7
:082778002c00f8e7ff07000048
:020000040000fa
:102780000d0a0a0a0a0a0a0a0a0a0a0a0a0a0a0aa6
:102790000a0a0a0a0000c04650656e6e2053746132
:1027a00074652042656872656e6420456d6265647b
:1027b000646564204f43584f0d00c04653706f6ee0
:1027c000736f726564206279204b796f6365726103
:1027d000204156580d0a0d004573636170652072e3
:1027e00065717565737465642c20706c65617365c3
:1027f0002074727920616761696e210d0000c04606
:102800004572726f723a2052582062756666657220
:10281000206f766572666c6f77210d002163000072
:1028200021730000496e76616c6964206e756d627b
:1028300065722072656365697665643a2025730d5b
:102840000a00c0462165000021680000456e7465dd
:1028500072696e6720566572626f7365204d6f6492
:10286000652e2e2e0d00c046566572626f73652070
:102870004d6f646520686173206265656e20656eca
:102880007465726564210d005265636569766564df
:10289000206e657720736574706f696e742e2e2eae
:1028a0000d00c046456e64696e6720566572626fa2
:1028b0007365204d6f64652e2e2e0d005665726275
:1028c0006f7365204d6f6465206861732062656574
:1028d0006e20656e646564210d00c0460d0a0a0015
:1028e0002a2a2a2a2a2a2a2a2a2a2a2a2a2a2a2a48
:1028f0002a2a2a2a2a2a2a2a2a2a2a2a2a2a2a2a38
:102900002a2a2a2a2a2a2a2a2a2a2a2a2a2a2a2a27
:102910002a2a2a2a2a2a2a2a2a2a2a2a2a2a2a2a17
:102920002a2a2a2a2a2a2a2a2a2a2a2a2a2a2a2a07
:102930002a2a2a2a2a2a2a2a2a2a2a2a0d00c0468c
:102940002020202020202020202020202020202087
:102950002020202020202020202020202020202077
:1029600020202020202020434f4d4d414e44532015
:102970004d454e550d00c0462a2a2a2a2a2a2a2abf
:102980002a2a2a2a2a2a2a2a2a2a2a2a2a2a2a2aa7
:102990002a2a2a2a2a2a2a2a2a2a2a2a2a2a2a2a97
:1029a0002a2a2a2a2a2a2a2a2a2a2a2a2a2a2a2a87
:1029b0002a2a2a2a2a2a2a2a2a2a2a2a2a2a2a2a77
:1029c0002a2a2a2a2a2a2a2a2a2a2a2a2a2a2a2a67
:1029d0002a2a2a2a0d0a0000436f6d6d616e642059
:1029e00020416374696f6e0d0000c0462020216392
:1029f0002020202020426567696e206f7220656e5e
:102a00006420766572626f7365206d6f6465200d5a
:102a10000000c04620202173202020202053656e16
:102a2000642061206e657720736574706f696e74c1
:102a300020647572696e6720766572626f736520b7
:102a40006d6f64650d00c046202021652020202088
:102a500020456e6420766572626f7365206d6f64c9
:102a6000650d000020202168202020202053686f61
:102a70007720636f6d6d616e6473206d656e752078
:102a80000d00c046496e76616c696420636f6d6da0
:102a9000616e642c20706c6561736520747279209e
:082aa000616761696e210d0000
:020000040000fa
:102aa800500200201c000000000000006c02002002
:102ab8001400000000000000940200200100000043
:102ac8000000000095020020010000000000000046
:102ad8007001002080000000000000009602002025
:102ae8000100000000000000970200200100000023
:102af8000000000080020020040000000000000028
:102b0800840200200400000001000000f001002001
:102b1800f00100206000000001000000000000003b
:102b2800c84b0000e84b0000a84b00000000000064
:102b3800000000000000000000000000000000008d
:102b4800000000000000000000000000000000007d
:102b5800000000000000000000000000000000006d
:102b6800000000000000000000000000000000005d
:102b78000000000000000000000000000400002029
:102b88006c0100000100000043000000000000008c
:102b9800000000000000000000000000000000002d
:102ba80000000000000000004300000000000000da
:102bb800000000000000000000000000000000000d
:102bc80000000000000000004300000000000000ba
:102bd80000000000000000000000000000000000ed
:102be800000000000000000043000000000000009a
:102bf80000000000000000000000000000000000cd
:102c08000000000000000000430000000000000079
:102c180000000000000000000000000000000000ac
:102c28000000000000000000430000000000000059
:102c3800000000000000000000000000000000008c
:102c48000000000000000000430000000000000039
:102c5800000000000000000000000000000000006c
:102c680000000000000000005d4c0000d54a000094
:102c780000000000ec310000854d0000844d00008c
:102c8800844d0000844d0000844d0000844d0000f8
:102c9800844d0000844d0000844d0000844d0000e8
:102ca800ffffffffffffffffffffffffffff00002a
:102cb80001004153434949000000000000000000a2
:102cc80000000000000000000000000000000000fc
:102cd8000000415343494900000000000000000083
:102ce80000000000000000000000000000000000dc
:102cf800000000008802002004000000000000001e
:102d08008c020020040000000000000000000020e9
:102d180004000000000000009002002004000000f1
:102d28000000000000000000000000002222222213
:020000040000fa
:102d380080b500af8223db054222fd21995482230e
:102d4800db053122012199548223db054422fd2130
:102d580099548223db053222012199548223db0511
:102d68004522fd2199548223db054622fd219954f1
:102d78008223db053222fd2199548223db0533228d
:102d8800fd2199548223db0520225a608223db052a
:102d980040225a608223db0548224121995482232c
:102da800db054922012199548223db0534222221a3
:102db80099548223db05802252009a608223db0526
:102dc800802292005a608223db05502241219954c7
:102dd8008223db055122412199548223db055222ab
:102de800412199548223db053822332199548223c7
:102df800db053922032199548223db058022520204
:102e08009a608223db05802292029a608223db0586
:102e18008022d2029a608223db0540220421995441
:102e28008223db054122042199548223db054722b2
:102e3800042199548223db054a22042199548223d0
:102e4800db054b22042199548223db054e22042101
:102e580099548223db054f22042199548223db05f0
:102e68005322042199548223db05562204219954c4
:102e78008223db055722042199548223db0558223b
:102e8800042199548223db05592204219954822371
:102e9800db055b22042199548223db055c22042193
:082ea8009954c046bd4680bdef
:020000040000fa
:102eb000f0b50b691500126989b00c00934201da74
:102ec0002c000d0027692e69a268bb196168019367
:102ed000934200dd013101f09bf9030014330093ac
:102ee000009abb1994469b009c4413000022049056
:102ef00063451cd32a001434bf00e3191432b60012
:102f00000593931902940693069b9a4211d3019b51
:102f1000002b06dd04235b429c4463461b68002ba8
:102f200051d0049b019a18001a6109b0f0bd04c386
:102f3000dee71488002c1ed00026009d029f01cfe2
:102f4000079508cd039383b2634319006b46000cc9
:102f50009b896043cb1803999b19090c4118180ce5
:102f600009180e0c9bb209040b4307990b60059bd3
:102f7000bb42e4d82e6013681b0c03931ed00026be
:102f8000009b029c1b68009807002188039d9bb250
:102f9000694320c82d0c49198e1931040b433b603d
:102fa00008cc03991b0c4b437968360c89b25b182b
:102fb00005999b191e0ca142e6d80360009b0432c0
:0e2fc00004330093a0e7019b013b01939fe7c0
:020000040000fa
:022fce00fee71c
:020000040000fa
:102fd000f7b58a8905000c00130760d44b68002bf5
:102fe00004dc0b6c002b01dc0020febde76a002f27
:102ff000fad000232e682b6080235b011a4034d066
:10300000606da3895b0706d56368c01a636b002bec
:1030100001d0236cc01a0200216a00232800e76a4d
:10302000b847a189431c06d12b681d2b31d82c4ae7
:10303000da40d3072dd50023636023692360cb04d6
:1030400005d5431c02d12b68002b00d16065616b54
:103050002e600029c8d023004433994202d02800b2
:1030600000f08efe00206063bfe70123216a280084
:10307000b847431cc5d12b68002bc2d01d2b01d0f3
:10308000162b01d12e60afe74023a2891343a38101
:10309000abe740230b430120a3814042a5e70f6922
:1030a000002fa1d00b680f60db1b01930023920758
:1030b00000d14b69a360019b002b00dc94e7019bce
:1030c0003a00216a2800a66ab047002803dc4023a2
:1030d000a2891343dfe7019b3f181b1a0193eae71c
:0430e000010040208b
:020000040000fa
:1030e400f0b503690c6989b00700059100269c427c
:1030f4006ddc0b00013c1433a50003935b190493ae
:103104000300143302935d19049b28681b68591c3f
:10311400019300f0c5fe0190b0422dd0039b0298ac
:103124009c460696624608ca9446019a99b251434f
:103134001b0c534389190a0c9b18079302881e0c15
:10314400069b89b2d2180368521a190c6b469b8be2
:10315400cb1a11145b18191492b21b041a43049b62
:10316400069104c06345ddd22b68002b04d1029b79
:10317400043dab422ed33c610599380001f0abfb12
:10318400002823db0025019b029801330399019356
:1031940008c9028855199ab2aa1a05681b0c2d0c85
:1031a400eb1a15145b191d1492b21b04134308c0c7
:1031b400049b8b42ecd2029aa300d3181a68002a0b
:1031c40004d1029a043b9a4209d33c61019e300027
:1031d40009b0f0bd2b68002bcdd1013cc7e71a68bc
:0831e400002af2d1013cece7e6
:020000040000fa
:1031ec0000202020202020202020282828282820cb
:1031fc0020202020202020202020202020202020c3
:10320c00208810101010101010101010101010102a
:10321c00100404040404040404040410101010101a
:10322c0010104141414141410101010101010101e4
:10323c000101010101010101010101011010101036
:10324c0010104242424242420202020202020202b6
:10325c00020202020202020202020202101010100a
:10326c002000000000000000000000000000000032
:10327c000000000000000000000000000000000042
:10328c000000000000000000000000000000000032
:10329c000000000000000000000000000000000022
:1032ac000000000000000000000000000000000012
:1032bc000000000000000000000000000000000002
:1032cc0000000000000000000000000000000000f2
:1032dc0000000000000000000000000000000000e2
:0132ec0000e1
:020000040000fa
:1032f00080b582b000af334b1b7edbb21a000423d3
:10330000134045d02f4b1b8d9ab2fb1d1a70fb1d2d
:103310001b781b2b0dd12c4b180001f0cdfc2b4b37
:1033200000221a702a4b14220021180001f0f4fc2c
:1033300044e0264b1b78122b1dd8244b1b78190018
:10334000234bfa1d12785a54204b1b780133dab202
:103350001e4b1a70fb1d1b780a2b19d11b4b1b78b7
:103360001a001b4b002199541a4b01221a70174b5b
:1033700000221a700ce0154b00221a70134b1b78b8
:103380001a00134b00219954134b180001f094fcc0
:103390000c4b1b7edbb25bb2002b0fda0c4b142202
:1033a0000021180001f0b8fc084b00221a70064bef
:1033b000180001f081fc034b80221a76bd4602b052
:1033c00080bdc04600040042d827000094020020bf
:0c33d0006c020020950200200028000084
:020000040000fa
:1033dc00364b70b51d6806000c00002d05d0ab698e
:1033ec00002b02d1280000f07dff314b9c420fd105
:1033fc006c680c23e25e93b219072dd4d90611d454
:10340c0009233360402301201343a381404270bd44
:10341c00284b9c4201d1ac68ebe7274b9c42e8d18e
:10342c00ec68e6e75b0713d5616b002908d0230035
:10343c004433994202d0300000f09cfc00236363bb
:10344c002422a3899343a38100236360236923600f
:10345c000823a2891343a3812369002b0bd1a0213c
:10346c008022a389890092000b40934203d0210053
:10347c00300000f0d5fd0123a289134011d00023a8
:10348c00a36063695b42a361002023698342bed1c0
:10349c000c23e25e1306bad540231343a3810138f3
:1034ac00b5e7920700d46369a360ede784020020be
:0c34bc00c84b0000e84b0000a84b0000cb
:020000040000fa
:1034c80070b505000e00002804d08369002b01d1d7
:1034d80000f00affab69ac68002b02d1280000f0ad
:1034e80003ff2a4b9c421bd16c680c23e25e8023ad
:1034f8009b011a4205d11343a381226e244b13402a
:103508002366a3891b0702d52369002b20d121003c
:103518002800fff75fff00281ad00120404270bd45
:103528001c4b9c4201d1ac68dfe71b4b9c42dcd1b1
:10353800ec68dae7013b0136a360002b04daa269e4
:10354800934216db0a2914d023685a1c226019708a
:103558003178a3680029edd1013ba360002b0fda75
:1035680022000a21280000f087f8431cd5d00a2041
:10357800d5e72200280000f07ff8431ce8d1cce70b
:103588000a2023685a1c22601870c8e7c84b00003c
:0c359800ffdfffffe84b0000a84b000025
:020000040000fa
:1035a400f7b5150001938a680b6900900c009342eb
:1035b40000da130022002b6043321278002a01d073
:1035c40001332b6023689b0602d52b6802332b60e2
:1035d400062723681f4027d0230043331b785a1e35
:1035e40093412268920630d4220001994332009814
:1035f400089eb047431c25d0062320682a68e1684a
:1036040003400025042b03d18d1aeb43db171d4027
:10361400a3682269934201dd9b1aed180027bd427d
:1036240020d1002010e00137e3682a689b1a9f42ea
:10363400d2da22000123193201990098089eb0477a
:10364400431cf0d101204042febd3020e11843313b
:10365400087021005a1c45310978a21843320233fc
:103664001170c1e7220001231a3201990098089ec3
:0a367400b047431ce6d00137d1e750
:020000040000fa
:02367e00704793
:020000040000fa
:10368000f8b505000e001400002804d08369002b53
:1036900001d100f02dfe294b9c4233d16c68a36907
:1036a000a360a3891b0737d52369002b34d00c23d3
:1036b000e25e80239b01f7b2f6b21a4236d023684d
:1036c0002269981a6369984205db2100280000f0fe
:1036d0000bff002826d1a3680130013ba3602368bb
:1036e0005a1c22601f706369984204d0a389db07cb
:1036f0001ad50a2e18d12100280000f0f5fe002866
:1037000012d00fe00e4b9c4201d1ac68c7e70d4bc5
:103710009c42c4d1ec68c2e721002800fff75efe9e
:103720000028c4d0012676423000f8bd1343a3819f
:10373000226e054b13402366c1e7c046c84b00000c
:0c374000e84b0000a84b0000ffdfffff7b
:020000040000fa
:10374c00f0b50d0085b0070011002800140001f041
:10375c00bef8061e08d10100380000f053fd01230d
:10376c004661036105b0f0bd01230193002804db21
:10377c0023002c001d00002301936168380000f029
:10378c0041fd2f000022019b2669c3601434b30055
:10379c00e31802932b6914379b00fb180393030067
:1037ac009446143320cc04cf0192aab294446a46b6
:1037bc00614692882d0c8a1a0199090c691a151404
:1037cc0049190d1492b209040a431a60039aac46c3
:1037dc000433ba42e6d802991a008c4205d3043a53
:1037ec001368002b0ed00661bce704cc91b2614487
:1037fc000d14120c5219151489b212040a43ac465a
:08380c0004c3e8e7013eeae70e
:020000040000fa
:043814007047c046f3
:020000040000fa
:10381800000000000000f03f00000000000024400d
:1038280000000000000059400000000000408f40e8
:10383800000000000088c34000000000006af84053
:103848000000000080842e4100000000d012634177
:103858000000000084d797410000000065cdcd41ed
:10386800000000205fa00242000000e876483742ce
:10387800000000a2941a6d42000040e59c30a2426c
:103888000000901ec4bcd64200003426f56b0c43e1
:103898000080e03779c3414300a0d8855734764388
:1038a80000c84e676dc1ab43003d9160e458e143e9
:1038b800408cb5781daf154450efe2d6e41a4b445e
:1038c80092d54d06cff08044f64ae1c7022db544a3
:0838d800b49dd9794378ea445c
:020000040000fa
:1038e000032370b5cd1c9d43083506000c2d1ed258
:1038f0000c25a9421dd83000fff7c1fe254a1468e7
:103900002100002919d1244c2368002b03d1300059
:1039100001f0f2f820602900300001f0edf8431cbe
:103920002cd10c233000336000f089f903e0002d26
:10393000dfda0c233360002070bd0b685b1b1ad4e8
:103940000b2b03d90b60cc18256003e08c420ed101
:1039500063681360300000f072f9200007220b301a
:10396000231d9043c31ae7d05a42e250e4e74b6864
:1039700063600c00eee70c004968c2e70323c41c37
:103980009c43a042e0d0211a300001f0b5f8431c5e
:0c399000dad1c6e7880200208c0200207b
:020000040000fa
:10399c00f0b54d006d0dac4685b01d035e00db0f20
:1039ac000193264b0c030290240bc90f03922d0b91
:1039bc00760d9c4503d12700022307432dd11f4bc5
:1039cc009e4203d12f000223174326d100276346c2
:1039dc00bb4203d1204347424741ffb2002e01d1e5
:1039ec002a431dd0002f1fd0019b013b0120034314
:1039fc0013e0b44501da4b1ef8e7ac4219d809d1f3
:103a0c00029b039a934214d8029a03983b00824279
:103a1c00f1d302e03b00ac42edd3180005b0f0bd91
:103a2c003300002ff9d104e0019b994201d1b44538
:103a3c00dfdd012349420b43efe7c046ff070000df
:020000040000fa
:103a4c00f7b51d000121089f140000f0dbfb2b03d0
:103a5c006d0006001b0b6d0d24d10193002c27d09b
:103a6c006846009400f00afd009c00281ed0019bc3
:103a7c0020211a00091a8a40c34022437261019323
:103a8c00019cb461631e9c4101343461002d18d03b
:103a9c00124bed1835232d183d60181a099b186030
:103aac003000febd802252031343d6e77461e7e772
:103abc0001a800f0e3fc0124019b34617361203008
:103acc00e4e7074bc018074b3860e3189b00f3186a
:103adc00586900f0affe6401201adfe7cdfbffff51
:083aec00cefbffffffffff3fcf
:020000040000fa
:103af400002941d010b4041c4c40a44601230022e8
:103b0400002900d54942002800d5404288422cd3e0
:103b140001242407a14204d2814202d209011b01db
:103b2400f8e7e400a14204d2814202d249005b00da
:103b3400f8e7884201d3401a1a434c08a04202d342
:103b4400001b5c0822438c08a04202d3001b9c0883
:103b54002243cc08a04202d3001bdc0822430028e5
:103b640003d01b0901d00909e3e7101c6446002cab
:103b740000d5404210bc704701b50020fff748fe55
:103b840002bdc0460029f7d003b5fff7b3ff0ebc52
:083b94004243891a1847c0469c
:020000040000fa
:103b9c00f0b50d0017002b69541185b0e318029392
:103bac00013301934968ab680390019a934234db6b
:103bbc00039800f027fb00230200060019001432c2
:103bcc00a3422ddbe343db171c402b001f21a40079
:103bdc0014192a69143392009a180f4024d020210a
:103bec00c91b8c4600211868b8400143604621600f
:103bfc0002cb0434c1409a42f5d82160002902d08e
:103c0c00029b02330193019b0398013b3361290012
:103c1c0000f044fe300005b0f0bd01315b00c4e79c
:103c2c00980011500133cbe702cb02c49a42fbd867
:023c3c00e9e7b6
:020000040000fa
:023c3e007047cd
:020000040000fa
:103c40000323f7b5134005000e001400002b08d025
:103c50002149013b9a0052580023310000f062fada
:103c60000600a310019335d06c6a002c07d11020f8
:103c700001f02cf86862446084600460c4606f6a7c
:103c8000bc68002c07d11549280001f03cf800233e
:103c90000400b8600360019bdb070ad531002200f5
:103ca0002800fff705f907003100280000f0fcfdaf
:103cb0003e00019b5b1001930cd02068002807d1c7
:103cc000220021002800fff7f3f8002320600360a2
:103cd0000400e0e73000febd584d00007102000016
:020000040000fa
:103ce000f7b51e035c00db0f0093244b0d034f0060
:103cf00084462d0b7f0dc90f0192360b640d9f4238
:103d000002d12b0003432bd11c4b9c4202d1330028
:103d1000134325d100239f4203d12843434243410b
:103d2000dbb2002c01d132431dd0002b1fd00098f4
:103d30000138012103e0a74203da012001390843d9
:103d40000de0b54218d807d1019a944514d818004f
:103d5000019b9c45f1d302e01800b542edd3febdb6
:103d600002204042fbe72000002bf8d104e0009a3b
:103d7000914201d1a742dedd4842dae7ff070000a9
:020000040000fa
:103d800070b50500002910d00c1f2368002b00da45
:103d9000e4182800fff773fc1d4a1368002b05d1b7
:103da000636014602800fff74aff70bda34209d981
:103db000216860188342f3d118685b68411821605c
:103dc000eee713005a68002a01d0a242f9d9196817
:103dd0005818a0420bd1206809185818196082425f
:103de000e0d110685268411819605a60dae7a042c1
:103df00002d90c232b60d5e721686018824203d1d9
:103e0000106852684118216062605c60cae7c04671
:043e10008802002004
:020000040000fa
:103e1400204a214b70b50021934203d2197001331b
:103e24009342fbd1002503261c4803684168002bfc
:103e340018d100292dd083680c30002b18d0002312
:103e44000022845c9c5401328a42fad333000b4032
:103e54005a1e93418908591889004018036841681b
:103e6400002be6d082680c30002a07d10029dcd070
:103e740059181d7001338b42fbd1d6e70029dfd1dd
:103e840033000b405a1e9341890859188900401881
:103e9400e4e770bd0400002004000020a82a00000c
:020000040000fa
:103ea400002934d00123002210b488422cd30124e9
:103eb4002407a14204d2814202d209011b01f8e77e
:103ec400e400a14204d2814202d249005b00f8e737
:103ed400884201d3401a1a434c08a04202d3001b63
:103ee4005c0822438c08a04202d3001b9c08224396
:103ef400cc08a04202d3001bdc082243002803d0d4
:103f04001b0901d00909e3e7101c10bc704701b577
:103f14000020fff77dfc02bd0029f8d003b5fff7b0
:0c3f2400c1ff0ebc4243891a1847c0467a
:020000040000fa
:103f3000f8b51e4b07001e68b369002b02d1300094
:103f400000f0d6f94836b4687368013b04d533688d
:103f5000002b07d03668f6e70c22a55e002d0dd0a9
:103f60006434f2e70421380000f0e8fc30600028f7
:103f7000f0d10c2304003b602000f8bd01235b421c
:103f8000e381200001232566a3812560a56065608b
:103f900025616561a56108222900583000f0bcfe4a
:103fa0006563a563a564e564e6e7c046c04d00000f
:020000040000fa
:103fb00080b500af184bdb79dbb21a000123134048
:103fc00026d0164b1b78dbb21a00134b5b6a99b2f2
:103fd000134b5200d152114b1b78dbb20133114a03
:103fe000134004d5013b4022524213430133dab25d
:103ff0000a4b1a70094b1b78dbb23f2b05d9074bd4
:1040000000221a70084b01221a70034b0122da7148
:10401000c046bd4680bdc046004c0042960200200e
:0c402000700100203f000080970200208b
:020000040000fa
:10402c00f7b502268b8905000c00334206d023001d
:10403c0047332360236101236361f7bd01ab6a46fb
:10404c0000f0a2fa009907002800fff743fc0028b3
:10405c0006d10c22a35e9a05efd41e43a681e6e797
:10406c000d4bab628023a28920601343a381009b7c
:10407c0020616361019b002b0ad00e23e15e2800b6
:10408c0000f06afd002803d00123a2891343a38109
:0c409c00a0893843a081d0e7294d000026
:020000040000fa
:1040a8008446101c62468c46191c634600e0c046d4
:1040b8001fb5fff76ffc002801d40021c8421fbdbf
:1040c80010b500f0d9f84042013010bd10b5fff727
:1040d80061fc002801db002010bd012010bdc04696
:1040e80010b5fff757fc002801dd002010bd0120a6
:1040f80010bdc04610b5fff7effd002801dc002019
:1041080010bd012010bdc04610b5fff7e5fd002821
:0c41180001da002010bd012010bdc046df
:020000040000fa
:10412400f7b51e0014239c4607000c0000200d69ff
:104134008c44634619881b6851431b0c53438919eb
:104144000e0c9b1989b21e0c1b045b1861460130ce
:1041540008c18c468542ecdc002e1bd0a3689d422e
:1041640012db63683800591c00f050f82100236901
:1041740001909a1c92000c310c3000f0b9fd210022
:10418400380000f08ffb019c2b1d9b00e3180135c8
:084194005e6025612000febd04
:020000040000fa
:10419c00f8b5051e2ad0c317c5185d40c40f2800fa
:1041ac0000f00efb1349144b091a5b1a1f2b17dc7a
:1041bc000b22101a2a00c2409d4010000027000359
:1041cc003a0d000b120502430c484b0502405b08ec
:1041dc0013435b00e4075b08234328001900f8bd78
:1041ec002800074b00255b1a9840e7e70100040004
:1041fc00e4e7c0461e04000033040000ffff0f80fc
:04420c001304000097
:020000040000fa
:1042100070b5466a04000d00002e07d1102000f092
:1042200055fd6062466086600660c660666af36837
:10423000002b13d0636aaa00db689b18186800285b
:1042400018d101210e00ae40721d9200200000f036
:10425000eafc00280cd0456086600de02122042194
:10426000200000f0e0fc636af060db68002be1d125
:10427000002070bd02681a6000230361c360f8e784
:020000040000fa
:10428000f0b50c0385b04d000600c90f17481f0399
:1042900001915900db0f240b6d0d03923f0b490d6b
:1042a0000293854206d12300012033431ad1a9424b
:1042b00018d101e0814203d13a430120002a11d1f3
:1042c00001208d420ed1bc420cd1039a964209d1f5
:1042d000019b029a934207d0002d03d13443200062
:1042e000441ea04105b0f0bd0020fbe7ff07000021
:020000040000fa
:1042f000836913b50400002b28d18364c36403656c
:10430000134b144a1b6882620193984201d1012326
:1043100083612000fff70cfe60602000fff708febd
:10432000a0602000fff704fe0022e0600421606826
:1043300000f0c4f901220921a06800f0bff90222af
:104340001221e06800f0baf90123a36113bdc04651
:08435000c04d0000294d0000e2
:020000040000fa
:1043580030b5134c0b034a0005001b0b520dc90f57
:104368000020a24204dd0f48824202dd0e4bc8182d
:1043780030bd80200d4c40030343a41a1f2c09dcd8
:104388000b48e54012189340180028430029efd045
:104398004042ede70748821ad3401800f6e7c046c6
:1043a800fe0300001d040000ffffff7f3304000030
:0843b800edfbffff1304000000
:020000040000fa
:1043c00090b583b000af154b5c681b68610a002391
:1043d0001a000b009b029b0a7b60114b7a689a6360
:1043e0000f4b00225a75c0460d4b9b6904221340a7
:1043f000042bf9d0c0460a4bdb6810221340102b67
:10440000f9d10749064b1b7ddbb280225242134390
:10441000dbb20b75c046bd4603b090bd2060800086
:044420000010004048
:020000040000fa
:1044240070b5051e21d000f0cff9124c124b241a9e
:104434001b1b1f2b13dc0b22101a2a009d40c240a9
:1044440000211203130b0a0d12051a4363050b4cca
:104454005b08224013435b002800590870bd2a0002
:10446400074b00251b1b9a40eae7020005000400e5
:10447400e6e7c0461e04000033040000ffff0f807f
:04448400130400001d
:020000040000fa
:104488000722036810b501001a400dd0012400204e
:10449800234205d10220034203d0e34020000b60f1
:1044a80010bd9b080b60fbe79cb21000002c01d1eb
:1044b80010201b0cdab2002a01d108301b0a1a0797
:1044c80001d104301b099a0701d102309b08da0791
:0e44d800e8d45b0801d00130e4e72020e0e7e3
:020000040000fa
:1044e8000b6970b505000c00002b01d1002070bdd0
:1044f800002804d08369002b01d1fff7f5fe0b4b90
:104508009c4209d16c680c22a35e002beed02100de
:104518002800fef759fdeae7054b9c4201d1ac683b
:10452800f1e7044b9c42eed1ec68ece7c84b000085
:08453800e84b0000a84b000055
:020000040000fa
:104540000d4b002b00d098470c4b002b00d0984708
:10455000fff760fc0a4aff210a4b8b4393600a4b2a
:1045600098470a4b002b00d09847094b002b00d0ee
:10457000984700f067fbfee7000000000000000025
:1045800000ed00e0000000007546000000000000a3
:044590000000000027
:020000040000fa
:1045940070b50e001d000e23c95e90b014000029f2
:1045a40007da00232b60b3891b0611d48023db00b8
:1045b4000fe001aa00f0c2fa0028f2dbf022029b0d
:1045c40012021340054a9b185a4253412b60ede7ef
:1045d40040230020236010b070bdc04600e0ffff00
:020000040000fa
:1045e40010b5064c2378002b07d1054b002b02d0c5
:1045f400044800e000bf0123237010bd50020020d6
:104604000000000000000000044b10b5002b03d094
:104614000349044800e000bf10bdc046000000008c
:08462400540200200000000018
:020000040000fa
:10462c0080b582b000af0200fb1d1a70c0460d4b66
:10463c001b7edbb21a0001231340f8d0094afb1d84
:10464c001b789bb21385c046064b1b7edbb21a004f
:10465c0002231340f8d0034b02221a76c046bd4603
:08466c0002b080bd0004004211
:020000040000fa
:1046740070b500260c4d0d4c641ba410a64209d144
:104684000026fbf777fd0a4d0a4c641ba410a642d2
:1046940005d170bdb300eb5898470136eee7b3007f
:1046a400eb5898470136f2e79801000098010000a2
:0846b4009801000098010000cc
:020000040000fa
:1046bc00002310b5040003604360836081810366ae
:1046cc00c28103614361836119000822583000f0f4
:1046dc001dfb054b24626362044ba362044be36233
:1046ec00044b236310bdc046114a0000094800006a
:0846fc0069490000654d000052
:020000040000fa
:10470400494e4600696e66004e414e006e616e0071
:10471400300030313233343536373839414243444e
:1047240045460030313233343536373839616263c7
:1047340064656600232d302b2000686c4c00656690
:05474400674546470037
:020000040000fa
:10474a00f7b504000700002601914834002c01d176
:10475a003000febd6368a5680093009b013b00938f
:10476a0001d52468f2e7ab89012b08d90e22ab5e8a
:10477a00013304d029003800019b98470643643569
:02478a00ebe75b
:020000040000fa
:10478c0070b50c000025002904d0002a02d01500b9
:10479c00022801d9280070bd084b002b04d0110051
:1047ac00200000e000bff5e716002078013e00f085
:1047bc0025fa0134002ef8d1ece7c04600000000c9
:020000040000fa
:1047cc001c2101231b04984201d3000c10391b0a35
:1047dc00984201d3000a08391b09984201d30009f9
:1047ec00043902a2105c40187047c0460403020250
:0c47fc00010101010000000000000000ad
:020000040000fa
:10480800f8b51f008b8905000c001600db0505d5df
:104818000e23c95e0022022300f01ef9a389054a6f
:1048280028001340a38132000e23e15e3b0000f014
:08483800fff8f8bdffefffffe0
:020000040000fa
:104840000300020c0020824201d110201b041a0e2a
:1048500001d108301b021a0f01d104301b019a0f3d
:1048600001d102309b00002b03db01305b0000d440
:04487000202070474d
:020000040000fa
:1048740070b50b4e0d031c0349005b002d0b490d55
:10488400240b5b0db14203d105430120002d06d159
:104894000020b34203d122431000421e904170bd58
:0448a400ff0700000a
:020000040000fa
:1048a80070b5446a06000d00002c07d1102000f0f6
:1048b80009fa7062446084600460c460002d07d007
:1048c800736a6a68db6892009b181a682a601d6020
:0248d80070bdb1
:020000040000fa
:1048da000a69036930b59b1a0ed19200143014315b
:1048ea0084188918043c043922680d68aa4205d044
:1048fa00aa42924101231343180030bda042f1d3ca
:02490a00fae7ca
:020000040000fa
:10490c00084a1368002b09d007491818884202d8a6
:10491c0010601800704701204042fbe7034b136006
:10492c00f2e7c04690020020a0040020a002002064
:020000040000fa
:10493c0070b564254a1e55430e0029007031fef7f0
:10494c00c9ff041e08d000212a00016046600c300b
:0c495c00a060643200f0daf9200070bda9
:020000040000fa
:1049680070b50c000e25495f00f076f8a389421c4b
:1049780003d1054a1340a38170bd8022520113431d
:0c498800a3816065f8e7c046ffefffff69
:020000040000fa
:1049940070b5002600290ed0002a0cd0160000287d
:1049a40009d10c001500012000f00efa013d207021
:0c49b4000134002df7d1300070bdc0466a
:020000040000fa
:1049c00080b500af064b28221a61054bff2252002a
:1049d0005a61034b034ada61c046bd4680bdc046fa
:0849e0000008004012802800cd
:020000040000fa
:1049e8000080e03779c34143176e05b5b5b89346e3
:1049f800f5f93fe9034f384d321d30f94877825aaf
:084a08003cbf737fdd4f157503
:020000040000fa
:104a100070b50c000e25495f00f036f8002803db66
:104a2000636d1b18636570bda389024a1340a3819f
:084a3000f9e7c046ffefffffac
:020000040000fa
:104a380070b50500080011000022064c22601a001b
:104a480000f0b2f9431c03d12368002b00d02b607f
:084a580070bdc0460000002003
:020000040000fa
:104a600070b50500080011000022064c22601a00f3
:104a700000f096f9431c03d12368002b00d02b6073
:084a800070bdc04600000020db
:020000040000fa
:104a880070b50500080011000022064c22601a00cb
:104a980000f086f9431c03d12368002b00d02b605b
:084aa80070bdc04600000020b3
:020000040000fa
:104ab00080b500af064b832252001a62c046044bf9
:104ac0005b6804221340042bf9d0c046bd4680bd6c
:044ad000001c004086
:020000040000fa
:104ad40082b0002900d101a9101e06d0002b06d0f7
:104ae40013780b601078431e984102b0704702207f
:044af4004042fae75b
:020000040000fa
:104af800002370b5064c050008002360fff702ff8d
:104b0800431c03d12368002b00d02b6070bdc04626
:044b18000000002079
:020000040000fa
:104b1c00002370b5064c05000800236000f02ef948
:104b2c00431c03d12368002b00d02b6070bdc04602
:044b3c000000002055
:020000040000fa
:104b4000002370b5064c050008001100236000f03a
:104b50001ff9431c03d12368002b00d02b6070bdcc
:044b60000000002031
:020000040000fa
:104b6400002370b5064c05000800236000f012f91c
:104b7400431c03d12368002b00d02b6070bdc046ba
:044b8400000000200d
:020000040000fa
:104b880080b500af054b1b68002b04d0034b1b6896
:104b98005a1e024b1a60c046bd4680bd80020020e6
:020000040000fa
:104ba80000000000000000000000000000000000fd
:104bb80000000000000000000000000000000000ed
:020000040000fa
:104bc80000000000000000000000000000000000dd
:104bd80000000000000000000000000000000000cd
:020000040000fa
:104be80000000000000000000000000000000000bd
:104bf80000000000000000000000000000000000ad
:020000040000fa
:104c080080b582b000af0200fb1d1a70fb1d1b7837
:0e4c18001800fff707fdc046bd4602b080bd84
:020000040000fa
:104c26004a4370b511001400fef757fe051e03d067
:0c4c36002200002100f06df8280070bd85
:020000040000fa
:104c440080b500af034b06225a60fef773f800f0fc
:084c54001bf8fee700400041df
:020000040000fa
:104c5c000b1e04d0ff2a04d98a2303608b3b180057
:084c6c0070470a700123fae70a
:020000040000fa
:104c7400034b1b68186a002800d10248f0307047c3
:084c840084020020040000205e
:020000040000fa
:104c8c0080b500affff796fbfff70cfffff792fe26
:064c9c00c046bd4680bdcc
:020000040000fa
:104ca40002b4714649084900095c49008e4402bcbb
:044cb4007047c0463f
:020000040000fa
:104cb80010b5034b01001868fef702fc10bdc04692
:044cc8008402002042
:020000040000fa
:104ccc0010b5034b01001868fef704fe10bdc0467a
:044cdc00840200202e
:020000040000fa
:104ce00003b47146490840004900095a49008e44fe
:044cf00003bc70474a
:020000040000fa
:104cf400002310b59a4200d110bdcc5cc4540133da
:024d0400f8e7ce
:020000040000fa
:104d060010b50c000121fff780fa0123446103610d
:024d160010bdce
:020000040000fa
:104d180003008218934200d1704719700133f9e7f4
:020000040000fa
:104d280010b50249fff70dfd10bdc046e94400006b
:020000040000fa
:0f4d3800496e66696e697479004e614e003000f5
:020000040000fa
:0e4d48000023c25c0133002afbd1581e7047c5
:020000040000fa
:0c4d580005000000190000007d000000b4
:020000040000fa
:0c4d640010b50e23c95efff7d7fe10bd8e
:020000040000fa
:0c4d700080239b0100204b607047c04670
:020000040000fa
:0b4d7c004300504f53495800002e0028
:020000040000fa
:084d880010b500f015f810bd94
:020000040000fa
:084d900010b5fff7edff10bda7
:020000040000fa
:084d980010b500f013f810bd86
:020000040000fa
:084da00010b500f011f810bd80
:020000040000fa
:084da80010b5fff7f3fd10bd8b
:020000040000fa
:084db00010b5fff7ebfc10bd8c
:020000040000fa
:084db800012040427047c04693
:020000040000fa
:044dc000f0010020de
:020000040000fa
:044dc4000120704713
:020000040000fa
:044dc8000020704710
:020000040000fa
:044dcc007047c04626
:00000001FF
