:020000040000fa
:10000000f87f0020c9030000b7040000b704000017
:1000100000000000000000000000000000000000e0
:10002000000000000000000000000000b704000015
:100030000000000000000000b7040000b904000048
:10004000b7040000b7040000b7040000b7040000c4
:10005000b7040000b7040000b7040000b7040000b4
:10006000b7040000b7040000b7040000b7040000a4
:10007000b70400000000000000000000b70400000a
:1000800000000000b7040000b7040000b70400003f
:10009000b7040000b7040000b7040000b704000074
:1000a000b7040000b7040000b7040000b704000064
:1000b000b7040000b7040000b7040000f87f002078
:1000c000c9030000b7040000b704000000000000ee
:1000d0000000000000000000000000000000000020
:1000e0000000000000000000b70400000000000055
:1000f00000000000b7040000b9040000b7040000cd
:10010000b7040000b7040000b7040000b704000003
:10011000b7040000b7040000b7040000b7040000f3
:10012000b7040000b7040000b7040000b7040000e3
:100130000000000000000000b70400000000000004
:10014000b7040000b7040000b7040000b7040000c3
:10015000b7040000b7040000b7040000b7040000b3
:10016000b7040000b7040000b7040000b7040000a3
:08017000b7040000b704000011
:020000040000fa
:10017800f8b5c046f8bc08bc9e4670474504000068
:10018800f8b5c046f8bc08bc9e4670471d04000080
:020000040000fa
:1001980010b5334b5b685b009b0a324a93630023bc
:1001a8005375043391690b42fcd12e4a1023d16850
:1001b8000b42fcd02b4a137d80210b4313752a4b2d
:1001c8002a4a1a621a00042351680b42fcd02649b5
:1001d80007220b6a1340062bfbd1254b28221a61f4
:1001e800d732ff325a61fe3aff3a9a612149d96102
:1001f8001a711d4acc234021d1501100cc228c3bce
:1002080088580342fcd0184ad8234021d150110005
:10021800d822983b88580342fcd0134a86235b00b7
:100228004021d15011001a00cc3b88580342fcd021
:100238000d4a88235b004021d15011001a00d03ba1
:1002480088580342fcd0084afc234021d1501100b1
:10025800fc22bc3b88580342fcd000f00df810bdce
:100268002060800000100040001c004006010100d2
:0802780000080040128028007c
:020000040000fa
:100280001a4b01221a601a4a136902218b43136127
:1002900011000422cb681a42fcd0154b154a1a6192
:1002a00019000422cb681a42fcd0134a13780221a9
:1002b0008b431370110002228b681a42fcd00e4b44
:1002c00084221a701900803a8b681a42fcd00a4bbb
:1002d00099225a70913a9a701a7802210a431a7038
:1002e000190002228b681a42fcd07047004080003f
:0c02f0000018004006001500002000402f
:020000040000fa
:1002fc00500000201c0000000000000074000020d2
:10030c000800000000000000000000205000000069
:10031c000000000080000020200000000100000010
:10032c0001000000030000000000000000000000bd
:10033c000000000000000000000000006c00002025
:10034c006c00002008000000000000007c00002071
:10035c00040000000000000000000000000000008d
:020000040000fa
:10036c0000230e4a10b513600d4a13600d4a13603a
:10037c000d4a13600d4a13600d4a53621361013329
:10038c00936000f0bcf800f0c8f80a4c0a4b9c4291
:10039c0000d310bd08cc9847f8e7c0467c0000207d
:1003ac000c000020080000200000002004000020a9
:0c03bc00100000209801000098010000d3
:020000040000fa
:1003c8000d4b002b00d098470c4b002b00d09847c2
:1003d80000f044f80a4bff2293430a4a93600a4b01
:1003e80098470a4b002b00d09847094b002b00d0a8
:1003f800984700f08ef8fee70000000000000000bb
:100408000000000000ed00e06d03000000000000a7
:0404180000000000e0
:020000040000fa
:10041c0010b5064c2378002b07d1054b002b02d0ce
:10042c00044800e000bf0123237010bd50000020e1
:10043c000000000000000000044b10b5002b03d09e
:10044c000349044800e000bf10bdc0460000000096
:08045c00540000200000000024
:020000040000fa
:1004640010b50a480168002903d14368002b00d164
:1004740010bd04008368064a9bb20c349b009b5851
:1004840042682000984780002018ebe7fc02000037
:04049400d004000090
:020000040000fa
:10049800002310b5934206d103201840421e904114
:0e04a8009b08c01810bdc45ccc540133f2e7b1
:020000040000fa
:0204b600fee75f
:020000040000fa
:1004b800044b1b68002b03d0024a1368013b1360ee
:0804c8007047c04674000020db
:020000040000fa
:1004d000f9040000990400003d0500003d050000fe
:0404e0003d050000d6
:020000040000fa
:1004e40010b500f025f8024b1860586010bdc046e6
:0404f4006c00002078
:020000040000fa
:1004f8008a18914201d10020704700230b70013106
:02050800f7e713
:020000040000fa
:10050a0010b5fff7eaff00f016f800f014f810bd76
:020000040000fa
:0c051a0010b500f004f8fff73afefee711
:020000040000fa
:0205260070471c
:020000040000fa
:0c052800014b84225a60704700400041e3
:020000040000fa
:08053400004870478000002020
:020000040000fa
:04053c0000207047e4
:020000040000fa
:02054000704702
:00000001FF
